{"contracts/SocialWeb3.sol":{"SocialWeb3":{"abi":[{"inputs":[{"internalType":"string","name":"baseURI","type":"string"}],"stateMutability":"nonpayable","type":"constructor"},{"anonymous":false,"inputs":[{"indexed":true,"internalType":"address","name":"owner","type":"address"},{"indexed":true,"internalType":"address","name":"approved","type":"address"},{"indexed":true,"internalType":"uint256","name":"tokenId","type":"uint256"}],"name":"Approval","type":"event"},{"anonymous":false,"inputs":[{"indexed":true,"internalType":"address","name":"owner","type":"address"},{"indexed":true,"internalType":"address","name":"operator","type":"address"},{"indexed":false,"internalType":"bool","name":"approved","type":"bool"}],"name":"ApprovalForAll","type":"event"},{"anonymous":false,"inputs":[{"components":[{"internalType":"uint256","name":"postId","type":"uint256"},{"internalType":"string","name":"handle","type":"string"},{"internalType":"string","name":"content","type":"string"},{"internalType":"uint256","name":"timestamp","type":"uint256"}],"indexed":false,"internalType":"struct SocialWeb3.Post","name":"post","type":"tuple"}],"name":"CreatePost","type":"event"},{"anonymous":false,"inputs":[{"components":[{"internalType":"address","name":"owner","type":"address"},{"internalType":"string","name":"handle","type":"string"},{"internalType":"string","name":"name","type":"string"},{"internalType":"string","name":"imageURI","type":"string"},{"internalType":"string","name":"bio","type":"string"}],"indexed":false,"internalType":"struct Profile.ProfileNFTData","name":"profileNFTData","type":"tuple"}],"name":"CreateProfileNFT","type":"event"},{"anonymous":false,"inputs":[{"indexed":true,"internalType":"address","name":"previousOwner","type":"address"},{"indexed":true,"internalType":"address","name":"newOwner","type":"address"}],"name":"OwnershipTransferred","type":"event"},{"anonymous":false,"inputs":[{"indexed":true,"internalType":"address","name":"from","type":"address"},{"indexed":true,"internalType":"address","name":"to","type":"address"},{"indexed":true,"internalType":"uint256","name":"tokenId","type":"uint256"}],"name":"Transfer","type":"event"},{"anonymous":false,"inputs":[{"indexed":false,"internalType":"uint256","name":"profileId","type":"uint256"},{"components":[{"internalType":"address","name":"owner","type":"address"},{"internalType":"string","name":"handle","type":"string"},{"internalType":"string","name":"name","type":"string"},{"internalType":"string","name":"imageURI","type":"string"},{"internalType":"string","name":"bio","type":"string"}],"indexed":false,"internalType":"struct Profile.ProfileNFTData","name":"profileData","type":"tuple"}],"name":"UpdateProfile","type":"event"},{"stateMutability":"payable","type":"fallback"},{"inputs":[],"name":"_paused","outputs":[{"internalType":"bool","name":"","type":"bool"}],"stateMutability":"view","type":"function"},{"inputs":[],"name":"_price","outputs":[{"internalType":"uint256","name":"","type":"uint256"}],"stateMutability":"view","type":"function"},{"inputs":[{"internalType":"address","name":"to","type":"address"},{"internalType":"uint256","name":"tokenId","type":"uint256"}],"name":"approve","outputs":[],"stateMutability":"nonpayable","type":"function"},{"inputs":[{"internalType":"address","name":"owner","type":"address"}],"name":"balanceOf","outputs":[{"internalType":"uint256","name":"","type":"uint256"}],"stateMutability":"view","type":"function"},{"inputs":[{"internalType":"string","name":"_handle","type":"string"},{"internalType":"string","name":"_content","type":"string"}],"name":"createPost","outputs":[],"stateMutability":"nonpayable","type":"function"},{"inputs":[{"components":[{"internalType":"address","name":"owner","type":"address"},{"internalType":"string","name":"handle","type":"string"},{"internalType":"string","name":"name","type":"string"},{"internalType":"string","name":"imageURI","type":"string"},{"internalType":"string","name":"bio","type":"string"}],"internalType":"struct Profile.ProfileNFTData","name":"_profileNFTData","type":"tuple"}],"name":"createProfileNFT","outputs":[],"stateMutability":"payable","type":"function"},{"inputs":[],"name":"getAllProfileNFTData","outputs":[{"components":[{"internalType":"address","name":"owner","type":"address"},{"internalType":"string","name":"handle","type":"string"},{"internalType":"string","name":"name","type":"string"},{"internalType":"string","name":"imageURI","type":"string"},{"internalType":"string","name":"bio","type":"string"}],"internalType":"struct Profile.ProfileNFTData[]","name":"","type":"tuple[]"}],"stateMutability":"view","type":"function"},{"inputs":[{"internalType":"uint256","name":"tokenId","type":"uint256"}],"name":"getApproved","outputs":[{"internalType":"address","name":"","type":"address"}],"stateMutability":"view","type":"function"},{"inputs":[{"internalType":"uint256","name":"_postId","type":"uint256"}],"name":"getPost","outputs":[{"components":[{"internalType":"uint256","name":"postId","type":"uint256"},{"internalType":"string","name":"handle","type":"string"},{"internalType":"string","name":"content","type":"string"},{"internalType":"uint256","name":"timestamp","type":"uint256"}],"internalType":"struct SocialWeb3.Post","name":"","type":"tuple"}],"stateMutability":"view","type":"function"},{"inputs":[{"internalType":"uint256","name":"_number","type":"uint256"}],"name":"getPostWithNumber","outputs":[{"components":[{"internalType":"uint256","name":"postId","type":"uint256"},{"internalType":"string","name":"handle","type":"string"},{"internalType":"string","name":"content","type":"string"},{"internalType":"uint256","name":"timestamp","type":"uint256"}],"internalType":"struct SocialWeb3.Post[]","name":"","type":"tuple[]"}],"stateMutability":"view","type":"function"},{"inputs":[{"internalType":"uint256","name":"_profileId","type":"uint256"}],"name":"getProfileNFTData","outputs":[{"components":[{"internalType":"address","name":"owner","type":"address"},{"internalType":"string","name":"handle","type":"string"},{"internalType":"string","name":"name","type":"string"},{"internalType":"string","name":"imageURI","type":"string"},{"internalType":"string","name":"bio","type":"string"}],"internalType":"struct Profile.ProfileNFTData","name":"","type":"tuple"}],"stateMutability":"view","type":"function"},{"inputs":[{"internalType":"string","name":"_handle","type":"string"}],"name":"getProfilePosts","outputs":[{"components":[{"internalType":"uint256","name":"postId","type":"uint256"},{"internalType":"string","name":"handle","type":"string"},{"internalType":"string","name":"content","type":"string"},{"internalType":"uint256","name":"timestamp","type":"uint256"}],"internalType":"struct SocialWeb3.Post[]","name":"","type":"tuple[]"}],"stateMutability":"view","type":"function"},{"inputs":[{"internalType":"address","name":"_owner","type":"address"}],"name":"getUserHandles","outputs":[{"internalType":"string[]","name":"","type":"string[]"}],"stateMutability":"view","type":"function"},{"inputs":[{"internalType":"address","name":"_user","type":"address"}],"name":"getUserProfiles","outputs":[{"internalType":"uint256[]","name":"","type":"uint256[]"}],"stateMutability":"view","type":"function"},{"inputs":[{"internalType":"address","name":"owner","type":"address"},{"internalType":"address","name":"operator","type":"address"}],"name":"isApprovedForAll","outputs":[{"internalType":"bool","name":"","type":"bool"}],"stateMutability":"view","type":"function"},{"inputs":[],"name":"name","outputs":[{"internalType":"string","name":"","type":"string"}],"stateMutability":"view","type":"function"},{"inputs":[],"name":"owner","outputs":[{"internalType":"address","name":"","type":"address"}],"stateMutability":"view","type":"function"},{"inputs":[{"internalType":"uint256","name":"tokenId","type":"uint256"}],"name":"ownerOf","outputs":[{"internalType":"address","name":"","type":"address"}],"stateMutability":"view","type":"function"},{"inputs":[],"name":"postId","outputs":[{"internalType":"uint256","name":"","type":"uint256"}],"stateMutability":"view","type":"function"},{"inputs":[],"name":"profileId","outputs":[{"internalType":"uint256","name":"","type":"uint256"}],"stateMutability":"view","type":"function"},{"inputs":[],"name":"renounceOwnership","outputs":[],"stateMutability":"nonpayable","type":"function"},{"inputs":[{"internalType":"address","name":"from","type":"address"},{"internalType":"address","name":"to","type":"address"},{"internalType":"uint256","name":"tokenId","type":"uint256"}],"name":"safeTransferFrom","outputs":[],"stateMutability":"nonpayable","type":"function"},{"inputs":[{"internalType":"address","name":"from","type":"address"},{"internalType":"address","name":"to","type":"address"},{"internalType":"uint256","name":"tokenId","type":"uint256"},{"internalType":"bytes","name":"data","type":"bytes"}],"name":"safeTransferFrom","outputs":[],"stateMutability":"nonpayable","type":"function"},{"inputs":[{"internalType":"address","name":"operator","type":"address"},{"internalType":"bool","name":"approved","type":"bool"}],"name":"setApprovalForAll","outputs":[],"stateMutability":"nonpayable","type":"function"},{"inputs":[{"internalType":"bool","name":"val","type":"bool"}],"name":"setPaused","outputs":[],"stateMutability":"nonpayable","type":"function"},{"inputs":[{"internalType":"bytes4","name":"interfaceId","type":"bytes4"}],"name":"supportsInterface","outputs":[{"internalType":"bool","name":"","type":"bool"}],"stateMutability":"view","type":"function"},{"inputs":[],"name":"symbol","outputs":[{"internalType":"string","name":"","type":"string"}],"stateMutability":"view","type":"function"},{"inputs":[{"internalType":"uint256","name":"index","type":"uint256"}],"name":"tokenByIndex","outputs":[{"internalType":"uint256","name":"","type":"uint256"}],"stateMutability":"view","type":"function"},{"inputs":[{"internalType":"address","name":"owner","type":"address"},{"internalType":"uint256","name":"index","type":"uint256"}],"name":"tokenOfOwnerByIndex","outputs":[{"internalType":"uint256","name":"","type":"uint256"}],"stateMutability":"view","type":"function"},{"inputs":[{"internalType":"uint256","name":"tokenId","type":"uint256"}],"name":"tokenURI","outputs":[{"internalType":"string","name":"","type":"string"}],"stateMutability":"view","type":"function"},{"inputs":[],"name":"totalSupply","outputs":[{"internalType":"uint256","name":"","type":"uint256"}],"stateMutability":"view","type":"function"},{"inputs":[{"internalType":"address","name":"from","type":"address"},{"internalType":"address","name":"to","type":"address"},{"internalType":"uint256","name":"tokenId","type":"uint256"}],"name":"transferFrom","outputs":[],"stateMutability":"nonpayable","type":"function"},{"inputs":[{"internalType":"address","name":"newOwner","type":"address"}],"name":"transferOwnership","outputs":[],"stateMutability":"nonpayable","type":"function"},{"inputs":[{"internalType":"uint256","name":"_profileId","type":"uint256"},{"components":[{"internalType":"address","name":"owner","type":"address"},{"internalType":"string","name":"handle","type":"string"},{"internalType":"string","name":"name","type":"string"},{"internalType":"string","name":"imageURI","type":"string"},{"internalType":"string","name":"bio","type":"string"}],"internalType":"struct Profile.ProfileNFTData","name":"_newProfileData","type":"tuple"}],"name":"updateProfile","outputs":[],"stateMutability":"nonpayable","type":"function"},{"inputs":[],"name":"withdraw","outputs":[],"stateMutability":"nonpayable","type":"function"},{"stateMutability":"payable","type":"receive"}],"evm":{"bytecode":{"linkReferences":{},"object":"6080604052662386f26fc10000600c553480156200001c57600080fd5b506040516200671d3803806200671d83398181016040528101906200004291906200036e565b806040518060400160405280600a81526020017f536f6369616c57656233000000000000000000000000000000000000000000008152506040518060400160405280600381526020017f5357330000000000000000000000000000000000000000000000000000000000815250620000cf620000c36200010f60201b60201c565b6200011760201b60201c565b8160019081620000e091906200060a565b508060029081620000f291906200060a565b50505080600b90816200010691906200060a565b505050620006f1565b600033905090565b60008060009054906101000a900473ffffffffffffffffffffffffffffffffffffffff169050816000806101000a81548173ffffffffffffffffffffffffffffffffffffffff021916908373ffffffffffffffffffffffffffffffffffffffff1602179055508173ffffffffffffffffffffffffffffffffffffffff168173ffffffffffffffffffffffffffffffffffffffff167f8be0079c531659141344cd1fd0a4f28419497f9722a3daafe3b4186f6b6457e060405160405180910390a35050565b6000604051905090565b600080fd5b600080fd5b600080fd5b600080fd5b6000601f19601f8301169050919050565b7f4e487b7100000000000000000000000000000000000000000000000000000000600052604160045260246000fd5b6200024482620001f9565b810181811067ffffffffffffffff821117156200026657620002656200020a565b5b80604052505050565b60006200027b620001db565b905062000289828262000239565b919050565b600067ffffffffffffffff821115620002ac57620002ab6200020a565b5b620002b782620001f9565b9050602081019050919050565b60005b83811015620002e4578082015181840152602081019050620002c7565b60008484015250505050565b60006200030762000301846200028e565b6200026f565b905082815260208101848484011115620003265762000325620001f4565b5b62000333848285620002c4565b509392505050565b600082601f830112620003535762000352620001ef565b5b815162000365848260208601620002f0565b91505092915050565b600060208284031215620003875762000386620001e5565b5b600082015167ffffffffffffffff811115620003a857620003a7620001ea565b5b620003b6848285016200033b565b91505092915050565b600081519050919050565b7f4e487b7100000000000000000000000000000000000000000000000000000000600052602260045260246000fd5b600060028204905060018216806200041257607f821691505b602082108103620004285762000427620003ca565b5b50919050565b60008190508160005260206000209050919050565b60006020601f8301049050919050565b600082821b905092915050565b600060088302620004927fffffffffffffffffffffffffffffffffffffffffffffffffffffffffffffffff8262000453565b6200049e868362000453565b95508019841693508086168417925050509392505050565b6000819050919050565b6000819050919050565b6000620004eb620004e5620004df84620004b6565b620004c0565b620004b6565b9050919050565b6000819050919050565b6200050783620004ca565b6200051f6200051682620004f2565b84845462000460565b825550505050565b600090565b6200053662000527565b62000543818484620004fc565b505050565b5b818110156200056b576200055f6000826200052c565b60018101905062000549565b5050565b601f821115620005ba5762000584816200042e565b6200058f8462000443565b810160208510156200059f578190505b620005b7620005ae8562000443565b83018262000548565b50505b505050565b600082821c905092915050565b6000620005df60001984600802620005bf565b1980831691505092915050565b6000620005fa8383620005cc565b9150826002028217905092915050565b6200061582620003bf565b67ffffffffffffffff8111156200063157620006306200020a565b5b6200063d8254620003f9565b6200064a8282856200056f565b600060209050601f8311600181146200068257600084156200066d578287015190505b620006798582620005ec565b865550620006e9565b601f19841662000692866200042e565b60005b82811015620006bc5784890151825560018201915060208501945060208101905062000695565b86831015620006dc5784890151620006d8601f891682620005cc565b8355505b6001600288020188555050505b505050505050565b61601c80620007016000396000f3fe6080604052600436106102085760003560e01c806354ebb9991161011857806395d89b41116100a0578063b88d4fde1161006f578063b88d4fde146107bd578063c87b56dd146107e6578063e563f77814610823578063e985e9c51461083f578063f2fde38b1461087c5761020f565b806395d89b41146107015780639b85b1f11461072c578063a22cb46514610769578063ac8b628e146107925761020f565b80636352211e116100e75780636352211e1461060857806370a0823114610645578063715018a61461068257806380985a87146106995780638da5cb5b146106d65761020f565b806354ebb999146105265780635cafa539146105635780635dd4dff4146105a057806360a0ecda146105dd5761020f565b8063235b6ea11161019b578063392338f51161016a578063392338f5146104435780633ccfd60b1461046c57806340731c241461048357806342842e0e146104c05780634f6ccce7146104e95761020f565b8063235b6ea11461038957806323b872dd146103b45780632d6d852f146103dd5780632f745c59146104065761020f565b8063095ea7b3116101d7578063095ea7b3146102e157806316c38b3c1461030a57806316c61ccc1461033357806318160ddd1461035e5761020f565b806301ffc9a71461021157806306fdde031461024e578063081812fc1461027957806308386eba146102b65761020f565b3661020f57005b005b34801561021d57600080fd5b5061023860048036038101906102339190613aef565b6108a5565b6040516102459190613b37565b60405180910390f35b34801561025a57600080fd5b5061026361091f565b6040516102709190613be2565b60405180910390f35b34801561028557600080fd5b506102a0600480360381019061029b9190613c3a565b6109b1565b6040516102ad9190613ca8565b60405180910390f35b3480156102c257600080fd5b506102cb6109f7565b6040516102d89190613cd2565b60405180910390f35b3480156102ed57600080fd5b5061030860048036038101906103039190613d19565b6109fd565b005b34801561031657600080fd5b50610331600480360381019061032c9190613d85565b610b14565b005b34801561033f57600080fd5b50610348610b39565b6040516103559190613b37565b60405180910390f35b34801561036a57600080fd5b50610373610b4c565b6040516103809190613cd2565b60405180910390f35b34801561039557600080fd5b5061039e610b59565b6040516103ab9190613cd2565b60405180910390f35b3480156103c057600080fd5b506103db60048036038101906103d69190613db2565b610b5f565b005b3480156103e957600080fd5b5061040460048036038101906103ff9190613e29565b610bbf565b005b34801561041257600080fd5b5061042d60048036038101906104289190613d19565b610c27565b60405161043a9190613cd2565b60405180910390f35b34801561044f57600080fd5b5061046a60048036038101906104659190613eea565b610ccc565b005b34801561047857600080fd5b50610481610ef2565b005b34801561048f57600080fd5b506104aa60048036038101906104a59190613c3a565b610fbc565b6040516104b7919061402e565b60405180910390f35b3480156104cc57600080fd5b506104e760048036038101906104e29190613db2565b611121565b005b3480156104f557600080fd5b50610510600480360381019061050b9190613c3a565b611141565b60405161051d9190613cd2565b60405180910390f35b34801561053257600080fd5b5061054d60048036038101906105489190613c3a565b6111b2565b60405161055a919061417c565b60405180910390f35b34801561056f57600080fd5b5061058a6004803603810190610585919061419e565b6113c4565b604051610597919061417c565b60405180910390f35b3480156105ac57600080fd5b506105c760048036038101906105c291906141eb565b611620565b6040516105d491906142c7565b60405180910390f35b3480156105e957600080fd5b506105f26116b7565b6040516105ff9190613cd2565b60405180910390f35b34801561061457600080fd5b5061062f600480360381019061062a9190613c3a565b6116bd565b60405161063c9190613ca8565b60405180910390f35b34801561065157600080fd5b5061066c600480360381019061066791906141eb565b611743565b6040516106799190613cd2565b60405180910390f35b34801561068e57600080fd5b506106976117fa565b005b3480156106a557600080fd5b506106c060048036038101906106bb91906141eb565b61180e565b6040516106cd91906143ab565b60405180910390f35b3480156106e257600080fd5b506106eb611926565b6040516106f89190613ca8565b60405180910390f35b34801561070d57600080fd5b5061071661194f565b6040516107239190613be2565b60405180910390f35b34801561073857600080fd5b50610753600480360381019061074e9190613c3a565b6119e1565b6040516107609190614467565b60405180910390f35b34801561077557600080fd5b50610790600480360381019061078b9190614489565b611cac565b005b34801561079e57600080fd5b506107a7611cc2565b6040516107b49190614616565b60405180910390f35b3480156107c957600080fd5b506107e460048036038101906107df9190614768565b612023565b005b3480156107f257600080fd5b5061080d60048036038101906108089190613c3a565b612085565b60405161081a9190613be2565b60405180910390f35b61083d600480360381019061083891906147eb565b61212c565b005b34801561084b57600080fd5b5061086660048036038101906108619190614834565b61242e565b6040516108739190613b37565b60405180910390f35b34801561088857600080fd5b506108a3600480360381019061089e91906141eb565b6124c2565b005b60007f780e9d63000000000000000000000000000000000000000000000000000000007bffffffffffffffffffffffffffffffffffffffffffffffffffffffff1916827bffffffffffffffffffffffffffffffffffffffffffffffffffffffff19161480610918575061091782612545565b5b9050919050565b60606001805461092e906148a3565b80601f016020809104026020016040519081016040528092919081815260200182805461095a906148a3565b80156109a75780601f1061097c576101008083540402835291602001916109a7565b820191906000526020600020905b81548152906001019060200180831161098a57829003601f168201915b5050505050905090565b60006109bc82612627565b6005600083815260200190815260200160002060009054906101000a900473ffffffffffffffffffffffffffffffffffffffff169050919050565b600d5481565b6000610a08826116bd565b90508073ffffffffffffffffffffffffffffffffffffffff168373ffffffffffffffffffffffffffffffffffffffff1603610a78576040517f08c379a0000000000000000000000000000000000000000000000000000000008152600401610a6f90614946565b60405180910390fd5b8073ffffffffffffffffffffffffffffffffffffffff16610a97612672565b73ffffffffffffffffffffffffffffffffffffffff161480610ac65750610ac581610ac0612672565b61242e565b5b610b05576040517f08c379a0000000000000000000000000000000000000000000000000000000008152600401610afc906149d8565b60405180910390fd5b610b0f838361267a565b505050565b610b1c612733565b80601360006101000a81548160ff02191690831515021790555050565b601360009054906101000a900460ff1681565b6000600980549050905090565b600c5481565b610b70610b6a612672565b826127b1565b610baf576040517f08c379a0000000000000000000000000000000000000000000000000000000008152600401610ba690614a6a565b60405180910390fd5b610bba838383612846565b505050565b610bc7612733565b80601060008481526020019081526020016000208181610be79190614f08565b9050507f2af2668216c13797f987f500352b5dcccb7f93d074b60a9ea347afb160cfed9e8282604051610c1b929190615087565b60405180910390a15050565b6000610c3283611743565b8210610c73576040517f08c379a0000000000000000000000000000000000000000000000000000000008152600401610c6a90615129565b60405180910390fd5b600760008473ffffffffffffffffffffffffffffffffffffffff1673ffffffffffffffffffffffffffffffffffffffff168152602001908152602001600020600083815260200190815260200160002054905092915050565b838360118282604051610ce0929190615179565b908152602001604051809103902060009054906101000a900460ff16610d3b576040517f08c379a0000000000000000000000000000000000000000000000000000000008152600401610d32906151de565b60405180910390fd5b60126000815480929190610d4e9061522d565b91905055506040518060800160405280601254815260200187878080601f016020809104026020016040519081016040528093929190818152602001838380828437600081840152601f19601f82011690508083019250505050505050815260200185858080601f016020809104026020016040519081016040528093929190818152602001838380828437600081840152601f19601f82011690508083019250505050505050815260200142815250601460006012548152602001908152602001600020600082015181600001556020820151816001019081610e329190615275565b506040820151816002019081610e489190615275565b506060820151816003015590505060158686604051610e68929190615179565b908152602001604051809103902060125490806001815401808255809150506001900390600052602060002001600090919091909150557f104af12493094a08a9af15004754171fd42e502f3cffec40976bb4e6ecd1ae8a601460006012548152602001908152602001600020604051610ee2919061547c565b60405180910390a1505050505050565b610efa612733565b6000610f04611926565b9050600047905060008273ffffffffffffffffffffffffffffffffffffffff1682604051610f31906154cf565b60006040518083038185875af1925050503d8060008114610f6e576040519150601f19603f3d011682016040523d82523d6000602084013e610f73565b606091505b5050905080610fb7576040517f08c379a0000000000000000000000000000000000000000000000000000000008152600401610fae90615530565b60405180910390fd5b505050565b610fc4613a16565b6014600083815260200190815260200160002060405180608001604052908160008201548152602001600182018054610ffc906148a3565b80601f0160208091040260200160405190810160405280929190818152602001828054611028906148a3565b80156110755780601f1061104a57610100808354040283529160200191611075565b820191906000526020600020905b81548152906001019060200180831161105857829003601f168201915b5050505050815260200160028201805461108e906148a3565b80601f01602080910402602001604051908101604052809291908181526020018280546110ba906148a3565b80156111075780601f106110dc57610100808354040283529160200191611107565b820191906000526020600020905b8154815290600101906020018083116110ea57829003601f168201915b505050505081526020016003820154815250509050919050565b61113c83838360405180602001604052806000815250612023565b505050565b600061114b610b4c565b821061118c576040517f08c379a0000000000000000000000000000000000000000000000000000000008152600401611183906155c2565b60405180910390fd5b600982815481106111a05761119f6155e2565b5b90600052602060002001549050919050565b60606000600a67ffffffffffffffff8111156111d1576111d061463d565b5b60405190808252806020026020018201604052801561120a57816020015b6111f7613a16565b8152602001906001900390816111ef5790505b5090506000600190505b600a81116113ba5760146000828661122c9190615611565b81526020019081526020016000206040518060800160405290816000820154815260200160018201805461125f906148a3565b80601f016020809104026020016040519081016040528092919081815260200182805461128b906148a3565b80156112d85780601f106112ad576101008083540402835291602001916112d8565b820191906000526020600020905b8154815290600101906020018083116112bb57829003601f168201915b505050505081526020016002820180546112f1906148a3565b80601f016020809104026020016040519081016040528092919081815260200182805461131d906148a3565b801561136a5780601f1061133f5761010080835404028352916020019161136a565b820191906000526020600020905b81548152906001019060200180831161134d57829003601f168201915b505050505081526020016003820154815250508260018361138b9190615645565b8151811061139c5761139b6155e2565b5b602002602001018190525080806113b29061522d565b915050611214565b5080915050919050565b60606000601584846040516113da929190615179565b908152602001604051809103902080549050905060008167ffffffffffffffff81111561140a5761140961463d565b5b60405190808252806020026020018201604052801561144357816020015b611430613a16565b8152602001906001900390816114285790505b50905060005b82811015611614576014600060158888604051611467929190615179565b90815260200160405180910390208381548110611487576114866155e2565b5b90600052602060002001548152602001908152602001600020604051806080016040529081600082015481526020016001820180546114c5906148a3565b80601f01602080910402602001604051908101604052809291908181526020018280546114f1906148a3565b801561153e5780601f106115135761010080835404028352916020019161153e565b820191906000526020600020905b81548152906001019060200180831161152157829003601f168201915b50505050508152602001600282018054611557906148a3565b80601f0160208091040260200160405190810160405280929190818152602001828054611583906148a3565b80156115d05780601f106115a5576101008083540402835291602001916115d0565b820191906000526020600020905b8154815290600101906020018083116115b357829003601f168201915b505050505081526020016003820154815250508282815181106115f6576115f56155e2565b5b6020026020010181905250808061160c9061522d565b915050611449565b50809250505092915050565b6060600e60008373ffffffffffffffffffffffffffffffffffffffff1673ffffffffffffffffffffffffffffffffffffffff1681526020019081526020016000208054806020026020016040519081016040528092919081815260200182805480156116ab57602002820191906000526020600020905b815481526020019060010190808311611697575b50505050509050919050565b60125481565b6000806116c983612b3f565b9050600073ffffffffffffffffffffffffffffffffffffffff168173ffffffffffffffffffffffffffffffffffffffff160361173a576040517f08c379a0000000000000000000000000000000000000000000000000000000008152600401611731906156c5565b60405180910390fd5b80915050919050565b60008073ffffffffffffffffffffffffffffffffffffffff168273ffffffffffffffffffffffffffffffffffffffff16036117b3576040517f08c379a00000000000000000000000000000000000000000000000000000000081526004016117aa90615757565b60405180910390fd5b600460008373ffffffffffffffffffffffffffffffffffffffff1673ffffffffffffffffffffffffffffffffffffffff168152602001908152602001600020549050919050565b611802612733565b61180c6000612b7c565b565b6060600f60008373ffffffffffffffffffffffffffffffffffffffff1673ffffffffffffffffffffffffffffffffffffffff168152602001908152602001600020805480602002602001604051908101604052809291908181526020016000905b8282101561191b57838290600052602060002001805461188e906148a3565b80601f01602080910402602001604051908101604052809291908181526020018280546118ba906148a3565b80156119075780601f106118dc57610100808354040283529160200191611907565b820191906000526020600020905b8154815290600101906020018083116118ea57829003601f168201915b50505050508152602001906001019061186f565b505050509050919050565b60008060009054906101000a900473ffffffffffffffffffffffffffffffffffffffff16905090565b60606002805461195e906148a3565b80601f016020809104026020016040519081016040528092919081815260200182805461198a906148a3565b80156119d75780601f106119ac576101008083540402835291602001916119d7565b820191906000526020600020905b8154815290600101906020018083116119ba57829003601f168201915b5050505050905090565b6119e9613a3e565b601060008381526020019081526020016000206040518060a00160405290816000820160009054906101000a900473ffffffffffffffffffffffffffffffffffffffff1673ffffffffffffffffffffffffffffffffffffffff1673ffffffffffffffffffffffffffffffffffffffff168152602001600182018054611a6d906148a3565b80601f0160208091040260200160405190810160405280929190818152602001828054611a99906148a3565b8015611ae65780601f10611abb57610100808354040283529160200191611ae6565b820191906000526020600020905b815481529060010190602001808311611ac957829003601f168201915b50505050508152602001600282018054611aff906148a3565b80601f0160208091040260200160405190810160405280929190818152602001828054611b2b906148a3565b8015611b785780601f10611b4d57610100808354040283529160200191611b78565b820191906000526020600020905b815481529060010190602001808311611b5b57829003601f168201915b50505050508152602001600382018054611b91906148a3565b80601f0160208091040260200160405190810160405280929190818152602001828054611bbd906148a3565b8015611c0a5780601f10611bdf57610100808354040283529160200191611c0a565b820191906000526020600020905b815481529060010190602001808311611bed57829003601f168201915b50505050508152602001600482018054611c23906148a3565b80601f0160208091040260200160405190810160405280929190818152602001828054611c4f906148a3565b8015611c9c5780601f10611c7157610100808354040283529160200191611c9c565b820191906000526020600020905b815481529060010190602001808311611c7f57829003601f168201915b5050505050815250509050919050565b611cbe611cb7612672565b8383612c40565b5050565b60606000600d5467ffffffffffffffff811115611ce257611ce161463d565b5b604051908082528060200260200182016040528015611d1b57816020015b611d08613a3e565b815260200190600190039081611d005790505b5090506000600190505b600d54811161201b57601060008281526020019081526020016000206040518060a00160405290816000820160009054906101000a900473ffffffffffffffffffffffffffffffffffffffff1673ffffffffffffffffffffffffffffffffffffffff1673ffffffffffffffffffffffffffffffffffffffff168152602001600182018054611db2906148a3565b80601f0160208091040260200160405190810160405280929190818152602001828054611dde906148a3565b8015611e2b5780601f10611e0057610100808354040283529160200191611e2b565b820191906000526020600020905b815481529060010190602001808311611e0e57829003601f168201915b50505050508152602001600282018054611e44906148a3565b80601f0160208091040260200160405190810160405280929190818152602001828054611e70906148a3565b8015611ebd5780601f10611e9257610100808354040283529160200191611ebd565b820191906000526020600020905b815481529060010190602001808311611ea057829003601f168201915b50505050508152602001600382018054611ed6906148a3565b80601f0160208091040260200160405190810160405280929190818152602001828054611f02906148a3565b8015611f4f5780601f10611f2457610100808354040283529160200191611f4f565b820191906000526020600020905b815481529060010190602001808311611f3257829003601f168201915b50505050508152602001600482018054611f68906148a3565b80601f0160208091040260200160405190810160405280929190818152602001828054611f94906148a3565b8015611fe15780601f10611fb657610100808354040283529160200191611fe1565b820191906000526020600020905b815481529060010190602001808311611fc457829003601f168201915b505050505081525050828281518110611ffd57611ffc6155e2565b5b602002602001018190525080806120139061522d565b915050611d25565b508091505090565b61203461202e612672565b836127b1565b612073576040517f08c379a000000000000000000000000000000000000000000000000000000000815260040161206a90614a6a565b60405180910390fd5b61207f84848484612dac565b50505050565b606061209082612e08565b6120cf576040517f08c379a00000000000000000000000000000000000000000000000000000000081526004016120c6906157e9565b60405180910390fd5b60006120d9612e49565b905060008151116120f95760405180602001604052806000815250612124565b8061210384612edb565b604051602001612114929190615886565b6040516020818303038152906040525b915050919050565b80806020019061213c9190614b6f565b6011828260405161214e929190615179565b908152602001604051809103902060009054906101000a900460ff16156121aa576040517f08c379a00000000000000000000000000000000000000000000000000000000081526004016121a190615901565b60405180910390fd5b8260000160208101906121bd91906141eb565b3373ffffffffffffffffffffffffffffffffffffffff168173ffffffffffffffffffffffffffffffffffffffff161461222b576040517f08c379a00000000000000000000000000000000000000000000000000000000081526004016122229061596d565b60405180910390fd5b600c54341015612270576040517f08c379a0000000000000000000000000000000000000000000000000000000008152600401612267906159d9565b60405180910390fd5b600d60008154809291906122839061522d565b91905055508360106000600d54815260200190815260200160002081816122aa9190614f08565b905050600f60003373ffffffffffffffffffffffffffffffffffffffff1673ffffffffffffffffffffffffffffffffffffffff1681526020019081526020016000208480602001906122fc9190614b6f565b90918060018154018082558091505060019003906000526020600020016000909192909192909192909192509182612335929190614d7f565b506001601185806020019061234a9190614b6f565b604051612358929190615179565b908152602001604051809103902060006101000a81548160ff02191690831515021790555061238933600d54612fa9565b600e60003373ffffffffffffffffffffffffffffffffffffffff1673ffffffffffffffffffffffffffffffffffffffff168152602001908152602001600020600d5490806001815401808255809150506001900390600052602060002001600090919091909150557f68d89ba37b6b8d0b7cb139771c573485dd925fbb3007cfb62cb832bc2a24850a8460405161242091906159f9565b60405180910390a150505050565b6000600660008473ffffffffffffffffffffffffffffffffffffffff1673ffffffffffffffffffffffffffffffffffffffff16815260200190815260200160002060008373ffffffffffffffffffffffffffffffffffffffff1673ffffffffffffffffffffffffffffffffffffffff16815260200190815260200160002060009054906101000a900460ff16905092915050565b6124ca612733565b600073ffffffffffffffffffffffffffffffffffffffff168173ffffffffffffffffffffffffffffffffffffffff1603612539576040517f08c379a000000000000000000000000000000000000000000000000000000000815260040161253090615a8d565b60405180910390fd5b61254281612b7c565b50565b60007f80ac58cd000000000000000000000000000000000000000000000000000000007bffffffffffffffffffffffffffffffffffffffffffffffffffffffff1916827bffffffffffffffffffffffffffffffffffffffffffffffffffffffff1916148061261057507f5b5e139f000000000000000000000000000000000000000000000000000000007bffffffffffffffffffffffffffffffffffffffffffffffffffffffff1916827bffffffffffffffffffffffffffffffffffffffffffffffffffffffff1916145b80612620575061261f82612fc7565b5b9050919050565b61263081612e08565b61266f576040517f08c379a0000000000000000000000000000000000000000000000000000000008152600401612666906156c5565b60405180910390fd5b50565b600033905090565b816005600083815260200190815260200160002060006101000a81548173ffffffffffffffffffffffffffffffffffffffff021916908373ffffffffffffffffffffffffffffffffffffffff160217905550808273ffffffffffffffffffffffffffffffffffffffff166126ed836116bd565b73ffffffffffffffffffffffffffffffffffffffff167f8c5be1e5ebec7d5bd14f71427d1e84f3dd0314c0f7b2291e5b200ac8c7c3b92560405160405180910390a45050565b61273b612672565b73ffffffffffffffffffffffffffffffffffffffff16612759611926565b73ffffffffffffffffffffffffffffffffffffffff16146127af576040517f08c379a00000000000000000000000000000000000000000000000000000000081526004016127a690615af9565b60405180910390fd5b565b6000806127bd836116bd565b90508073ffffffffffffffffffffffffffffffffffffffff168473ffffffffffffffffffffffffffffffffffffffff1614806127ff57506127fe818561242e565b5b8061283d57508373ffffffffffffffffffffffffffffffffffffffff16612825846109b1565b73ffffffffffffffffffffffffffffffffffffffff16145b91505092915050565b8273ffffffffffffffffffffffffffffffffffffffff16612866826116bd565b73ffffffffffffffffffffffffffffffffffffffff16146128bc576040517f08c379a00000000000000000000000000000000000000000000000000000000081526004016128b390615b8b565b60405180910390fd5b600073ffffffffffffffffffffffffffffffffffffffff168273ffffffffffffffffffffffffffffffffffffffff160361292b576040517f08c379a000000000000000000000000000000000000000000000000000000000815260040161292290615c1d565b60405180910390fd5b6129388383836001613031565b8273ffffffffffffffffffffffffffffffffffffffff16612958826116bd565b73ffffffffffffffffffffffffffffffffffffffff16146129ae576040517f08c379a00000000000000000000000000000000000000000000000000000000081526004016129a590615b8b565b60405180910390fd5b6005600082815260200190815260200160002060006101000a81549073ffffffffffffffffffffffffffffffffffffffff02191690556001600460008573ffffffffffffffffffffffffffffffffffffffff1673ffffffffffffffffffffffffffffffffffffffff168152602001908152602001600020600082825403925050819055506001600460008473ffffffffffffffffffffffffffffffffffffffff1673ffffffffffffffffffffffffffffffffffffffff16815260200190815260200160002060008282540192505081905550816003600083815260200190815260200160002060006101000a81548173ffffffffffffffffffffffffffffffffffffffff021916908373ffffffffffffffffffffffffffffffffffffffff160217905550808273ffffffffffffffffffffffffffffffffffffffff168473ffffffffffffffffffffffffffffffffffffffff167fddf252ad1be2c89b69c2b068fc378daa952ba7f163c4a11628f55a4df523b3ef60405160405180910390a4612b3a838383600161318f565b505050565b60006003600083815260200190815260200160002060009054906101000a900473ffffffffffffffffffffffffffffffffffffffff169050919050565b60008060009054906101000a900473ffffffffffffffffffffffffffffffffffffffff169050816000806101000a81548173ffffffffffffffffffffffffffffffffffffffff021916908373ffffffffffffffffffffffffffffffffffffffff1602179055508173ffffffffffffffffffffffffffffffffffffffff168173ffffffffffffffffffffffffffffffffffffffff167f8be0079c531659141344cd1fd0a4f28419497f9722a3daafe3b4186f6b6457e060405160405180910390a35050565b8173ffffffffffffffffffffffffffffffffffffffff168373ffffffffffffffffffffffffffffffffffffffff1603612cae576040517f08c379a0000000000000000000000000000000000000000000000000000000008152600401612ca590615c89565b60405180910390fd5b80600660008573ffffffffffffffffffffffffffffffffffffffff1673ffffffffffffffffffffffffffffffffffffffff16815260200190815260200160002060008473ffffffffffffffffffffffffffffffffffffffff1673ffffffffffffffffffffffffffffffffffffffff16815260200190815260200160002060006101000a81548160ff0219169083151502179055508173ffffffffffffffffffffffffffffffffffffffff168373ffffffffffffffffffffffffffffffffffffffff167f17307eab39ab6107e8899845ad3d59bd9653f200f220920489ca2b5937696c3183604051612d9f9190613b37565b60405180910390a3505050565b612db7848484612846565b612dc384848484613195565b612e02576040517f08c379a0000000000000000000000000000000000000000000000000000000008152600401612df990615d1b565b60405180910390fd5b50505050565b60008073ffffffffffffffffffffffffffffffffffffffff16612e2a83612b3f565b73ffffffffffffffffffffffffffffffffffffffff1614159050919050565b6060600b8054612e58906148a3565b80601f0160208091040260200160405190810160405280929190818152602001828054612e84906148a3565b8015612ed15780601f10612ea657610100808354040283529160200191612ed1565b820191906000526020600020905b815481529060010190602001808311612eb457829003601f168201915b5050505050905090565b606060006001612eea8461331c565b01905060008167ffffffffffffffff811115612f0957612f0861463d565b5b6040519080825280601f01601f191660200182016040528015612f3b5781602001600182028036833780820191505090505b509050600082602001820190505b600115612f9e578080600190039150507f3031323334353637383961626364656600000000000000000000000000000000600a86061a8153600a8581612f9257612f91615d3b565b5b04945060008503612f49575b819350505050919050565b612fc382826040518060200160405280600081525061346f565b5050565b60007f01ffc9a7000000000000000000000000000000000000000000000000000000007bffffffffffffffffffffffffffffffffffffffffffffffffffffffff1916827bffffffffffffffffffffffffffffffffffffffffffffffffffffffff1916149050919050565b61303d848484846134ca565b6001811115613081576040517f08c379a000000000000000000000000000000000000000000000000000000000815260040161307890615ddc565b60405180910390fd5b6000829050600073ffffffffffffffffffffffffffffffffffffffff168573ffffffffffffffffffffffffffffffffffffffff16036130c8576130c3816134d0565b613107565b8373ffffffffffffffffffffffffffffffffffffffff168573ffffffffffffffffffffffffffffffffffffffff1614613106576131058582613519565b5b5b600073ffffffffffffffffffffffffffffffffffffffff168473ffffffffffffffffffffffffffffffffffffffff16036131495761314481613686565b613188565b8473ffffffffffffffffffffffffffffffffffffffff168473ffffffffffffffffffffffffffffffffffffffff1614613187576131868482613757565b5b5b5050505050565b50505050565b60006131b68473ffffffffffffffffffffffffffffffffffffffff166137d6565b1561330f578373ffffffffffffffffffffffffffffffffffffffff1663150b7a026131df612672565b8786866040518563ffffffff1660e01b81526004016132019493929190615e51565b6020604051808303816000875af192505050801561323d57506040513d601f19601f8201168201806040525081019061323a9190615eb2565b60015b6132bf573d806000811461326d576040519150601f19603f3d011682016040523d82523d6000602084013e613272565b606091505b5060008151036132b7576040517f08c379a00000000000000000000000000000000000000000000000000000000081526004016132ae90615d1b565b60405180910390fd5b805181602001fd5b63150b7a0260e01b7bffffffffffffffffffffffffffffffffffffffffffffffffffffffff1916817bffffffffffffffffffffffffffffffffffffffffffffffffffffffff191614915050613314565b600190505b949350505050565b600080600090507a184f03e93ff9f4daa797ed6e38ed64bf6a1f010000000000000000831061337a577a184f03e93ff9f4daa797ed6e38ed64bf6a1f01000000000000000083816133705761336f615d3b565b5b0492506040810190505b6d04ee2d6d415b85acef810000000083106133b7576d04ee2d6d415b85acef810000000083816133ad576133ac615d3b565b5b0492506020810190505b662386f26fc1000083106133e657662386f26fc1000083816133dc576133db615d3b565b5b0492506010810190505b6305f5e100831061340f576305f5e100838161340557613404615d3b565b5b0492506008810190505b612710831061343457612710838161342a57613429615d3b565b5b0492506004810190505b60648310613457576064838161344d5761344c615d3b565b5b0492506002810190505b600a8310613466576001810190505b80915050919050565b61347983836137f9565b6134866000848484613195565b6134c5576040517f08c379a00000000000000000000000000000000000000000000000000000000081526004016134bc90615d1b565b60405180910390fd5b505050565b50505050565b600980549050600a600083815260200190815260200160002081905550600981908060018154018082558091505060019003906000526020600020016000909190919091505550565b6000600161352684611743565b6135309190615645565b9050600060086000848152602001908152602001600020549050818114613615576000600760008673ffffffffffffffffffffffffffffffffffffffff1673ffffffffffffffffffffffffffffffffffffffff168152602001908152602001600020600084815260200190815260200160002054905080600760008773ffffffffffffffffffffffffffffffffffffffff1673ffffffffffffffffffffffffffffffffffffffff168152602001908152602001600020600084815260200190815260200160002081905550816008600083815260200190815260200160002081905550505b6008600084815260200190815260200160002060009055600760008573ffffffffffffffffffffffffffffffffffffffff1673ffffffffffffffffffffffffffffffffffffffff16815260200190815260200160002060008381526020019081526020016000206000905550505050565b6000600160098054905061369a9190615645565b90506000600a60008481526020019081526020016000205490506000600983815481106136ca576136c96155e2565b5b9060005260206000200154905080600983815481106136ec576136eb6155e2565b5b906000526020600020018190555081600a600083815260200190815260200160002081905550600a600085815260200190815260200160002060009055600980548061373b5761373a615edf565b5b6001900381819060005260206000200160009055905550505050565b600061376283611743565b905081600760008573ffffffffffffffffffffffffffffffffffffffff1673ffffffffffffffffffffffffffffffffffffffff168152602001908152602001600020600083815260200190815260200160002081905550806008600084815260200190815260200160002081905550505050565b6000808273ffffffffffffffffffffffffffffffffffffffff163b119050919050565b600073ffffffffffffffffffffffffffffffffffffffff168273ffffffffffffffffffffffffffffffffffffffff1603613868576040517f08c379a000000000000000000000000000000000000000000000000000000000815260040161385f90615f5a565b60405180910390fd5b61387181612e08565b156138b1576040517f08c379a00000000000000000000000000000000000000000000000000000000081526004016138a890615fc6565b60405180910390fd5b6138bf600083836001613031565b6138c881612e08565b15613908576040517f08c379a00000000000000000000000000000000000000000000000000000000081526004016138ff90615fc6565b60405180910390fd5b6001600460008473ffffffffffffffffffffffffffffffffffffffff1673ffffffffffffffffffffffffffffffffffffffff16815260200190815260200160002060008282540192505081905550816003600083815260200190815260200160002060006101000a81548173ffffffffffffffffffffffffffffffffffffffff021916908373ffffffffffffffffffffffffffffffffffffffff160217905550808273ffffffffffffffffffffffffffffffffffffffff16600073ffffffffffffffffffffffffffffffffffffffff167fddf252ad1be2c89b69c2b068fc378daa952ba7f163c4a11628f55a4df523b3ef60405160405180910390a4613a1260008383600161318f565b5050565b6040518060800160405280600081526020016060815260200160608152602001600081525090565b6040518060a00160405280600073ffffffffffffffffffffffffffffffffffffffff168152602001606081526020016060815260200160608152602001606081525090565b6000604051905090565b600080fd5b600080fd5b60007fffffffff0000000000000000000000000000000000000000000000000000000082169050919050565b613acc81613a97565b8114613ad757600080fd5b50565b600081359050613ae981613ac3565b92915050565b600060208284031215613b0557613b04613a8d565b5b6000613b1384828501613ada565b91505092915050565b60008115159050919050565b613b3181613b1c565b82525050565b6000602082019050613b4c6000830184613b28565b92915050565b600081519050919050565b600082825260208201905092915050565b60005b83811015613b8c578082015181840152602081019050613b71565b60008484015250505050565b6000601f19601f8301169050919050565b6000613bb482613b52565b613bbe8185613b5d565b9350613bce818560208601613b6e565b613bd781613b98565b840191505092915050565b60006020820190508181036000830152613bfc8184613ba9565b905092915050565b6000819050919050565b613c1781613c04565b8114613c2257600080fd5b50565b600081359050613c3481613c0e565b92915050565b600060208284031215613c5057613c4f613a8d565b5b6000613c5e84828501613c25565b91505092915050565b600073ffffffffffffffffffffffffffffffffffffffff82169050919050565b6000613c9282613c67565b9050919050565b613ca281613c87565b82525050565b6000602082019050613cbd6000830184613c99565b92915050565b613ccc81613c04565b82525050565b6000602082019050613ce76000830184613cc3565b92915050565b613cf681613c87565b8114613d0157600080fd5b50565b600081359050613d1381613ced565b92915050565b60008060408385031215613d3057613d2f613a8d565b5b6000613d3e85828601613d04565b9250506020613d4f85828601613c25565b9150509250929050565b613d6281613b1c565b8114613d6d57600080fd5b50565b600081359050613d7f81613d59565b92915050565b600060208284031215613d9b57613d9a613a8d565b5b6000613da984828501613d70565b91505092915050565b600080600060608486031215613dcb57613dca613a8d565b5b6000613dd986828701613d04565b9350506020613dea86828701613d04565b9250506040613dfb86828701613c25565b9150509250925092565b600080fd5b600060a08284031215613e2057613e1f613e05565b5b81905092915050565b60008060408385031215613e4057613e3f613a8d565b5b6000613e4e85828601613c25565b925050602083013567ffffffffffffffff811115613e6f57613e6e613a92565b5b613e7b85828601613e0a565b9150509250929050565b600080fd5b600080fd5b600080fd5b60008083601f840112613eaa57613ea9613e85565b5b8235905067ffffffffffffffff811115613ec757613ec6613e8a565b5b602083019150836001820283011115613ee357613ee2613e8f565b5b9250929050565b60008060008060408587031215613f0457613f03613a8d565b5b600085013567ffffffffffffffff811115613f2257613f21613a92565b5b613f2e87828801613e94565b9450945050602085013567ffffffffffffffff811115613f5157613f50613a92565b5b613f5d87828801613e94565b925092505092959194509250565b613f7481613c04565b82525050565b600082825260208201905092915050565b6000613f9682613b52565b613fa08185613f7a565b9350613fb0818560208601613b6e565b613fb981613b98565b840191505092915050565b6000608083016000830151613fdc6000860182613f6b565b5060208301518482036020860152613ff48282613f8b565b9150506040830151848203604086015261400e8282613f8b565b91505060608301516140236060860182613f6b565b508091505092915050565b600060208201905081810360008301526140488184613fc4565b905092915050565b600081519050919050565b600082825260208201905092915050565b6000819050602082019050919050565b60006080830160008301516140946000860182613f6b565b50602083015184820360208601526140ac8282613f8b565b915050604083015184820360408601526140c68282613f8b565b91505060608301516140db6060860182613f6b565b508091505092915050565b60006140f2838361407c565b905092915050565b6000602082019050919050565b600061411282614050565b61411c818561405b565b93508360208202850161412e8561406c565b8060005b8581101561416a578484038952815161414b85826140e6565b9450614156836140fa565b925060208a01995050600181019050614132565b50829750879550505050505092915050565b600060208201905081810360008301526141968184614107565b905092915050565b600080602083850312156141b5576141b4613a8d565b5b600083013567ffffffffffffffff8111156141d3576141d2613a92565b5b6141df85828601613e94565b92509250509250929050565b60006020828403121561420157614200613a8d565b5b600061420f84828501613d04565b91505092915050565b600081519050919050565b600082825260208201905092915050565b6000819050602082019050919050565b60006142508383613f6b565b60208301905092915050565b6000602082019050919050565b600061427482614218565b61427e8185614223565b935061428983614234565b8060005b838110156142ba5781516142a18882614244565b97506142ac8361425c565b92505060018101905061428d565b5085935050505092915050565b600060208201905081810360008301526142e18184614269565b905092915050565b600081519050919050565b600082825260208201905092915050565b6000819050602082019050919050565b60006143218383613f8b565b905092915050565b6000602082019050919050565b6000614341826142e9565b61434b81856142f4565b93508360208202850161435d85614305565b8060005b85811015614399578484038952815161437a8582614315565b945061438583614329565b925060208a01995050600181019050614361565b50829750879550505050505092915050565b600060208201905081810360008301526143c58184614336565b905092915050565b6143d681613c87565b82525050565b600060a0830160008301516143f460008601826143cd565b506020830151848203602086015261440c8282613f8b565b915050604083015184820360408601526144268282613f8b565b915050606083015184820360608601526144408282613f8b565b9150506080830151848203608086015261445a8282613f8b565b9150508091505092915050565b6000602082019050818103600083015261448181846143dc565b905092915050565b600080604083850312156144a05761449f613a8d565b5b60006144ae85828601613d04565b92505060206144bf85828601613d70565b9150509250929050565b600081519050919050565b600082825260208201905092915050565b6000819050602082019050919050565b600060a08301600083015161450d60008601826143cd565b50602083015184820360208601526145258282613f8b565b9150506040830151848203604086015261453f8282613f8b565b915050606083015184820360608601526145598282613f8b565b915050608083015184820360808601526145738282613f8b565b9150508091505092915050565b600061458c83836144f5565b905092915050565b6000602082019050919050565b60006145ac826144c9565b6145b681856144d4565b9350836020820285016145c8856144e5565b8060005b8581101561460457848403895281516145e58582614580565b94506145f083614594565b925060208a019950506001810190506145cc565b50829750879550505050505092915050565b6000602082019050818103600083015261463081846145a1565b905092915050565b600080fd5b7f4e487b7100000000000000000000000000000000000000000000000000000000600052604160045260246000fd5b61467582613b98565b810181811067ffffffffffffffff821117156146945761469361463d565b5b80604052505050565b60006146a7613a83565b90506146b3828261466c565b919050565b600067ffffffffffffffff8211156146d3576146d261463d565b5b6146dc82613b98565b9050602081019050919050565b82818337600083830152505050565b600061470b614706846146b8565b61469d565b90508281526020810184848401111561472757614726614638565b5b6147328482856146e9565b509392505050565b600082601f83011261474f5761474e613e85565b5b813561475f8482602086016146f8565b91505092915050565b6000806000806080858703121561478257614781613a8d565b5b600061479087828801613d04565b94505060206147a187828801613d04565b93505060406147b287828801613c25565b925050606085013567ffffffffffffffff8111156147d3576147d2613a92565b5b6147df8782880161473a565b91505092959194509250565b60006020828403121561480157614800613a8d565b5b600082013567ffffffffffffffff81111561481f5761481e613a92565b5b61482b84828501613e0a565b91505092915050565b6000806040838503121561484b5761484a613a8d565b5b600061485985828601613d04565b925050602061486a85828601613d04565b9150509250929050565b7f4e487b7100000000000000000000000000000000000000000000000000000000600052602260045260246000fd5b600060028204905060018216806148bb57607f821691505b6020821081036148ce576148cd614874565b5b50919050565b7f4552433732313a20617070726f76616c20746f2063757272656e74206f776e6560008201527f7200000000000000000000000000000000000000000000000000000000000000602082015250565b6000614930602183613b5d565b915061493b826148d4565b604082019050919050565b6000602082019050818103600083015261495f81614923565b9050919050565b7f4552433732313a20617070726f76652063616c6c6572206973206e6f7420746f60008201527f6b656e206f776e6572206f7220617070726f76656420666f7220616c6c000000602082015250565b60006149c2603d83613b5d565b91506149cd82614966565b604082019050919050565b600060208201905081810360008301526149f1816149b5565b9050919050565b7f4552433732313a2063616c6c6572206973206e6f7420746f6b656e206f776e6560008201527f72206f7220617070726f76656400000000000000000000000000000000000000602082015250565b6000614a54602d83613b5d565b9150614a5f826149f8565b604082019050919050565b60006020820190508181036000830152614a8381614a47565b9050919050565b60008135614a9781613ced565b80915050919050565b60008160001b9050919050565b600073ffffffffffffffffffffffffffffffffffffffff614acd84614aa0565b9350801983169250808416831791505092915050565b6000819050919050565b6000614b08614b03614afe84613c67565b614ae3565b613c67565b9050919050565b6000614b1a82614aed565b9050919050565b6000614b2c82614b0f565b9050919050565b6000819050919050565b614b4682614b21565b614b59614b5282614b33565b8354614aad565b8255505050565b600080fd5b600080fd5b600080fd5b60008083356001602003843603038112614b8c57614b8b614b60565b5b80840192508235915067ffffffffffffffff821115614bae57614bad614b65565b5b602083019250600182023603831315614bca57614bc9614b6a565b5b509250929050565b600082905092915050565b60008190508160005260206000209050919050565b60006020601f8301049050919050565b600082821b905092915050565b600060088302614c3f7fffffffffffffffffffffffffffffffffffffffffffffffffffffffffffffffff82614c02565b614c498683614c02565b95508019841693508086168417925050509392505050565b6000614c7c614c77614c7284613c04565b614ae3565b613c04565b9050919050565b6000819050919050565b614c9683614c61565b614caa614ca282614c83565b848454614c0f565b825550505050565b600090565b614cbf614cb2565b614cca818484614c8d565b505050565b5b81811015614cee57614ce3600082614cb7565b600181019050614cd0565b5050565b601f821115614d3357614d0481614bdd565b614d0d84614bf2565b81016020851015614d1c578190505b614d30614d2885614bf2565b830182614ccf565b50505b505050565b600082821c905092915050565b6000614d5660001984600802614d38565b1980831691505092915050565b6000614d6f8383614d45565b9150826002028217905092915050565b614d898383614bd2565b67ffffffffffffffff811115614da257614da161463d565b5b614dac82546148a3565b614db7828285614cf2565b6000601f831160018114614de65760008415614dd4578287013590505b614dde8582614d63565b865550614e46565b601f198416614df486614bdd565b60005b82811015614e1c57848901358255600182019150602085019450602081019050614df7565b86831015614e395784890135614e35601f891682614d45565b8355505b6001600288020188555050505b50505050505050565b614e5a838383614d7f565b505050565b600081016000830180614e7181614a8a565b9050614e7d8184614b3d565b5050506001810160208301614e928185614b6f565b614e9d818386614e4f565b505050506002810160408301614eb38185614b6f565b614ebe818386614e4f565b505050506003810160608301614ed48185614b6f565b614edf818386614e4f565b505050506004810160808301614ef58185614b6f565b614f00818386614e4f565b505050505050565b614f128282614e5f565b5050565b6000614f256020840184613d04565b905092915050565b600080fd5b600080fd5b600080fd5b60008083356001602003843603038112614f5957614f58614f37565b5b83810192508235915060208301925067ffffffffffffffff821115614f8157614f80614f2d565b5b600182023603831315614f9757614f96614f32565b5b509250929050565b6000614fab8385613f7a565b9350614fb88385846146e9565b614fc183613b98565b840190509392505050565b600060a08301614fdf6000840184614f16565b614fec60008601826143cd565b50614ffa6020840184614f3c565b858303602087015261500d838284614f9f565b9250505061501e6040840184614f3c565b8583036040870152615031838284614f9f565b925050506150426060840184614f3c565b8583036060870152615055838284614f9f565b925050506150666080840184614f3c565b8583036080870152615079838284614f9f565b925050508091505092915050565b600060408201905061509c6000830185613cc3565b81810360208301526150ae8184614fcc565b90509392505050565b7f455243373231456e756d657261626c653a206f776e657220696e646578206f7560008201527f74206f6620626f756e6473000000000000000000000000000000000000000000602082015250565b6000615113602b83613b5d565b915061511e826150b7565b604082019050919050565b6000602082019050818103600083015261514281615106565b9050919050565b600081905092915050565b60006151608385615149565b935061516d8385846146e9565b82840190509392505050565b6000615186828486615154565b91508190509392505050565b7f48616e646c65206e6f7420666f756e6400000000000000000000000000000000600082015250565b60006151c8601083613b5d565b91506151d382615192565b602082019050919050565b600060208201905081810360008301526151f7816151bb565b9050919050565b7f4e487b7100000000000000000000000000000000000000000000000000000000600052601160045260246000fd5b600061523882613c04565b91507fffffffffffffffffffffffffffffffffffffffffffffffffffffffffffffffff820361526a576152696151fe565b5b600182019050919050565b61527e82613b52565b67ffffffffffffffff8111156152975761529661463d565b5b6152a182546148a3565b6152ac828285614cf2565b600060209050601f8311600181146152df57600084156152cd578287015190505b6152d78582614d63565b86555061533f565b601f1984166152ed86614bdd565b60005b82811015615315578489015182556001820191506020850194506020810190506152f0565b86831015615332578489015161532e601f891682614d45565b8355505b6001600288020188555050505b505050505050565b60008160001c9050919050565b6000819050919050565b600061537161536c83615347565b615354565b9050919050565b60008154615385816148a3565b61538f8186613f7a565b945060018216600081146153aa57600181146153c0576153f3565b60ff1983168652811515602002860193506153f3565b6153c985614bdd565b60005b838110156153eb578154818901526001820191506020810190506153cc565b808801955050505b50505092915050565b60006080830160008084015490506154138161535e565b6154206000870182613f6b565b506001840185830360208701526154378382615378565b9250506002840185830360408701526154508382615378565b925050600384015490506154638161535e565b6154706060870182613f6b565b50819250505092915050565b6000602082019050818103600083015261549681846153fc565b905092915050565b600081905092915050565b50565b60006154b960008361549e565b91506154c4826154a9565b600082019050919050565b60006154da826154ac565b9150819050919050565b7f4661696c656420746f2073656e64204574686572000000000000000000000000600082015250565b600061551a601483613b5d565b9150615525826154e4565b602082019050919050565b600060208201905081810360008301526155498161550d565b9050919050565b7f455243373231456e756d657261626c653a20676c6f62616c20696e646578206f60008201527f7574206f6620626f756e64730000000000000000000000000000000000000000602082015250565b60006155ac602c83613b5d565b91506155b782615550565b604082019050919050565b600060208201905081810360008301526155db8161559f565b9050919050565b7f4e487b7100000000000000000000000000000000000000000000000000000000600052603260045260246000fd5b600061561c82613c04565b915061562783613c04565b925082820190508082111561563f5761563e6151fe565b5b92915050565b600061565082613c04565b915061565b83613c04565b9250828203905081811115615673576156726151fe565b5b92915050565b7f4552433732313a20696e76616c696420746f6b656e2049440000000000000000600082015250565b60006156af601883613b5d565b91506156ba82615679565b602082019050919050565b600060208201905081810360008301526156de816156a2565b9050919050565b7f4552433732313a2061646472657373207a65726f206973206e6f74206120766160008201527f6c6964206f776e65720000000000000000000000000000000000000000000000602082015250565b6000615741602983613b5d565b915061574c826156e5565b604082019050919050565b6000602082019050818103600083015261577081615734565b9050919050565b7f4552433732314d657461646174613a2055524920717565727920666f72206e6f60008201527f6e6578697374656e7420746f6b656e0000000000000000000000000000000000602082015250565b60006157d3602f83613b5d565b91506157de82615777565b604082019050919050565b60006020820190508181036000830152615802816157c6565b9050919050565b600061581482613b52565b61581e8185615149565b935061582e818560208601613b6e565b80840191505092915050565b7f2e6a736f6e000000000000000000000000000000000000000000000000000000600082015250565b6000615870600583615149565b915061587b8261583a565b600582019050919050565b60006158928285615809565b915061589e8284615809565b91506158a982615863565b91508190509392505050565b7f48616e646c6520616c7265616479206578697374730000000000000000000000600082015250565b60006158eb601583613b5d565b91506158f6826158b5565b602082019050919050565b6000602082019050818103600083015261591a816158de565b9050919050565b7f4f776e657220646966666572656e742066726f6d206d73672e73656e64657200600082015250565b6000615957601f83613b5d565b915061596282615921565b602082019050919050565b600060208201905081810360008301526159868161594a565b9050919050565b7f45746865722073656e74206973206e6f7420636f727265637400000000000000600082015250565b60006159c3601983613b5d565b91506159ce8261598d565b602082019050919050565b600060208201905081810360008301526159f2816159b6565b9050919050565b60006020820190508181036000830152615a138184614fcc565b905092915050565b7f4f776e61626c653a206e6577206f776e657220697320746865207a65726f206160008201527f6464726573730000000000000000000000000000000000000000000000000000602082015250565b6000615a77602683613b5d565b9150615a8282615a1b565b604082019050919050565b60006020820190508181036000830152615aa681615a6a565b9050919050565b7f4f776e61626c653a2063616c6c6572206973206e6f7420746865206f776e6572600082015250565b6000615ae3602083613b5d565b9150615aee82615aad565b602082019050919050565b60006020820190508181036000830152615b1281615ad6565b9050919050565b7f4552433732313a207472616e736665722066726f6d20696e636f72726563742060008201527f6f776e6572000000000000000000000000000000000000000000000000000000602082015250565b6000615b75602583613b5d565b9150615b8082615b19565b604082019050919050565b60006020820190508181036000830152615ba481615b68565b9050919050565b7f4552433732313a207472616e7366657220746f20746865207a65726f2061646460008201527f7265737300000000000000000000000000000000000000000000000000000000602082015250565b6000615c07602483613b5d565b9150615c1282615bab565b604082019050919050565b60006020820190508181036000830152615c3681615bfa565b9050919050565b7f4552433732313a20617070726f766520746f2063616c6c657200000000000000600082015250565b6000615c73601983613b5d565b9150615c7e82615c3d565b602082019050919050565b60006020820190508181036000830152615ca281615c66565b9050919050565b7f4552433732313a207472616e7366657220746f206e6f6e20455243373231526560008201527f63656976657220696d706c656d656e7465720000000000000000000000000000602082015250565b6000615d05603283613b5d565b9150615d1082615ca9565b604082019050919050565b60006020820190508181036000830152615d3481615cf8565b9050919050565b7f4e487b7100000000000000000000000000000000000000000000000000000000600052601260045260246000fd5b7f455243373231456e756d657261626c653a20636f6e736563757469766520747260008201527f616e7366657273206e6f7420737570706f727465640000000000000000000000602082015250565b6000615dc6603583613b5d565b9150615dd182615d6a565b604082019050919050565b60006020820190508181036000830152615df581615db9565b9050919050565b600081519050919050565b600082825260208201905092915050565b6000615e2382615dfc565b615e2d8185615e07565b9350615e3d818560208601613b6e565b615e4681613b98565b840191505092915050565b6000608082019050615e666000830187613c99565b615e736020830186613c99565b615e806040830185613cc3565b8181036060830152615e928184615e18565b905095945050505050565b600081519050615eac81613ac3565b92915050565b600060208284031215615ec857615ec7613a8d565b5b6000615ed684828501615e9d565b91505092915050565b7f4e487b7100000000000000000000000000000000000000000000000000000000600052603160045260246000fd5b7f4552433732313a206d696e7420746f20746865207a65726f2061646472657373600082015250565b6000615f44602083613b5d565b9150615f4f82615f0e565b602082019050919050565b60006020820190508181036000830152615f7381615f37565b9050919050565b7f4552433732313a20746f6b656e20616c7265616479206d696e74656400000000600082015250565b6000615fb0601c83613b5d565b9150615fbb82615f7a565b602082019050919050565b60006020820190508181036000830152615fdf81615fa3565b905091905056fea2646970667358221220ed1364e45cf0a716bb99429c7b6d5f601d66ce7a35e0dd9ece5b2f43e117ad4564736f6c63430008130033","opcodes":"PUSH1 0x80 PUSH1 0x40 MSTORE PUSH7 0x2386F26FC10000 PUSH1 0xC SSTORE CALLVALUE DUP1 ISZERO PUSH3 0x1C JUMPI PUSH1 0x0 DUP1 REVERT JUMPDEST POP PUSH1 0x40 MLOAD PUSH3 0x671D CODESIZE SUB DUP1 PUSH3 0x671D DUP4 CODECOPY DUP2 DUP2 ADD PUSH1 0x40 MSTORE DUP2 ADD SWAP1 PUSH3 0x42 SWAP2 SWAP1 PUSH3 0x36E JUMP JUMPDEST DUP1 PUSH1 0x40 MLOAD DUP1 PUSH1 0x40 ADD PUSH1 0x40 MSTORE DUP1 PUSH1 0xA DUP2 MSTORE PUSH1 0x20 ADD PUSH32 0x536F6369616C5765623300000000000000000000000000000000000000000000 DUP2 MSTORE POP PUSH1 0x40 MLOAD DUP1 PUSH1 0x40 ADD PUSH1 0x40 MSTORE DUP1 PUSH1 0x3 DUP2 MSTORE PUSH1 0x20 ADD PUSH32 0x5357330000000000000000000000000000000000000000000000000000000000 DUP2 MSTORE POP PUSH3 0xCF PUSH3 0xC3 PUSH3 0x10F PUSH1 0x20 SHL PUSH1 0x20 SHR JUMP JUMPDEST PUSH3 0x117 PUSH1 0x20 SHL PUSH1 0x20 SHR JUMP JUMPDEST DUP2 PUSH1 0x1 SWAP1 DUP2 PUSH3 0xE0 SWAP2 SWAP1 PUSH3 0x60A JUMP JUMPDEST POP DUP1 PUSH1 0x2 SWAP1 DUP2 PUSH3 0xF2 SWAP2 SWAP1 PUSH3 0x60A JUMP JUMPDEST POP POP POP DUP1 PUSH1 0xB SWAP1 DUP2 PUSH3 0x106 SWAP2 SWAP1 PUSH3 0x60A JUMP JUMPDEST POP POP POP PUSH3 0x6F1 JUMP JUMPDEST PUSH1 0x0 CALLER SWAP1 POP SWAP1 JUMP JUMPDEST PUSH1 0x0 DUP1 PUSH1 0x0 SWAP1 SLOAD SWAP1 PUSH2 0x100 EXP SWAP1 DIV PUSH20 0xFFFFFFFFFFFFFFFFFFFFFFFFFFFFFFFFFFFFFFFF AND SWAP1 POP DUP2 PUSH1 0x0 DUP1 PUSH2 0x100 EXP DUP2 SLOAD DUP2 PUSH20 0xFFFFFFFFFFFFFFFFFFFFFFFFFFFFFFFFFFFFFFFF MUL NOT AND SWAP1 DUP4 PUSH20 0xFFFFFFFFFFFFFFFFFFFFFFFFFFFFFFFFFFFFFFFF AND MUL OR SWAP1 SSTORE POP DUP2 PUSH20 0xFFFFFFFFFFFFFFFFFFFFFFFFFFFFFFFFFFFFFFFF AND DUP2 PUSH20 0xFFFFFFFFFFFFFFFFFFFFFFFFFFFFFFFFFFFFFFFF AND PUSH32 0x8BE0079C531659141344CD1FD0A4F28419497F9722A3DAAFE3B4186F6B6457E0 PUSH1 0x40 MLOAD PUSH1 0x40 MLOAD DUP1 SWAP2 SUB SWAP1 LOG3 POP POP JUMP JUMPDEST PUSH1 0x0 PUSH1 0x40 MLOAD SWAP1 POP SWAP1 JUMP JUMPDEST PUSH1 0x0 DUP1 REVERT JUMPDEST PUSH1 0x0 DUP1 REVERT JUMPDEST PUSH1 0x0 DUP1 REVERT JUMPDEST PUSH1 0x0 DUP1 REVERT JUMPDEST PUSH1 0x0 PUSH1 0x1F NOT PUSH1 0x1F DUP4 ADD AND SWAP1 POP SWAP2 SWAP1 POP JUMP JUMPDEST PUSH32 0x4E487B7100000000000000000000000000000000000000000000000000000000 PUSH1 0x0 MSTORE PUSH1 0x41 PUSH1 0x4 MSTORE PUSH1 0x24 PUSH1 0x0 REVERT JUMPDEST PUSH3 0x244 DUP3 PUSH3 0x1F9 JUMP JUMPDEST DUP2 ADD DUP2 DUP2 LT PUSH8 0xFFFFFFFFFFFFFFFF DUP3 GT OR ISZERO PUSH3 0x266 JUMPI PUSH3 0x265 PUSH3 0x20A JUMP JUMPDEST JUMPDEST DUP1 PUSH1 0x40 MSTORE POP POP POP JUMP JUMPDEST PUSH1 0x0 PUSH3 0x27B PUSH3 0x1DB JUMP JUMPDEST SWAP1 POP PUSH3 0x289 DUP3 DUP3 PUSH3 0x239 JUMP JUMPDEST SWAP2 SWAP1 POP JUMP JUMPDEST PUSH1 0x0 PUSH8 0xFFFFFFFFFFFFFFFF DUP3 GT ISZERO PUSH3 0x2AC JUMPI PUSH3 0x2AB PUSH3 0x20A JUMP JUMPDEST JUMPDEST PUSH3 0x2B7 DUP3 PUSH3 0x1F9 JUMP JUMPDEST SWAP1 POP PUSH1 0x20 DUP2 ADD SWAP1 POP SWAP2 SWAP1 POP JUMP JUMPDEST PUSH1 0x0 JUMPDEST DUP4 DUP2 LT ISZERO PUSH3 0x2E4 JUMPI DUP1 DUP3 ADD MLOAD DUP2 DUP5 ADD MSTORE PUSH1 0x20 DUP2 ADD SWAP1 POP PUSH3 0x2C7 JUMP JUMPDEST PUSH1 0x0 DUP5 DUP5 ADD MSTORE POP POP POP POP JUMP JUMPDEST PUSH1 0x0 PUSH3 0x307 PUSH3 0x301 DUP5 PUSH3 0x28E JUMP JUMPDEST PUSH3 0x26F JUMP JUMPDEST SWAP1 POP DUP3 DUP2 MSTORE PUSH1 0x20 DUP2 ADD DUP5 DUP5 DUP5 ADD GT ISZERO PUSH3 0x326 JUMPI PUSH3 0x325 PUSH3 0x1F4 JUMP JUMPDEST JUMPDEST PUSH3 0x333 DUP5 DUP3 DUP6 PUSH3 0x2C4 JUMP JUMPDEST POP SWAP4 SWAP3 POP POP POP JUMP JUMPDEST PUSH1 0x0 DUP3 PUSH1 0x1F DUP4 ADD SLT PUSH3 0x353 JUMPI PUSH3 0x352 PUSH3 0x1EF JUMP JUMPDEST JUMPDEST DUP2 MLOAD PUSH3 0x365 DUP5 DUP3 PUSH1 0x20 DUP7 ADD PUSH3 0x2F0 JUMP JUMPDEST SWAP2 POP POP SWAP3 SWAP2 POP POP JUMP JUMPDEST PUSH1 0x0 PUSH1 0x20 DUP3 DUP5 SUB SLT ISZERO PUSH3 0x387 JUMPI PUSH3 0x386 PUSH3 0x1E5 JUMP JUMPDEST JUMPDEST PUSH1 0x0 DUP3 ADD MLOAD PUSH8 0xFFFFFFFFFFFFFFFF DUP2 GT ISZERO PUSH3 0x3A8 JUMPI PUSH3 0x3A7 PUSH3 0x1EA JUMP JUMPDEST JUMPDEST PUSH3 0x3B6 DUP5 DUP3 DUP6 ADD PUSH3 0x33B JUMP JUMPDEST SWAP2 POP POP SWAP3 SWAP2 POP POP JUMP JUMPDEST PUSH1 0x0 DUP2 MLOAD SWAP1 POP SWAP2 SWAP1 POP JUMP JUMPDEST PUSH32 0x4E487B7100000000000000000000000000000000000000000000000000000000 PUSH1 0x0 MSTORE PUSH1 0x22 PUSH1 0x4 MSTORE PUSH1 0x24 PUSH1 0x0 REVERT JUMPDEST PUSH1 0x0 PUSH1 0x2 DUP3 DIV SWAP1 POP PUSH1 0x1 DUP3 AND DUP1 PUSH3 0x412 JUMPI PUSH1 0x7F DUP3 AND SWAP2 POP JUMPDEST PUSH1 0x20 DUP3 LT DUP2 SUB PUSH3 0x428 JUMPI PUSH3 0x427 PUSH3 0x3CA JUMP JUMPDEST JUMPDEST POP SWAP2 SWAP1 POP JUMP JUMPDEST PUSH1 0x0 DUP2 SWAP1 POP DUP2 PUSH1 0x0 MSTORE PUSH1 0x20 PUSH1 0x0 KECCAK256 SWAP1 POP SWAP2 SWAP1 POP JUMP JUMPDEST PUSH1 0x0 PUSH1 0x20 PUSH1 0x1F DUP4 ADD DIV SWAP1 POP SWAP2 SWAP1 POP JUMP JUMPDEST PUSH1 0x0 DUP3 DUP3 SHL SWAP1 POP SWAP3 SWAP2 POP POP JUMP JUMPDEST PUSH1 0x0 PUSH1 0x8 DUP4 MUL PUSH3 0x492 PUSH32 0xFFFFFFFFFFFFFFFFFFFFFFFFFFFFFFFFFFFFFFFFFFFFFFFFFFFFFFFFFFFFFFFF DUP3 PUSH3 0x453 JUMP JUMPDEST PUSH3 0x49E DUP7 DUP4 PUSH3 0x453 JUMP JUMPDEST SWAP6 POP DUP1 NOT DUP5 AND SWAP4 POP DUP1 DUP7 AND DUP5 OR SWAP3 POP POP POP SWAP4 SWAP3 POP POP POP JUMP JUMPDEST PUSH1 0x0 DUP2 SWAP1 POP SWAP2 SWAP1 POP JUMP JUMPDEST PUSH1 0x0 DUP2 SWAP1 POP SWAP2 SWAP1 POP JUMP JUMPDEST PUSH1 0x0 PUSH3 0x4EB PUSH3 0x4E5 PUSH3 0x4DF DUP5 PUSH3 0x4B6 JUMP JUMPDEST PUSH3 0x4C0 JUMP JUMPDEST PUSH3 0x4B6 JUMP JUMPDEST SWAP1 POP SWAP2 SWAP1 POP JUMP JUMPDEST PUSH1 0x0 DUP2 SWAP1 POP SWAP2 SWAP1 POP JUMP JUMPDEST PUSH3 0x507 DUP4 PUSH3 0x4CA JUMP JUMPDEST PUSH3 0x51F PUSH3 0x516 DUP3 PUSH3 0x4F2 JUMP JUMPDEST DUP5 DUP5 SLOAD PUSH3 0x460 JUMP JUMPDEST DUP3 SSTORE POP POP POP POP JUMP JUMPDEST PUSH1 0x0 SWAP1 JUMP JUMPDEST PUSH3 0x536 PUSH3 0x527 JUMP JUMPDEST PUSH3 0x543 DUP2 DUP5 DUP5 PUSH3 0x4FC JUMP JUMPDEST POP POP POP JUMP JUMPDEST JUMPDEST DUP2 DUP2 LT ISZERO PUSH3 0x56B JUMPI PUSH3 0x55F PUSH1 0x0 DUP3 PUSH3 0x52C JUMP JUMPDEST PUSH1 0x1 DUP2 ADD SWAP1 POP PUSH3 0x549 JUMP JUMPDEST POP POP JUMP JUMPDEST PUSH1 0x1F DUP3 GT ISZERO PUSH3 0x5BA JUMPI PUSH3 0x584 DUP2 PUSH3 0x42E JUMP JUMPDEST PUSH3 0x58F DUP5 PUSH3 0x443 JUMP JUMPDEST DUP2 ADD PUSH1 0x20 DUP6 LT ISZERO PUSH3 0x59F JUMPI DUP2 SWAP1 POP JUMPDEST PUSH3 0x5B7 PUSH3 0x5AE DUP6 PUSH3 0x443 JUMP JUMPDEST DUP4 ADD DUP3 PUSH3 0x548 JUMP JUMPDEST POP POP JUMPDEST POP POP POP JUMP JUMPDEST PUSH1 0x0 DUP3 DUP3 SHR SWAP1 POP SWAP3 SWAP2 POP POP JUMP JUMPDEST PUSH1 0x0 PUSH3 0x5DF PUSH1 0x0 NOT DUP5 PUSH1 0x8 MUL PUSH3 0x5BF JUMP JUMPDEST NOT DUP1 DUP4 AND SWAP2 POP POP SWAP3 SWAP2 POP POP JUMP JUMPDEST PUSH1 0x0 PUSH3 0x5FA DUP4 DUP4 PUSH3 0x5CC JUMP JUMPDEST SWAP2 POP DUP3 PUSH1 0x2 MUL DUP3 OR SWAP1 POP SWAP3 SWAP2 POP POP JUMP JUMPDEST PUSH3 0x615 DUP3 PUSH3 0x3BF JUMP JUMPDEST PUSH8 0xFFFFFFFFFFFFFFFF DUP2 GT ISZERO PUSH3 0x631 JUMPI PUSH3 0x630 PUSH3 0x20A JUMP JUMPDEST JUMPDEST PUSH3 0x63D DUP3 SLOAD PUSH3 0x3F9 JUMP JUMPDEST PUSH3 0x64A DUP3 DUP3 DUP6 PUSH3 0x56F JUMP JUMPDEST PUSH1 0x0 PUSH1 0x20 SWAP1 POP PUSH1 0x1F DUP4 GT PUSH1 0x1 DUP2 EQ PUSH3 0x682 JUMPI PUSH1 0x0 DUP5 ISZERO PUSH3 0x66D JUMPI DUP3 DUP8 ADD MLOAD SWAP1 POP JUMPDEST PUSH3 0x679 DUP6 DUP3 PUSH3 0x5EC JUMP JUMPDEST DUP7 SSTORE POP PUSH3 0x6E9 JUMP JUMPDEST PUSH1 0x1F NOT DUP5 AND PUSH3 0x692 DUP7 PUSH3 0x42E JUMP JUMPDEST PUSH1 0x0 JUMPDEST DUP3 DUP2 LT ISZERO PUSH3 0x6BC JUMPI DUP5 DUP10 ADD MLOAD DUP3 SSTORE PUSH1 0x1 DUP3 ADD SWAP2 POP PUSH1 0x20 DUP6 ADD SWAP5 POP PUSH1 0x20 DUP2 ADD SWAP1 POP PUSH3 0x695 JUMP JUMPDEST DUP7 DUP4 LT ISZERO PUSH3 0x6DC JUMPI DUP5 DUP10 ADD MLOAD PUSH3 0x6D8 PUSH1 0x1F DUP10 AND DUP3 PUSH3 0x5CC JUMP JUMPDEST DUP4 SSTORE POP JUMPDEST PUSH1 0x1 PUSH1 0x2 DUP9 MUL ADD DUP9 SSTORE POP POP POP JUMPDEST POP POP POP POP POP POP JUMP JUMPDEST PUSH2 0x601C DUP1 PUSH3 0x701 PUSH1 0x0 CODECOPY PUSH1 0x0 RETURN INVALID PUSH1 0x80 PUSH1 0x40 MSTORE PUSH1 0x4 CALLDATASIZE LT PUSH2 0x208 JUMPI PUSH1 0x0 CALLDATALOAD PUSH1 0xE0 SHR DUP1 PUSH4 0x54EBB999 GT PUSH2 0x118 JUMPI DUP1 PUSH4 0x95D89B41 GT PUSH2 0xA0 JUMPI DUP1 PUSH4 0xB88D4FDE GT PUSH2 0x6F JUMPI DUP1 PUSH4 0xB88D4FDE EQ PUSH2 0x7BD JUMPI DUP1 PUSH4 0xC87B56DD EQ PUSH2 0x7E6 JUMPI DUP1 PUSH4 0xE563F778 EQ PUSH2 0x823 JUMPI DUP1 PUSH4 0xE985E9C5 EQ PUSH2 0x83F JUMPI DUP1 PUSH4 0xF2FDE38B EQ PUSH2 0x87C JUMPI PUSH2 0x20F JUMP JUMPDEST DUP1 PUSH4 0x95D89B41 EQ PUSH2 0x701 JUMPI DUP1 PUSH4 0x9B85B1F1 EQ PUSH2 0x72C JUMPI DUP1 PUSH4 0xA22CB465 EQ PUSH2 0x769 JUMPI DUP1 PUSH4 0xAC8B628E EQ PUSH2 0x792 JUMPI PUSH2 0x20F JUMP JUMPDEST DUP1 PUSH4 0x6352211E GT PUSH2 0xE7 JUMPI DUP1 PUSH4 0x6352211E EQ PUSH2 0x608 JUMPI DUP1 PUSH4 0x70A08231 EQ PUSH2 0x645 JUMPI DUP1 PUSH4 0x715018A6 EQ PUSH2 0x682 JUMPI DUP1 PUSH4 0x80985A87 EQ PUSH2 0x699 JUMPI DUP1 PUSH4 0x8DA5CB5B EQ PUSH2 0x6D6 JUMPI PUSH2 0x20F JUMP JUMPDEST DUP1 PUSH4 0x54EBB999 EQ PUSH2 0x526 JUMPI DUP1 PUSH4 0x5CAFA539 EQ PUSH2 0x563 JUMPI DUP1 PUSH4 0x5DD4DFF4 EQ PUSH2 0x5A0 JUMPI DUP1 PUSH4 0x60A0ECDA EQ PUSH2 0x5DD JUMPI PUSH2 0x20F JUMP JUMPDEST DUP1 PUSH4 0x235B6EA1 GT PUSH2 0x19B JUMPI DUP1 PUSH4 0x392338F5 GT PUSH2 0x16A JUMPI DUP1 PUSH4 0x392338F5 EQ PUSH2 0x443 JUMPI DUP1 PUSH4 0x3CCFD60B EQ PUSH2 0x46C JUMPI DUP1 PUSH4 0x40731C24 EQ PUSH2 0x483 JUMPI DUP1 PUSH4 0x42842E0E EQ PUSH2 0x4C0 JUMPI DUP1 PUSH4 0x4F6CCCE7 EQ PUSH2 0x4E9 JUMPI PUSH2 0x20F JUMP JUMPDEST DUP1 PUSH4 0x235B6EA1 EQ PUSH2 0x389 JUMPI DUP1 PUSH4 0x23B872DD EQ PUSH2 0x3B4 JUMPI DUP1 PUSH4 0x2D6D852F EQ PUSH2 0x3DD JUMPI DUP1 PUSH4 0x2F745C59 EQ PUSH2 0x406 JUMPI PUSH2 0x20F JUMP JUMPDEST DUP1 PUSH4 0x95EA7B3 GT PUSH2 0x1D7 JUMPI DUP1 PUSH4 0x95EA7B3 EQ PUSH2 0x2E1 JUMPI DUP1 PUSH4 0x16C38B3C EQ PUSH2 0x30A JUMPI DUP1 PUSH4 0x16C61CCC EQ PUSH2 0x333 JUMPI DUP1 PUSH4 0x18160DDD EQ PUSH2 0x35E JUMPI PUSH2 0x20F JUMP JUMPDEST DUP1 PUSH4 0x1FFC9A7 EQ PUSH2 0x211 JUMPI DUP1 PUSH4 0x6FDDE03 EQ PUSH2 0x24E JUMPI DUP1 PUSH4 0x81812FC EQ PUSH2 0x279 JUMPI DUP1 PUSH4 0x8386EBA EQ PUSH2 0x2B6 JUMPI PUSH2 0x20F JUMP JUMPDEST CALLDATASIZE PUSH2 0x20F JUMPI STOP JUMPDEST STOP JUMPDEST CALLVALUE DUP1 ISZERO PUSH2 0x21D JUMPI PUSH1 0x0 DUP1 REVERT JUMPDEST POP PUSH2 0x238 PUSH1 0x4 DUP1 CALLDATASIZE SUB DUP2 ADD SWAP1 PUSH2 0x233 SWAP2 SWAP1 PUSH2 0x3AEF JUMP JUMPDEST PUSH2 0x8A5 JUMP JUMPDEST PUSH1 0x40 MLOAD PUSH2 0x245 SWAP2 SWAP1 PUSH2 0x3B37 JUMP JUMPDEST PUSH1 0x40 MLOAD DUP1 SWAP2 SUB SWAP1 RETURN JUMPDEST CALLVALUE DUP1 ISZERO PUSH2 0x25A JUMPI PUSH1 0x0 DUP1 REVERT JUMPDEST POP PUSH2 0x263 PUSH2 0x91F JUMP JUMPDEST PUSH1 0x40 MLOAD PUSH2 0x270 SWAP2 SWAP1 PUSH2 0x3BE2 JUMP JUMPDEST PUSH1 0x40 MLOAD DUP1 SWAP2 SUB SWAP1 RETURN JUMPDEST CALLVALUE DUP1 ISZERO PUSH2 0x285 JUMPI PUSH1 0x0 DUP1 REVERT JUMPDEST POP PUSH2 0x2A0 PUSH1 0x4 DUP1 CALLDATASIZE SUB DUP2 ADD SWAP1 PUSH2 0x29B SWAP2 SWAP1 PUSH2 0x3C3A JUMP JUMPDEST PUSH2 0x9B1 JUMP JUMPDEST PUSH1 0x40 MLOAD PUSH2 0x2AD SWAP2 SWAP1 PUSH2 0x3CA8 JUMP JUMPDEST PUSH1 0x40 MLOAD DUP1 SWAP2 SUB SWAP1 RETURN JUMPDEST CALLVALUE DUP1 ISZERO PUSH2 0x2C2 JUMPI PUSH1 0x0 DUP1 REVERT JUMPDEST POP PUSH2 0x2CB PUSH2 0x9F7 JUMP JUMPDEST PUSH1 0x40 MLOAD PUSH2 0x2D8 SWAP2 SWAP1 PUSH2 0x3CD2 JUMP JUMPDEST PUSH1 0x40 MLOAD DUP1 SWAP2 SUB SWAP1 RETURN JUMPDEST CALLVALUE DUP1 ISZERO PUSH2 0x2ED JUMPI PUSH1 0x0 DUP1 REVERT JUMPDEST POP PUSH2 0x308 PUSH1 0x4 DUP1 CALLDATASIZE SUB DUP2 ADD SWAP1 PUSH2 0x303 SWAP2 SWAP1 PUSH2 0x3D19 JUMP JUMPDEST PUSH2 0x9FD JUMP JUMPDEST STOP JUMPDEST CALLVALUE DUP1 ISZERO PUSH2 0x316 JUMPI PUSH1 0x0 DUP1 REVERT JUMPDEST POP PUSH2 0x331 PUSH1 0x4 DUP1 CALLDATASIZE SUB DUP2 ADD SWAP1 PUSH2 0x32C SWAP2 SWAP1 PUSH2 0x3D85 JUMP JUMPDEST PUSH2 0xB14 JUMP JUMPDEST STOP JUMPDEST CALLVALUE DUP1 ISZERO PUSH2 0x33F JUMPI PUSH1 0x0 DUP1 REVERT JUMPDEST POP PUSH2 0x348 PUSH2 0xB39 JUMP JUMPDEST PUSH1 0x40 MLOAD PUSH2 0x355 SWAP2 SWAP1 PUSH2 0x3B37 JUMP JUMPDEST PUSH1 0x40 MLOAD DUP1 SWAP2 SUB SWAP1 RETURN JUMPDEST CALLVALUE DUP1 ISZERO PUSH2 0x36A JUMPI PUSH1 0x0 DUP1 REVERT JUMPDEST POP PUSH2 0x373 PUSH2 0xB4C JUMP JUMPDEST PUSH1 0x40 MLOAD PUSH2 0x380 SWAP2 SWAP1 PUSH2 0x3CD2 JUMP JUMPDEST PUSH1 0x40 MLOAD DUP1 SWAP2 SUB SWAP1 RETURN JUMPDEST CALLVALUE DUP1 ISZERO PUSH2 0x395 JUMPI PUSH1 0x0 DUP1 REVERT JUMPDEST POP PUSH2 0x39E PUSH2 0xB59 JUMP JUMPDEST PUSH1 0x40 MLOAD PUSH2 0x3AB SWAP2 SWAP1 PUSH2 0x3CD2 JUMP JUMPDEST PUSH1 0x40 MLOAD DUP1 SWAP2 SUB SWAP1 RETURN JUMPDEST CALLVALUE DUP1 ISZERO PUSH2 0x3C0 JUMPI PUSH1 0x0 DUP1 REVERT JUMPDEST POP PUSH2 0x3DB PUSH1 0x4 DUP1 CALLDATASIZE SUB DUP2 ADD SWAP1 PUSH2 0x3D6 SWAP2 SWAP1 PUSH2 0x3DB2 JUMP JUMPDEST PUSH2 0xB5F JUMP JUMPDEST STOP JUMPDEST CALLVALUE DUP1 ISZERO PUSH2 0x3E9 JUMPI PUSH1 0x0 DUP1 REVERT JUMPDEST POP PUSH2 0x404 PUSH1 0x4 DUP1 CALLDATASIZE SUB DUP2 ADD SWAP1 PUSH2 0x3FF SWAP2 SWAP1 PUSH2 0x3E29 JUMP JUMPDEST PUSH2 0xBBF JUMP JUMPDEST STOP JUMPDEST CALLVALUE DUP1 ISZERO PUSH2 0x412 JUMPI PUSH1 0x0 DUP1 REVERT JUMPDEST POP PUSH2 0x42D PUSH1 0x4 DUP1 CALLDATASIZE SUB DUP2 ADD SWAP1 PUSH2 0x428 SWAP2 SWAP1 PUSH2 0x3D19 JUMP JUMPDEST PUSH2 0xC27 JUMP JUMPDEST PUSH1 0x40 MLOAD PUSH2 0x43A SWAP2 SWAP1 PUSH2 0x3CD2 JUMP JUMPDEST PUSH1 0x40 MLOAD DUP1 SWAP2 SUB SWAP1 RETURN JUMPDEST CALLVALUE DUP1 ISZERO PUSH2 0x44F JUMPI PUSH1 0x0 DUP1 REVERT JUMPDEST POP PUSH2 0x46A PUSH1 0x4 DUP1 CALLDATASIZE SUB DUP2 ADD SWAP1 PUSH2 0x465 SWAP2 SWAP1 PUSH2 0x3EEA JUMP JUMPDEST PUSH2 0xCCC JUMP JUMPDEST STOP JUMPDEST CALLVALUE DUP1 ISZERO PUSH2 0x478 JUMPI PUSH1 0x0 DUP1 REVERT JUMPDEST POP PUSH2 0x481 PUSH2 0xEF2 JUMP JUMPDEST STOP JUMPDEST CALLVALUE DUP1 ISZERO PUSH2 0x48F JUMPI PUSH1 0x0 DUP1 REVERT JUMPDEST POP PUSH2 0x4AA PUSH1 0x4 DUP1 CALLDATASIZE SUB DUP2 ADD SWAP1 PUSH2 0x4A5 SWAP2 SWAP1 PUSH2 0x3C3A JUMP JUMPDEST PUSH2 0xFBC JUMP JUMPDEST PUSH1 0x40 MLOAD PUSH2 0x4B7 SWAP2 SWAP1 PUSH2 0x402E JUMP JUMPDEST PUSH1 0x40 MLOAD DUP1 SWAP2 SUB SWAP1 RETURN JUMPDEST CALLVALUE DUP1 ISZERO PUSH2 0x4CC JUMPI PUSH1 0x0 DUP1 REVERT JUMPDEST POP PUSH2 0x4E7 PUSH1 0x4 DUP1 CALLDATASIZE SUB DUP2 ADD SWAP1 PUSH2 0x4E2 SWAP2 SWAP1 PUSH2 0x3DB2 JUMP JUMPDEST PUSH2 0x1121 JUMP JUMPDEST STOP JUMPDEST CALLVALUE DUP1 ISZERO PUSH2 0x4F5 JUMPI PUSH1 0x0 DUP1 REVERT JUMPDEST POP PUSH2 0x510 PUSH1 0x4 DUP1 CALLDATASIZE SUB DUP2 ADD SWAP1 PUSH2 0x50B SWAP2 SWAP1 PUSH2 0x3C3A JUMP JUMPDEST PUSH2 0x1141 JUMP JUMPDEST PUSH1 0x40 MLOAD PUSH2 0x51D SWAP2 SWAP1 PUSH2 0x3CD2 JUMP JUMPDEST PUSH1 0x40 MLOAD DUP1 SWAP2 SUB SWAP1 RETURN JUMPDEST CALLVALUE DUP1 ISZERO PUSH2 0x532 JUMPI PUSH1 0x0 DUP1 REVERT JUMPDEST POP PUSH2 0x54D PUSH1 0x4 DUP1 CALLDATASIZE SUB DUP2 ADD SWAP1 PUSH2 0x548 SWAP2 SWAP1 PUSH2 0x3C3A JUMP JUMPDEST PUSH2 0x11B2 JUMP JUMPDEST PUSH1 0x40 MLOAD PUSH2 0x55A SWAP2 SWAP1 PUSH2 0x417C JUMP JUMPDEST PUSH1 0x40 MLOAD DUP1 SWAP2 SUB SWAP1 RETURN JUMPDEST CALLVALUE DUP1 ISZERO PUSH2 0x56F JUMPI PUSH1 0x0 DUP1 REVERT JUMPDEST POP PUSH2 0x58A PUSH1 0x4 DUP1 CALLDATASIZE SUB DUP2 ADD SWAP1 PUSH2 0x585 SWAP2 SWAP1 PUSH2 0x419E JUMP JUMPDEST PUSH2 0x13C4 JUMP JUMPDEST PUSH1 0x40 MLOAD PUSH2 0x597 SWAP2 SWAP1 PUSH2 0x417C JUMP JUMPDEST PUSH1 0x40 MLOAD DUP1 SWAP2 SUB SWAP1 RETURN JUMPDEST CALLVALUE DUP1 ISZERO PUSH2 0x5AC JUMPI PUSH1 0x0 DUP1 REVERT JUMPDEST POP PUSH2 0x5C7 PUSH1 0x4 DUP1 CALLDATASIZE SUB DUP2 ADD SWAP1 PUSH2 0x5C2 SWAP2 SWAP1 PUSH2 0x41EB JUMP JUMPDEST PUSH2 0x1620 JUMP JUMPDEST PUSH1 0x40 MLOAD PUSH2 0x5D4 SWAP2 SWAP1 PUSH2 0x42C7 JUMP JUMPDEST PUSH1 0x40 MLOAD DUP1 SWAP2 SUB SWAP1 RETURN JUMPDEST CALLVALUE DUP1 ISZERO PUSH2 0x5E9 JUMPI PUSH1 0x0 DUP1 REVERT JUMPDEST POP PUSH2 0x5F2 PUSH2 0x16B7 JUMP JUMPDEST PUSH1 0x40 MLOAD PUSH2 0x5FF SWAP2 SWAP1 PUSH2 0x3CD2 JUMP JUMPDEST PUSH1 0x40 MLOAD DUP1 SWAP2 SUB SWAP1 RETURN JUMPDEST CALLVALUE DUP1 ISZERO PUSH2 0x614 JUMPI PUSH1 0x0 DUP1 REVERT JUMPDEST POP PUSH2 0x62F PUSH1 0x4 DUP1 CALLDATASIZE SUB DUP2 ADD SWAP1 PUSH2 0x62A SWAP2 SWAP1 PUSH2 0x3C3A JUMP JUMPDEST PUSH2 0x16BD JUMP JUMPDEST PUSH1 0x40 MLOAD PUSH2 0x63C SWAP2 SWAP1 PUSH2 0x3CA8 JUMP JUMPDEST PUSH1 0x40 MLOAD DUP1 SWAP2 SUB SWAP1 RETURN JUMPDEST CALLVALUE DUP1 ISZERO PUSH2 0x651 JUMPI PUSH1 0x0 DUP1 REVERT JUMPDEST POP PUSH2 0x66C PUSH1 0x4 DUP1 CALLDATASIZE SUB DUP2 ADD SWAP1 PUSH2 0x667 SWAP2 SWAP1 PUSH2 0x41EB JUMP JUMPDEST PUSH2 0x1743 JUMP JUMPDEST PUSH1 0x40 MLOAD PUSH2 0x679 SWAP2 SWAP1 PUSH2 0x3CD2 JUMP JUMPDEST PUSH1 0x40 MLOAD DUP1 SWAP2 SUB SWAP1 RETURN JUMPDEST CALLVALUE DUP1 ISZERO PUSH2 0x68E JUMPI PUSH1 0x0 DUP1 REVERT JUMPDEST POP PUSH2 0x697 PUSH2 0x17FA JUMP JUMPDEST STOP JUMPDEST CALLVALUE DUP1 ISZERO PUSH2 0x6A5 JUMPI PUSH1 0x0 DUP1 REVERT JUMPDEST POP PUSH2 0x6C0 PUSH1 0x4 DUP1 CALLDATASIZE SUB DUP2 ADD SWAP1 PUSH2 0x6BB SWAP2 SWAP1 PUSH2 0x41EB JUMP JUMPDEST PUSH2 0x180E JUMP JUMPDEST PUSH1 0x40 MLOAD PUSH2 0x6CD SWAP2 SWAP1 PUSH2 0x43AB JUMP JUMPDEST PUSH1 0x40 MLOAD DUP1 SWAP2 SUB SWAP1 RETURN JUMPDEST CALLVALUE DUP1 ISZERO PUSH2 0x6E2 JUMPI PUSH1 0x0 DUP1 REVERT JUMPDEST POP PUSH2 0x6EB PUSH2 0x1926 JUMP JUMPDEST PUSH1 0x40 MLOAD PUSH2 0x6F8 SWAP2 SWAP1 PUSH2 0x3CA8 JUMP JUMPDEST PUSH1 0x40 MLOAD DUP1 SWAP2 SUB SWAP1 RETURN JUMPDEST CALLVALUE DUP1 ISZERO PUSH2 0x70D JUMPI PUSH1 0x0 DUP1 REVERT JUMPDEST POP PUSH2 0x716 PUSH2 0x194F JUMP JUMPDEST PUSH1 0x40 MLOAD PUSH2 0x723 SWAP2 SWAP1 PUSH2 0x3BE2 JUMP JUMPDEST PUSH1 0x40 MLOAD DUP1 SWAP2 SUB SWAP1 RETURN JUMPDEST CALLVALUE DUP1 ISZERO PUSH2 0x738 JUMPI PUSH1 0x0 DUP1 REVERT JUMPDEST POP PUSH2 0x753 PUSH1 0x4 DUP1 CALLDATASIZE SUB DUP2 ADD SWAP1 PUSH2 0x74E SWAP2 SWAP1 PUSH2 0x3C3A JUMP JUMPDEST PUSH2 0x19E1 JUMP JUMPDEST PUSH1 0x40 MLOAD PUSH2 0x760 SWAP2 SWAP1 PUSH2 0x4467 JUMP JUMPDEST PUSH1 0x40 MLOAD DUP1 SWAP2 SUB SWAP1 RETURN JUMPDEST CALLVALUE DUP1 ISZERO PUSH2 0x775 JUMPI PUSH1 0x0 DUP1 REVERT JUMPDEST POP PUSH2 0x790 PUSH1 0x4 DUP1 CALLDATASIZE SUB DUP2 ADD SWAP1 PUSH2 0x78B SWAP2 SWAP1 PUSH2 0x4489 JUMP JUMPDEST PUSH2 0x1CAC JUMP JUMPDEST STOP JUMPDEST CALLVALUE DUP1 ISZERO PUSH2 0x79E JUMPI PUSH1 0x0 DUP1 REVERT JUMPDEST POP PUSH2 0x7A7 PUSH2 0x1CC2 JUMP JUMPDEST PUSH1 0x40 MLOAD PUSH2 0x7B4 SWAP2 SWAP1 PUSH2 0x4616 JUMP JUMPDEST PUSH1 0x40 MLOAD DUP1 SWAP2 SUB SWAP1 RETURN JUMPDEST CALLVALUE DUP1 ISZERO PUSH2 0x7C9 JUMPI PUSH1 0x0 DUP1 REVERT JUMPDEST POP PUSH2 0x7E4 PUSH1 0x4 DUP1 CALLDATASIZE SUB DUP2 ADD SWAP1 PUSH2 0x7DF SWAP2 SWAP1 PUSH2 0x4768 JUMP JUMPDEST PUSH2 0x2023 JUMP JUMPDEST STOP JUMPDEST CALLVALUE DUP1 ISZERO PUSH2 0x7F2 JUMPI PUSH1 0x0 DUP1 REVERT JUMPDEST POP PUSH2 0x80D PUSH1 0x4 DUP1 CALLDATASIZE SUB DUP2 ADD SWAP1 PUSH2 0x808 SWAP2 SWAP1 PUSH2 0x3C3A JUMP JUMPDEST PUSH2 0x2085 JUMP JUMPDEST PUSH1 0x40 MLOAD PUSH2 0x81A SWAP2 SWAP1 PUSH2 0x3BE2 JUMP JUMPDEST PUSH1 0x40 MLOAD DUP1 SWAP2 SUB SWAP1 RETURN JUMPDEST PUSH2 0x83D PUSH1 0x4 DUP1 CALLDATASIZE SUB DUP2 ADD SWAP1 PUSH2 0x838 SWAP2 SWAP1 PUSH2 0x47EB JUMP JUMPDEST PUSH2 0x212C JUMP JUMPDEST STOP JUMPDEST CALLVALUE DUP1 ISZERO PUSH2 0x84B JUMPI PUSH1 0x0 DUP1 REVERT JUMPDEST POP PUSH2 0x866 PUSH1 0x4 DUP1 CALLDATASIZE SUB DUP2 ADD SWAP1 PUSH2 0x861 SWAP2 SWAP1 PUSH2 0x4834 JUMP JUMPDEST PUSH2 0x242E JUMP JUMPDEST PUSH1 0x40 MLOAD PUSH2 0x873 SWAP2 SWAP1 PUSH2 0x3B37 JUMP JUMPDEST PUSH1 0x40 MLOAD DUP1 SWAP2 SUB SWAP1 RETURN JUMPDEST CALLVALUE DUP1 ISZERO PUSH2 0x888 JUMPI PUSH1 0x0 DUP1 REVERT JUMPDEST POP PUSH2 0x8A3 PUSH1 0x4 DUP1 CALLDATASIZE SUB DUP2 ADD SWAP1 PUSH2 0x89E SWAP2 SWAP1 PUSH2 0x41EB JUMP JUMPDEST PUSH2 0x24C2 JUMP JUMPDEST STOP JUMPDEST PUSH1 0x0 PUSH32 0x780E9D6300000000000000000000000000000000000000000000000000000000 PUSH28 0xFFFFFFFFFFFFFFFFFFFFFFFFFFFFFFFFFFFFFFFFFFFFFFFFFFFFFFFF NOT AND DUP3 PUSH28 0xFFFFFFFFFFFFFFFFFFFFFFFFFFFFFFFFFFFFFFFFFFFFFFFFFFFFFFFF NOT AND EQ DUP1 PUSH2 0x918 JUMPI POP PUSH2 0x917 DUP3 PUSH2 0x2545 JUMP JUMPDEST JUMPDEST SWAP1 POP SWAP2 SWAP1 POP JUMP JUMPDEST PUSH1 0x60 PUSH1 0x1 DUP1 SLOAD PUSH2 0x92E SWAP1 PUSH2 0x48A3 JUMP JUMPDEST DUP1 PUSH1 0x1F ADD PUSH1 0x20 DUP1 SWAP2 DIV MUL PUSH1 0x20 ADD PUSH1 0x40 MLOAD SWAP1 DUP2 ADD PUSH1 0x40 MSTORE DUP1 SWAP3 SWAP2 SWAP1 DUP2 DUP2 MSTORE PUSH1 0x20 ADD DUP3 DUP1 SLOAD PUSH2 0x95A SWAP1 PUSH2 0x48A3 JUMP JUMPDEST DUP1 ISZERO PUSH2 0x9A7 JUMPI DUP1 PUSH1 0x1F LT PUSH2 0x97C JUMPI PUSH2 0x100 DUP1 DUP4 SLOAD DIV MUL DUP4 MSTORE SWAP2 PUSH1 0x20 ADD SWAP2 PUSH2 0x9A7 JUMP JUMPDEST DUP3 ADD SWAP2 SWAP1 PUSH1 0x0 MSTORE PUSH1 0x20 PUSH1 0x0 KECCAK256 SWAP1 JUMPDEST DUP2 SLOAD DUP2 MSTORE SWAP1 PUSH1 0x1 ADD SWAP1 PUSH1 0x20 ADD DUP1 DUP4 GT PUSH2 0x98A JUMPI DUP3 SWAP1 SUB PUSH1 0x1F AND DUP3 ADD SWAP2 JUMPDEST POP POP POP POP POP SWAP1 POP SWAP1 JUMP JUMPDEST PUSH1 0x0 PUSH2 0x9BC DUP3 PUSH2 0x2627 JUMP JUMPDEST PUSH1 0x5 PUSH1 0x0 DUP4 DUP2 MSTORE PUSH1 0x20 ADD SWAP1 DUP2 MSTORE PUSH1 0x20 ADD PUSH1 0x0 KECCAK256 PUSH1 0x0 SWAP1 SLOAD SWAP1 PUSH2 0x100 EXP SWAP1 DIV PUSH20 0xFFFFFFFFFFFFFFFFFFFFFFFFFFFFFFFFFFFFFFFF AND SWAP1 POP SWAP2 SWAP1 POP JUMP JUMPDEST PUSH1 0xD SLOAD DUP2 JUMP JUMPDEST PUSH1 0x0 PUSH2 0xA08 DUP3 PUSH2 0x16BD JUMP JUMPDEST SWAP1 POP DUP1 PUSH20 0xFFFFFFFFFFFFFFFFFFFFFFFFFFFFFFFFFFFFFFFF AND DUP4 PUSH20 0xFFFFFFFFFFFFFFFFFFFFFFFFFFFFFFFFFFFFFFFF AND SUB PUSH2 0xA78 JUMPI PUSH1 0x40 MLOAD PUSH32 0x8C379A000000000000000000000000000000000000000000000000000000000 DUP2 MSTORE PUSH1 0x4 ADD PUSH2 0xA6F SWAP1 PUSH2 0x4946 JUMP JUMPDEST PUSH1 0x40 MLOAD DUP1 SWAP2 SUB SWAP1 REVERT JUMPDEST DUP1 PUSH20 0xFFFFFFFFFFFFFFFFFFFFFFFFFFFFFFFFFFFFFFFF AND PUSH2 0xA97 PUSH2 0x2672 JUMP JUMPDEST PUSH20 0xFFFFFFFFFFFFFFFFFFFFFFFFFFFFFFFFFFFFFFFF AND EQ DUP1 PUSH2 0xAC6 JUMPI POP PUSH2 0xAC5 DUP2 PUSH2 0xAC0 PUSH2 0x2672 JUMP JUMPDEST PUSH2 0x242E JUMP JUMPDEST JUMPDEST PUSH2 0xB05 JUMPI PUSH1 0x40 MLOAD PUSH32 0x8C379A000000000000000000000000000000000000000000000000000000000 DUP2 MSTORE PUSH1 0x4 ADD PUSH2 0xAFC SWAP1 PUSH2 0x49D8 JUMP JUMPDEST PUSH1 0x40 MLOAD DUP1 SWAP2 SUB SWAP1 REVERT JUMPDEST PUSH2 0xB0F DUP4 DUP4 PUSH2 0x267A JUMP JUMPDEST POP POP POP JUMP JUMPDEST PUSH2 0xB1C PUSH2 0x2733 JUMP JUMPDEST DUP1 PUSH1 0x13 PUSH1 0x0 PUSH2 0x100 EXP DUP2 SLOAD DUP2 PUSH1 0xFF MUL NOT AND SWAP1 DUP4 ISZERO ISZERO MUL OR SWAP1 SSTORE POP POP JUMP JUMPDEST PUSH1 0x13 PUSH1 0x0 SWAP1 SLOAD SWAP1 PUSH2 0x100 EXP SWAP1 DIV PUSH1 0xFF AND DUP2 JUMP JUMPDEST PUSH1 0x0 PUSH1 0x9 DUP1 SLOAD SWAP1 POP SWAP1 POP SWAP1 JUMP JUMPDEST PUSH1 0xC SLOAD DUP2 JUMP JUMPDEST PUSH2 0xB70 PUSH2 0xB6A PUSH2 0x2672 JUMP JUMPDEST DUP3 PUSH2 0x27B1 JUMP JUMPDEST PUSH2 0xBAF JUMPI PUSH1 0x40 MLOAD PUSH32 0x8C379A000000000000000000000000000000000000000000000000000000000 DUP2 MSTORE PUSH1 0x4 ADD PUSH2 0xBA6 SWAP1 PUSH2 0x4A6A JUMP JUMPDEST PUSH1 0x40 MLOAD DUP1 SWAP2 SUB SWAP1 REVERT JUMPDEST PUSH2 0xBBA DUP4 DUP4 DUP4 PUSH2 0x2846 JUMP JUMPDEST POP POP POP JUMP JUMPDEST PUSH2 0xBC7 PUSH2 0x2733 JUMP JUMPDEST DUP1 PUSH1 0x10 PUSH1 0x0 DUP5 DUP2 MSTORE PUSH1 0x20 ADD SWAP1 DUP2 MSTORE PUSH1 0x20 ADD PUSH1 0x0 KECCAK256 DUP2 DUP2 PUSH2 0xBE7 SWAP2 SWAP1 PUSH2 0x4F08 JUMP JUMPDEST SWAP1 POP POP PUSH32 0x2AF2668216C13797F987F500352B5DCCCB7F93D074B60A9EA347AFB160CFED9E DUP3 DUP3 PUSH1 0x40 MLOAD PUSH2 0xC1B SWAP3 SWAP2 SWAP1 PUSH2 0x5087 JUMP JUMPDEST PUSH1 0x40 MLOAD DUP1 SWAP2 SUB SWAP1 LOG1 POP POP JUMP JUMPDEST PUSH1 0x0 PUSH2 0xC32 DUP4 PUSH2 0x1743 JUMP JUMPDEST DUP3 LT PUSH2 0xC73 JUMPI PUSH1 0x40 MLOAD PUSH32 0x8C379A000000000000000000000000000000000000000000000000000000000 DUP2 MSTORE PUSH1 0x4 ADD PUSH2 0xC6A SWAP1 PUSH2 0x5129 JUMP JUMPDEST PUSH1 0x40 MLOAD DUP1 SWAP2 SUB SWAP1 REVERT JUMPDEST PUSH1 0x7 PUSH1 0x0 DUP5 PUSH20 0xFFFFFFFFFFFFFFFFFFFFFFFFFFFFFFFFFFFFFFFF AND PUSH20 0xFFFFFFFFFFFFFFFFFFFFFFFFFFFFFFFFFFFFFFFF AND DUP2 MSTORE PUSH1 0x20 ADD SWAP1 DUP2 MSTORE PUSH1 0x20 ADD PUSH1 0x0 KECCAK256 PUSH1 0x0 DUP4 DUP2 MSTORE PUSH1 0x20 ADD SWAP1 DUP2 MSTORE PUSH1 0x20 ADD PUSH1 0x0 KECCAK256 SLOAD SWAP1 POP SWAP3 SWAP2 POP POP JUMP JUMPDEST DUP4 DUP4 PUSH1 0x11 DUP3 DUP3 PUSH1 0x40 MLOAD PUSH2 0xCE0 SWAP3 SWAP2 SWAP1 PUSH2 0x5179 JUMP JUMPDEST SWAP1 DUP2 MSTORE PUSH1 0x20 ADD PUSH1 0x40 MLOAD DUP1 SWAP2 SUB SWAP1 KECCAK256 PUSH1 0x0 SWAP1 SLOAD SWAP1 PUSH2 0x100 EXP SWAP1 DIV PUSH1 0xFF AND PUSH2 0xD3B JUMPI PUSH1 0x40 MLOAD PUSH32 0x8C379A000000000000000000000000000000000000000000000000000000000 DUP2 MSTORE PUSH1 0x4 ADD PUSH2 0xD32 SWAP1 PUSH2 0x51DE JUMP JUMPDEST PUSH1 0x40 MLOAD DUP1 SWAP2 SUB SWAP1 REVERT JUMPDEST PUSH1 0x12 PUSH1 0x0 DUP2 SLOAD DUP1 SWAP3 SWAP2 SWAP1 PUSH2 0xD4E SWAP1 PUSH2 0x522D JUMP JUMPDEST SWAP2 SWAP1 POP SSTORE POP PUSH1 0x40 MLOAD DUP1 PUSH1 0x80 ADD PUSH1 0x40 MSTORE DUP1 PUSH1 0x12 SLOAD DUP2 MSTORE PUSH1 0x20 ADD DUP8 DUP8 DUP1 DUP1 PUSH1 0x1F ADD PUSH1 0x20 DUP1 SWAP2 DIV MUL PUSH1 0x20 ADD PUSH1 0x40 MLOAD SWAP1 DUP2 ADD PUSH1 0x40 MSTORE DUP1 SWAP4 SWAP3 SWAP2 SWAP1 DUP2 DUP2 MSTORE PUSH1 0x20 ADD DUP4 DUP4 DUP1 DUP3 DUP5 CALLDATACOPY PUSH1 0x0 DUP2 DUP5 ADD MSTORE PUSH1 0x1F NOT PUSH1 0x1F DUP3 ADD AND SWAP1 POP DUP1 DUP4 ADD SWAP3 POP POP POP POP POP POP POP DUP2 MSTORE PUSH1 0x20 ADD DUP6 DUP6 DUP1 DUP1 PUSH1 0x1F ADD PUSH1 0x20 DUP1 SWAP2 DIV MUL PUSH1 0x20 ADD PUSH1 0x40 MLOAD SWAP1 DUP2 ADD PUSH1 0x40 MSTORE DUP1 SWAP4 SWAP3 SWAP2 SWAP1 DUP2 DUP2 MSTORE PUSH1 0x20 ADD DUP4 DUP4 DUP1 DUP3 DUP5 CALLDATACOPY PUSH1 0x0 DUP2 DUP5 ADD MSTORE PUSH1 0x1F NOT PUSH1 0x1F DUP3 ADD AND SWAP1 POP DUP1 DUP4 ADD SWAP3 POP POP POP POP POP POP POP DUP2 MSTORE PUSH1 0x20 ADD TIMESTAMP DUP2 MSTORE POP PUSH1 0x14 PUSH1 0x0 PUSH1 0x12 SLOAD DUP2 MSTORE PUSH1 0x20 ADD SWAP1 DUP2 MSTORE PUSH1 0x20 ADD PUSH1 0x0 KECCAK256 PUSH1 0x0 DUP3 ADD MLOAD DUP2 PUSH1 0x0 ADD SSTORE PUSH1 0x20 DUP3 ADD MLOAD DUP2 PUSH1 0x1 ADD SWAP1 DUP2 PUSH2 0xE32 SWAP2 SWAP1 PUSH2 0x5275 JUMP JUMPDEST POP PUSH1 0x40 DUP3 ADD MLOAD DUP2 PUSH1 0x2 ADD SWAP1 DUP2 PUSH2 0xE48 SWAP2 SWAP1 PUSH2 0x5275 JUMP JUMPDEST POP PUSH1 0x60 DUP3 ADD MLOAD DUP2 PUSH1 0x3 ADD SSTORE SWAP1 POP POP PUSH1 0x15 DUP7 DUP7 PUSH1 0x40 MLOAD PUSH2 0xE68 SWAP3 SWAP2 SWAP1 PUSH2 0x5179 JUMP JUMPDEST SWAP1 DUP2 MSTORE PUSH1 0x20 ADD PUSH1 0x40 MLOAD DUP1 SWAP2 SUB SWAP1 KECCAK256 PUSH1 0x12 SLOAD SWAP1 DUP1 PUSH1 0x1 DUP2 SLOAD ADD DUP1 DUP3 SSTORE DUP1 SWAP2 POP POP PUSH1 0x1 SWAP1 SUB SWAP1 PUSH1 0x0 MSTORE PUSH1 0x20 PUSH1 0x0 KECCAK256 ADD PUSH1 0x0 SWAP1 SWAP2 SWAP1 SWAP2 SWAP1 SWAP2 POP SSTORE PUSH32 0x104AF12493094A08A9AF15004754171FD42E502F3CFFEC40976BB4E6ECD1AE8A PUSH1 0x14 PUSH1 0x0 PUSH1 0x12 SLOAD DUP2 MSTORE PUSH1 0x20 ADD SWAP1 DUP2 MSTORE PUSH1 0x20 ADD PUSH1 0x0 KECCAK256 PUSH1 0x40 MLOAD PUSH2 0xEE2 SWAP2 SWAP1 PUSH2 0x547C JUMP JUMPDEST PUSH1 0x40 MLOAD DUP1 SWAP2 SUB SWAP1 LOG1 POP POP POP POP POP POP JUMP JUMPDEST PUSH2 0xEFA PUSH2 0x2733 JUMP JUMPDEST PUSH1 0x0 PUSH2 0xF04 PUSH2 0x1926 JUMP JUMPDEST SWAP1 POP PUSH1 0x0 SELFBALANCE SWAP1 POP PUSH1 0x0 DUP3 PUSH20 0xFFFFFFFFFFFFFFFFFFFFFFFFFFFFFFFFFFFFFFFF AND DUP3 PUSH1 0x40 MLOAD PUSH2 0xF31 SWAP1 PUSH2 0x54CF JUMP JUMPDEST PUSH1 0x0 PUSH1 0x40 MLOAD DUP1 DUP4 SUB DUP2 DUP6 DUP8 GAS CALL SWAP3 POP POP POP RETURNDATASIZE DUP1 PUSH1 0x0 DUP2 EQ PUSH2 0xF6E JUMPI PUSH1 0x40 MLOAD SWAP2 POP PUSH1 0x1F NOT PUSH1 0x3F RETURNDATASIZE ADD AND DUP3 ADD PUSH1 0x40 MSTORE RETURNDATASIZE DUP3 MSTORE RETURNDATASIZE PUSH1 0x0 PUSH1 0x20 DUP5 ADD RETURNDATACOPY PUSH2 0xF73 JUMP JUMPDEST PUSH1 0x60 SWAP2 POP JUMPDEST POP POP SWAP1 POP DUP1 PUSH2 0xFB7 JUMPI PUSH1 0x40 MLOAD PUSH32 0x8C379A000000000000000000000000000000000000000000000000000000000 DUP2 MSTORE PUSH1 0x4 ADD PUSH2 0xFAE SWAP1 PUSH2 0x5530 JUMP JUMPDEST PUSH1 0x40 MLOAD DUP1 SWAP2 SUB SWAP1 REVERT JUMPDEST POP POP POP JUMP JUMPDEST PUSH2 0xFC4 PUSH2 0x3A16 JUMP JUMPDEST PUSH1 0x14 PUSH1 0x0 DUP4 DUP2 MSTORE PUSH1 0x20 ADD SWAP1 DUP2 MSTORE PUSH1 0x20 ADD PUSH1 0x0 KECCAK256 PUSH1 0x40 MLOAD DUP1 PUSH1 0x80 ADD PUSH1 0x40 MSTORE SWAP1 DUP2 PUSH1 0x0 DUP3 ADD SLOAD DUP2 MSTORE PUSH1 0x20 ADD PUSH1 0x1 DUP3 ADD DUP1 SLOAD PUSH2 0xFFC SWAP1 PUSH2 0x48A3 JUMP JUMPDEST DUP1 PUSH1 0x1F ADD PUSH1 0x20 DUP1 SWAP2 DIV MUL PUSH1 0x20 ADD PUSH1 0x40 MLOAD SWAP1 DUP2 ADD PUSH1 0x40 MSTORE DUP1 SWAP3 SWAP2 SWAP1 DUP2 DUP2 MSTORE PUSH1 0x20 ADD DUP3 DUP1 SLOAD PUSH2 0x1028 SWAP1 PUSH2 0x48A3 JUMP JUMPDEST DUP1 ISZERO PUSH2 0x1075 JUMPI DUP1 PUSH1 0x1F LT PUSH2 0x104A JUMPI PUSH2 0x100 DUP1 DUP4 SLOAD DIV MUL DUP4 MSTORE SWAP2 PUSH1 0x20 ADD SWAP2 PUSH2 0x1075 JUMP JUMPDEST DUP3 ADD SWAP2 SWAP1 PUSH1 0x0 MSTORE PUSH1 0x20 PUSH1 0x0 KECCAK256 SWAP1 JUMPDEST DUP2 SLOAD DUP2 MSTORE SWAP1 PUSH1 0x1 ADD SWAP1 PUSH1 0x20 ADD DUP1 DUP4 GT PUSH2 0x1058 JUMPI DUP3 SWAP1 SUB PUSH1 0x1F AND DUP3 ADD SWAP2 JUMPDEST POP POP POP POP POP DUP2 MSTORE PUSH1 0x20 ADD PUSH1 0x2 DUP3 ADD DUP1 SLOAD PUSH2 0x108E SWAP1 PUSH2 0x48A3 JUMP JUMPDEST DUP1 PUSH1 0x1F ADD PUSH1 0x20 DUP1 SWAP2 DIV MUL PUSH1 0x20 ADD PUSH1 0x40 MLOAD SWAP1 DUP2 ADD PUSH1 0x40 MSTORE DUP1 SWAP3 SWAP2 SWAP1 DUP2 DUP2 MSTORE PUSH1 0x20 ADD DUP3 DUP1 SLOAD PUSH2 0x10BA SWAP1 PUSH2 0x48A3 JUMP JUMPDEST DUP1 ISZERO PUSH2 0x1107 JUMPI DUP1 PUSH1 0x1F LT PUSH2 0x10DC JUMPI PUSH2 0x100 DUP1 DUP4 SLOAD DIV MUL DUP4 MSTORE SWAP2 PUSH1 0x20 ADD SWAP2 PUSH2 0x1107 JUMP JUMPDEST DUP3 ADD SWAP2 SWAP1 PUSH1 0x0 MSTORE PUSH1 0x20 PUSH1 0x0 KECCAK256 SWAP1 JUMPDEST DUP2 SLOAD DUP2 MSTORE SWAP1 PUSH1 0x1 ADD SWAP1 PUSH1 0x20 ADD DUP1 DUP4 GT PUSH2 0x10EA JUMPI DUP3 SWAP1 SUB PUSH1 0x1F AND DUP3 ADD SWAP2 JUMPDEST POP POP POP POP POP DUP2 MSTORE PUSH1 0x20 ADD PUSH1 0x3 DUP3 ADD SLOAD DUP2 MSTORE POP POP SWAP1 POP SWAP2 SWAP1 POP JUMP JUMPDEST PUSH2 0x113C DUP4 DUP4 DUP4 PUSH1 0x40 MLOAD DUP1 PUSH1 0x20 ADD PUSH1 0x40 MSTORE DUP1 PUSH1 0x0 DUP2 MSTORE POP PUSH2 0x2023 JUMP JUMPDEST POP POP POP JUMP JUMPDEST PUSH1 0x0 PUSH2 0x114B PUSH2 0xB4C JUMP JUMPDEST DUP3 LT PUSH2 0x118C JUMPI PUSH1 0x40 MLOAD PUSH32 0x8C379A000000000000000000000000000000000000000000000000000000000 DUP2 MSTORE PUSH1 0x4 ADD PUSH2 0x1183 SWAP1 PUSH2 0x55C2 JUMP JUMPDEST PUSH1 0x40 MLOAD DUP1 SWAP2 SUB SWAP1 REVERT JUMPDEST PUSH1 0x9 DUP3 DUP2 SLOAD DUP2 LT PUSH2 0x11A0 JUMPI PUSH2 0x119F PUSH2 0x55E2 JUMP JUMPDEST JUMPDEST SWAP1 PUSH1 0x0 MSTORE PUSH1 0x20 PUSH1 0x0 KECCAK256 ADD SLOAD SWAP1 POP SWAP2 SWAP1 POP JUMP JUMPDEST PUSH1 0x60 PUSH1 0x0 PUSH1 0xA PUSH8 0xFFFFFFFFFFFFFFFF DUP2 GT ISZERO PUSH2 0x11D1 JUMPI PUSH2 0x11D0 PUSH2 0x463D JUMP JUMPDEST JUMPDEST PUSH1 0x40 MLOAD SWAP1 DUP1 DUP3 MSTORE DUP1 PUSH1 0x20 MUL PUSH1 0x20 ADD DUP3 ADD PUSH1 0x40 MSTORE DUP1 ISZERO PUSH2 0x120A JUMPI DUP2 PUSH1 0x20 ADD JUMPDEST PUSH2 0x11F7 PUSH2 0x3A16 JUMP JUMPDEST DUP2 MSTORE PUSH1 0x20 ADD SWAP1 PUSH1 0x1 SWAP1 SUB SWAP1 DUP2 PUSH2 0x11EF JUMPI SWAP1 POP JUMPDEST POP SWAP1 POP PUSH1 0x0 PUSH1 0x1 SWAP1 POP JUMPDEST PUSH1 0xA DUP2 GT PUSH2 0x13BA JUMPI PUSH1 0x14 PUSH1 0x0 DUP3 DUP7 PUSH2 0x122C SWAP2 SWAP1 PUSH2 0x5611 JUMP JUMPDEST DUP2 MSTORE PUSH1 0x20 ADD SWAP1 DUP2 MSTORE PUSH1 0x20 ADD PUSH1 0x0 KECCAK256 PUSH1 0x40 MLOAD DUP1 PUSH1 0x80 ADD PUSH1 0x40 MSTORE SWAP1 DUP2 PUSH1 0x0 DUP3 ADD SLOAD DUP2 MSTORE PUSH1 0x20 ADD PUSH1 0x1 DUP3 ADD DUP1 SLOAD PUSH2 0x125F SWAP1 PUSH2 0x48A3 JUMP JUMPDEST DUP1 PUSH1 0x1F ADD PUSH1 0x20 DUP1 SWAP2 DIV MUL PUSH1 0x20 ADD PUSH1 0x40 MLOAD SWAP1 DUP2 ADD PUSH1 0x40 MSTORE DUP1 SWAP3 SWAP2 SWAP1 DUP2 DUP2 MSTORE PUSH1 0x20 ADD DUP3 DUP1 SLOAD PUSH2 0x128B SWAP1 PUSH2 0x48A3 JUMP JUMPDEST DUP1 ISZERO PUSH2 0x12D8 JUMPI DUP1 PUSH1 0x1F LT PUSH2 0x12AD JUMPI PUSH2 0x100 DUP1 DUP4 SLOAD DIV MUL DUP4 MSTORE SWAP2 PUSH1 0x20 ADD SWAP2 PUSH2 0x12D8 JUMP JUMPDEST DUP3 ADD SWAP2 SWAP1 PUSH1 0x0 MSTORE PUSH1 0x20 PUSH1 0x0 KECCAK256 SWAP1 JUMPDEST DUP2 SLOAD DUP2 MSTORE SWAP1 PUSH1 0x1 ADD SWAP1 PUSH1 0x20 ADD DUP1 DUP4 GT PUSH2 0x12BB JUMPI DUP3 SWAP1 SUB PUSH1 0x1F AND DUP3 ADD SWAP2 JUMPDEST POP POP POP POP POP DUP2 MSTORE PUSH1 0x20 ADD PUSH1 0x2 DUP3 ADD DUP1 SLOAD PUSH2 0x12F1 SWAP1 PUSH2 0x48A3 JUMP JUMPDEST DUP1 PUSH1 0x1F ADD PUSH1 0x20 DUP1 SWAP2 DIV MUL PUSH1 0x20 ADD PUSH1 0x40 MLOAD SWAP1 DUP2 ADD PUSH1 0x40 MSTORE DUP1 SWAP3 SWAP2 SWAP1 DUP2 DUP2 MSTORE PUSH1 0x20 ADD DUP3 DUP1 SLOAD PUSH2 0x131D SWAP1 PUSH2 0x48A3 JUMP JUMPDEST DUP1 ISZERO PUSH2 0x136A JUMPI DUP1 PUSH1 0x1F LT PUSH2 0x133F JUMPI PUSH2 0x100 DUP1 DUP4 SLOAD DIV MUL DUP4 MSTORE SWAP2 PUSH1 0x20 ADD SWAP2 PUSH2 0x136A JUMP JUMPDEST DUP3 ADD SWAP2 SWAP1 PUSH1 0x0 MSTORE PUSH1 0x20 PUSH1 0x0 KECCAK256 SWAP1 JUMPDEST DUP2 SLOAD DUP2 MSTORE SWAP1 PUSH1 0x1 ADD SWAP1 PUSH1 0x20 ADD DUP1 DUP4 GT PUSH2 0x134D JUMPI DUP3 SWAP1 SUB PUSH1 0x1F AND DUP3 ADD SWAP2 JUMPDEST POP POP POP POP POP DUP2 MSTORE PUSH1 0x20 ADD PUSH1 0x3 DUP3 ADD SLOAD DUP2 MSTORE POP POP DUP3 PUSH1 0x1 DUP4 PUSH2 0x138B SWAP2 SWAP1 PUSH2 0x5645 JUMP JUMPDEST DUP2 MLOAD DUP2 LT PUSH2 0x139C JUMPI PUSH2 0x139B PUSH2 0x55E2 JUMP JUMPDEST JUMPDEST PUSH1 0x20 MUL PUSH1 0x20 ADD ADD DUP2 SWAP1 MSTORE POP DUP1 DUP1 PUSH2 0x13B2 SWAP1 PUSH2 0x522D JUMP JUMPDEST SWAP2 POP POP PUSH2 0x1214 JUMP JUMPDEST POP DUP1 SWAP2 POP POP SWAP2 SWAP1 POP JUMP JUMPDEST PUSH1 0x60 PUSH1 0x0 PUSH1 0x15 DUP5 DUP5 PUSH1 0x40 MLOAD PUSH2 0x13DA SWAP3 SWAP2 SWAP1 PUSH2 0x5179 JUMP JUMPDEST SWAP1 DUP2 MSTORE PUSH1 0x20 ADD PUSH1 0x40 MLOAD DUP1 SWAP2 SUB SWAP1 KECCAK256 DUP1 SLOAD SWAP1 POP SWAP1 POP PUSH1 0x0 DUP2 PUSH8 0xFFFFFFFFFFFFFFFF DUP2 GT ISZERO PUSH2 0x140A JUMPI PUSH2 0x1409 PUSH2 0x463D JUMP JUMPDEST JUMPDEST PUSH1 0x40 MLOAD SWAP1 DUP1 DUP3 MSTORE DUP1 PUSH1 0x20 MUL PUSH1 0x20 ADD DUP3 ADD PUSH1 0x40 MSTORE DUP1 ISZERO PUSH2 0x1443 JUMPI DUP2 PUSH1 0x20 ADD JUMPDEST PUSH2 0x1430 PUSH2 0x3A16 JUMP JUMPDEST DUP2 MSTORE PUSH1 0x20 ADD SWAP1 PUSH1 0x1 SWAP1 SUB SWAP1 DUP2 PUSH2 0x1428 JUMPI SWAP1 POP JUMPDEST POP SWAP1 POP PUSH1 0x0 JUMPDEST DUP3 DUP2 LT ISZERO PUSH2 0x1614 JUMPI PUSH1 0x14 PUSH1 0x0 PUSH1 0x15 DUP9 DUP9 PUSH1 0x40 MLOAD PUSH2 0x1467 SWAP3 SWAP2 SWAP1 PUSH2 0x5179 JUMP JUMPDEST SWAP1 DUP2 MSTORE PUSH1 0x20 ADD PUSH1 0x40 MLOAD DUP1 SWAP2 SUB SWAP1 KECCAK256 DUP4 DUP2 SLOAD DUP2 LT PUSH2 0x1487 JUMPI PUSH2 0x1486 PUSH2 0x55E2 JUMP JUMPDEST JUMPDEST SWAP1 PUSH1 0x0 MSTORE PUSH1 0x20 PUSH1 0x0 KECCAK256 ADD SLOAD DUP2 MSTORE PUSH1 0x20 ADD SWAP1 DUP2 MSTORE PUSH1 0x20 ADD PUSH1 0x0 KECCAK256 PUSH1 0x40 MLOAD DUP1 PUSH1 0x80 ADD PUSH1 0x40 MSTORE SWAP1 DUP2 PUSH1 0x0 DUP3 ADD SLOAD DUP2 MSTORE PUSH1 0x20 ADD PUSH1 0x1 DUP3 ADD DUP1 SLOAD PUSH2 0x14C5 SWAP1 PUSH2 0x48A3 JUMP JUMPDEST DUP1 PUSH1 0x1F ADD PUSH1 0x20 DUP1 SWAP2 DIV MUL PUSH1 0x20 ADD PUSH1 0x40 MLOAD SWAP1 DUP2 ADD PUSH1 0x40 MSTORE DUP1 SWAP3 SWAP2 SWAP1 DUP2 DUP2 MSTORE PUSH1 0x20 ADD DUP3 DUP1 SLOAD PUSH2 0x14F1 SWAP1 PUSH2 0x48A3 JUMP JUMPDEST DUP1 ISZERO PUSH2 0x153E JUMPI DUP1 PUSH1 0x1F LT PUSH2 0x1513 JUMPI PUSH2 0x100 DUP1 DUP4 SLOAD DIV MUL DUP4 MSTORE SWAP2 PUSH1 0x20 ADD SWAP2 PUSH2 0x153E JUMP JUMPDEST DUP3 ADD SWAP2 SWAP1 PUSH1 0x0 MSTORE PUSH1 0x20 PUSH1 0x0 KECCAK256 SWAP1 JUMPDEST DUP2 SLOAD DUP2 MSTORE SWAP1 PUSH1 0x1 ADD SWAP1 PUSH1 0x20 ADD DUP1 DUP4 GT PUSH2 0x1521 JUMPI DUP3 SWAP1 SUB PUSH1 0x1F AND DUP3 ADD SWAP2 JUMPDEST POP POP POP POP POP DUP2 MSTORE PUSH1 0x20 ADD PUSH1 0x2 DUP3 ADD DUP1 SLOAD PUSH2 0x1557 SWAP1 PUSH2 0x48A3 JUMP JUMPDEST DUP1 PUSH1 0x1F ADD PUSH1 0x20 DUP1 SWAP2 DIV MUL PUSH1 0x20 ADD PUSH1 0x40 MLOAD SWAP1 DUP2 ADD PUSH1 0x40 MSTORE DUP1 SWAP3 SWAP2 SWAP1 DUP2 DUP2 MSTORE PUSH1 0x20 ADD DUP3 DUP1 SLOAD PUSH2 0x1583 SWAP1 PUSH2 0x48A3 JUMP JUMPDEST DUP1 ISZERO PUSH2 0x15D0 JUMPI DUP1 PUSH1 0x1F LT PUSH2 0x15A5 JUMPI PUSH2 0x100 DUP1 DUP4 SLOAD DIV MUL DUP4 MSTORE SWAP2 PUSH1 0x20 ADD SWAP2 PUSH2 0x15D0 JUMP JUMPDEST DUP3 ADD SWAP2 SWAP1 PUSH1 0x0 MSTORE PUSH1 0x20 PUSH1 0x0 KECCAK256 SWAP1 JUMPDEST DUP2 SLOAD DUP2 MSTORE SWAP1 PUSH1 0x1 ADD SWAP1 PUSH1 0x20 ADD DUP1 DUP4 GT PUSH2 0x15B3 JUMPI DUP3 SWAP1 SUB PUSH1 0x1F AND DUP3 ADD SWAP2 JUMPDEST POP POP POP POP POP DUP2 MSTORE PUSH1 0x20 ADD PUSH1 0x3 DUP3 ADD SLOAD DUP2 MSTORE POP POP DUP3 DUP3 DUP2 MLOAD DUP2 LT PUSH2 0x15F6 JUMPI PUSH2 0x15F5 PUSH2 0x55E2 JUMP JUMPDEST JUMPDEST PUSH1 0x20 MUL PUSH1 0x20 ADD ADD DUP2 SWAP1 MSTORE POP DUP1 DUP1 PUSH2 0x160C SWAP1 PUSH2 0x522D JUMP JUMPDEST SWAP2 POP POP PUSH2 0x1449 JUMP JUMPDEST POP DUP1 SWAP3 POP POP POP SWAP3 SWAP2 POP POP JUMP JUMPDEST PUSH1 0x60 PUSH1 0xE PUSH1 0x0 DUP4 PUSH20 0xFFFFFFFFFFFFFFFFFFFFFFFFFFFFFFFFFFFFFFFF AND PUSH20 0xFFFFFFFFFFFFFFFFFFFFFFFFFFFFFFFFFFFFFFFF AND DUP2 MSTORE PUSH1 0x20 ADD SWAP1 DUP2 MSTORE PUSH1 0x20 ADD PUSH1 0x0 KECCAK256 DUP1 SLOAD DUP1 PUSH1 0x20 MUL PUSH1 0x20 ADD PUSH1 0x40 MLOAD SWAP1 DUP2 ADD PUSH1 0x40 MSTORE DUP1 SWAP3 SWAP2 SWAP1 DUP2 DUP2 MSTORE PUSH1 0x20 ADD DUP3 DUP1 SLOAD DUP1 ISZERO PUSH2 0x16AB JUMPI PUSH1 0x20 MUL DUP3 ADD SWAP2 SWAP1 PUSH1 0x0 MSTORE PUSH1 0x20 PUSH1 0x0 KECCAK256 SWAP1 JUMPDEST DUP2 SLOAD DUP2 MSTORE PUSH1 0x20 ADD SWAP1 PUSH1 0x1 ADD SWAP1 DUP1 DUP4 GT PUSH2 0x1697 JUMPI JUMPDEST POP POP POP POP POP SWAP1 POP SWAP2 SWAP1 POP JUMP JUMPDEST PUSH1 0x12 SLOAD DUP2 JUMP JUMPDEST PUSH1 0x0 DUP1 PUSH2 0x16C9 DUP4 PUSH2 0x2B3F JUMP JUMPDEST SWAP1 POP PUSH1 0x0 PUSH20 0xFFFFFFFFFFFFFFFFFFFFFFFFFFFFFFFFFFFFFFFF AND DUP2 PUSH20 0xFFFFFFFFFFFFFFFFFFFFFFFFFFFFFFFFFFFFFFFF AND SUB PUSH2 0x173A JUMPI PUSH1 0x40 MLOAD PUSH32 0x8C379A000000000000000000000000000000000000000000000000000000000 DUP2 MSTORE PUSH1 0x4 ADD PUSH2 0x1731 SWAP1 PUSH2 0x56C5 JUMP JUMPDEST PUSH1 0x40 MLOAD DUP1 SWAP2 SUB SWAP1 REVERT JUMPDEST DUP1 SWAP2 POP POP SWAP2 SWAP1 POP JUMP JUMPDEST PUSH1 0x0 DUP1 PUSH20 0xFFFFFFFFFFFFFFFFFFFFFFFFFFFFFFFFFFFFFFFF AND DUP3 PUSH20 0xFFFFFFFFFFFFFFFFFFFFFFFFFFFFFFFFFFFFFFFF AND SUB PUSH2 0x17B3 JUMPI PUSH1 0x40 MLOAD PUSH32 0x8C379A000000000000000000000000000000000000000000000000000000000 DUP2 MSTORE PUSH1 0x4 ADD PUSH2 0x17AA SWAP1 PUSH2 0x5757 JUMP JUMPDEST PUSH1 0x40 MLOAD DUP1 SWAP2 SUB SWAP1 REVERT JUMPDEST PUSH1 0x4 PUSH1 0x0 DUP4 PUSH20 0xFFFFFFFFFFFFFFFFFFFFFFFFFFFFFFFFFFFFFFFF AND PUSH20 0xFFFFFFFFFFFFFFFFFFFFFFFFFFFFFFFFFFFFFFFF AND DUP2 MSTORE PUSH1 0x20 ADD SWAP1 DUP2 MSTORE PUSH1 0x20 ADD PUSH1 0x0 KECCAK256 SLOAD SWAP1 POP SWAP2 SWAP1 POP JUMP JUMPDEST PUSH2 0x1802 PUSH2 0x2733 JUMP JUMPDEST PUSH2 0x180C PUSH1 0x0 PUSH2 0x2B7C JUMP JUMPDEST JUMP JUMPDEST PUSH1 0x60 PUSH1 0xF PUSH1 0x0 DUP4 PUSH20 0xFFFFFFFFFFFFFFFFFFFFFFFFFFFFFFFFFFFFFFFF AND PUSH20 0xFFFFFFFFFFFFFFFFFFFFFFFFFFFFFFFFFFFFFFFF AND DUP2 MSTORE PUSH1 0x20 ADD SWAP1 DUP2 MSTORE PUSH1 0x20 ADD PUSH1 0x0 KECCAK256 DUP1 SLOAD DUP1 PUSH1 0x20 MUL PUSH1 0x20 ADD PUSH1 0x40 MLOAD SWAP1 DUP2 ADD PUSH1 0x40 MSTORE DUP1 SWAP3 SWAP2 SWAP1 DUP2 DUP2 MSTORE PUSH1 0x20 ADD PUSH1 0x0 SWAP1 JUMPDEST DUP3 DUP3 LT ISZERO PUSH2 0x191B JUMPI DUP4 DUP3 SWAP1 PUSH1 0x0 MSTORE PUSH1 0x20 PUSH1 0x0 KECCAK256 ADD DUP1 SLOAD PUSH2 0x188E SWAP1 PUSH2 0x48A3 JUMP JUMPDEST DUP1 PUSH1 0x1F ADD PUSH1 0x20 DUP1 SWAP2 DIV MUL PUSH1 0x20 ADD PUSH1 0x40 MLOAD SWAP1 DUP2 ADD PUSH1 0x40 MSTORE DUP1 SWAP3 SWAP2 SWAP1 DUP2 DUP2 MSTORE PUSH1 0x20 ADD DUP3 DUP1 SLOAD PUSH2 0x18BA SWAP1 PUSH2 0x48A3 JUMP JUMPDEST DUP1 ISZERO PUSH2 0x1907 JUMPI DUP1 PUSH1 0x1F LT PUSH2 0x18DC JUMPI PUSH2 0x100 DUP1 DUP4 SLOAD DIV MUL DUP4 MSTORE SWAP2 PUSH1 0x20 ADD SWAP2 PUSH2 0x1907 JUMP JUMPDEST DUP3 ADD SWAP2 SWAP1 PUSH1 0x0 MSTORE PUSH1 0x20 PUSH1 0x0 KECCAK256 SWAP1 JUMPDEST DUP2 SLOAD DUP2 MSTORE SWAP1 PUSH1 0x1 ADD SWAP1 PUSH1 0x20 ADD DUP1 DUP4 GT PUSH2 0x18EA JUMPI DUP3 SWAP1 SUB PUSH1 0x1F AND DUP3 ADD SWAP2 JUMPDEST POP POP POP POP POP DUP2 MSTORE PUSH1 0x20 ADD SWAP1 PUSH1 0x1 ADD SWAP1 PUSH2 0x186F JUMP JUMPDEST POP POP POP POP SWAP1 POP SWAP2 SWAP1 POP JUMP JUMPDEST PUSH1 0x0 DUP1 PUSH1 0x0 SWAP1 SLOAD SWAP1 PUSH2 0x100 EXP SWAP1 DIV PUSH20 0xFFFFFFFFFFFFFFFFFFFFFFFFFFFFFFFFFFFFFFFF AND SWAP1 POP SWAP1 JUMP JUMPDEST PUSH1 0x60 PUSH1 0x2 DUP1 SLOAD PUSH2 0x195E SWAP1 PUSH2 0x48A3 JUMP JUMPDEST DUP1 PUSH1 0x1F ADD PUSH1 0x20 DUP1 SWAP2 DIV MUL PUSH1 0x20 ADD PUSH1 0x40 MLOAD SWAP1 DUP2 ADD PUSH1 0x40 MSTORE DUP1 SWAP3 SWAP2 SWAP1 DUP2 DUP2 MSTORE PUSH1 0x20 ADD DUP3 DUP1 SLOAD PUSH2 0x198A SWAP1 PUSH2 0x48A3 JUMP JUMPDEST DUP1 ISZERO PUSH2 0x19D7 JUMPI DUP1 PUSH1 0x1F LT PUSH2 0x19AC JUMPI PUSH2 0x100 DUP1 DUP4 SLOAD DIV MUL DUP4 MSTORE SWAP2 PUSH1 0x20 ADD SWAP2 PUSH2 0x19D7 JUMP JUMPDEST DUP3 ADD SWAP2 SWAP1 PUSH1 0x0 MSTORE PUSH1 0x20 PUSH1 0x0 KECCAK256 SWAP1 JUMPDEST DUP2 SLOAD DUP2 MSTORE SWAP1 PUSH1 0x1 ADD SWAP1 PUSH1 0x20 ADD DUP1 DUP4 GT PUSH2 0x19BA JUMPI DUP3 SWAP1 SUB PUSH1 0x1F AND DUP3 ADD SWAP2 JUMPDEST POP POP POP POP POP SWAP1 POP SWAP1 JUMP JUMPDEST PUSH2 0x19E9 PUSH2 0x3A3E JUMP JUMPDEST PUSH1 0x10 PUSH1 0x0 DUP4 DUP2 MSTORE PUSH1 0x20 ADD SWAP1 DUP2 MSTORE PUSH1 0x20 ADD PUSH1 0x0 KECCAK256 PUSH1 0x40 MLOAD DUP1 PUSH1 0xA0 ADD PUSH1 0x40 MSTORE SWAP1 DUP2 PUSH1 0x0 DUP3 ADD PUSH1 0x0 SWAP1 SLOAD SWAP1 PUSH2 0x100 EXP SWAP1 DIV PUSH20 0xFFFFFFFFFFFFFFFFFFFFFFFFFFFFFFFFFFFFFFFF AND PUSH20 0xFFFFFFFFFFFFFFFFFFFFFFFFFFFFFFFFFFFFFFFF AND PUSH20 0xFFFFFFFFFFFFFFFFFFFFFFFFFFFFFFFFFFFFFFFF AND DUP2 MSTORE PUSH1 0x20 ADD PUSH1 0x1 DUP3 ADD DUP1 SLOAD PUSH2 0x1A6D SWAP1 PUSH2 0x48A3 JUMP JUMPDEST DUP1 PUSH1 0x1F ADD PUSH1 0x20 DUP1 SWAP2 DIV MUL PUSH1 0x20 ADD PUSH1 0x40 MLOAD SWAP1 DUP2 ADD PUSH1 0x40 MSTORE DUP1 SWAP3 SWAP2 SWAP1 DUP2 DUP2 MSTORE PUSH1 0x20 ADD DUP3 DUP1 SLOAD PUSH2 0x1A99 SWAP1 PUSH2 0x48A3 JUMP JUMPDEST DUP1 ISZERO PUSH2 0x1AE6 JUMPI DUP1 PUSH1 0x1F LT PUSH2 0x1ABB JUMPI PUSH2 0x100 DUP1 DUP4 SLOAD DIV MUL DUP4 MSTORE SWAP2 PUSH1 0x20 ADD SWAP2 PUSH2 0x1AE6 JUMP JUMPDEST DUP3 ADD SWAP2 SWAP1 PUSH1 0x0 MSTORE PUSH1 0x20 PUSH1 0x0 KECCAK256 SWAP1 JUMPDEST DUP2 SLOAD DUP2 MSTORE SWAP1 PUSH1 0x1 ADD SWAP1 PUSH1 0x20 ADD DUP1 DUP4 GT PUSH2 0x1AC9 JUMPI DUP3 SWAP1 SUB PUSH1 0x1F AND DUP3 ADD SWAP2 JUMPDEST POP POP POP POP POP DUP2 MSTORE PUSH1 0x20 ADD PUSH1 0x2 DUP3 ADD DUP1 SLOAD PUSH2 0x1AFF SWAP1 PUSH2 0x48A3 JUMP JUMPDEST DUP1 PUSH1 0x1F ADD PUSH1 0x20 DUP1 SWAP2 DIV MUL PUSH1 0x20 ADD PUSH1 0x40 MLOAD SWAP1 DUP2 ADD PUSH1 0x40 MSTORE DUP1 SWAP3 SWAP2 SWAP1 DUP2 DUP2 MSTORE PUSH1 0x20 ADD DUP3 DUP1 SLOAD PUSH2 0x1B2B SWAP1 PUSH2 0x48A3 JUMP JUMPDEST DUP1 ISZERO PUSH2 0x1B78 JUMPI DUP1 PUSH1 0x1F LT PUSH2 0x1B4D JUMPI PUSH2 0x100 DUP1 DUP4 SLOAD DIV MUL DUP4 MSTORE SWAP2 PUSH1 0x20 ADD SWAP2 PUSH2 0x1B78 JUMP JUMPDEST DUP3 ADD SWAP2 SWAP1 PUSH1 0x0 MSTORE PUSH1 0x20 PUSH1 0x0 KECCAK256 SWAP1 JUMPDEST DUP2 SLOAD DUP2 MSTORE SWAP1 PUSH1 0x1 ADD SWAP1 PUSH1 0x20 ADD DUP1 DUP4 GT PUSH2 0x1B5B JUMPI DUP3 SWAP1 SUB PUSH1 0x1F AND DUP3 ADD SWAP2 JUMPDEST POP POP POP POP POP DUP2 MSTORE PUSH1 0x20 ADD PUSH1 0x3 DUP3 ADD DUP1 SLOAD PUSH2 0x1B91 SWAP1 PUSH2 0x48A3 JUMP JUMPDEST DUP1 PUSH1 0x1F ADD PUSH1 0x20 DUP1 SWAP2 DIV MUL PUSH1 0x20 ADD PUSH1 0x40 MLOAD SWAP1 DUP2 ADD PUSH1 0x40 MSTORE DUP1 SWAP3 SWAP2 SWAP1 DUP2 DUP2 MSTORE PUSH1 0x20 ADD DUP3 DUP1 SLOAD PUSH2 0x1BBD SWAP1 PUSH2 0x48A3 JUMP JUMPDEST DUP1 ISZERO PUSH2 0x1C0A JUMPI DUP1 PUSH1 0x1F LT PUSH2 0x1BDF JUMPI PUSH2 0x100 DUP1 DUP4 SLOAD DIV MUL DUP4 MSTORE SWAP2 PUSH1 0x20 ADD SWAP2 PUSH2 0x1C0A JUMP JUMPDEST DUP3 ADD SWAP2 SWAP1 PUSH1 0x0 MSTORE PUSH1 0x20 PUSH1 0x0 KECCAK256 SWAP1 JUMPDEST DUP2 SLOAD DUP2 MSTORE SWAP1 PUSH1 0x1 ADD SWAP1 PUSH1 0x20 ADD DUP1 DUP4 GT PUSH2 0x1BED JUMPI DUP3 SWAP1 SUB PUSH1 0x1F AND DUP3 ADD SWAP2 JUMPDEST POP POP POP POP POP DUP2 MSTORE PUSH1 0x20 ADD PUSH1 0x4 DUP3 ADD DUP1 SLOAD PUSH2 0x1C23 SWAP1 PUSH2 0x48A3 JUMP JUMPDEST DUP1 PUSH1 0x1F ADD PUSH1 0x20 DUP1 SWAP2 DIV MUL PUSH1 0x20 ADD PUSH1 0x40 MLOAD SWAP1 DUP2 ADD PUSH1 0x40 MSTORE DUP1 SWAP3 SWAP2 SWAP1 DUP2 DUP2 MSTORE PUSH1 0x20 ADD DUP3 DUP1 SLOAD PUSH2 0x1C4F SWAP1 PUSH2 0x48A3 JUMP JUMPDEST DUP1 ISZERO PUSH2 0x1C9C JUMPI DUP1 PUSH1 0x1F LT PUSH2 0x1C71 JUMPI PUSH2 0x100 DUP1 DUP4 SLOAD DIV MUL DUP4 MSTORE SWAP2 PUSH1 0x20 ADD SWAP2 PUSH2 0x1C9C JUMP JUMPDEST DUP3 ADD SWAP2 SWAP1 PUSH1 0x0 MSTORE PUSH1 0x20 PUSH1 0x0 KECCAK256 SWAP1 JUMPDEST DUP2 SLOAD DUP2 MSTORE SWAP1 PUSH1 0x1 ADD SWAP1 PUSH1 0x20 ADD DUP1 DUP4 GT PUSH2 0x1C7F JUMPI DUP3 SWAP1 SUB PUSH1 0x1F AND DUP3 ADD SWAP2 JUMPDEST POP POP POP POP POP DUP2 MSTORE POP POP SWAP1 POP SWAP2 SWAP1 POP JUMP JUMPDEST PUSH2 0x1CBE PUSH2 0x1CB7 PUSH2 0x2672 JUMP JUMPDEST DUP4 DUP4 PUSH2 0x2C40 JUMP JUMPDEST POP POP JUMP JUMPDEST PUSH1 0x60 PUSH1 0x0 PUSH1 0xD SLOAD PUSH8 0xFFFFFFFFFFFFFFFF DUP2 GT ISZERO PUSH2 0x1CE2 JUMPI PUSH2 0x1CE1 PUSH2 0x463D JUMP JUMPDEST JUMPDEST PUSH1 0x40 MLOAD SWAP1 DUP1 DUP3 MSTORE DUP1 PUSH1 0x20 MUL PUSH1 0x20 ADD DUP3 ADD PUSH1 0x40 MSTORE DUP1 ISZERO PUSH2 0x1D1B JUMPI DUP2 PUSH1 0x20 ADD JUMPDEST PUSH2 0x1D08 PUSH2 0x3A3E JUMP JUMPDEST DUP2 MSTORE PUSH1 0x20 ADD SWAP1 PUSH1 0x1 SWAP1 SUB SWAP1 DUP2 PUSH2 0x1D00 JUMPI SWAP1 POP JUMPDEST POP SWAP1 POP PUSH1 0x0 PUSH1 0x1 SWAP1 POP JUMPDEST PUSH1 0xD SLOAD DUP2 GT PUSH2 0x201B JUMPI PUSH1 0x10 PUSH1 0x0 DUP3 DUP2 MSTORE PUSH1 0x20 ADD SWAP1 DUP2 MSTORE PUSH1 0x20 ADD PUSH1 0x0 KECCAK256 PUSH1 0x40 MLOAD DUP1 PUSH1 0xA0 ADD PUSH1 0x40 MSTORE SWAP1 DUP2 PUSH1 0x0 DUP3 ADD PUSH1 0x0 SWAP1 SLOAD SWAP1 PUSH2 0x100 EXP SWAP1 DIV PUSH20 0xFFFFFFFFFFFFFFFFFFFFFFFFFFFFFFFFFFFFFFFF AND PUSH20 0xFFFFFFFFFFFFFFFFFFFFFFFFFFFFFFFFFFFFFFFF AND PUSH20 0xFFFFFFFFFFFFFFFFFFFFFFFFFFFFFFFFFFFFFFFF AND DUP2 MSTORE PUSH1 0x20 ADD PUSH1 0x1 DUP3 ADD DUP1 SLOAD PUSH2 0x1DB2 SWAP1 PUSH2 0x48A3 JUMP JUMPDEST DUP1 PUSH1 0x1F ADD PUSH1 0x20 DUP1 SWAP2 DIV MUL PUSH1 0x20 ADD PUSH1 0x40 MLOAD SWAP1 DUP2 ADD PUSH1 0x40 MSTORE DUP1 SWAP3 SWAP2 SWAP1 DUP2 DUP2 MSTORE PUSH1 0x20 ADD DUP3 DUP1 SLOAD PUSH2 0x1DDE SWAP1 PUSH2 0x48A3 JUMP JUMPDEST DUP1 ISZERO PUSH2 0x1E2B JUMPI DUP1 PUSH1 0x1F LT PUSH2 0x1E00 JUMPI PUSH2 0x100 DUP1 DUP4 SLOAD DIV MUL DUP4 MSTORE SWAP2 PUSH1 0x20 ADD SWAP2 PUSH2 0x1E2B JUMP JUMPDEST DUP3 ADD SWAP2 SWAP1 PUSH1 0x0 MSTORE PUSH1 0x20 PUSH1 0x0 KECCAK256 SWAP1 JUMPDEST DUP2 SLOAD DUP2 MSTORE SWAP1 PUSH1 0x1 ADD SWAP1 PUSH1 0x20 ADD DUP1 DUP4 GT PUSH2 0x1E0E JUMPI DUP3 SWAP1 SUB PUSH1 0x1F AND DUP3 ADD SWAP2 JUMPDEST POP POP POP POP POP DUP2 MSTORE PUSH1 0x20 ADD PUSH1 0x2 DUP3 ADD DUP1 SLOAD PUSH2 0x1E44 SWAP1 PUSH2 0x48A3 JUMP JUMPDEST DUP1 PUSH1 0x1F ADD PUSH1 0x20 DUP1 SWAP2 DIV MUL PUSH1 0x20 ADD PUSH1 0x40 MLOAD SWAP1 DUP2 ADD PUSH1 0x40 MSTORE DUP1 SWAP3 SWAP2 SWAP1 DUP2 DUP2 MSTORE PUSH1 0x20 ADD DUP3 DUP1 SLOAD PUSH2 0x1E70 SWAP1 PUSH2 0x48A3 JUMP JUMPDEST DUP1 ISZERO PUSH2 0x1EBD JUMPI DUP1 PUSH1 0x1F LT PUSH2 0x1E92 JUMPI PUSH2 0x100 DUP1 DUP4 SLOAD DIV MUL DUP4 MSTORE SWAP2 PUSH1 0x20 ADD SWAP2 PUSH2 0x1EBD JUMP JUMPDEST DUP3 ADD SWAP2 SWAP1 PUSH1 0x0 MSTORE PUSH1 0x20 PUSH1 0x0 KECCAK256 SWAP1 JUMPDEST DUP2 SLOAD DUP2 MSTORE SWAP1 PUSH1 0x1 ADD SWAP1 PUSH1 0x20 ADD DUP1 DUP4 GT PUSH2 0x1EA0 JUMPI DUP3 SWAP1 SUB PUSH1 0x1F AND DUP3 ADD SWAP2 JUMPDEST POP POP POP POP POP DUP2 MSTORE PUSH1 0x20 ADD PUSH1 0x3 DUP3 ADD DUP1 SLOAD PUSH2 0x1ED6 SWAP1 PUSH2 0x48A3 JUMP JUMPDEST DUP1 PUSH1 0x1F ADD PUSH1 0x20 DUP1 SWAP2 DIV MUL PUSH1 0x20 ADD PUSH1 0x40 MLOAD SWAP1 DUP2 ADD PUSH1 0x40 MSTORE DUP1 SWAP3 SWAP2 SWAP1 DUP2 DUP2 MSTORE PUSH1 0x20 ADD DUP3 DUP1 SLOAD PUSH2 0x1F02 SWAP1 PUSH2 0x48A3 JUMP JUMPDEST DUP1 ISZERO PUSH2 0x1F4F JUMPI DUP1 PUSH1 0x1F LT PUSH2 0x1F24 JUMPI PUSH2 0x100 DUP1 DUP4 SLOAD DIV MUL DUP4 MSTORE SWAP2 PUSH1 0x20 ADD SWAP2 PUSH2 0x1F4F JUMP JUMPDEST DUP3 ADD SWAP2 SWAP1 PUSH1 0x0 MSTORE PUSH1 0x20 PUSH1 0x0 KECCAK256 SWAP1 JUMPDEST DUP2 SLOAD DUP2 MSTORE SWAP1 PUSH1 0x1 ADD SWAP1 PUSH1 0x20 ADD DUP1 DUP4 GT PUSH2 0x1F32 JUMPI DUP3 SWAP1 SUB PUSH1 0x1F AND DUP3 ADD SWAP2 JUMPDEST POP POP POP POP POP DUP2 MSTORE PUSH1 0x20 ADD PUSH1 0x4 DUP3 ADD DUP1 SLOAD PUSH2 0x1F68 SWAP1 PUSH2 0x48A3 JUMP JUMPDEST DUP1 PUSH1 0x1F ADD PUSH1 0x20 DUP1 SWAP2 DIV MUL PUSH1 0x20 ADD PUSH1 0x40 MLOAD SWAP1 DUP2 ADD PUSH1 0x40 MSTORE DUP1 SWAP3 SWAP2 SWAP1 DUP2 DUP2 MSTORE PUSH1 0x20 ADD DUP3 DUP1 SLOAD PUSH2 0x1F94 SWAP1 PUSH2 0x48A3 JUMP JUMPDEST DUP1 ISZERO PUSH2 0x1FE1 JUMPI DUP1 PUSH1 0x1F LT PUSH2 0x1FB6 JUMPI PUSH2 0x100 DUP1 DUP4 SLOAD DIV MUL DUP4 MSTORE SWAP2 PUSH1 0x20 ADD SWAP2 PUSH2 0x1FE1 JUMP JUMPDEST DUP3 ADD SWAP2 SWAP1 PUSH1 0x0 MSTORE PUSH1 0x20 PUSH1 0x0 KECCAK256 SWAP1 JUMPDEST DUP2 SLOAD DUP2 MSTORE SWAP1 PUSH1 0x1 ADD SWAP1 PUSH1 0x20 ADD DUP1 DUP4 GT PUSH2 0x1FC4 JUMPI DUP3 SWAP1 SUB PUSH1 0x1F AND DUP3 ADD SWAP2 JUMPDEST POP POP POP POP POP DUP2 MSTORE POP POP DUP3 DUP3 DUP2 MLOAD DUP2 LT PUSH2 0x1FFD JUMPI PUSH2 0x1FFC PUSH2 0x55E2 JUMP JUMPDEST JUMPDEST PUSH1 0x20 MUL PUSH1 0x20 ADD ADD DUP2 SWAP1 MSTORE POP DUP1 DUP1 PUSH2 0x2013 SWAP1 PUSH2 0x522D JUMP JUMPDEST SWAP2 POP POP PUSH2 0x1D25 JUMP JUMPDEST POP DUP1 SWAP2 POP POP SWAP1 JUMP JUMPDEST PUSH2 0x2034 PUSH2 0x202E PUSH2 0x2672 JUMP JUMPDEST DUP4 PUSH2 0x27B1 JUMP JUMPDEST PUSH2 0x2073 JUMPI PUSH1 0x40 MLOAD PUSH32 0x8C379A000000000000000000000000000000000000000000000000000000000 DUP2 MSTORE PUSH1 0x4 ADD PUSH2 0x206A SWAP1 PUSH2 0x4A6A JUMP JUMPDEST PUSH1 0x40 MLOAD DUP1 SWAP2 SUB SWAP1 REVERT JUMPDEST PUSH2 0x207F DUP5 DUP5 DUP5 DUP5 PUSH2 0x2DAC JUMP JUMPDEST POP POP POP POP JUMP JUMPDEST PUSH1 0x60 PUSH2 0x2090 DUP3 PUSH2 0x2E08 JUMP JUMPDEST PUSH2 0x20CF JUMPI PUSH1 0x40 MLOAD PUSH32 0x8C379A000000000000000000000000000000000000000000000000000000000 DUP2 MSTORE PUSH1 0x4 ADD PUSH2 0x20C6 SWAP1 PUSH2 0x57E9 JUMP JUMPDEST PUSH1 0x40 MLOAD DUP1 SWAP2 SUB SWAP1 REVERT JUMPDEST PUSH1 0x0 PUSH2 0x20D9 PUSH2 0x2E49 JUMP JUMPDEST SWAP1 POP PUSH1 0x0 DUP2 MLOAD GT PUSH2 0x20F9 JUMPI PUSH1 0x40 MLOAD DUP1 PUSH1 0x20 ADD PUSH1 0x40 MSTORE DUP1 PUSH1 0x0 DUP2 MSTORE POP PUSH2 0x2124 JUMP JUMPDEST DUP1 PUSH2 0x2103 DUP5 PUSH2 0x2EDB JUMP JUMPDEST PUSH1 0x40 MLOAD PUSH1 0x20 ADD PUSH2 0x2114 SWAP3 SWAP2 SWAP1 PUSH2 0x5886 JUMP JUMPDEST PUSH1 0x40 MLOAD PUSH1 0x20 DUP2 DUP4 SUB SUB DUP2 MSTORE SWAP1 PUSH1 0x40 MSTORE JUMPDEST SWAP2 POP POP SWAP2 SWAP1 POP JUMP JUMPDEST DUP1 DUP1 PUSH1 0x20 ADD SWAP1 PUSH2 0x213C SWAP2 SWAP1 PUSH2 0x4B6F JUMP JUMPDEST PUSH1 0x11 DUP3 DUP3 PUSH1 0x40 MLOAD PUSH2 0x214E SWAP3 SWAP2 SWAP1 PUSH2 0x5179 JUMP JUMPDEST SWAP1 DUP2 MSTORE PUSH1 0x20 ADD PUSH1 0x40 MLOAD DUP1 SWAP2 SUB SWAP1 KECCAK256 PUSH1 0x0 SWAP1 SLOAD SWAP1 PUSH2 0x100 EXP SWAP1 DIV PUSH1 0xFF AND ISZERO PUSH2 0x21AA JUMPI PUSH1 0x40 MLOAD PUSH32 0x8C379A000000000000000000000000000000000000000000000000000000000 DUP2 MSTORE PUSH1 0x4 ADD PUSH2 0x21A1 SWAP1 PUSH2 0x5901 JUMP JUMPDEST PUSH1 0x40 MLOAD DUP1 SWAP2 SUB SWAP1 REVERT JUMPDEST DUP3 PUSH1 0x0 ADD PUSH1 0x20 DUP2 ADD SWAP1 PUSH2 0x21BD SWAP2 SWAP1 PUSH2 0x41EB JUMP JUMPDEST CALLER PUSH20 0xFFFFFFFFFFFFFFFFFFFFFFFFFFFFFFFFFFFFFFFF AND DUP2 PUSH20 0xFFFFFFFFFFFFFFFFFFFFFFFFFFFFFFFFFFFFFFFF AND EQ PUSH2 0x222B JUMPI PUSH1 0x40 MLOAD PUSH32 0x8C379A000000000000000000000000000000000000000000000000000000000 DUP2 MSTORE PUSH1 0x4 ADD PUSH2 0x2222 SWAP1 PUSH2 0x596D JUMP JUMPDEST PUSH1 0x40 MLOAD DUP1 SWAP2 SUB SWAP1 REVERT JUMPDEST PUSH1 0xC SLOAD CALLVALUE LT ISZERO PUSH2 0x2270 JUMPI PUSH1 0x40 MLOAD PUSH32 0x8C379A000000000000000000000000000000000000000000000000000000000 DUP2 MSTORE PUSH1 0x4 ADD PUSH2 0x2267 SWAP1 PUSH2 0x59D9 JUMP JUMPDEST PUSH1 0x40 MLOAD DUP1 SWAP2 SUB SWAP1 REVERT JUMPDEST PUSH1 0xD PUSH1 0x0 DUP2 SLOAD DUP1 SWAP3 SWAP2 SWAP1 PUSH2 0x2283 SWAP1 PUSH2 0x522D JUMP JUMPDEST SWAP2 SWAP1 POP SSTORE POP DUP4 PUSH1 0x10 PUSH1 0x0 PUSH1 0xD SLOAD DUP2 MSTORE PUSH1 0x20 ADD SWAP1 DUP2 MSTORE PUSH1 0x20 ADD PUSH1 0x0 KECCAK256 DUP2 DUP2 PUSH2 0x22AA SWAP2 SWAP1 PUSH2 0x4F08 JUMP JUMPDEST SWAP1 POP POP PUSH1 0xF PUSH1 0x0 CALLER PUSH20 0xFFFFFFFFFFFFFFFFFFFFFFFFFFFFFFFFFFFFFFFF AND PUSH20 0xFFFFFFFFFFFFFFFFFFFFFFFFFFFFFFFFFFFFFFFF AND DUP2 MSTORE PUSH1 0x20 ADD SWAP1 DUP2 MSTORE PUSH1 0x20 ADD PUSH1 0x0 KECCAK256 DUP5 DUP1 PUSH1 0x20 ADD SWAP1 PUSH2 0x22FC SWAP2 SWAP1 PUSH2 0x4B6F JUMP JUMPDEST SWAP1 SWAP2 DUP1 PUSH1 0x1 DUP2 SLOAD ADD DUP1 DUP3 SSTORE DUP1 SWAP2 POP POP PUSH1 0x1 SWAP1 SUB SWAP1 PUSH1 0x0 MSTORE PUSH1 0x20 PUSH1 0x0 KECCAK256 ADD PUSH1 0x0 SWAP1 SWAP2 SWAP3 SWAP1 SWAP2 SWAP3 SWAP1 SWAP2 SWAP3 SWAP1 SWAP2 SWAP3 POP SWAP2 DUP3 PUSH2 0x2335 SWAP3 SWAP2 SWAP1 PUSH2 0x4D7F JUMP JUMPDEST POP PUSH1 0x1 PUSH1 0x11 DUP6 DUP1 PUSH1 0x20 ADD SWAP1 PUSH2 0x234A SWAP2 SWAP1 PUSH2 0x4B6F JUMP JUMPDEST PUSH1 0x40 MLOAD PUSH2 0x2358 SWAP3 SWAP2 SWAP1 PUSH2 0x5179 JUMP JUMPDEST SWAP1 DUP2 MSTORE PUSH1 0x20 ADD PUSH1 0x40 MLOAD DUP1 SWAP2 SUB SWAP1 KECCAK256 PUSH1 0x0 PUSH2 0x100 EXP DUP2 SLOAD DUP2 PUSH1 0xFF MUL NOT AND SWAP1 DUP4 ISZERO ISZERO MUL OR SWAP1 SSTORE POP PUSH2 0x2389 CALLER PUSH1 0xD SLOAD PUSH2 0x2FA9 JUMP JUMPDEST PUSH1 0xE PUSH1 0x0 CALLER PUSH20 0xFFFFFFFFFFFFFFFFFFFFFFFFFFFFFFFFFFFFFFFF AND PUSH20 0xFFFFFFFFFFFFFFFFFFFFFFFFFFFFFFFFFFFFFFFF AND DUP2 MSTORE PUSH1 0x20 ADD SWAP1 DUP2 MSTORE PUSH1 0x20 ADD PUSH1 0x0 KECCAK256 PUSH1 0xD SLOAD SWAP1 DUP1 PUSH1 0x1 DUP2 SLOAD ADD DUP1 DUP3 SSTORE DUP1 SWAP2 POP POP PUSH1 0x1 SWAP1 SUB SWAP1 PUSH1 0x0 MSTORE PUSH1 0x20 PUSH1 0x0 KECCAK256 ADD PUSH1 0x0 SWAP1 SWAP2 SWAP1 SWAP2 SWAP1 SWAP2 POP SSTORE PUSH32 0x68D89BA37B6B8D0B7CB139771C573485DD925FBB3007CFB62CB832BC2A24850A DUP5 PUSH1 0x40 MLOAD PUSH2 0x2420 SWAP2 SWAP1 PUSH2 0x59F9 JUMP JUMPDEST PUSH1 0x40 MLOAD DUP1 SWAP2 SUB SWAP1 LOG1 POP POP POP POP JUMP JUMPDEST PUSH1 0x0 PUSH1 0x6 PUSH1 0x0 DUP5 PUSH20 0xFFFFFFFFFFFFFFFFFFFFFFFFFFFFFFFFFFFFFFFF AND PUSH20 0xFFFFFFFFFFFFFFFFFFFFFFFFFFFFFFFFFFFFFFFF AND DUP2 MSTORE PUSH1 0x20 ADD SWAP1 DUP2 MSTORE PUSH1 0x20 ADD PUSH1 0x0 KECCAK256 PUSH1 0x0 DUP4 PUSH20 0xFFFFFFFFFFFFFFFFFFFFFFFFFFFFFFFFFFFFFFFF AND PUSH20 0xFFFFFFFFFFFFFFFFFFFFFFFFFFFFFFFFFFFFFFFF AND DUP2 MSTORE PUSH1 0x20 ADD SWAP1 DUP2 MSTORE PUSH1 0x20 ADD PUSH1 0x0 KECCAK256 PUSH1 0x0 SWAP1 SLOAD SWAP1 PUSH2 0x100 EXP SWAP1 DIV PUSH1 0xFF AND SWAP1 POP SWAP3 SWAP2 POP POP JUMP JUMPDEST PUSH2 0x24CA PUSH2 0x2733 JUMP JUMPDEST PUSH1 0x0 PUSH20 0xFFFFFFFFFFFFFFFFFFFFFFFFFFFFFFFFFFFFFFFF AND DUP2 PUSH20 0xFFFFFFFFFFFFFFFFFFFFFFFFFFFFFFFFFFFFFFFF AND SUB PUSH2 0x2539 JUMPI PUSH1 0x40 MLOAD PUSH32 0x8C379A000000000000000000000000000000000000000000000000000000000 DUP2 MSTORE PUSH1 0x4 ADD PUSH2 0x2530 SWAP1 PUSH2 0x5A8D JUMP JUMPDEST PUSH1 0x40 MLOAD DUP1 SWAP2 SUB SWAP1 REVERT JUMPDEST PUSH2 0x2542 DUP2 PUSH2 0x2B7C JUMP JUMPDEST POP JUMP JUMPDEST PUSH1 0x0 PUSH32 0x80AC58CD00000000000000000000000000000000000000000000000000000000 PUSH28 0xFFFFFFFFFFFFFFFFFFFFFFFFFFFFFFFFFFFFFFFFFFFFFFFFFFFFFFFF NOT AND DUP3 PUSH28 0xFFFFFFFFFFFFFFFFFFFFFFFFFFFFFFFFFFFFFFFFFFFFFFFFFFFFFFFF NOT AND EQ DUP1 PUSH2 0x2610 JUMPI POP PUSH32 0x5B5E139F00000000000000000000000000000000000000000000000000000000 PUSH28 0xFFFFFFFFFFFFFFFFFFFFFFFFFFFFFFFFFFFFFFFFFFFFFFFFFFFFFFFF NOT AND DUP3 PUSH28 0xFFFFFFFFFFFFFFFFFFFFFFFFFFFFFFFFFFFFFFFFFFFFFFFFFFFFFFFF NOT AND EQ JUMPDEST DUP1 PUSH2 0x2620 JUMPI POP PUSH2 0x261F DUP3 PUSH2 0x2FC7 JUMP JUMPDEST JUMPDEST SWAP1 POP SWAP2 SWAP1 POP JUMP JUMPDEST PUSH2 0x2630 DUP2 PUSH2 0x2E08 JUMP JUMPDEST PUSH2 0x266F JUMPI PUSH1 0x40 MLOAD PUSH32 0x8C379A000000000000000000000000000000000000000000000000000000000 DUP2 MSTORE PUSH1 0x4 ADD PUSH2 0x2666 SWAP1 PUSH2 0x56C5 JUMP JUMPDEST PUSH1 0x40 MLOAD DUP1 SWAP2 SUB SWAP1 REVERT JUMPDEST POP JUMP JUMPDEST PUSH1 0x0 CALLER SWAP1 POP SWAP1 JUMP JUMPDEST DUP2 PUSH1 0x5 PUSH1 0x0 DUP4 DUP2 MSTORE PUSH1 0x20 ADD SWAP1 DUP2 MSTORE PUSH1 0x20 ADD PUSH1 0x0 KECCAK256 PUSH1 0x0 PUSH2 0x100 EXP DUP2 SLOAD DUP2 PUSH20 0xFFFFFFFFFFFFFFFFFFFFFFFFFFFFFFFFFFFFFFFF MUL NOT AND SWAP1 DUP4 PUSH20 0xFFFFFFFFFFFFFFFFFFFFFFFFFFFFFFFFFFFFFFFF AND MUL OR SWAP1 SSTORE POP DUP1 DUP3 PUSH20 0xFFFFFFFFFFFFFFFFFFFFFFFFFFFFFFFFFFFFFFFF AND PUSH2 0x26ED DUP4 PUSH2 0x16BD JUMP JUMPDEST PUSH20 0xFFFFFFFFFFFFFFFFFFFFFFFFFFFFFFFFFFFFFFFF AND PUSH32 0x8C5BE1E5EBEC7D5BD14F71427D1E84F3DD0314C0F7B2291E5B200AC8C7C3B925 PUSH1 0x40 MLOAD PUSH1 0x40 MLOAD DUP1 SWAP2 SUB SWAP1 LOG4 POP POP JUMP JUMPDEST PUSH2 0x273B PUSH2 0x2672 JUMP JUMPDEST PUSH20 0xFFFFFFFFFFFFFFFFFFFFFFFFFFFFFFFFFFFFFFFF AND PUSH2 0x2759 PUSH2 0x1926 JUMP JUMPDEST PUSH20 0xFFFFFFFFFFFFFFFFFFFFFFFFFFFFFFFFFFFFFFFF AND EQ PUSH2 0x27AF JUMPI PUSH1 0x40 MLOAD PUSH32 0x8C379A000000000000000000000000000000000000000000000000000000000 DUP2 MSTORE PUSH1 0x4 ADD PUSH2 0x27A6 SWAP1 PUSH2 0x5AF9 JUMP JUMPDEST PUSH1 0x40 MLOAD DUP1 SWAP2 SUB SWAP1 REVERT JUMPDEST JUMP JUMPDEST PUSH1 0x0 DUP1 PUSH2 0x27BD DUP4 PUSH2 0x16BD JUMP JUMPDEST SWAP1 POP DUP1 PUSH20 0xFFFFFFFFFFFFFFFFFFFFFFFFFFFFFFFFFFFFFFFF AND DUP5 PUSH20 0xFFFFFFFFFFFFFFFFFFFFFFFFFFFFFFFFFFFFFFFF AND EQ DUP1 PUSH2 0x27FF JUMPI POP PUSH2 0x27FE DUP2 DUP6 PUSH2 0x242E JUMP JUMPDEST JUMPDEST DUP1 PUSH2 0x283D JUMPI POP DUP4 PUSH20 0xFFFFFFFFFFFFFFFFFFFFFFFFFFFFFFFFFFFFFFFF AND PUSH2 0x2825 DUP5 PUSH2 0x9B1 JUMP JUMPDEST PUSH20 0xFFFFFFFFFFFFFFFFFFFFFFFFFFFFFFFFFFFFFFFF AND EQ JUMPDEST SWAP2 POP POP SWAP3 SWAP2 POP POP JUMP JUMPDEST DUP3 PUSH20 0xFFFFFFFFFFFFFFFFFFFFFFFFFFFFFFFFFFFFFFFF AND PUSH2 0x2866 DUP3 PUSH2 0x16BD JUMP JUMPDEST PUSH20 0xFFFFFFFFFFFFFFFFFFFFFFFFFFFFFFFFFFFFFFFF AND EQ PUSH2 0x28BC JUMPI PUSH1 0x40 MLOAD PUSH32 0x8C379A000000000000000000000000000000000000000000000000000000000 DUP2 MSTORE PUSH1 0x4 ADD PUSH2 0x28B3 SWAP1 PUSH2 0x5B8B JUMP JUMPDEST PUSH1 0x40 MLOAD DUP1 SWAP2 SUB SWAP1 REVERT JUMPDEST PUSH1 0x0 PUSH20 0xFFFFFFFFFFFFFFFFFFFFFFFFFFFFFFFFFFFFFFFF AND DUP3 PUSH20 0xFFFFFFFFFFFFFFFFFFFFFFFFFFFFFFFFFFFFFFFF AND SUB PUSH2 0x292B JUMPI PUSH1 0x40 MLOAD PUSH32 0x8C379A000000000000000000000000000000000000000000000000000000000 DUP2 MSTORE PUSH1 0x4 ADD PUSH2 0x2922 SWAP1 PUSH2 0x5C1D JUMP JUMPDEST PUSH1 0x40 MLOAD DUP1 SWAP2 SUB SWAP1 REVERT JUMPDEST PUSH2 0x2938 DUP4 DUP4 DUP4 PUSH1 0x1 PUSH2 0x3031 JUMP JUMPDEST DUP3 PUSH20 0xFFFFFFFFFFFFFFFFFFFFFFFFFFFFFFFFFFFFFFFF AND PUSH2 0x2958 DUP3 PUSH2 0x16BD JUMP JUMPDEST PUSH20 0xFFFFFFFFFFFFFFFFFFFFFFFFFFFFFFFFFFFFFFFF AND EQ PUSH2 0x29AE JUMPI PUSH1 0x40 MLOAD PUSH32 0x8C379A000000000000000000000000000000000000000000000000000000000 DUP2 MSTORE PUSH1 0x4 ADD PUSH2 0x29A5 SWAP1 PUSH2 0x5B8B JUMP JUMPDEST PUSH1 0x40 MLOAD DUP1 SWAP2 SUB SWAP1 REVERT JUMPDEST PUSH1 0x5 PUSH1 0x0 DUP3 DUP2 MSTORE PUSH1 0x20 ADD SWAP1 DUP2 MSTORE PUSH1 0x20 ADD PUSH1 0x0 KECCAK256 PUSH1 0x0 PUSH2 0x100 EXP DUP2 SLOAD SWAP1 PUSH20 0xFFFFFFFFFFFFFFFFFFFFFFFFFFFFFFFFFFFFFFFF MUL NOT AND SWAP1 SSTORE PUSH1 0x1 PUSH1 0x4 PUSH1 0x0 DUP6 PUSH20 0xFFFFFFFFFFFFFFFFFFFFFFFFFFFFFFFFFFFFFFFF AND PUSH20 0xFFFFFFFFFFFFFFFFFFFFFFFFFFFFFFFFFFFFFFFF AND DUP2 MSTORE PUSH1 0x20 ADD SWAP1 DUP2 MSTORE PUSH1 0x20 ADD PUSH1 0x0 KECCAK256 PUSH1 0x0 DUP3 DUP3 SLOAD SUB SWAP3 POP POP DUP2 SWAP1 SSTORE POP PUSH1 0x1 PUSH1 0x4 PUSH1 0x0 DUP5 PUSH20 0xFFFFFFFFFFFFFFFFFFFFFFFFFFFFFFFFFFFFFFFF AND PUSH20 0xFFFFFFFFFFFFFFFFFFFFFFFFFFFFFFFFFFFFFFFF AND DUP2 MSTORE PUSH1 0x20 ADD SWAP1 DUP2 MSTORE PUSH1 0x20 ADD PUSH1 0x0 KECCAK256 PUSH1 0x0 DUP3 DUP3 SLOAD ADD SWAP3 POP POP DUP2 SWAP1 SSTORE POP DUP2 PUSH1 0x3 PUSH1 0x0 DUP4 DUP2 MSTORE PUSH1 0x20 ADD SWAP1 DUP2 MSTORE PUSH1 0x20 ADD PUSH1 0x0 KECCAK256 PUSH1 0x0 PUSH2 0x100 EXP DUP2 SLOAD DUP2 PUSH20 0xFFFFFFFFFFFFFFFFFFFFFFFFFFFFFFFFFFFFFFFF MUL NOT AND SWAP1 DUP4 PUSH20 0xFFFFFFFFFFFFFFFFFFFFFFFFFFFFFFFFFFFFFFFF AND MUL OR SWAP1 SSTORE POP DUP1 DUP3 PUSH20 0xFFFFFFFFFFFFFFFFFFFFFFFFFFFFFFFFFFFFFFFF AND DUP5 PUSH20 0xFFFFFFFFFFFFFFFFFFFFFFFFFFFFFFFFFFFFFFFF AND PUSH32 0xDDF252AD1BE2C89B69C2B068FC378DAA952BA7F163C4A11628F55A4DF523B3EF PUSH1 0x40 MLOAD PUSH1 0x40 MLOAD DUP1 SWAP2 SUB SWAP1 LOG4 PUSH2 0x2B3A DUP4 DUP4 DUP4 PUSH1 0x1 PUSH2 0x318F JUMP JUMPDEST POP POP POP JUMP JUMPDEST PUSH1 0x0 PUSH1 0x3 PUSH1 0x0 DUP4 DUP2 MSTORE PUSH1 0x20 ADD SWAP1 DUP2 MSTORE PUSH1 0x20 ADD PUSH1 0x0 KECCAK256 PUSH1 0x0 SWAP1 SLOAD SWAP1 PUSH2 0x100 EXP SWAP1 DIV PUSH20 0xFFFFFFFFFFFFFFFFFFFFFFFFFFFFFFFFFFFFFFFF AND SWAP1 POP SWAP2 SWAP1 POP JUMP JUMPDEST PUSH1 0x0 DUP1 PUSH1 0x0 SWAP1 SLOAD SWAP1 PUSH2 0x100 EXP SWAP1 DIV PUSH20 0xFFFFFFFFFFFFFFFFFFFFFFFFFFFFFFFFFFFFFFFF AND SWAP1 POP DUP2 PUSH1 0x0 DUP1 PUSH2 0x100 EXP DUP2 SLOAD DUP2 PUSH20 0xFFFFFFFFFFFFFFFFFFFFFFFFFFFFFFFFFFFFFFFF MUL NOT AND SWAP1 DUP4 PUSH20 0xFFFFFFFFFFFFFFFFFFFFFFFFFFFFFFFFFFFFFFFF AND MUL OR SWAP1 SSTORE POP DUP2 PUSH20 0xFFFFFFFFFFFFFFFFFFFFFFFFFFFFFFFFFFFFFFFF AND DUP2 PUSH20 0xFFFFFFFFFFFFFFFFFFFFFFFFFFFFFFFFFFFFFFFF AND PUSH32 0x8BE0079C531659141344CD1FD0A4F28419497F9722A3DAAFE3B4186F6B6457E0 PUSH1 0x40 MLOAD PUSH1 0x40 MLOAD DUP1 SWAP2 SUB SWAP1 LOG3 POP POP JUMP JUMPDEST DUP2 PUSH20 0xFFFFFFFFFFFFFFFFFFFFFFFFFFFFFFFFFFFFFFFF AND DUP4 PUSH20 0xFFFFFFFFFFFFFFFFFFFFFFFFFFFFFFFFFFFFFFFF AND SUB PUSH2 0x2CAE JUMPI PUSH1 0x40 MLOAD PUSH32 0x8C379A000000000000000000000000000000000000000000000000000000000 DUP2 MSTORE PUSH1 0x4 ADD PUSH2 0x2CA5 SWAP1 PUSH2 0x5C89 JUMP JUMPDEST PUSH1 0x40 MLOAD DUP1 SWAP2 SUB SWAP1 REVERT JUMPDEST DUP1 PUSH1 0x6 PUSH1 0x0 DUP6 PUSH20 0xFFFFFFFFFFFFFFFFFFFFFFFFFFFFFFFFFFFFFFFF AND PUSH20 0xFFFFFFFFFFFFFFFFFFFFFFFFFFFFFFFFFFFFFFFF AND DUP2 MSTORE PUSH1 0x20 ADD SWAP1 DUP2 MSTORE PUSH1 0x20 ADD PUSH1 0x0 KECCAK256 PUSH1 0x0 DUP5 PUSH20 0xFFFFFFFFFFFFFFFFFFFFFFFFFFFFFFFFFFFFFFFF AND PUSH20 0xFFFFFFFFFFFFFFFFFFFFFFFFFFFFFFFFFFFFFFFF AND DUP2 MSTORE PUSH1 0x20 ADD SWAP1 DUP2 MSTORE PUSH1 0x20 ADD PUSH1 0x0 KECCAK256 PUSH1 0x0 PUSH2 0x100 EXP DUP2 SLOAD DUP2 PUSH1 0xFF MUL NOT AND SWAP1 DUP4 ISZERO ISZERO MUL OR SWAP1 SSTORE POP DUP2 PUSH20 0xFFFFFFFFFFFFFFFFFFFFFFFFFFFFFFFFFFFFFFFF AND DUP4 PUSH20 0xFFFFFFFFFFFFFFFFFFFFFFFFFFFFFFFFFFFFFFFF AND PUSH32 0x17307EAB39AB6107E8899845AD3D59BD9653F200F220920489CA2B5937696C31 DUP4 PUSH1 0x40 MLOAD PUSH2 0x2D9F SWAP2 SWAP1 PUSH2 0x3B37 JUMP JUMPDEST PUSH1 0x40 MLOAD DUP1 SWAP2 SUB SWAP1 LOG3 POP POP POP JUMP JUMPDEST PUSH2 0x2DB7 DUP5 DUP5 DUP5 PUSH2 0x2846 JUMP JUMPDEST PUSH2 0x2DC3 DUP5 DUP5 DUP5 DUP5 PUSH2 0x3195 JUMP JUMPDEST PUSH2 0x2E02 JUMPI PUSH1 0x40 MLOAD PUSH32 0x8C379A000000000000000000000000000000000000000000000000000000000 DUP2 MSTORE PUSH1 0x4 ADD PUSH2 0x2DF9 SWAP1 PUSH2 0x5D1B JUMP JUMPDEST PUSH1 0x40 MLOAD DUP1 SWAP2 SUB SWAP1 REVERT JUMPDEST POP POP POP POP JUMP JUMPDEST PUSH1 0x0 DUP1 PUSH20 0xFFFFFFFFFFFFFFFFFFFFFFFFFFFFFFFFFFFFFFFF AND PUSH2 0x2E2A DUP4 PUSH2 0x2B3F JUMP JUMPDEST PUSH20 0xFFFFFFFFFFFFFFFFFFFFFFFFFFFFFFFFFFFFFFFF AND EQ ISZERO SWAP1 POP SWAP2 SWAP1 POP JUMP JUMPDEST PUSH1 0x60 PUSH1 0xB DUP1 SLOAD PUSH2 0x2E58 SWAP1 PUSH2 0x48A3 JUMP JUMPDEST DUP1 PUSH1 0x1F ADD PUSH1 0x20 DUP1 SWAP2 DIV MUL PUSH1 0x20 ADD PUSH1 0x40 MLOAD SWAP1 DUP2 ADD PUSH1 0x40 MSTORE DUP1 SWAP3 SWAP2 SWAP1 DUP2 DUP2 MSTORE PUSH1 0x20 ADD DUP3 DUP1 SLOAD PUSH2 0x2E84 SWAP1 PUSH2 0x48A3 JUMP JUMPDEST DUP1 ISZERO PUSH2 0x2ED1 JUMPI DUP1 PUSH1 0x1F LT PUSH2 0x2EA6 JUMPI PUSH2 0x100 DUP1 DUP4 SLOAD DIV MUL DUP4 MSTORE SWAP2 PUSH1 0x20 ADD SWAP2 PUSH2 0x2ED1 JUMP JUMPDEST DUP3 ADD SWAP2 SWAP1 PUSH1 0x0 MSTORE PUSH1 0x20 PUSH1 0x0 KECCAK256 SWAP1 JUMPDEST DUP2 SLOAD DUP2 MSTORE SWAP1 PUSH1 0x1 ADD SWAP1 PUSH1 0x20 ADD DUP1 DUP4 GT PUSH2 0x2EB4 JUMPI DUP3 SWAP1 SUB PUSH1 0x1F AND DUP3 ADD SWAP2 JUMPDEST POP POP POP POP POP SWAP1 POP SWAP1 JUMP JUMPDEST PUSH1 0x60 PUSH1 0x0 PUSH1 0x1 PUSH2 0x2EEA DUP5 PUSH2 0x331C JUMP JUMPDEST ADD SWAP1 POP PUSH1 0x0 DUP2 PUSH8 0xFFFFFFFFFFFFFFFF DUP2 GT ISZERO PUSH2 0x2F09 JUMPI PUSH2 0x2F08 PUSH2 0x463D JUMP JUMPDEST JUMPDEST PUSH1 0x40 MLOAD SWAP1 DUP1 DUP3 MSTORE DUP1 PUSH1 0x1F ADD PUSH1 0x1F NOT AND PUSH1 0x20 ADD DUP3 ADD PUSH1 0x40 MSTORE DUP1 ISZERO PUSH2 0x2F3B JUMPI DUP2 PUSH1 0x20 ADD PUSH1 0x1 DUP3 MUL DUP1 CALLDATASIZE DUP4 CALLDATACOPY DUP1 DUP3 ADD SWAP2 POP POP SWAP1 POP JUMPDEST POP SWAP1 POP PUSH1 0x0 DUP3 PUSH1 0x20 ADD DUP3 ADD SWAP1 POP JUMPDEST PUSH1 0x1 ISZERO PUSH2 0x2F9E JUMPI DUP1 DUP1 PUSH1 0x1 SWAP1 SUB SWAP2 POP POP PUSH32 0x3031323334353637383961626364656600000000000000000000000000000000 PUSH1 0xA DUP7 MOD BYTE DUP2 MSTORE8 PUSH1 0xA DUP6 DUP2 PUSH2 0x2F92 JUMPI PUSH2 0x2F91 PUSH2 0x5D3B JUMP JUMPDEST JUMPDEST DIV SWAP5 POP PUSH1 0x0 DUP6 SUB PUSH2 0x2F49 JUMPI JUMPDEST DUP2 SWAP4 POP POP POP POP SWAP2 SWAP1 POP JUMP JUMPDEST PUSH2 0x2FC3 DUP3 DUP3 PUSH1 0x40 MLOAD DUP1 PUSH1 0x20 ADD PUSH1 0x40 MSTORE DUP1 PUSH1 0x0 DUP2 MSTORE POP PUSH2 0x346F JUMP JUMPDEST POP POP JUMP JUMPDEST PUSH1 0x0 PUSH32 0x1FFC9A700000000000000000000000000000000000000000000000000000000 PUSH28 0xFFFFFFFFFFFFFFFFFFFFFFFFFFFFFFFFFFFFFFFFFFFFFFFFFFFFFFFF NOT AND DUP3 PUSH28 0xFFFFFFFFFFFFFFFFFFFFFFFFFFFFFFFFFFFFFFFFFFFFFFFFFFFFFFFF NOT AND EQ SWAP1 POP SWAP2 SWAP1 POP JUMP JUMPDEST PUSH2 0x303D DUP5 DUP5 DUP5 DUP5 PUSH2 0x34CA JUMP JUMPDEST PUSH1 0x1 DUP2 GT ISZERO PUSH2 0x3081 JUMPI PUSH1 0x40 MLOAD PUSH32 0x8C379A000000000000000000000000000000000000000000000000000000000 DUP2 MSTORE PUSH1 0x4 ADD PUSH2 0x3078 SWAP1 PUSH2 0x5DDC JUMP JUMPDEST PUSH1 0x40 MLOAD DUP1 SWAP2 SUB SWAP1 REVERT JUMPDEST PUSH1 0x0 DUP3 SWAP1 POP PUSH1 0x0 PUSH20 0xFFFFFFFFFFFFFFFFFFFFFFFFFFFFFFFFFFFFFFFF AND DUP6 PUSH20 0xFFFFFFFFFFFFFFFFFFFFFFFFFFFFFFFFFFFFFFFF AND SUB PUSH2 0x30C8 JUMPI PUSH2 0x30C3 DUP2 PUSH2 0x34D0 JUMP JUMPDEST PUSH2 0x3107 JUMP JUMPDEST DUP4 PUSH20 0xFFFFFFFFFFFFFFFFFFFFFFFFFFFFFFFFFFFFFFFF AND DUP6 PUSH20 0xFFFFFFFFFFFFFFFFFFFFFFFFFFFFFFFFFFFFFFFF AND EQ PUSH2 0x3106 JUMPI PUSH2 0x3105 DUP6 DUP3 PUSH2 0x3519 JUMP JUMPDEST JUMPDEST JUMPDEST PUSH1 0x0 PUSH20 0xFFFFFFFFFFFFFFFFFFFFFFFFFFFFFFFFFFFFFFFF AND DUP5 PUSH20 0xFFFFFFFFFFFFFFFFFFFFFFFFFFFFFFFFFFFFFFFF AND SUB PUSH2 0x3149 JUMPI PUSH2 0x3144 DUP2 PUSH2 0x3686 JUMP JUMPDEST PUSH2 0x3188 JUMP JUMPDEST DUP5 PUSH20 0xFFFFFFFFFFFFFFFFFFFFFFFFFFFFFFFFFFFFFFFF AND DUP5 PUSH20 0xFFFFFFFFFFFFFFFFFFFFFFFFFFFFFFFFFFFFFFFF AND EQ PUSH2 0x3187 JUMPI PUSH2 0x3186 DUP5 DUP3 PUSH2 0x3757 JUMP JUMPDEST JUMPDEST JUMPDEST POP POP POP POP POP JUMP JUMPDEST POP POP POP POP JUMP JUMPDEST PUSH1 0x0 PUSH2 0x31B6 DUP5 PUSH20 0xFFFFFFFFFFFFFFFFFFFFFFFFFFFFFFFFFFFFFFFF AND PUSH2 0x37D6 JUMP JUMPDEST ISZERO PUSH2 0x330F JUMPI DUP4 PUSH20 0xFFFFFFFFFFFFFFFFFFFFFFFFFFFFFFFFFFFFFFFF AND PUSH4 0x150B7A02 PUSH2 0x31DF PUSH2 0x2672 JUMP JUMPDEST DUP8 DUP7 DUP7 PUSH1 0x40 MLOAD DUP6 PUSH4 0xFFFFFFFF AND PUSH1 0xE0 SHL DUP2 MSTORE PUSH1 0x4 ADD PUSH2 0x3201 SWAP5 SWAP4 SWAP3 SWAP2 SWAP1 PUSH2 0x5E51 JUMP JUMPDEST PUSH1 0x20 PUSH1 0x40 MLOAD DUP1 DUP4 SUB DUP2 PUSH1 0x0 DUP8 GAS CALL SWAP3 POP POP POP DUP1 ISZERO PUSH2 0x323D JUMPI POP PUSH1 0x40 MLOAD RETURNDATASIZE PUSH1 0x1F NOT PUSH1 0x1F DUP3 ADD AND DUP3 ADD DUP1 PUSH1 0x40 MSTORE POP DUP2 ADD SWAP1 PUSH2 0x323A SWAP2 SWAP1 PUSH2 0x5EB2 JUMP JUMPDEST PUSH1 0x1 JUMPDEST PUSH2 0x32BF JUMPI RETURNDATASIZE DUP1 PUSH1 0x0 DUP2 EQ PUSH2 0x326D JUMPI PUSH1 0x40 MLOAD SWAP2 POP PUSH1 0x1F NOT PUSH1 0x3F RETURNDATASIZE ADD AND DUP3 ADD PUSH1 0x40 MSTORE RETURNDATASIZE DUP3 MSTORE RETURNDATASIZE PUSH1 0x0 PUSH1 0x20 DUP5 ADD RETURNDATACOPY PUSH2 0x3272 JUMP JUMPDEST PUSH1 0x60 SWAP2 POP JUMPDEST POP PUSH1 0x0 DUP2 MLOAD SUB PUSH2 0x32B7 JUMPI PUSH1 0x40 MLOAD PUSH32 0x8C379A000000000000000000000000000000000000000000000000000000000 DUP2 MSTORE PUSH1 0x4 ADD PUSH2 0x32AE SWAP1 PUSH2 0x5D1B JUMP JUMPDEST PUSH1 0x40 MLOAD DUP1 SWAP2 SUB SWAP1 REVERT JUMPDEST DUP1 MLOAD DUP2 PUSH1 0x20 ADD REVERT JUMPDEST PUSH4 0x150B7A02 PUSH1 0xE0 SHL PUSH28 0xFFFFFFFFFFFFFFFFFFFFFFFFFFFFFFFFFFFFFFFFFFFFFFFFFFFFFFFF NOT AND DUP2 PUSH28 0xFFFFFFFFFFFFFFFFFFFFFFFFFFFFFFFFFFFFFFFFFFFFFFFFFFFFFFFF NOT AND EQ SWAP2 POP POP PUSH2 0x3314 JUMP JUMPDEST PUSH1 0x1 SWAP1 POP JUMPDEST SWAP5 SWAP4 POP POP POP POP JUMP JUMPDEST PUSH1 0x0 DUP1 PUSH1 0x0 SWAP1 POP PUSH27 0x184F03E93FF9F4DAA797ED6E38ED64BF6A1F010000000000000000 DUP4 LT PUSH2 0x337A JUMPI PUSH27 0x184F03E93FF9F4DAA797ED6E38ED64BF6A1F010000000000000000 DUP4 DUP2 PUSH2 0x3370 JUMPI PUSH2 0x336F PUSH2 0x5D3B JUMP JUMPDEST JUMPDEST DIV SWAP3 POP PUSH1 0x40 DUP2 ADD SWAP1 POP JUMPDEST PUSH14 0x4EE2D6D415B85ACEF8100000000 DUP4 LT PUSH2 0x33B7 JUMPI PUSH14 0x4EE2D6D415B85ACEF8100000000 DUP4 DUP2 PUSH2 0x33AD JUMPI PUSH2 0x33AC PUSH2 0x5D3B JUMP JUMPDEST JUMPDEST DIV SWAP3 POP PUSH1 0x20 DUP2 ADD SWAP1 POP JUMPDEST PUSH7 0x2386F26FC10000 DUP4 LT PUSH2 0x33E6 JUMPI PUSH7 0x2386F26FC10000 DUP4 DUP2 PUSH2 0x33DC JUMPI PUSH2 0x33DB PUSH2 0x5D3B JUMP JUMPDEST JUMPDEST DIV SWAP3 POP PUSH1 0x10 DUP2 ADD SWAP1 POP JUMPDEST PUSH4 0x5F5E100 DUP4 LT PUSH2 0x340F JUMPI PUSH4 0x5F5E100 DUP4 DUP2 PUSH2 0x3405 JUMPI PUSH2 0x3404 PUSH2 0x5D3B JUMP JUMPDEST JUMPDEST DIV SWAP3 POP PUSH1 0x8 DUP2 ADD SWAP1 POP JUMPDEST PUSH2 0x2710 DUP4 LT PUSH2 0x3434 JUMPI PUSH2 0x2710 DUP4 DUP2 PUSH2 0x342A JUMPI PUSH2 0x3429 PUSH2 0x5D3B JUMP JUMPDEST JUMPDEST DIV SWAP3 POP PUSH1 0x4 DUP2 ADD SWAP1 POP JUMPDEST PUSH1 0x64 DUP4 LT PUSH2 0x3457 JUMPI PUSH1 0x64 DUP4 DUP2 PUSH2 0x344D JUMPI PUSH2 0x344C PUSH2 0x5D3B JUMP JUMPDEST JUMPDEST DIV SWAP3 POP PUSH1 0x2 DUP2 ADD SWAP1 POP JUMPDEST PUSH1 0xA DUP4 LT PUSH2 0x3466 JUMPI PUSH1 0x1 DUP2 ADD SWAP1 POP JUMPDEST DUP1 SWAP2 POP POP SWAP2 SWAP1 POP JUMP JUMPDEST PUSH2 0x3479 DUP4 DUP4 PUSH2 0x37F9 JUMP JUMPDEST PUSH2 0x3486 PUSH1 0x0 DUP5 DUP5 DUP5 PUSH2 0x3195 JUMP JUMPDEST PUSH2 0x34C5 JUMPI PUSH1 0x40 MLOAD PUSH32 0x8C379A000000000000000000000000000000000000000000000000000000000 DUP2 MSTORE PUSH1 0x4 ADD PUSH2 0x34BC SWAP1 PUSH2 0x5D1B JUMP JUMPDEST PUSH1 0x40 MLOAD DUP1 SWAP2 SUB SWAP1 REVERT JUMPDEST POP POP POP JUMP JUMPDEST POP POP POP POP JUMP JUMPDEST PUSH1 0x9 DUP1 SLOAD SWAP1 POP PUSH1 0xA PUSH1 0x0 DUP4 DUP2 MSTORE PUSH1 0x20 ADD SWAP1 DUP2 MSTORE PUSH1 0x20 ADD PUSH1 0x0 KECCAK256 DUP2 SWAP1 SSTORE POP PUSH1 0x9 DUP2 SWAP1 DUP1 PUSH1 0x1 DUP2 SLOAD ADD DUP1 DUP3 SSTORE DUP1 SWAP2 POP POP PUSH1 0x1 SWAP1 SUB SWAP1 PUSH1 0x0 MSTORE PUSH1 0x20 PUSH1 0x0 KECCAK256 ADD PUSH1 0x0 SWAP1 SWAP2 SWAP1 SWAP2 SWAP1 SWAP2 POP SSTORE POP JUMP JUMPDEST PUSH1 0x0 PUSH1 0x1 PUSH2 0x3526 DUP5 PUSH2 0x1743 JUMP JUMPDEST PUSH2 0x3530 SWAP2 SWAP1 PUSH2 0x5645 JUMP JUMPDEST SWAP1 POP PUSH1 0x0 PUSH1 0x8 PUSH1 0x0 DUP5 DUP2 MSTORE PUSH1 0x20 ADD SWAP1 DUP2 MSTORE PUSH1 0x20 ADD PUSH1 0x0 KECCAK256 SLOAD SWAP1 POP DUP2 DUP2 EQ PUSH2 0x3615 JUMPI PUSH1 0x0 PUSH1 0x7 PUSH1 0x0 DUP7 PUSH20 0xFFFFFFFFFFFFFFFFFFFFFFFFFFFFFFFFFFFFFFFF AND PUSH20 0xFFFFFFFFFFFFFFFFFFFFFFFFFFFFFFFFFFFFFFFF AND DUP2 MSTORE PUSH1 0x20 ADD SWAP1 DUP2 MSTORE PUSH1 0x20 ADD PUSH1 0x0 KECCAK256 PUSH1 0x0 DUP5 DUP2 MSTORE PUSH1 0x20 ADD SWAP1 DUP2 MSTORE PUSH1 0x20 ADD PUSH1 0x0 KECCAK256 SLOAD SWAP1 POP DUP1 PUSH1 0x7 PUSH1 0x0 DUP8 PUSH20 0xFFFFFFFFFFFFFFFFFFFFFFFFFFFFFFFFFFFFFFFF AND PUSH20 0xFFFFFFFFFFFFFFFFFFFFFFFFFFFFFFFFFFFFFFFF AND DUP2 MSTORE PUSH1 0x20 ADD SWAP1 DUP2 MSTORE PUSH1 0x20 ADD PUSH1 0x0 KECCAK256 PUSH1 0x0 DUP5 DUP2 MSTORE PUSH1 0x20 ADD SWAP1 DUP2 MSTORE PUSH1 0x20 ADD PUSH1 0x0 KECCAK256 DUP2 SWAP1 SSTORE POP DUP2 PUSH1 0x8 PUSH1 0x0 DUP4 DUP2 MSTORE PUSH1 0x20 ADD SWAP1 DUP2 MSTORE PUSH1 0x20 ADD PUSH1 0x0 KECCAK256 DUP2 SWAP1 SSTORE POP POP JUMPDEST PUSH1 0x8 PUSH1 0x0 DUP5 DUP2 MSTORE PUSH1 0x20 ADD SWAP1 DUP2 MSTORE PUSH1 0x20 ADD PUSH1 0x0 KECCAK256 PUSH1 0x0 SWAP1 SSTORE PUSH1 0x7 PUSH1 0x0 DUP6 PUSH20 0xFFFFFFFFFFFFFFFFFFFFFFFFFFFFFFFFFFFFFFFF AND PUSH20 0xFFFFFFFFFFFFFFFFFFFFFFFFFFFFFFFFFFFFFFFF AND DUP2 MSTORE PUSH1 0x20 ADD SWAP1 DUP2 MSTORE PUSH1 0x20 ADD PUSH1 0x0 KECCAK256 PUSH1 0x0 DUP4 DUP2 MSTORE PUSH1 0x20 ADD SWAP1 DUP2 MSTORE PUSH1 0x20 ADD PUSH1 0x0 KECCAK256 PUSH1 0x0 SWAP1 SSTORE POP POP POP POP JUMP JUMPDEST PUSH1 0x0 PUSH1 0x1 PUSH1 0x9 DUP1 SLOAD SWAP1 POP PUSH2 0x369A SWAP2 SWAP1 PUSH2 0x5645 JUMP JUMPDEST SWAP1 POP PUSH1 0x0 PUSH1 0xA PUSH1 0x0 DUP5 DUP2 MSTORE PUSH1 0x20 ADD SWAP1 DUP2 MSTORE PUSH1 0x20 ADD PUSH1 0x0 KECCAK256 SLOAD SWAP1 POP PUSH1 0x0 PUSH1 0x9 DUP4 DUP2 SLOAD DUP2 LT PUSH2 0x36CA JUMPI PUSH2 0x36C9 PUSH2 0x55E2 JUMP JUMPDEST JUMPDEST SWAP1 PUSH1 0x0 MSTORE PUSH1 0x20 PUSH1 0x0 KECCAK256 ADD SLOAD SWAP1 POP DUP1 PUSH1 0x9 DUP4 DUP2 SLOAD DUP2 LT PUSH2 0x36EC JUMPI PUSH2 0x36EB PUSH2 0x55E2 JUMP JUMPDEST JUMPDEST SWAP1 PUSH1 0x0 MSTORE PUSH1 0x20 PUSH1 0x0 KECCAK256 ADD DUP2 SWAP1 SSTORE POP DUP2 PUSH1 0xA PUSH1 0x0 DUP4 DUP2 MSTORE PUSH1 0x20 ADD SWAP1 DUP2 MSTORE PUSH1 0x20 ADD PUSH1 0x0 KECCAK256 DUP2 SWAP1 SSTORE POP PUSH1 0xA PUSH1 0x0 DUP6 DUP2 MSTORE PUSH1 0x20 ADD SWAP1 DUP2 MSTORE PUSH1 0x20 ADD PUSH1 0x0 KECCAK256 PUSH1 0x0 SWAP1 SSTORE PUSH1 0x9 DUP1 SLOAD DUP1 PUSH2 0x373B JUMPI PUSH2 0x373A PUSH2 0x5EDF JUMP JUMPDEST JUMPDEST PUSH1 0x1 SWAP1 SUB DUP2 DUP2 SWAP1 PUSH1 0x0 MSTORE PUSH1 0x20 PUSH1 0x0 KECCAK256 ADD PUSH1 0x0 SWAP1 SSTORE SWAP1 SSTORE POP POP POP POP JUMP JUMPDEST PUSH1 0x0 PUSH2 0x3762 DUP4 PUSH2 0x1743 JUMP JUMPDEST SWAP1 POP DUP2 PUSH1 0x7 PUSH1 0x0 DUP6 PUSH20 0xFFFFFFFFFFFFFFFFFFFFFFFFFFFFFFFFFFFFFFFF AND PUSH20 0xFFFFFFFFFFFFFFFFFFFFFFFFFFFFFFFFFFFFFFFF AND DUP2 MSTORE PUSH1 0x20 ADD SWAP1 DUP2 MSTORE PUSH1 0x20 ADD PUSH1 0x0 KECCAK256 PUSH1 0x0 DUP4 DUP2 MSTORE PUSH1 0x20 ADD SWAP1 DUP2 MSTORE PUSH1 0x20 ADD PUSH1 0x0 KECCAK256 DUP2 SWAP1 SSTORE POP DUP1 PUSH1 0x8 PUSH1 0x0 DUP5 DUP2 MSTORE PUSH1 0x20 ADD SWAP1 DUP2 MSTORE PUSH1 0x20 ADD PUSH1 0x0 KECCAK256 DUP2 SWAP1 SSTORE POP POP POP POP JUMP JUMPDEST PUSH1 0x0 DUP1 DUP3 PUSH20 0xFFFFFFFFFFFFFFFFFFFFFFFFFFFFFFFFFFFFFFFF AND EXTCODESIZE GT SWAP1 POP SWAP2 SWAP1 POP JUMP JUMPDEST PUSH1 0x0 PUSH20 0xFFFFFFFFFFFFFFFFFFFFFFFFFFFFFFFFFFFFFFFF AND DUP3 PUSH20 0xFFFFFFFFFFFFFFFFFFFFFFFFFFFFFFFFFFFFFFFF AND SUB PUSH2 0x3868 JUMPI PUSH1 0x40 MLOAD PUSH32 0x8C379A000000000000000000000000000000000000000000000000000000000 DUP2 MSTORE PUSH1 0x4 ADD PUSH2 0x385F SWAP1 PUSH2 0x5F5A JUMP JUMPDEST PUSH1 0x40 MLOAD DUP1 SWAP2 SUB SWAP1 REVERT JUMPDEST PUSH2 0x3871 DUP2 PUSH2 0x2E08 JUMP JUMPDEST ISZERO PUSH2 0x38B1 JUMPI PUSH1 0x40 MLOAD PUSH32 0x8C379A000000000000000000000000000000000000000000000000000000000 DUP2 MSTORE PUSH1 0x4 ADD PUSH2 0x38A8 SWAP1 PUSH2 0x5FC6 JUMP JUMPDEST PUSH1 0x40 MLOAD DUP1 SWAP2 SUB SWAP1 REVERT JUMPDEST PUSH2 0x38BF PUSH1 0x0 DUP4 DUP4 PUSH1 0x1 PUSH2 0x3031 JUMP JUMPDEST PUSH2 0x38C8 DUP2 PUSH2 0x2E08 JUMP JUMPDEST ISZERO PUSH2 0x3908 JUMPI PUSH1 0x40 MLOAD PUSH32 0x8C379A000000000000000000000000000000000000000000000000000000000 DUP2 MSTORE PUSH1 0x4 ADD PUSH2 0x38FF SWAP1 PUSH2 0x5FC6 JUMP JUMPDEST PUSH1 0x40 MLOAD DUP1 SWAP2 SUB SWAP1 REVERT JUMPDEST PUSH1 0x1 PUSH1 0x4 PUSH1 0x0 DUP5 PUSH20 0xFFFFFFFFFFFFFFFFFFFFFFFFFFFFFFFFFFFFFFFF AND PUSH20 0xFFFFFFFFFFFFFFFFFFFFFFFFFFFFFFFFFFFFFFFF AND DUP2 MSTORE PUSH1 0x20 ADD SWAP1 DUP2 MSTORE PUSH1 0x20 ADD PUSH1 0x0 KECCAK256 PUSH1 0x0 DUP3 DUP3 SLOAD ADD SWAP3 POP POP DUP2 SWAP1 SSTORE POP DUP2 PUSH1 0x3 PUSH1 0x0 DUP4 DUP2 MSTORE PUSH1 0x20 ADD SWAP1 DUP2 MSTORE PUSH1 0x20 ADD PUSH1 0x0 KECCAK256 PUSH1 0x0 PUSH2 0x100 EXP DUP2 SLOAD DUP2 PUSH20 0xFFFFFFFFFFFFFFFFFFFFFFFFFFFFFFFFFFFFFFFF MUL NOT AND SWAP1 DUP4 PUSH20 0xFFFFFFFFFFFFFFFFFFFFFFFFFFFFFFFFFFFFFFFF AND MUL OR SWAP1 SSTORE POP DUP1 DUP3 PUSH20 0xFFFFFFFFFFFFFFFFFFFFFFFFFFFFFFFFFFFFFFFF AND PUSH1 0x0 PUSH20 0xFFFFFFFFFFFFFFFFFFFFFFFFFFFFFFFFFFFFFFFF AND PUSH32 0xDDF252AD1BE2C89B69C2B068FC378DAA952BA7F163C4A11628F55A4DF523B3EF PUSH1 0x40 MLOAD PUSH1 0x40 MLOAD DUP1 SWAP2 SUB SWAP1 LOG4 PUSH2 0x3A12 PUSH1 0x0 DUP4 DUP4 PUSH1 0x1 PUSH2 0x318F JUMP JUMPDEST POP POP JUMP JUMPDEST PUSH1 0x40 MLOAD DUP1 PUSH1 0x80 ADD PUSH1 0x40 MSTORE DUP1 PUSH1 0x0 DUP2 MSTORE PUSH1 0x20 ADD PUSH1 0x60 DUP2 MSTORE PUSH1 0x20 ADD PUSH1 0x60 DUP2 MSTORE PUSH1 0x20 ADD PUSH1 0x0 DUP2 MSTORE POP SWAP1 JUMP JUMPDEST PUSH1 0x40 MLOAD DUP1 PUSH1 0xA0 ADD PUSH1 0x40 MSTORE DUP1 PUSH1 0x0 PUSH20 0xFFFFFFFFFFFFFFFFFFFFFFFFFFFFFFFFFFFFFFFF AND DUP2 MSTORE PUSH1 0x20 ADD PUSH1 0x60 DUP2 MSTORE PUSH1 0x20 ADD PUSH1 0x60 DUP2 MSTORE PUSH1 0x20 ADD PUSH1 0x60 DUP2 MSTORE PUSH1 0x20 ADD PUSH1 0x60 DUP2 MSTORE POP SWAP1 JUMP JUMPDEST PUSH1 0x0 PUSH1 0x40 MLOAD SWAP1 POP SWAP1 JUMP JUMPDEST PUSH1 0x0 DUP1 REVERT JUMPDEST PUSH1 0x0 DUP1 REVERT JUMPDEST PUSH1 0x0 PUSH32 0xFFFFFFFF00000000000000000000000000000000000000000000000000000000 DUP3 AND SWAP1 POP SWAP2 SWAP1 POP JUMP JUMPDEST PUSH2 0x3ACC DUP2 PUSH2 0x3A97 JUMP JUMPDEST DUP2 EQ PUSH2 0x3AD7 JUMPI PUSH1 0x0 DUP1 REVERT JUMPDEST POP JUMP JUMPDEST PUSH1 0x0 DUP2 CALLDATALOAD SWAP1 POP PUSH2 0x3AE9 DUP2 PUSH2 0x3AC3 JUMP JUMPDEST SWAP3 SWAP2 POP POP JUMP JUMPDEST PUSH1 0x0 PUSH1 0x20 DUP3 DUP5 SUB SLT ISZERO PUSH2 0x3B05 JUMPI PUSH2 0x3B04 PUSH2 0x3A8D JUMP JUMPDEST JUMPDEST PUSH1 0x0 PUSH2 0x3B13 DUP5 DUP3 DUP6 ADD PUSH2 0x3ADA JUMP JUMPDEST SWAP2 POP POP SWAP3 SWAP2 POP POP JUMP JUMPDEST PUSH1 0x0 DUP2 ISZERO ISZERO SWAP1 POP SWAP2 SWAP1 POP JUMP JUMPDEST PUSH2 0x3B31 DUP2 PUSH2 0x3B1C JUMP JUMPDEST DUP3 MSTORE POP POP JUMP JUMPDEST PUSH1 0x0 PUSH1 0x20 DUP3 ADD SWAP1 POP PUSH2 0x3B4C PUSH1 0x0 DUP4 ADD DUP5 PUSH2 0x3B28 JUMP JUMPDEST SWAP3 SWAP2 POP POP JUMP JUMPDEST PUSH1 0x0 DUP2 MLOAD SWAP1 POP SWAP2 SWAP1 POP JUMP JUMPDEST PUSH1 0x0 DUP3 DUP3 MSTORE PUSH1 0x20 DUP3 ADD SWAP1 POP SWAP3 SWAP2 POP POP JUMP JUMPDEST PUSH1 0x0 JUMPDEST DUP4 DUP2 LT ISZERO PUSH2 0x3B8C JUMPI DUP1 DUP3 ADD MLOAD DUP2 DUP5 ADD MSTORE PUSH1 0x20 DUP2 ADD SWAP1 POP PUSH2 0x3B71 JUMP JUMPDEST PUSH1 0x0 DUP5 DUP5 ADD MSTORE POP POP POP POP JUMP JUMPDEST PUSH1 0x0 PUSH1 0x1F NOT PUSH1 0x1F DUP4 ADD AND SWAP1 POP SWAP2 SWAP1 POP JUMP JUMPDEST PUSH1 0x0 PUSH2 0x3BB4 DUP3 PUSH2 0x3B52 JUMP JUMPDEST PUSH2 0x3BBE DUP2 DUP6 PUSH2 0x3B5D JUMP JUMPDEST SWAP4 POP PUSH2 0x3BCE DUP2 DUP6 PUSH1 0x20 DUP7 ADD PUSH2 0x3B6E JUMP JUMPDEST PUSH2 0x3BD7 DUP2 PUSH2 0x3B98 JUMP JUMPDEST DUP5 ADD SWAP2 POP POP SWAP3 SWAP2 POP POP JUMP JUMPDEST PUSH1 0x0 PUSH1 0x20 DUP3 ADD SWAP1 POP DUP2 DUP2 SUB PUSH1 0x0 DUP4 ADD MSTORE PUSH2 0x3BFC DUP2 DUP5 PUSH2 0x3BA9 JUMP JUMPDEST SWAP1 POP SWAP3 SWAP2 POP POP JUMP JUMPDEST PUSH1 0x0 DUP2 SWAP1 POP SWAP2 SWAP1 POP JUMP JUMPDEST PUSH2 0x3C17 DUP2 PUSH2 0x3C04 JUMP JUMPDEST DUP2 EQ PUSH2 0x3C22 JUMPI PUSH1 0x0 DUP1 REVERT JUMPDEST POP JUMP JUMPDEST PUSH1 0x0 DUP2 CALLDATALOAD SWAP1 POP PUSH2 0x3C34 DUP2 PUSH2 0x3C0E JUMP JUMPDEST SWAP3 SWAP2 POP POP JUMP JUMPDEST PUSH1 0x0 PUSH1 0x20 DUP3 DUP5 SUB SLT ISZERO PUSH2 0x3C50 JUMPI PUSH2 0x3C4F PUSH2 0x3A8D JUMP JUMPDEST JUMPDEST PUSH1 0x0 PUSH2 0x3C5E DUP5 DUP3 DUP6 ADD PUSH2 0x3C25 JUMP JUMPDEST SWAP2 POP POP SWAP3 SWAP2 POP POP JUMP JUMPDEST PUSH1 0x0 PUSH20 0xFFFFFFFFFFFFFFFFFFFFFFFFFFFFFFFFFFFFFFFF DUP3 AND SWAP1 POP SWAP2 SWAP1 POP JUMP JUMPDEST PUSH1 0x0 PUSH2 0x3C92 DUP3 PUSH2 0x3C67 JUMP JUMPDEST SWAP1 POP SWAP2 SWAP1 POP JUMP JUMPDEST PUSH2 0x3CA2 DUP2 PUSH2 0x3C87 JUMP JUMPDEST DUP3 MSTORE POP POP JUMP JUMPDEST PUSH1 0x0 PUSH1 0x20 DUP3 ADD SWAP1 POP PUSH2 0x3CBD PUSH1 0x0 DUP4 ADD DUP5 PUSH2 0x3C99 JUMP JUMPDEST SWAP3 SWAP2 POP POP JUMP JUMPDEST PUSH2 0x3CCC DUP2 PUSH2 0x3C04 JUMP JUMPDEST DUP3 MSTORE POP POP JUMP JUMPDEST PUSH1 0x0 PUSH1 0x20 DUP3 ADD SWAP1 POP PUSH2 0x3CE7 PUSH1 0x0 DUP4 ADD DUP5 PUSH2 0x3CC3 JUMP JUMPDEST SWAP3 SWAP2 POP POP JUMP JUMPDEST PUSH2 0x3CF6 DUP2 PUSH2 0x3C87 JUMP JUMPDEST DUP2 EQ PUSH2 0x3D01 JUMPI PUSH1 0x0 DUP1 REVERT JUMPDEST POP JUMP JUMPDEST PUSH1 0x0 DUP2 CALLDATALOAD SWAP1 POP PUSH2 0x3D13 DUP2 PUSH2 0x3CED JUMP JUMPDEST SWAP3 SWAP2 POP POP JUMP JUMPDEST PUSH1 0x0 DUP1 PUSH1 0x40 DUP4 DUP6 SUB SLT ISZERO PUSH2 0x3D30 JUMPI PUSH2 0x3D2F PUSH2 0x3A8D JUMP JUMPDEST JUMPDEST PUSH1 0x0 PUSH2 0x3D3E DUP6 DUP3 DUP7 ADD PUSH2 0x3D04 JUMP JUMPDEST SWAP3 POP POP PUSH1 0x20 PUSH2 0x3D4F DUP6 DUP3 DUP7 ADD PUSH2 0x3C25 JUMP JUMPDEST SWAP2 POP POP SWAP3 POP SWAP3 SWAP1 POP JUMP JUMPDEST PUSH2 0x3D62 DUP2 PUSH2 0x3B1C JUMP JUMPDEST DUP2 EQ PUSH2 0x3D6D JUMPI PUSH1 0x0 DUP1 REVERT JUMPDEST POP JUMP JUMPDEST PUSH1 0x0 DUP2 CALLDATALOAD SWAP1 POP PUSH2 0x3D7F DUP2 PUSH2 0x3D59 JUMP JUMPDEST SWAP3 SWAP2 POP POP JUMP JUMPDEST PUSH1 0x0 PUSH1 0x20 DUP3 DUP5 SUB SLT ISZERO PUSH2 0x3D9B JUMPI PUSH2 0x3D9A PUSH2 0x3A8D JUMP JUMPDEST JUMPDEST PUSH1 0x0 PUSH2 0x3DA9 DUP5 DUP3 DUP6 ADD PUSH2 0x3D70 JUMP JUMPDEST SWAP2 POP POP SWAP3 SWAP2 POP POP JUMP JUMPDEST PUSH1 0x0 DUP1 PUSH1 0x0 PUSH1 0x60 DUP5 DUP7 SUB SLT ISZERO PUSH2 0x3DCB JUMPI PUSH2 0x3DCA PUSH2 0x3A8D JUMP JUMPDEST JUMPDEST PUSH1 0x0 PUSH2 0x3DD9 DUP7 DUP3 DUP8 ADD PUSH2 0x3D04 JUMP JUMPDEST SWAP4 POP POP PUSH1 0x20 PUSH2 0x3DEA DUP7 DUP3 DUP8 ADD PUSH2 0x3D04 JUMP JUMPDEST SWAP3 POP POP PUSH1 0x40 PUSH2 0x3DFB DUP7 DUP3 DUP8 ADD PUSH2 0x3C25 JUMP JUMPDEST SWAP2 POP POP SWAP3 POP SWAP3 POP SWAP3 JUMP JUMPDEST PUSH1 0x0 DUP1 REVERT JUMPDEST PUSH1 0x0 PUSH1 0xA0 DUP3 DUP5 SUB SLT ISZERO PUSH2 0x3E20 JUMPI PUSH2 0x3E1F PUSH2 0x3E05 JUMP JUMPDEST JUMPDEST DUP2 SWAP1 POP SWAP3 SWAP2 POP POP JUMP JUMPDEST PUSH1 0x0 DUP1 PUSH1 0x40 DUP4 DUP6 SUB SLT ISZERO PUSH2 0x3E40 JUMPI PUSH2 0x3E3F PUSH2 0x3A8D JUMP JUMPDEST JUMPDEST PUSH1 0x0 PUSH2 0x3E4E DUP6 DUP3 DUP7 ADD PUSH2 0x3C25 JUMP JUMPDEST SWAP3 POP POP PUSH1 0x20 DUP4 ADD CALLDATALOAD PUSH8 0xFFFFFFFFFFFFFFFF DUP2 GT ISZERO PUSH2 0x3E6F JUMPI PUSH2 0x3E6E PUSH2 0x3A92 JUMP JUMPDEST JUMPDEST PUSH2 0x3E7B DUP6 DUP3 DUP7 ADD PUSH2 0x3E0A JUMP JUMPDEST SWAP2 POP POP SWAP3 POP SWAP3 SWAP1 POP JUMP JUMPDEST PUSH1 0x0 DUP1 REVERT JUMPDEST PUSH1 0x0 DUP1 REVERT JUMPDEST PUSH1 0x0 DUP1 REVERT JUMPDEST PUSH1 0x0 DUP1 DUP4 PUSH1 0x1F DUP5 ADD SLT PUSH2 0x3EAA JUMPI PUSH2 0x3EA9 PUSH2 0x3E85 JUMP JUMPDEST JUMPDEST DUP3 CALLDATALOAD SWAP1 POP PUSH8 0xFFFFFFFFFFFFFFFF DUP2 GT ISZERO PUSH2 0x3EC7 JUMPI PUSH2 0x3EC6 PUSH2 0x3E8A JUMP JUMPDEST JUMPDEST PUSH1 0x20 DUP4 ADD SWAP2 POP DUP4 PUSH1 0x1 DUP3 MUL DUP4 ADD GT ISZERO PUSH2 0x3EE3 JUMPI PUSH2 0x3EE2 PUSH2 0x3E8F JUMP JUMPDEST JUMPDEST SWAP3 POP SWAP3 SWAP1 POP JUMP JUMPDEST PUSH1 0x0 DUP1 PUSH1 0x0 DUP1 PUSH1 0x40 DUP6 DUP8 SUB SLT ISZERO PUSH2 0x3F04 JUMPI PUSH2 0x3F03 PUSH2 0x3A8D JUMP JUMPDEST JUMPDEST PUSH1 0x0 DUP6 ADD CALLDATALOAD PUSH8 0xFFFFFFFFFFFFFFFF DUP2 GT ISZERO PUSH2 0x3F22 JUMPI PUSH2 0x3F21 PUSH2 0x3A92 JUMP JUMPDEST JUMPDEST PUSH2 0x3F2E DUP8 DUP3 DUP9 ADD PUSH2 0x3E94 JUMP JUMPDEST SWAP5 POP SWAP5 POP POP PUSH1 0x20 DUP6 ADD CALLDATALOAD PUSH8 0xFFFFFFFFFFFFFFFF DUP2 GT ISZERO PUSH2 0x3F51 JUMPI PUSH2 0x3F50 PUSH2 0x3A92 JUMP JUMPDEST JUMPDEST PUSH2 0x3F5D DUP8 DUP3 DUP9 ADD PUSH2 0x3E94 JUMP JUMPDEST SWAP3 POP SWAP3 POP POP SWAP3 SWAP6 SWAP2 SWAP5 POP SWAP3 POP JUMP JUMPDEST PUSH2 0x3F74 DUP2 PUSH2 0x3C04 JUMP JUMPDEST DUP3 MSTORE POP POP JUMP JUMPDEST PUSH1 0x0 DUP3 DUP3 MSTORE PUSH1 0x20 DUP3 ADD SWAP1 POP SWAP3 SWAP2 POP POP JUMP JUMPDEST PUSH1 0x0 PUSH2 0x3F96 DUP3 PUSH2 0x3B52 JUMP JUMPDEST PUSH2 0x3FA0 DUP2 DUP6 PUSH2 0x3F7A JUMP JUMPDEST SWAP4 POP PUSH2 0x3FB0 DUP2 DUP6 PUSH1 0x20 DUP7 ADD PUSH2 0x3B6E JUMP JUMPDEST PUSH2 0x3FB9 DUP2 PUSH2 0x3B98 JUMP JUMPDEST DUP5 ADD SWAP2 POP POP SWAP3 SWAP2 POP POP JUMP JUMPDEST PUSH1 0x0 PUSH1 0x80 DUP4 ADD PUSH1 0x0 DUP4 ADD MLOAD PUSH2 0x3FDC PUSH1 0x0 DUP7 ADD DUP3 PUSH2 0x3F6B JUMP JUMPDEST POP PUSH1 0x20 DUP4 ADD MLOAD DUP5 DUP3 SUB PUSH1 0x20 DUP7 ADD MSTORE PUSH2 0x3FF4 DUP3 DUP3 PUSH2 0x3F8B JUMP JUMPDEST SWAP2 POP POP PUSH1 0x40 DUP4 ADD MLOAD DUP5 DUP3 SUB PUSH1 0x40 DUP7 ADD MSTORE PUSH2 0x400E DUP3 DUP3 PUSH2 0x3F8B JUMP JUMPDEST SWAP2 POP POP PUSH1 0x60 DUP4 ADD MLOAD PUSH2 0x4023 PUSH1 0x60 DUP7 ADD DUP3 PUSH2 0x3F6B JUMP JUMPDEST POP DUP1 SWAP2 POP POP SWAP3 SWAP2 POP POP JUMP JUMPDEST PUSH1 0x0 PUSH1 0x20 DUP3 ADD SWAP1 POP DUP2 DUP2 SUB PUSH1 0x0 DUP4 ADD MSTORE PUSH2 0x4048 DUP2 DUP5 PUSH2 0x3FC4 JUMP JUMPDEST SWAP1 POP SWAP3 SWAP2 POP POP JUMP JUMPDEST PUSH1 0x0 DUP2 MLOAD SWAP1 POP SWAP2 SWAP1 POP JUMP JUMPDEST PUSH1 0x0 DUP3 DUP3 MSTORE PUSH1 0x20 DUP3 ADD SWAP1 POP SWAP3 SWAP2 POP POP JUMP JUMPDEST PUSH1 0x0 DUP2 SWAP1 POP PUSH1 0x20 DUP3 ADD SWAP1 POP SWAP2 SWAP1 POP JUMP JUMPDEST PUSH1 0x0 PUSH1 0x80 DUP4 ADD PUSH1 0x0 DUP4 ADD MLOAD PUSH2 0x4094 PUSH1 0x0 DUP7 ADD DUP3 PUSH2 0x3F6B JUMP JUMPDEST POP PUSH1 0x20 DUP4 ADD MLOAD DUP5 DUP3 SUB PUSH1 0x20 DUP7 ADD MSTORE PUSH2 0x40AC DUP3 DUP3 PUSH2 0x3F8B JUMP JUMPDEST SWAP2 POP POP PUSH1 0x40 DUP4 ADD MLOAD DUP5 DUP3 SUB PUSH1 0x40 DUP7 ADD MSTORE PUSH2 0x40C6 DUP3 DUP3 PUSH2 0x3F8B JUMP JUMPDEST SWAP2 POP POP PUSH1 0x60 DUP4 ADD MLOAD PUSH2 0x40DB PUSH1 0x60 DUP7 ADD DUP3 PUSH2 0x3F6B JUMP JUMPDEST POP DUP1 SWAP2 POP POP SWAP3 SWAP2 POP POP JUMP JUMPDEST PUSH1 0x0 PUSH2 0x40F2 DUP4 DUP4 PUSH2 0x407C JUMP JUMPDEST SWAP1 POP SWAP3 SWAP2 POP POP JUMP JUMPDEST PUSH1 0x0 PUSH1 0x20 DUP3 ADD SWAP1 POP SWAP2 SWAP1 POP JUMP JUMPDEST PUSH1 0x0 PUSH2 0x4112 DUP3 PUSH2 0x4050 JUMP JUMPDEST PUSH2 0x411C DUP2 DUP6 PUSH2 0x405B JUMP JUMPDEST SWAP4 POP DUP4 PUSH1 0x20 DUP3 MUL DUP6 ADD PUSH2 0x412E DUP6 PUSH2 0x406C JUMP JUMPDEST DUP1 PUSH1 0x0 JUMPDEST DUP6 DUP2 LT ISZERO PUSH2 0x416A JUMPI DUP5 DUP5 SUB DUP10 MSTORE DUP2 MLOAD PUSH2 0x414B DUP6 DUP3 PUSH2 0x40E6 JUMP JUMPDEST SWAP5 POP PUSH2 0x4156 DUP4 PUSH2 0x40FA JUMP JUMPDEST SWAP3 POP PUSH1 0x20 DUP11 ADD SWAP10 POP POP PUSH1 0x1 DUP2 ADD SWAP1 POP PUSH2 0x4132 JUMP JUMPDEST POP DUP3 SWAP8 POP DUP8 SWAP6 POP POP POP POP POP POP SWAP3 SWAP2 POP POP JUMP JUMPDEST PUSH1 0x0 PUSH1 0x20 DUP3 ADD SWAP1 POP DUP2 DUP2 SUB PUSH1 0x0 DUP4 ADD MSTORE PUSH2 0x4196 DUP2 DUP5 PUSH2 0x4107 JUMP JUMPDEST SWAP1 POP SWAP3 SWAP2 POP POP JUMP JUMPDEST PUSH1 0x0 DUP1 PUSH1 0x20 DUP4 DUP6 SUB SLT ISZERO PUSH2 0x41B5 JUMPI PUSH2 0x41B4 PUSH2 0x3A8D JUMP JUMPDEST JUMPDEST PUSH1 0x0 DUP4 ADD CALLDATALOAD PUSH8 0xFFFFFFFFFFFFFFFF DUP2 GT ISZERO PUSH2 0x41D3 JUMPI PUSH2 0x41D2 PUSH2 0x3A92 JUMP JUMPDEST JUMPDEST PUSH2 0x41DF DUP6 DUP3 DUP7 ADD PUSH2 0x3E94 JUMP JUMPDEST SWAP3 POP SWAP3 POP POP SWAP3 POP SWAP3 SWAP1 POP JUMP JUMPDEST PUSH1 0x0 PUSH1 0x20 DUP3 DUP5 SUB SLT ISZERO PUSH2 0x4201 JUMPI PUSH2 0x4200 PUSH2 0x3A8D JUMP JUMPDEST JUMPDEST PUSH1 0x0 PUSH2 0x420F DUP5 DUP3 DUP6 ADD PUSH2 0x3D04 JUMP JUMPDEST SWAP2 POP POP SWAP3 SWAP2 POP POP JUMP JUMPDEST PUSH1 0x0 DUP2 MLOAD SWAP1 POP SWAP2 SWAP1 POP JUMP JUMPDEST PUSH1 0x0 DUP3 DUP3 MSTORE PUSH1 0x20 DUP3 ADD SWAP1 POP SWAP3 SWAP2 POP POP JUMP JUMPDEST PUSH1 0x0 DUP2 SWAP1 POP PUSH1 0x20 DUP3 ADD SWAP1 POP SWAP2 SWAP1 POP JUMP JUMPDEST PUSH1 0x0 PUSH2 0x4250 DUP4 DUP4 PUSH2 0x3F6B JUMP JUMPDEST PUSH1 0x20 DUP4 ADD SWAP1 POP SWAP3 SWAP2 POP POP JUMP JUMPDEST PUSH1 0x0 PUSH1 0x20 DUP3 ADD SWAP1 POP SWAP2 SWAP1 POP JUMP JUMPDEST PUSH1 0x0 PUSH2 0x4274 DUP3 PUSH2 0x4218 JUMP JUMPDEST PUSH2 0x427E DUP2 DUP6 PUSH2 0x4223 JUMP JUMPDEST SWAP4 POP PUSH2 0x4289 DUP4 PUSH2 0x4234 JUMP JUMPDEST DUP1 PUSH1 0x0 JUMPDEST DUP4 DUP2 LT ISZERO PUSH2 0x42BA JUMPI DUP2 MLOAD PUSH2 0x42A1 DUP9 DUP3 PUSH2 0x4244 JUMP JUMPDEST SWAP8 POP PUSH2 0x42AC DUP4 PUSH2 0x425C JUMP JUMPDEST SWAP3 POP POP PUSH1 0x1 DUP2 ADD SWAP1 POP PUSH2 0x428D JUMP JUMPDEST POP DUP6 SWAP4 POP POP POP POP SWAP3 SWAP2 POP POP JUMP JUMPDEST PUSH1 0x0 PUSH1 0x20 DUP3 ADD SWAP1 POP DUP2 DUP2 SUB PUSH1 0x0 DUP4 ADD MSTORE PUSH2 0x42E1 DUP2 DUP5 PUSH2 0x4269 JUMP JUMPDEST SWAP1 POP SWAP3 SWAP2 POP POP JUMP JUMPDEST PUSH1 0x0 DUP2 MLOAD SWAP1 POP SWAP2 SWAP1 POP JUMP JUMPDEST PUSH1 0x0 DUP3 DUP3 MSTORE PUSH1 0x20 DUP3 ADD SWAP1 POP SWAP3 SWAP2 POP POP JUMP JUMPDEST PUSH1 0x0 DUP2 SWAP1 POP PUSH1 0x20 DUP3 ADD SWAP1 POP SWAP2 SWAP1 POP JUMP JUMPDEST PUSH1 0x0 PUSH2 0x4321 DUP4 DUP4 PUSH2 0x3F8B JUMP JUMPDEST SWAP1 POP SWAP3 SWAP2 POP POP JUMP JUMPDEST PUSH1 0x0 PUSH1 0x20 DUP3 ADD SWAP1 POP SWAP2 SWAP1 POP JUMP JUMPDEST PUSH1 0x0 PUSH2 0x4341 DUP3 PUSH2 0x42E9 JUMP JUMPDEST PUSH2 0x434B DUP2 DUP6 PUSH2 0x42F4 JUMP JUMPDEST SWAP4 POP DUP4 PUSH1 0x20 DUP3 MUL DUP6 ADD PUSH2 0x435D DUP6 PUSH2 0x4305 JUMP JUMPDEST DUP1 PUSH1 0x0 JUMPDEST DUP6 DUP2 LT ISZERO PUSH2 0x4399 JUMPI DUP5 DUP5 SUB DUP10 MSTORE DUP2 MLOAD PUSH2 0x437A DUP6 DUP3 PUSH2 0x4315 JUMP JUMPDEST SWAP5 POP PUSH2 0x4385 DUP4 PUSH2 0x4329 JUMP JUMPDEST SWAP3 POP PUSH1 0x20 DUP11 ADD SWAP10 POP POP PUSH1 0x1 DUP2 ADD SWAP1 POP PUSH2 0x4361 JUMP JUMPDEST POP DUP3 SWAP8 POP DUP8 SWAP6 POP POP POP POP POP POP SWAP3 SWAP2 POP POP JUMP JUMPDEST PUSH1 0x0 PUSH1 0x20 DUP3 ADD SWAP1 POP DUP2 DUP2 SUB PUSH1 0x0 DUP4 ADD MSTORE PUSH2 0x43C5 DUP2 DUP5 PUSH2 0x4336 JUMP JUMPDEST SWAP1 POP SWAP3 SWAP2 POP POP JUMP JUMPDEST PUSH2 0x43D6 DUP2 PUSH2 0x3C87 JUMP JUMPDEST DUP3 MSTORE POP POP JUMP JUMPDEST PUSH1 0x0 PUSH1 0xA0 DUP4 ADD PUSH1 0x0 DUP4 ADD MLOAD PUSH2 0x43F4 PUSH1 0x0 DUP7 ADD DUP3 PUSH2 0x43CD JUMP JUMPDEST POP PUSH1 0x20 DUP4 ADD MLOAD DUP5 DUP3 SUB PUSH1 0x20 DUP7 ADD MSTORE PUSH2 0x440C DUP3 DUP3 PUSH2 0x3F8B JUMP JUMPDEST SWAP2 POP POP PUSH1 0x40 DUP4 ADD MLOAD DUP5 DUP3 SUB PUSH1 0x40 DUP7 ADD MSTORE PUSH2 0x4426 DUP3 DUP3 PUSH2 0x3F8B JUMP JUMPDEST SWAP2 POP POP PUSH1 0x60 DUP4 ADD MLOAD DUP5 DUP3 SUB PUSH1 0x60 DUP7 ADD MSTORE PUSH2 0x4440 DUP3 DUP3 PUSH2 0x3F8B JUMP JUMPDEST SWAP2 POP POP PUSH1 0x80 DUP4 ADD MLOAD DUP5 DUP3 SUB PUSH1 0x80 DUP7 ADD MSTORE PUSH2 0x445A DUP3 DUP3 PUSH2 0x3F8B JUMP JUMPDEST SWAP2 POP POP DUP1 SWAP2 POP POP SWAP3 SWAP2 POP POP JUMP JUMPDEST PUSH1 0x0 PUSH1 0x20 DUP3 ADD SWAP1 POP DUP2 DUP2 SUB PUSH1 0x0 DUP4 ADD MSTORE PUSH2 0x4481 DUP2 DUP5 PUSH2 0x43DC JUMP JUMPDEST SWAP1 POP SWAP3 SWAP2 POP POP JUMP JUMPDEST PUSH1 0x0 DUP1 PUSH1 0x40 DUP4 DUP6 SUB SLT ISZERO PUSH2 0x44A0 JUMPI PUSH2 0x449F PUSH2 0x3A8D JUMP JUMPDEST JUMPDEST PUSH1 0x0 PUSH2 0x44AE DUP6 DUP3 DUP7 ADD PUSH2 0x3D04 JUMP JUMPDEST SWAP3 POP POP PUSH1 0x20 PUSH2 0x44BF DUP6 DUP3 DUP7 ADD PUSH2 0x3D70 JUMP JUMPDEST SWAP2 POP POP SWAP3 POP SWAP3 SWAP1 POP JUMP JUMPDEST PUSH1 0x0 DUP2 MLOAD SWAP1 POP SWAP2 SWAP1 POP JUMP JUMPDEST PUSH1 0x0 DUP3 DUP3 MSTORE PUSH1 0x20 DUP3 ADD SWAP1 POP SWAP3 SWAP2 POP POP JUMP JUMPDEST PUSH1 0x0 DUP2 SWAP1 POP PUSH1 0x20 DUP3 ADD SWAP1 POP SWAP2 SWAP1 POP JUMP JUMPDEST PUSH1 0x0 PUSH1 0xA0 DUP4 ADD PUSH1 0x0 DUP4 ADD MLOAD PUSH2 0x450D PUSH1 0x0 DUP7 ADD DUP3 PUSH2 0x43CD JUMP JUMPDEST POP PUSH1 0x20 DUP4 ADD MLOAD DUP5 DUP3 SUB PUSH1 0x20 DUP7 ADD MSTORE PUSH2 0x4525 DUP3 DUP3 PUSH2 0x3F8B JUMP JUMPDEST SWAP2 POP POP PUSH1 0x40 DUP4 ADD MLOAD DUP5 DUP3 SUB PUSH1 0x40 DUP7 ADD MSTORE PUSH2 0x453F DUP3 DUP3 PUSH2 0x3F8B JUMP JUMPDEST SWAP2 POP POP PUSH1 0x60 DUP4 ADD MLOAD DUP5 DUP3 SUB PUSH1 0x60 DUP7 ADD MSTORE PUSH2 0x4559 DUP3 DUP3 PUSH2 0x3F8B JUMP JUMPDEST SWAP2 POP POP PUSH1 0x80 DUP4 ADD MLOAD DUP5 DUP3 SUB PUSH1 0x80 DUP7 ADD MSTORE PUSH2 0x4573 DUP3 DUP3 PUSH2 0x3F8B JUMP JUMPDEST SWAP2 POP POP DUP1 SWAP2 POP POP SWAP3 SWAP2 POP POP JUMP JUMPDEST PUSH1 0x0 PUSH2 0x458C DUP4 DUP4 PUSH2 0x44F5 JUMP JUMPDEST SWAP1 POP SWAP3 SWAP2 POP POP JUMP JUMPDEST PUSH1 0x0 PUSH1 0x20 DUP3 ADD SWAP1 POP SWAP2 SWAP1 POP JUMP JUMPDEST PUSH1 0x0 PUSH2 0x45AC DUP3 PUSH2 0x44C9 JUMP JUMPDEST PUSH2 0x45B6 DUP2 DUP6 PUSH2 0x44D4 JUMP JUMPDEST SWAP4 POP DUP4 PUSH1 0x20 DUP3 MUL DUP6 ADD PUSH2 0x45C8 DUP6 PUSH2 0x44E5 JUMP JUMPDEST DUP1 PUSH1 0x0 JUMPDEST DUP6 DUP2 LT ISZERO PUSH2 0x4604 JUMPI DUP5 DUP5 SUB DUP10 MSTORE DUP2 MLOAD PUSH2 0x45E5 DUP6 DUP3 PUSH2 0x4580 JUMP JUMPDEST SWAP5 POP PUSH2 0x45F0 DUP4 PUSH2 0x4594 JUMP JUMPDEST SWAP3 POP PUSH1 0x20 DUP11 ADD SWAP10 POP POP PUSH1 0x1 DUP2 ADD SWAP1 POP PUSH2 0x45CC JUMP JUMPDEST POP DUP3 SWAP8 POP DUP8 SWAP6 POP POP POP POP POP POP SWAP3 SWAP2 POP POP JUMP JUMPDEST PUSH1 0x0 PUSH1 0x20 DUP3 ADD SWAP1 POP DUP2 DUP2 SUB PUSH1 0x0 DUP4 ADD MSTORE PUSH2 0x4630 DUP2 DUP5 PUSH2 0x45A1 JUMP JUMPDEST SWAP1 POP SWAP3 SWAP2 POP POP JUMP JUMPDEST PUSH1 0x0 DUP1 REVERT JUMPDEST PUSH32 0x4E487B7100000000000000000000000000000000000000000000000000000000 PUSH1 0x0 MSTORE PUSH1 0x41 PUSH1 0x4 MSTORE PUSH1 0x24 PUSH1 0x0 REVERT JUMPDEST PUSH2 0x4675 DUP3 PUSH2 0x3B98 JUMP JUMPDEST DUP2 ADD DUP2 DUP2 LT PUSH8 0xFFFFFFFFFFFFFFFF DUP3 GT OR ISZERO PUSH2 0x4694 JUMPI PUSH2 0x4693 PUSH2 0x463D JUMP JUMPDEST JUMPDEST DUP1 PUSH1 0x40 MSTORE POP POP POP JUMP JUMPDEST PUSH1 0x0 PUSH2 0x46A7 PUSH2 0x3A83 JUMP JUMPDEST SWAP1 POP PUSH2 0x46B3 DUP3 DUP3 PUSH2 0x466C JUMP JUMPDEST SWAP2 SWAP1 POP JUMP JUMPDEST PUSH1 0x0 PUSH8 0xFFFFFFFFFFFFFFFF DUP3 GT ISZERO PUSH2 0x46D3 JUMPI PUSH2 0x46D2 PUSH2 0x463D JUMP JUMPDEST JUMPDEST PUSH2 0x46DC DUP3 PUSH2 0x3B98 JUMP JUMPDEST SWAP1 POP PUSH1 0x20 DUP2 ADD SWAP1 POP SWAP2 SWAP1 POP JUMP JUMPDEST DUP3 DUP2 DUP4 CALLDATACOPY PUSH1 0x0 DUP4 DUP4 ADD MSTORE POP POP POP JUMP JUMPDEST PUSH1 0x0 PUSH2 0x470B PUSH2 0x4706 DUP5 PUSH2 0x46B8 JUMP JUMPDEST PUSH2 0x469D JUMP JUMPDEST SWAP1 POP DUP3 DUP2 MSTORE PUSH1 0x20 DUP2 ADD DUP5 DUP5 DUP5 ADD GT ISZERO PUSH2 0x4727 JUMPI PUSH2 0x4726 PUSH2 0x4638 JUMP JUMPDEST JUMPDEST PUSH2 0x4732 DUP5 DUP3 DUP6 PUSH2 0x46E9 JUMP JUMPDEST POP SWAP4 SWAP3 POP POP POP JUMP JUMPDEST PUSH1 0x0 DUP3 PUSH1 0x1F DUP4 ADD SLT PUSH2 0x474F JUMPI PUSH2 0x474E PUSH2 0x3E85 JUMP JUMPDEST JUMPDEST DUP2 CALLDATALOAD PUSH2 0x475F DUP5 DUP3 PUSH1 0x20 DUP7 ADD PUSH2 0x46F8 JUMP JUMPDEST SWAP2 POP POP SWAP3 SWAP2 POP POP JUMP JUMPDEST PUSH1 0x0 DUP1 PUSH1 0x0 DUP1 PUSH1 0x80 DUP6 DUP8 SUB SLT ISZERO PUSH2 0x4782 JUMPI PUSH2 0x4781 PUSH2 0x3A8D JUMP JUMPDEST JUMPDEST PUSH1 0x0 PUSH2 0x4790 DUP8 DUP3 DUP9 ADD PUSH2 0x3D04 JUMP JUMPDEST SWAP5 POP POP PUSH1 0x20 PUSH2 0x47A1 DUP8 DUP3 DUP9 ADD PUSH2 0x3D04 JUMP JUMPDEST SWAP4 POP POP PUSH1 0x40 PUSH2 0x47B2 DUP8 DUP3 DUP9 ADD PUSH2 0x3C25 JUMP JUMPDEST SWAP3 POP POP PUSH1 0x60 DUP6 ADD CALLDATALOAD PUSH8 0xFFFFFFFFFFFFFFFF DUP2 GT ISZERO PUSH2 0x47D3 JUMPI PUSH2 0x47D2 PUSH2 0x3A92 JUMP JUMPDEST JUMPDEST PUSH2 0x47DF DUP8 DUP3 DUP9 ADD PUSH2 0x473A JUMP JUMPDEST SWAP2 POP POP SWAP3 SWAP6 SWAP2 SWAP5 POP SWAP3 POP JUMP JUMPDEST PUSH1 0x0 PUSH1 0x20 DUP3 DUP5 SUB SLT ISZERO PUSH2 0x4801 JUMPI PUSH2 0x4800 PUSH2 0x3A8D JUMP JUMPDEST JUMPDEST PUSH1 0x0 DUP3 ADD CALLDATALOAD PUSH8 0xFFFFFFFFFFFFFFFF DUP2 GT ISZERO PUSH2 0x481F JUMPI PUSH2 0x481E PUSH2 0x3A92 JUMP JUMPDEST JUMPDEST PUSH2 0x482B DUP5 DUP3 DUP6 ADD PUSH2 0x3E0A JUMP JUMPDEST SWAP2 POP POP SWAP3 SWAP2 POP POP JUMP JUMPDEST PUSH1 0x0 DUP1 PUSH1 0x40 DUP4 DUP6 SUB SLT ISZERO PUSH2 0x484B JUMPI PUSH2 0x484A PUSH2 0x3A8D JUMP JUMPDEST JUMPDEST PUSH1 0x0 PUSH2 0x4859 DUP6 DUP3 DUP7 ADD PUSH2 0x3D04 JUMP JUMPDEST SWAP3 POP POP PUSH1 0x20 PUSH2 0x486A DUP6 DUP3 DUP7 ADD PUSH2 0x3D04 JUMP JUMPDEST SWAP2 POP POP SWAP3 POP SWAP3 SWAP1 POP JUMP JUMPDEST PUSH32 0x4E487B7100000000000000000000000000000000000000000000000000000000 PUSH1 0x0 MSTORE PUSH1 0x22 PUSH1 0x4 MSTORE PUSH1 0x24 PUSH1 0x0 REVERT JUMPDEST PUSH1 0x0 PUSH1 0x2 DUP3 DIV SWAP1 POP PUSH1 0x1 DUP3 AND DUP1 PUSH2 0x48BB JUMPI PUSH1 0x7F DUP3 AND SWAP2 POP JUMPDEST PUSH1 0x20 DUP3 LT DUP2 SUB PUSH2 0x48CE JUMPI PUSH2 0x48CD PUSH2 0x4874 JUMP JUMPDEST JUMPDEST POP SWAP2 SWAP1 POP JUMP JUMPDEST PUSH32 0x4552433732313A20617070726F76616C20746F2063757272656E74206F776E65 PUSH1 0x0 DUP3 ADD MSTORE PUSH32 0x7200000000000000000000000000000000000000000000000000000000000000 PUSH1 0x20 DUP3 ADD MSTORE POP JUMP JUMPDEST PUSH1 0x0 PUSH2 0x4930 PUSH1 0x21 DUP4 PUSH2 0x3B5D JUMP JUMPDEST SWAP2 POP PUSH2 0x493B DUP3 PUSH2 0x48D4 JUMP JUMPDEST PUSH1 0x40 DUP3 ADD SWAP1 POP SWAP2 SWAP1 POP JUMP JUMPDEST PUSH1 0x0 PUSH1 0x20 DUP3 ADD SWAP1 POP DUP2 DUP2 SUB PUSH1 0x0 DUP4 ADD MSTORE PUSH2 0x495F DUP2 PUSH2 0x4923 JUMP JUMPDEST SWAP1 POP SWAP2 SWAP1 POP JUMP JUMPDEST PUSH32 0x4552433732313A20617070726F76652063616C6C6572206973206E6F7420746F PUSH1 0x0 DUP3 ADD MSTORE PUSH32 0x6B656E206F776E6572206F7220617070726F76656420666F7220616C6C000000 PUSH1 0x20 DUP3 ADD MSTORE POP JUMP JUMPDEST PUSH1 0x0 PUSH2 0x49C2 PUSH1 0x3D DUP4 PUSH2 0x3B5D JUMP JUMPDEST SWAP2 POP PUSH2 0x49CD DUP3 PUSH2 0x4966 JUMP JUMPDEST PUSH1 0x40 DUP3 ADD SWAP1 POP SWAP2 SWAP1 POP JUMP JUMPDEST PUSH1 0x0 PUSH1 0x20 DUP3 ADD SWAP1 POP DUP2 DUP2 SUB PUSH1 0x0 DUP4 ADD MSTORE PUSH2 0x49F1 DUP2 PUSH2 0x49B5 JUMP JUMPDEST SWAP1 POP SWAP2 SWAP1 POP JUMP JUMPDEST PUSH32 0x4552433732313A2063616C6C6572206973206E6F7420746F6B656E206F776E65 PUSH1 0x0 DUP3 ADD MSTORE PUSH32 0x72206F7220617070726F76656400000000000000000000000000000000000000 PUSH1 0x20 DUP3 ADD MSTORE POP JUMP JUMPDEST PUSH1 0x0 PUSH2 0x4A54 PUSH1 0x2D DUP4 PUSH2 0x3B5D JUMP JUMPDEST SWAP2 POP PUSH2 0x4A5F DUP3 PUSH2 0x49F8 JUMP JUMPDEST PUSH1 0x40 DUP3 ADD SWAP1 POP SWAP2 SWAP1 POP JUMP JUMPDEST PUSH1 0x0 PUSH1 0x20 DUP3 ADD SWAP1 POP DUP2 DUP2 SUB PUSH1 0x0 DUP4 ADD MSTORE PUSH2 0x4A83 DUP2 PUSH2 0x4A47 JUMP JUMPDEST SWAP1 POP SWAP2 SWAP1 POP JUMP JUMPDEST PUSH1 0x0 DUP2 CALLDATALOAD PUSH2 0x4A97 DUP2 PUSH2 0x3CED JUMP JUMPDEST DUP1 SWAP2 POP POP SWAP2 SWAP1 POP JUMP JUMPDEST PUSH1 0x0 DUP2 PUSH1 0x0 SHL SWAP1 POP SWAP2 SWAP1 POP JUMP JUMPDEST PUSH1 0x0 PUSH20 0xFFFFFFFFFFFFFFFFFFFFFFFFFFFFFFFFFFFFFFFF PUSH2 0x4ACD DUP5 PUSH2 0x4AA0 JUMP JUMPDEST SWAP4 POP DUP1 NOT DUP4 AND SWAP3 POP DUP1 DUP5 AND DUP4 OR SWAP2 POP POP SWAP3 SWAP2 POP POP JUMP JUMPDEST PUSH1 0x0 DUP2 SWAP1 POP SWAP2 SWAP1 POP JUMP JUMPDEST PUSH1 0x0 PUSH2 0x4B08 PUSH2 0x4B03 PUSH2 0x4AFE DUP5 PUSH2 0x3C67 JUMP JUMPDEST PUSH2 0x4AE3 JUMP JUMPDEST PUSH2 0x3C67 JUMP JUMPDEST SWAP1 POP SWAP2 SWAP1 POP JUMP JUMPDEST PUSH1 0x0 PUSH2 0x4B1A DUP3 PUSH2 0x4AED JUMP JUMPDEST SWAP1 POP SWAP2 SWAP1 POP JUMP JUMPDEST PUSH1 0x0 PUSH2 0x4B2C DUP3 PUSH2 0x4B0F JUMP JUMPDEST SWAP1 POP SWAP2 SWAP1 POP JUMP JUMPDEST PUSH1 0x0 DUP2 SWAP1 POP SWAP2 SWAP1 POP JUMP JUMPDEST PUSH2 0x4B46 DUP3 PUSH2 0x4B21 JUMP JUMPDEST PUSH2 0x4B59 PUSH2 0x4B52 DUP3 PUSH2 0x4B33 JUMP JUMPDEST DUP4 SLOAD PUSH2 0x4AAD JUMP JUMPDEST DUP3 SSTORE POP POP POP JUMP JUMPDEST PUSH1 0x0 DUP1 REVERT JUMPDEST PUSH1 0x0 DUP1 REVERT JUMPDEST PUSH1 0x0 DUP1 REVERT JUMPDEST PUSH1 0x0 DUP1 DUP4 CALLDATALOAD PUSH1 0x1 PUSH1 0x20 SUB DUP5 CALLDATASIZE SUB SUB DUP2 SLT PUSH2 0x4B8C JUMPI PUSH2 0x4B8B PUSH2 0x4B60 JUMP JUMPDEST JUMPDEST DUP1 DUP5 ADD SWAP3 POP DUP3 CALLDATALOAD SWAP2 POP PUSH8 0xFFFFFFFFFFFFFFFF DUP3 GT ISZERO PUSH2 0x4BAE JUMPI PUSH2 0x4BAD PUSH2 0x4B65 JUMP JUMPDEST JUMPDEST PUSH1 0x20 DUP4 ADD SWAP3 POP PUSH1 0x1 DUP3 MUL CALLDATASIZE SUB DUP4 SGT ISZERO PUSH2 0x4BCA JUMPI PUSH2 0x4BC9 PUSH2 0x4B6A JUMP JUMPDEST JUMPDEST POP SWAP3 POP SWAP3 SWAP1 POP JUMP JUMPDEST PUSH1 0x0 DUP3 SWAP1 POP SWAP3 SWAP2 POP POP JUMP JUMPDEST PUSH1 0x0 DUP2 SWAP1 POP DUP2 PUSH1 0x0 MSTORE PUSH1 0x20 PUSH1 0x0 KECCAK256 SWAP1 POP SWAP2 SWAP1 POP JUMP JUMPDEST PUSH1 0x0 PUSH1 0x20 PUSH1 0x1F DUP4 ADD DIV SWAP1 POP SWAP2 SWAP1 POP JUMP JUMPDEST PUSH1 0x0 DUP3 DUP3 SHL SWAP1 POP SWAP3 SWAP2 POP POP JUMP JUMPDEST PUSH1 0x0 PUSH1 0x8 DUP4 MUL PUSH2 0x4C3F PUSH32 0xFFFFFFFFFFFFFFFFFFFFFFFFFFFFFFFFFFFFFFFFFFFFFFFFFFFFFFFFFFFFFFFF DUP3 PUSH2 0x4C02 JUMP JUMPDEST PUSH2 0x4C49 DUP7 DUP4 PUSH2 0x4C02 JUMP JUMPDEST SWAP6 POP DUP1 NOT DUP5 AND SWAP4 POP DUP1 DUP7 AND DUP5 OR SWAP3 POP POP POP SWAP4 SWAP3 POP POP POP JUMP JUMPDEST PUSH1 0x0 PUSH2 0x4C7C PUSH2 0x4C77 PUSH2 0x4C72 DUP5 PUSH2 0x3C04 JUMP JUMPDEST PUSH2 0x4AE3 JUMP JUMPDEST PUSH2 0x3C04 JUMP JUMPDEST SWAP1 POP SWAP2 SWAP1 POP JUMP JUMPDEST PUSH1 0x0 DUP2 SWAP1 POP SWAP2 SWAP1 POP JUMP JUMPDEST PUSH2 0x4C96 DUP4 PUSH2 0x4C61 JUMP JUMPDEST PUSH2 0x4CAA PUSH2 0x4CA2 DUP3 PUSH2 0x4C83 JUMP JUMPDEST DUP5 DUP5 SLOAD PUSH2 0x4C0F JUMP JUMPDEST DUP3 SSTORE POP POP POP POP JUMP JUMPDEST PUSH1 0x0 SWAP1 JUMP JUMPDEST PUSH2 0x4CBF PUSH2 0x4CB2 JUMP JUMPDEST PUSH2 0x4CCA DUP2 DUP5 DUP5 PUSH2 0x4C8D JUMP JUMPDEST POP POP POP JUMP JUMPDEST JUMPDEST DUP2 DUP2 LT ISZERO PUSH2 0x4CEE JUMPI PUSH2 0x4CE3 PUSH1 0x0 DUP3 PUSH2 0x4CB7 JUMP JUMPDEST PUSH1 0x1 DUP2 ADD SWAP1 POP PUSH2 0x4CD0 JUMP JUMPDEST POP POP JUMP JUMPDEST PUSH1 0x1F DUP3 GT ISZERO PUSH2 0x4D33 JUMPI PUSH2 0x4D04 DUP2 PUSH2 0x4BDD JUMP JUMPDEST PUSH2 0x4D0D DUP5 PUSH2 0x4BF2 JUMP JUMPDEST DUP2 ADD PUSH1 0x20 DUP6 LT ISZERO PUSH2 0x4D1C JUMPI DUP2 SWAP1 POP JUMPDEST PUSH2 0x4D30 PUSH2 0x4D28 DUP6 PUSH2 0x4BF2 JUMP JUMPDEST DUP4 ADD DUP3 PUSH2 0x4CCF JUMP JUMPDEST POP POP JUMPDEST POP POP POP JUMP JUMPDEST PUSH1 0x0 DUP3 DUP3 SHR SWAP1 POP SWAP3 SWAP2 POP POP JUMP JUMPDEST PUSH1 0x0 PUSH2 0x4D56 PUSH1 0x0 NOT DUP5 PUSH1 0x8 MUL PUSH2 0x4D38 JUMP JUMPDEST NOT DUP1 DUP4 AND SWAP2 POP POP SWAP3 SWAP2 POP POP JUMP JUMPDEST PUSH1 0x0 PUSH2 0x4D6F DUP4 DUP4 PUSH2 0x4D45 JUMP JUMPDEST SWAP2 POP DUP3 PUSH1 0x2 MUL DUP3 OR SWAP1 POP SWAP3 SWAP2 POP POP JUMP JUMPDEST PUSH2 0x4D89 DUP4 DUP4 PUSH2 0x4BD2 JUMP JUMPDEST PUSH8 0xFFFFFFFFFFFFFFFF DUP2 GT ISZERO PUSH2 0x4DA2 JUMPI PUSH2 0x4DA1 PUSH2 0x463D JUMP JUMPDEST JUMPDEST PUSH2 0x4DAC DUP3 SLOAD PUSH2 0x48A3 JUMP JUMPDEST PUSH2 0x4DB7 DUP3 DUP3 DUP6 PUSH2 0x4CF2 JUMP JUMPDEST PUSH1 0x0 PUSH1 0x1F DUP4 GT PUSH1 0x1 DUP2 EQ PUSH2 0x4DE6 JUMPI PUSH1 0x0 DUP5 ISZERO PUSH2 0x4DD4 JUMPI DUP3 DUP8 ADD CALLDATALOAD SWAP1 POP JUMPDEST PUSH2 0x4DDE DUP6 DUP3 PUSH2 0x4D63 JUMP JUMPDEST DUP7 SSTORE POP PUSH2 0x4E46 JUMP JUMPDEST PUSH1 0x1F NOT DUP5 AND PUSH2 0x4DF4 DUP7 PUSH2 0x4BDD JUMP JUMPDEST PUSH1 0x0 JUMPDEST DUP3 DUP2 LT ISZERO PUSH2 0x4E1C JUMPI DUP5 DUP10 ADD CALLDATALOAD DUP3 SSTORE PUSH1 0x1 DUP3 ADD SWAP2 POP PUSH1 0x20 DUP6 ADD SWAP5 POP PUSH1 0x20 DUP2 ADD SWAP1 POP PUSH2 0x4DF7 JUMP JUMPDEST DUP7 DUP4 LT ISZERO PUSH2 0x4E39 JUMPI DUP5 DUP10 ADD CALLDATALOAD PUSH2 0x4E35 PUSH1 0x1F DUP10 AND DUP3 PUSH2 0x4D45 JUMP JUMPDEST DUP4 SSTORE POP JUMPDEST PUSH1 0x1 PUSH1 0x2 DUP9 MUL ADD DUP9 SSTORE POP POP POP JUMPDEST POP POP POP POP POP POP POP JUMP JUMPDEST PUSH2 0x4E5A DUP4 DUP4 DUP4 PUSH2 0x4D7F JUMP JUMPDEST POP POP POP JUMP JUMPDEST PUSH1 0x0 DUP2 ADD PUSH1 0x0 DUP4 ADD DUP1 PUSH2 0x4E71 DUP2 PUSH2 0x4A8A JUMP JUMPDEST SWAP1 POP PUSH2 0x4E7D DUP2 DUP5 PUSH2 0x4B3D JUMP JUMPDEST POP POP POP PUSH1 0x1 DUP2 ADD PUSH1 0x20 DUP4 ADD PUSH2 0x4E92 DUP2 DUP6 PUSH2 0x4B6F JUMP JUMPDEST PUSH2 0x4E9D DUP2 DUP4 DUP7 PUSH2 0x4E4F JUMP JUMPDEST POP POP POP POP PUSH1 0x2 DUP2 ADD PUSH1 0x40 DUP4 ADD PUSH2 0x4EB3 DUP2 DUP6 PUSH2 0x4B6F JUMP JUMPDEST PUSH2 0x4EBE DUP2 DUP4 DUP7 PUSH2 0x4E4F JUMP JUMPDEST POP POP POP POP PUSH1 0x3 DUP2 ADD PUSH1 0x60 DUP4 ADD PUSH2 0x4ED4 DUP2 DUP6 PUSH2 0x4B6F JUMP JUMPDEST PUSH2 0x4EDF DUP2 DUP4 DUP7 PUSH2 0x4E4F JUMP JUMPDEST POP POP POP POP PUSH1 0x4 DUP2 ADD PUSH1 0x80 DUP4 ADD PUSH2 0x4EF5 DUP2 DUP6 PUSH2 0x4B6F JUMP JUMPDEST PUSH2 0x4F00 DUP2 DUP4 DUP7 PUSH2 0x4E4F JUMP JUMPDEST POP POP POP POP POP POP JUMP JUMPDEST PUSH2 0x4F12 DUP3 DUP3 PUSH2 0x4E5F JUMP JUMPDEST POP POP JUMP JUMPDEST PUSH1 0x0 PUSH2 0x4F25 PUSH1 0x20 DUP5 ADD DUP5 PUSH2 0x3D04 JUMP JUMPDEST SWAP1 POP SWAP3 SWAP2 POP POP JUMP JUMPDEST PUSH1 0x0 DUP1 REVERT JUMPDEST PUSH1 0x0 DUP1 REVERT JUMPDEST PUSH1 0x0 DUP1 REVERT JUMPDEST PUSH1 0x0 DUP1 DUP4 CALLDATALOAD PUSH1 0x1 PUSH1 0x20 SUB DUP5 CALLDATASIZE SUB SUB DUP2 SLT PUSH2 0x4F59 JUMPI PUSH2 0x4F58 PUSH2 0x4F37 JUMP JUMPDEST JUMPDEST DUP4 DUP2 ADD SWAP3 POP DUP3 CALLDATALOAD SWAP2 POP PUSH1 0x20 DUP4 ADD SWAP3 POP PUSH8 0xFFFFFFFFFFFFFFFF DUP3 GT ISZERO PUSH2 0x4F81 JUMPI PUSH2 0x4F80 PUSH2 0x4F2D JUMP JUMPDEST JUMPDEST PUSH1 0x1 DUP3 MUL CALLDATASIZE SUB DUP4 SGT ISZERO PUSH2 0x4F97 JUMPI PUSH2 0x4F96 PUSH2 0x4F32 JUMP JUMPDEST JUMPDEST POP SWAP3 POP SWAP3 SWAP1 POP JUMP JUMPDEST PUSH1 0x0 PUSH2 0x4FAB DUP4 DUP6 PUSH2 0x3F7A JUMP JUMPDEST SWAP4 POP PUSH2 0x4FB8 DUP4 DUP6 DUP5 PUSH2 0x46E9 JUMP JUMPDEST PUSH2 0x4FC1 DUP4 PUSH2 0x3B98 JUMP JUMPDEST DUP5 ADD SWAP1 POP SWAP4 SWAP3 POP POP POP JUMP JUMPDEST PUSH1 0x0 PUSH1 0xA0 DUP4 ADD PUSH2 0x4FDF PUSH1 0x0 DUP5 ADD DUP5 PUSH2 0x4F16 JUMP JUMPDEST PUSH2 0x4FEC PUSH1 0x0 DUP7 ADD DUP3 PUSH2 0x43CD JUMP JUMPDEST POP PUSH2 0x4FFA PUSH1 0x20 DUP5 ADD DUP5 PUSH2 0x4F3C JUMP JUMPDEST DUP6 DUP4 SUB PUSH1 0x20 DUP8 ADD MSTORE PUSH2 0x500D DUP4 DUP3 DUP5 PUSH2 0x4F9F JUMP JUMPDEST SWAP3 POP POP POP PUSH2 0x501E PUSH1 0x40 DUP5 ADD DUP5 PUSH2 0x4F3C JUMP JUMPDEST DUP6 DUP4 SUB PUSH1 0x40 DUP8 ADD MSTORE PUSH2 0x5031 DUP4 DUP3 DUP5 PUSH2 0x4F9F JUMP JUMPDEST SWAP3 POP POP POP PUSH2 0x5042 PUSH1 0x60 DUP5 ADD DUP5 PUSH2 0x4F3C JUMP JUMPDEST DUP6 DUP4 SUB PUSH1 0x60 DUP8 ADD MSTORE PUSH2 0x5055 DUP4 DUP3 DUP5 PUSH2 0x4F9F JUMP JUMPDEST SWAP3 POP POP POP PUSH2 0x5066 PUSH1 0x80 DUP5 ADD DUP5 PUSH2 0x4F3C JUMP JUMPDEST DUP6 DUP4 SUB PUSH1 0x80 DUP8 ADD MSTORE PUSH2 0x5079 DUP4 DUP3 DUP5 PUSH2 0x4F9F JUMP JUMPDEST SWAP3 POP POP POP DUP1 SWAP2 POP POP SWAP3 SWAP2 POP POP JUMP JUMPDEST PUSH1 0x0 PUSH1 0x40 DUP3 ADD SWAP1 POP PUSH2 0x509C PUSH1 0x0 DUP4 ADD DUP6 PUSH2 0x3CC3 JUMP JUMPDEST DUP2 DUP2 SUB PUSH1 0x20 DUP4 ADD MSTORE PUSH2 0x50AE DUP2 DUP5 PUSH2 0x4FCC JUMP JUMPDEST SWAP1 POP SWAP4 SWAP3 POP POP POP JUMP JUMPDEST PUSH32 0x455243373231456E756D657261626C653A206F776E657220696E646578206F75 PUSH1 0x0 DUP3 ADD MSTORE PUSH32 0x74206F6620626F756E6473000000000000000000000000000000000000000000 PUSH1 0x20 DUP3 ADD MSTORE POP JUMP JUMPDEST PUSH1 0x0 PUSH2 0x5113 PUSH1 0x2B DUP4 PUSH2 0x3B5D JUMP JUMPDEST SWAP2 POP PUSH2 0x511E DUP3 PUSH2 0x50B7 JUMP JUMPDEST PUSH1 0x40 DUP3 ADD SWAP1 POP SWAP2 SWAP1 POP JUMP JUMPDEST PUSH1 0x0 PUSH1 0x20 DUP3 ADD SWAP1 POP DUP2 DUP2 SUB PUSH1 0x0 DUP4 ADD MSTORE PUSH2 0x5142 DUP2 PUSH2 0x5106 JUMP JUMPDEST SWAP1 POP SWAP2 SWAP1 POP JUMP JUMPDEST PUSH1 0x0 DUP2 SWAP1 POP SWAP3 SWAP2 POP POP JUMP JUMPDEST PUSH1 0x0 PUSH2 0x5160 DUP4 DUP6 PUSH2 0x5149 JUMP JUMPDEST SWAP4 POP PUSH2 0x516D DUP4 DUP6 DUP5 PUSH2 0x46E9 JUMP JUMPDEST DUP3 DUP5 ADD SWAP1 POP SWAP4 SWAP3 POP POP POP JUMP JUMPDEST PUSH1 0x0 PUSH2 0x5186 DUP3 DUP5 DUP7 PUSH2 0x5154 JUMP JUMPDEST SWAP2 POP DUP2 SWAP1 POP SWAP4 SWAP3 POP POP POP JUMP JUMPDEST PUSH32 0x48616E646C65206E6F7420666F756E6400000000000000000000000000000000 PUSH1 0x0 DUP3 ADD MSTORE POP JUMP JUMPDEST PUSH1 0x0 PUSH2 0x51C8 PUSH1 0x10 DUP4 PUSH2 0x3B5D JUMP JUMPDEST SWAP2 POP PUSH2 0x51D3 DUP3 PUSH2 0x5192 JUMP JUMPDEST PUSH1 0x20 DUP3 ADD SWAP1 POP SWAP2 SWAP1 POP JUMP JUMPDEST PUSH1 0x0 PUSH1 0x20 DUP3 ADD SWAP1 POP DUP2 DUP2 SUB PUSH1 0x0 DUP4 ADD MSTORE PUSH2 0x51F7 DUP2 PUSH2 0x51BB JUMP JUMPDEST SWAP1 POP SWAP2 SWAP1 POP JUMP JUMPDEST PUSH32 0x4E487B7100000000000000000000000000000000000000000000000000000000 PUSH1 0x0 MSTORE PUSH1 0x11 PUSH1 0x4 MSTORE PUSH1 0x24 PUSH1 0x0 REVERT JUMPDEST PUSH1 0x0 PUSH2 0x5238 DUP3 PUSH2 0x3C04 JUMP JUMPDEST SWAP2 POP PUSH32 0xFFFFFFFFFFFFFFFFFFFFFFFFFFFFFFFFFFFFFFFFFFFFFFFFFFFFFFFFFFFFFFFF DUP3 SUB PUSH2 0x526A JUMPI PUSH2 0x5269 PUSH2 0x51FE JUMP JUMPDEST JUMPDEST PUSH1 0x1 DUP3 ADD SWAP1 POP SWAP2 SWAP1 POP JUMP JUMPDEST PUSH2 0x527E DUP3 PUSH2 0x3B52 JUMP JUMPDEST PUSH8 0xFFFFFFFFFFFFFFFF DUP2 GT ISZERO PUSH2 0x5297 JUMPI PUSH2 0x5296 PUSH2 0x463D JUMP JUMPDEST JUMPDEST PUSH2 0x52A1 DUP3 SLOAD PUSH2 0x48A3 JUMP JUMPDEST PUSH2 0x52AC DUP3 DUP3 DUP6 PUSH2 0x4CF2 JUMP JUMPDEST PUSH1 0x0 PUSH1 0x20 SWAP1 POP PUSH1 0x1F DUP4 GT PUSH1 0x1 DUP2 EQ PUSH2 0x52DF JUMPI PUSH1 0x0 DUP5 ISZERO PUSH2 0x52CD JUMPI DUP3 DUP8 ADD MLOAD SWAP1 POP JUMPDEST PUSH2 0x52D7 DUP6 DUP3 PUSH2 0x4D63 JUMP JUMPDEST DUP7 SSTORE POP PUSH2 0x533F JUMP JUMPDEST PUSH1 0x1F NOT DUP5 AND PUSH2 0x52ED DUP7 PUSH2 0x4BDD JUMP JUMPDEST PUSH1 0x0 JUMPDEST DUP3 DUP2 LT ISZERO PUSH2 0x5315 JUMPI DUP5 DUP10 ADD MLOAD DUP3 SSTORE PUSH1 0x1 DUP3 ADD SWAP2 POP PUSH1 0x20 DUP6 ADD SWAP5 POP PUSH1 0x20 DUP2 ADD SWAP1 POP PUSH2 0x52F0 JUMP JUMPDEST DUP7 DUP4 LT ISZERO PUSH2 0x5332 JUMPI DUP5 DUP10 ADD MLOAD PUSH2 0x532E PUSH1 0x1F DUP10 AND DUP3 PUSH2 0x4D45 JUMP JUMPDEST DUP4 SSTORE POP JUMPDEST PUSH1 0x1 PUSH1 0x2 DUP9 MUL ADD DUP9 SSTORE POP POP POP JUMPDEST POP POP POP POP POP POP JUMP JUMPDEST PUSH1 0x0 DUP2 PUSH1 0x0 SHR SWAP1 POP SWAP2 SWAP1 POP JUMP JUMPDEST PUSH1 0x0 DUP2 SWAP1 POP SWAP2 SWAP1 POP JUMP JUMPDEST PUSH1 0x0 PUSH2 0x5371 PUSH2 0x536C DUP4 PUSH2 0x5347 JUMP JUMPDEST PUSH2 0x5354 JUMP JUMPDEST SWAP1 POP SWAP2 SWAP1 POP JUMP JUMPDEST PUSH1 0x0 DUP2 SLOAD PUSH2 0x5385 DUP2 PUSH2 0x48A3 JUMP JUMPDEST PUSH2 0x538F DUP2 DUP7 PUSH2 0x3F7A JUMP JUMPDEST SWAP5 POP PUSH1 0x1 DUP3 AND PUSH1 0x0 DUP2 EQ PUSH2 0x53AA JUMPI PUSH1 0x1 DUP2 EQ PUSH2 0x53C0 JUMPI PUSH2 0x53F3 JUMP JUMPDEST PUSH1 0xFF NOT DUP4 AND DUP7 MSTORE DUP2 ISZERO ISZERO PUSH1 0x20 MUL DUP7 ADD SWAP4 POP PUSH2 0x53F3 JUMP JUMPDEST PUSH2 0x53C9 DUP6 PUSH2 0x4BDD JUMP JUMPDEST PUSH1 0x0 JUMPDEST DUP4 DUP2 LT ISZERO PUSH2 0x53EB JUMPI DUP2 SLOAD DUP2 DUP10 ADD MSTORE PUSH1 0x1 DUP3 ADD SWAP2 POP PUSH1 0x20 DUP2 ADD SWAP1 POP PUSH2 0x53CC JUMP JUMPDEST DUP1 DUP9 ADD SWAP6 POP POP POP JUMPDEST POP POP POP SWAP3 SWAP2 POP POP JUMP JUMPDEST PUSH1 0x0 PUSH1 0x80 DUP4 ADD PUSH1 0x0 DUP1 DUP5 ADD SLOAD SWAP1 POP PUSH2 0x5413 DUP2 PUSH2 0x535E JUMP JUMPDEST PUSH2 0x5420 PUSH1 0x0 DUP8 ADD DUP3 PUSH2 0x3F6B JUMP JUMPDEST POP PUSH1 0x1 DUP5 ADD DUP6 DUP4 SUB PUSH1 0x20 DUP8 ADD MSTORE PUSH2 0x5437 DUP4 DUP3 PUSH2 0x5378 JUMP JUMPDEST SWAP3 POP POP PUSH1 0x2 DUP5 ADD DUP6 DUP4 SUB PUSH1 0x40 DUP8 ADD MSTORE PUSH2 0x5450 DUP4 DUP3 PUSH2 0x5378 JUMP JUMPDEST SWAP3 POP POP PUSH1 0x3 DUP5 ADD SLOAD SWAP1 POP PUSH2 0x5463 DUP2 PUSH2 0x535E JUMP JUMPDEST PUSH2 0x5470 PUSH1 0x60 DUP8 ADD DUP3 PUSH2 0x3F6B JUMP JUMPDEST POP DUP2 SWAP3 POP POP POP SWAP3 SWAP2 POP POP JUMP JUMPDEST PUSH1 0x0 PUSH1 0x20 DUP3 ADD SWAP1 POP DUP2 DUP2 SUB PUSH1 0x0 DUP4 ADD MSTORE PUSH2 0x5496 DUP2 DUP5 PUSH2 0x53FC JUMP JUMPDEST SWAP1 POP SWAP3 SWAP2 POP POP JUMP JUMPDEST PUSH1 0x0 DUP2 SWAP1 POP SWAP3 SWAP2 POP POP JUMP JUMPDEST POP JUMP JUMPDEST PUSH1 0x0 PUSH2 0x54B9 PUSH1 0x0 DUP4 PUSH2 0x549E JUMP JUMPDEST SWAP2 POP PUSH2 0x54C4 DUP3 PUSH2 0x54A9 JUMP JUMPDEST PUSH1 0x0 DUP3 ADD SWAP1 POP SWAP2 SWAP1 POP JUMP JUMPDEST PUSH1 0x0 PUSH2 0x54DA DUP3 PUSH2 0x54AC JUMP JUMPDEST SWAP2 POP DUP2 SWAP1 POP SWAP2 SWAP1 POP JUMP JUMPDEST PUSH32 0x4661696C656420746F2073656E64204574686572000000000000000000000000 PUSH1 0x0 DUP3 ADD MSTORE POP JUMP JUMPDEST PUSH1 0x0 PUSH2 0x551A PUSH1 0x14 DUP4 PUSH2 0x3B5D JUMP JUMPDEST SWAP2 POP PUSH2 0x5525 DUP3 PUSH2 0x54E4 JUMP JUMPDEST PUSH1 0x20 DUP3 ADD SWAP1 POP SWAP2 SWAP1 POP JUMP JUMPDEST PUSH1 0x0 PUSH1 0x20 DUP3 ADD SWAP1 POP DUP2 DUP2 SUB PUSH1 0x0 DUP4 ADD MSTORE PUSH2 0x5549 DUP2 PUSH2 0x550D JUMP JUMPDEST SWAP1 POP SWAP2 SWAP1 POP JUMP JUMPDEST PUSH32 0x455243373231456E756D657261626C653A20676C6F62616C20696E646578206F PUSH1 0x0 DUP3 ADD MSTORE PUSH32 0x7574206F6620626F756E64730000000000000000000000000000000000000000 PUSH1 0x20 DUP3 ADD MSTORE POP JUMP JUMPDEST PUSH1 0x0 PUSH2 0x55AC PUSH1 0x2C DUP4 PUSH2 0x3B5D JUMP JUMPDEST SWAP2 POP PUSH2 0x55B7 DUP3 PUSH2 0x5550 JUMP JUMPDEST PUSH1 0x40 DUP3 ADD SWAP1 POP SWAP2 SWAP1 POP JUMP JUMPDEST PUSH1 0x0 PUSH1 0x20 DUP3 ADD SWAP1 POP DUP2 DUP2 SUB PUSH1 0x0 DUP4 ADD MSTORE PUSH2 0x55DB DUP2 PUSH2 0x559F JUMP JUMPDEST SWAP1 POP SWAP2 SWAP1 POP JUMP JUMPDEST PUSH32 0x4E487B7100000000000000000000000000000000000000000000000000000000 PUSH1 0x0 MSTORE PUSH1 0x32 PUSH1 0x4 MSTORE PUSH1 0x24 PUSH1 0x0 REVERT JUMPDEST PUSH1 0x0 PUSH2 0x561C DUP3 PUSH2 0x3C04 JUMP JUMPDEST SWAP2 POP PUSH2 0x5627 DUP4 PUSH2 0x3C04 JUMP JUMPDEST SWAP3 POP DUP3 DUP3 ADD SWAP1 POP DUP1 DUP3 GT ISZERO PUSH2 0x563F JUMPI PUSH2 0x563E PUSH2 0x51FE JUMP JUMPDEST JUMPDEST SWAP3 SWAP2 POP POP JUMP JUMPDEST PUSH1 0x0 PUSH2 0x5650 DUP3 PUSH2 0x3C04 JUMP JUMPDEST SWAP2 POP PUSH2 0x565B DUP4 PUSH2 0x3C04 JUMP JUMPDEST SWAP3 POP DUP3 DUP3 SUB SWAP1 POP DUP2 DUP2 GT ISZERO PUSH2 0x5673 JUMPI PUSH2 0x5672 PUSH2 0x51FE JUMP JUMPDEST JUMPDEST SWAP3 SWAP2 POP POP JUMP JUMPDEST PUSH32 0x4552433732313A20696E76616C696420746F6B656E2049440000000000000000 PUSH1 0x0 DUP3 ADD MSTORE POP JUMP JUMPDEST PUSH1 0x0 PUSH2 0x56AF PUSH1 0x18 DUP4 PUSH2 0x3B5D JUMP JUMPDEST SWAP2 POP PUSH2 0x56BA DUP3 PUSH2 0x5679 JUMP JUMPDEST PUSH1 0x20 DUP3 ADD SWAP1 POP SWAP2 SWAP1 POP JUMP JUMPDEST PUSH1 0x0 PUSH1 0x20 DUP3 ADD SWAP1 POP DUP2 DUP2 SUB PUSH1 0x0 DUP4 ADD MSTORE PUSH2 0x56DE DUP2 PUSH2 0x56A2 JUMP JUMPDEST SWAP1 POP SWAP2 SWAP1 POP JUMP JUMPDEST PUSH32 0x4552433732313A2061646472657373207A65726F206973206E6F742061207661 PUSH1 0x0 DUP3 ADD MSTORE PUSH32 0x6C6964206F776E65720000000000000000000000000000000000000000000000 PUSH1 0x20 DUP3 ADD MSTORE POP JUMP JUMPDEST PUSH1 0x0 PUSH2 0x5741 PUSH1 0x29 DUP4 PUSH2 0x3B5D JUMP JUMPDEST SWAP2 POP PUSH2 0x574C DUP3 PUSH2 0x56E5 JUMP JUMPDEST PUSH1 0x40 DUP3 ADD SWAP1 POP SWAP2 SWAP1 POP JUMP JUMPDEST PUSH1 0x0 PUSH1 0x20 DUP3 ADD SWAP1 POP DUP2 DUP2 SUB PUSH1 0x0 DUP4 ADD MSTORE PUSH2 0x5770 DUP2 PUSH2 0x5734 JUMP JUMPDEST SWAP1 POP SWAP2 SWAP1 POP JUMP JUMPDEST PUSH32 0x4552433732314D657461646174613A2055524920717565727920666F72206E6F PUSH1 0x0 DUP3 ADD MSTORE PUSH32 0x6E6578697374656E7420746F6B656E0000000000000000000000000000000000 PUSH1 0x20 DUP3 ADD MSTORE POP JUMP JUMPDEST PUSH1 0x0 PUSH2 0x57D3 PUSH1 0x2F DUP4 PUSH2 0x3B5D JUMP JUMPDEST SWAP2 POP PUSH2 0x57DE DUP3 PUSH2 0x5777 JUMP JUMPDEST PUSH1 0x40 DUP3 ADD SWAP1 POP SWAP2 SWAP1 POP JUMP JUMPDEST PUSH1 0x0 PUSH1 0x20 DUP3 ADD SWAP1 POP DUP2 DUP2 SUB PUSH1 0x0 DUP4 ADD MSTORE PUSH2 0x5802 DUP2 PUSH2 0x57C6 JUMP JUMPDEST SWAP1 POP SWAP2 SWAP1 POP JUMP JUMPDEST PUSH1 0x0 PUSH2 0x5814 DUP3 PUSH2 0x3B52 JUMP JUMPDEST PUSH2 0x581E DUP2 DUP6 PUSH2 0x5149 JUMP JUMPDEST SWAP4 POP PUSH2 0x582E DUP2 DUP6 PUSH1 0x20 DUP7 ADD PUSH2 0x3B6E JUMP JUMPDEST DUP1 DUP5 ADD SWAP2 POP POP SWAP3 SWAP2 POP POP JUMP JUMPDEST PUSH32 0x2E6A736F6E000000000000000000000000000000000000000000000000000000 PUSH1 0x0 DUP3 ADD MSTORE POP JUMP JUMPDEST PUSH1 0x0 PUSH2 0x5870 PUSH1 0x5 DUP4 PUSH2 0x5149 JUMP JUMPDEST SWAP2 POP PUSH2 0x587B DUP3 PUSH2 0x583A JUMP JUMPDEST PUSH1 0x5 DUP3 ADD SWAP1 POP SWAP2 SWAP1 POP JUMP JUMPDEST PUSH1 0x0 PUSH2 0x5892 DUP3 DUP6 PUSH2 0x5809 JUMP JUMPDEST SWAP2 POP PUSH2 0x589E DUP3 DUP5 PUSH2 0x5809 JUMP JUMPDEST SWAP2 POP PUSH2 0x58A9 DUP3 PUSH2 0x5863 JUMP JUMPDEST SWAP2 POP DUP2 SWAP1 POP SWAP4 SWAP3 POP POP POP JUMP JUMPDEST PUSH32 0x48616E646C6520616C7265616479206578697374730000000000000000000000 PUSH1 0x0 DUP3 ADD MSTORE POP JUMP JUMPDEST PUSH1 0x0 PUSH2 0x58EB PUSH1 0x15 DUP4 PUSH2 0x3B5D JUMP JUMPDEST SWAP2 POP PUSH2 0x58F6 DUP3 PUSH2 0x58B5 JUMP JUMPDEST PUSH1 0x20 DUP3 ADD SWAP1 POP SWAP2 SWAP1 POP JUMP JUMPDEST PUSH1 0x0 PUSH1 0x20 DUP3 ADD SWAP1 POP DUP2 DUP2 SUB PUSH1 0x0 DUP4 ADD MSTORE PUSH2 0x591A DUP2 PUSH2 0x58DE JUMP JUMPDEST SWAP1 POP SWAP2 SWAP1 POP JUMP JUMPDEST PUSH32 0x4F776E657220646966666572656E742066726F6D206D73672E73656E64657200 PUSH1 0x0 DUP3 ADD MSTORE POP JUMP JUMPDEST PUSH1 0x0 PUSH2 0x5957 PUSH1 0x1F DUP4 PUSH2 0x3B5D JUMP JUMPDEST SWAP2 POP PUSH2 0x5962 DUP3 PUSH2 0x5921 JUMP JUMPDEST PUSH1 0x20 DUP3 ADD SWAP1 POP SWAP2 SWAP1 POP JUMP JUMPDEST PUSH1 0x0 PUSH1 0x20 DUP3 ADD SWAP1 POP DUP2 DUP2 SUB PUSH1 0x0 DUP4 ADD MSTORE PUSH2 0x5986 DUP2 PUSH2 0x594A JUMP JUMPDEST SWAP1 POP SWAP2 SWAP1 POP JUMP JUMPDEST PUSH32 0x45746865722073656E74206973206E6F7420636F727265637400000000000000 PUSH1 0x0 DUP3 ADD MSTORE POP JUMP JUMPDEST PUSH1 0x0 PUSH2 0x59C3 PUSH1 0x19 DUP4 PUSH2 0x3B5D JUMP JUMPDEST SWAP2 POP PUSH2 0x59CE DUP3 PUSH2 0x598D JUMP JUMPDEST PUSH1 0x20 DUP3 ADD SWAP1 POP SWAP2 SWAP1 POP JUMP JUMPDEST PUSH1 0x0 PUSH1 0x20 DUP3 ADD SWAP1 POP DUP2 DUP2 SUB PUSH1 0x0 DUP4 ADD MSTORE PUSH2 0x59F2 DUP2 PUSH2 0x59B6 JUMP JUMPDEST SWAP1 POP SWAP2 SWAP1 POP JUMP JUMPDEST PUSH1 0x0 PUSH1 0x20 DUP3 ADD SWAP1 POP DUP2 DUP2 SUB PUSH1 0x0 DUP4 ADD MSTORE PUSH2 0x5A13 DUP2 DUP5 PUSH2 0x4FCC JUMP JUMPDEST SWAP1 POP SWAP3 SWAP2 POP POP JUMP JUMPDEST PUSH32 0x4F776E61626C653A206E6577206F776E657220697320746865207A65726F2061 PUSH1 0x0 DUP3 ADD MSTORE PUSH32 0x6464726573730000000000000000000000000000000000000000000000000000 PUSH1 0x20 DUP3 ADD MSTORE POP JUMP JUMPDEST PUSH1 0x0 PUSH2 0x5A77 PUSH1 0x26 DUP4 PUSH2 0x3B5D JUMP JUMPDEST SWAP2 POP PUSH2 0x5A82 DUP3 PUSH2 0x5A1B JUMP JUMPDEST PUSH1 0x40 DUP3 ADD SWAP1 POP SWAP2 SWAP1 POP JUMP JUMPDEST PUSH1 0x0 PUSH1 0x20 DUP3 ADD SWAP1 POP DUP2 DUP2 SUB PUSH1 0x0 DUP4 ADD MSTORE PUSH2 0x5AA6 DUP2 PUSH2 0x5A6A JUMP JUMPDEST SWAP1 POP SWAP2 SWAP1 POP JUMP JUMPDEST PUSH32 0x4F776E61626C653A2063616C6C6572206973206E6F7420746865206F776E6572 PUSH1 0x0 DUP3 ADD MSTORE POP JUMP JUMPDEST PUSH1 0x0 PUSH2 0x5AE3 PUSH1 0x20 DUP4 PUSH2 0x3B5D JUMP JUMPDEST SWAP2 POP PUSH2 0x5AEE DUP3 PUSH2 0x5AAD JUMP JUMPDEST PUSH1 0x20 DUP3 ADD SWAP1 POP SWAP2 SWAP1 POP JUMP JUMPDEST PUSH1 0x0 PUSH1 0x20 DUP3 ADD SWAP1 POP DUP2 DUP2 SUB PUSH1 0x0 DUP4 ADD MSTORE PUSH2 0x5B12 DUP2 PUSH2 0x5AD6 JUMP JUMPDEST SWAP1 POP SWAP2 SWAP1 POP JUMP JUMPDEST PUSH32 0x4552433732313A207472616E736665722066726F6D20696E636F727265637420 PUSH1 0x0 DUP3 ADD MSTORE PUSH32 0x6F776E6572000000000000000000000000000000000000000000000000000000 PUSH1 0x20 DUP3 ADD MSTORE POP JUMP JUMPDEST PUSH1 0x0 PUSH2 0x5B75 PUSH1 0x25 DUP4 PUSH2 0x3B5D JUMP JUMPDEST SWAP2 POP PUSH2 0x5B80 DUP3 PUSH2 0x5B19 JUMP JUMPDEST PUSH1 0x40 DUP3 ADD SWAP1 POP SWAP2 SWAP1 POP JUMP JUMPDEST PUSH1 0x0 PUSH1 0x20 DUP3 ADD SWAP1 POP DUP2 DUP2 SUB PUSH1 0x0 DUP4 ADD MSTORE PUSH2 0x5BA4 DUP2 PUSH2 0x5B68 JUMP JUMPDEST SWAP1 POP SWAP2 SWAP1 POP JUMP JUMPDEST PUSH32 0x4552433732313A207472616E7366657220746F20746865207A65726F20616464 PUSH1 0x0 DUP3 ADD MSTORE PUSH32 0x7265737300000000000000000000000000000000000000000000000000000000 PUSH1 0x20 DUP3 ADD MSTORE POP JUMP JUMPDEST PUSH1 0x0 PUSH2 0x5C07 PUSH1 0x24 DUP4 PUSH2 0x3B5D JUMP JUMPDEST SWAP2 POP PUSH2 0x5C12 DUP3 PUSH2 0x5BAB JUMP JUMPDEST PUSH1 0x40 DUP3 ADD SWAP1 POP SWAP2 SWAP1 POP JUMP JUMPDEST PUSH1 0x0 PUSH1 0x20 DUP3 ADD SWAP1 POP DUP2 DUP2 SUB PUSH1 0x0 DUP4 ADD MSTORE PUSH2 0x5C36 DUP2 PUSH2 0x5BFA JUMP JUMPDEST SWAP1 POP SWAP2 SWAP1 POP JUMP JUMPDEST PUSH32 0x4552433732313A20617070726F766520746F2063616C6C657200000000000000 PUSH1 0x0 DUP3 ADD MSTORE POP JUMP JUMPDEST PUSH1 0x0 PUSH2 0x5C73 PUSH1 0x19 DUP4 PUSH2 0x3B5D JUMP JUMPDEST SWAP2 POP PUSH2 0x5C7E DUP3 PUSH2 0x5C3D JUMP JUMPDEST PUSH1 0x20 DUP3 ADD SWAP1 POP SWAP2 SWAP1 POP JUMP JUMPDEST PUSH1 0x0 PUSH1 0x20 DUP3 ADD SWAP1 POP DUP2 DUP2 SUB PUSH1 0x0 DUP4 ADD MSTORE PUSH2 0x5CA2 DUP2 PUSH2 0x5C66 JUMP JUMPDEST SWAP1 POP SWAP2 SWAP1 POP JUMP JUMPDEST PUSH32 0x4552433732313A207472616E7366657220746F206E6F6E204552433732315265 PUSH1 0x0 DUP3 ADD MSTORE PUSH32 0x63656976657220696D706C656D656E7465720000000000000000000000000000 PUSH1 0x20 DUP3 ADD MSTORE POP JUMP JUMPDEST PUSH1 0x0 PUSH2 0x5D05 PUSH1 0x32 DUP4 PUSH2 0x3B5D JUMP JUMPDEST SWAP2 POP PUSH2 0x5D10 DUP3 PUSH2 0x5CA9 JUMP JUMPDEST PUSH1 0x40 DUP3 ADD SWAP1 POP SWAP2 SWAP1 POP JUMP JUMPDEST PUSH1 0x0 PUSH1 0x20 DUP3 ADD SWAP1 POP DUP2 DUP2 SUB PUSH1 0x0 DUP4 ADD MSTORE PUSH2 0x5D34 DUP2 PUSH2 0x5CF8 JUMP JUMPDEST SWAP1 POP SWAP2 SWAP1 POP JUMP JUMPDEST PUSH32 0x4E487B7100000000000000000000000000000000000000000000000000000000 PUSH1 0x0 MSTORE PUSH1 0x12 PUSH1 0x4 MSTORE PUSH1 0x24 PUSH1 0x0 REVERT JUMPDEST PUSH32 0x455243373231456E756D657261626C653A20636F6E7365637574697665207472 PUSH1 0x0 DUP3 ADD MSTORE PUSH32 0x616E7366657273206E6F7420737570706F727465640000000000000000000000 PUSH1 0x20 DUP3 ADD MSTORE POP JUMP JUMPDEST PUSH1 0x0 PUSH2 0x5DC6 PUSH1 0x35 DUP4 PUSH2 0x3B5D JUMP JUMPDEST SWAP2 POP PUSH2 0x5DD1 DUP3 PUSH2 0x5D6A JUMP JUMPDEST PUSH1 0x40 DUP3 ADD SWAP1 POP SWAP2 SWAP1 POP JUMP JUMPDEST PUSH1 0x0 PUSH1 0x20 DUP3 ADD SWAP1 POP DUP2 DUP2 SUB PUSH1 0x0 DUP4 ADD MSTORE PUSH2 0x5DF5 DUP2 PUSH2 0x5DB9 JUMP JUMPDEST SWAP1 POP SWAP2 SWAP1 POP JUMP JUMPDEST PUSH1 0x0 DUP2 MLOAD SWAP1 POP SWAP2 SWAP1 POP JUMP JUMPDEST PUSH1 0x0 DUP3 DUP3 MSTORE PUSH1 0x20 DUP3 ADD SWAP1 POP SWAP3 SWAP2 POP POP JUMP JUMPDEST PUSH1 0x0 PUSH2 0x5E23 DUP3 PUSH2 0x5DFC JUMP JUMPDEST PUSH2 0x5E2D DUP2 DUP6 PUSH2 0x5E07 JUMP JUMPDEST SWAP4 POP PUSH2 0x5E3D DUP2 DUP6 PUSH1 0x20 DUP7 ADD PUSH2 0x3B6E JUMP JUMPDEST PUSH2 0x5E46 DUP2 PUSH2 0x3B98 JUMP JUMPDEST DUP5 ADD SWAP2 POP POP SWAP3 SWAP2 POP POP JUMP JUMPDEST PUSH1 0x0 PUSH1 0x80 DUP3 ADD SWAP1 POP PUSH2 0x5E66 PUSH1 0x0 DUP4 ADD DUP8 PUSH2 0x3C99 JUMP JUMPDEST PUSH2 0x5E73 PUSH1 0x20 DUP4 ADD DUP7 PUSH2 0x3C99 JUMP JUMPDEST PUSH2 0x5E80 PUSH1 0x40 DUP4 ADD DUP6 PUSH2 0x3CC3 JUMP JUMPDEST DUP2 DUP2 SUB PUSH1 0x60 DUP4 ADD MSTORE PUSH2 0x5E92 DUP2 DUP5 PUSH2 0x5E18 JUMP JUMPDEST SWAP1 POP SWAP6 SWAP5 POP POP POP POP POP JUMP JUMPDEST PUSH1 0x0 DUP2 MLOAD SWAP1 POP PUSH2 0x5EAC DUP2 PUSH2 0x3AC3 JUMP JUMPDEST SWAP3 SWAP2 POP POP JUMP JUMPDEST PUSH1 0x0 PUSH1 0x20 DUP3 DUP5 SUB SLT ISZERO PUSH2 0x5EC8 JUMPI PUSH2 0x5EC7 PUSH2 0x3A8D JUMP JUMPDEST JUMPDEST PUSH1 0x0 PUSH2 0x5ED6 DUP5 DUP3 DUP6 ADD PUSH2 0x5E9D JUMP JUMPDEST SWAP2 POP POP SWAP3 SWAP2 POP POP JUMP JUMPDEST PUSH32 0x4E487B7100000000000000000000000000000000000000000000000000000000 PUSH1 0x0 MSTORE PUSH1 0x31 PUSH1 0x4 MSTORE PUSH1 0x24 PUSH1 0x0 REVERT JUMPDEST PUSH32 0x4552433732313A206D696E7420746F20746865207A65726F2061646472657373 PUSH1 0x0 DUP3 ADD MSTORE POP JUMP JUMPDEST PUSH1 0x0 PUSH2 0x5F44 PUSH1 0x20 DUP4 PUSH2 0x3B5D JUMP JUMPDEST SWAP2 POP PUSH2 0x5F4F DUP3 PUSH2 0x5F0E JUMP JUMPDEST PUSH1 0x20 DUP3 ADD SWAP1 POP SWAP2 SWAP1 POP JUMP JUMPDEST PUSH1 0x0 PUSH1 0x20 DUP3 ADD SWAP1 POP DUP2 DUP2 SUB PUSH1 0x0 DUP4 ADD MSTORE PUSH2 0x5F73 DUP2 PUSH2 0x5F37 JUMP JUMPDEST SWAP1 POP SWAP2 SWAP1 POP JUMP JUMPDEST PUSH32 0x4552433732313A20746F6B656E20616C7265616479206D696E74656400000000 PUSH1 0x0 DUP3 ADD MSTORE POP JUMP JUMPDEST PUSH1 0x0 PUSH2 0x5FB0 PUSH1 0x1C DUP4 PUSH2 0x3B5D JUMP JUMPDEST SWAP2 POP PUSH2 0x5FBB DUP3 PUSH2 0x5F7A JUMP JUMPDEST PUSH1 0x20 DUP3 ADD SWAP1 POP SWAP2 SWAP1 POP JUMP JUMPDEST PUSH1 0x0 PUSH1 0x20 DUP3 ADD SWAP1 POP DUP2 DUP2 SUB PUSH1 0x0 DUP4 ADD MSTORE PUSH2 0x5FDF DUP2 PUSH2 0x5FA3 JUMP JUMPDEST SWAP1 POP SWAP2 SWAP1 POP JUMP INVALID LOG2 PUSH5 0x6970667358 0x22 SLT KECCAK256 0xED SGT PUSH5 0xE45CF0A716 0xBB SWAP10 TIMESTAMP SWAP13 PUSH28 0x6D5F601D66CE7A35E0DD9ECE5B2F43E117AD4564736F6C6343000813 STOP CALLER "},"methodIdentifiers":{"_paused()":"16c61ccc","_price()":"235b6ea1","approve(address,uint256)":"095ea7b3","balanceOf(address)":"70a08231","createPost(string,string)":"392338f5","createProfileNFT((address,string,string,string,string))":"e563f778","getAllProfileNFTData()":"ac8b628e","getApproved(uint256)":"081812fc","getPost(uint256)":"40731c24","getPostWithNumber(uint256)":"54ebb999","getProfileNFTData(uint256)":"9b85b1f1","getProfilePosts(string)":"5cafa539","getUserHandles(address)":"80985a87","getUserProfiles(address)":"5dd4dff4","isApprovedForAll(address,address)":"e985e9c5","name()":"06fdde03","owner()":"8da5cb5b","ownerOf(uint256)":"6352211e","postId()":"60a0ecda","profileId()":"08386eba","renounceOwnership()":"715018a6","safeTransferFrom(address,address,uint256)":"42842e0e","safeTransferFrom(address,address,uint256,bytes)":"b88d4fde","setApprovalForAll(address,bool)":"a22cb465","setPaused(bool)":"16c38b3c","supportsInterface(bytes4)":"01ffc9a7","symbol()":"95d89b41","tokenByIndex(uint256)":"4f6ccce7","tokenOfOwnerByIndex(address,uint256)":"2f745c59","tokenURI(uint256)":"c87b56dd","totalSupply()":"18160ddd","transferFrom(address,address,uint256)":"23b872dd","transferOwnership(address)":"f2fde38b","updateProfile(uint256,(address,string,string,string,string))":"2d6d852f","withdraw()":"3ccfd60b"}}}}}