{"contracts/Profile.sol":{"Profile":{"abi":[{"inputs":[{"internalType":"string","name":"baseURI","type":"string"}],"stateMutability":"nonpayable","type":"constructor"},{"anonymous":false,"inputs":[{"indexed":true,"internalType":"address","name":"owner","type":"address"},{"indexed":true,"internalType":"address","name":"approved","type":"address"},{"indexed":true,"internalType":"uint256","name":"tokenId","type":"uint256"}],"name":"Approval","type":"event"},{"anonymous":false,"inputs":[{"indexed":true,"internalType":"address","name":"owner","type":"address"},{"indexed":true,"internalType":"address","name":"operator","type":"address"},{"indexed":false,"internalType":"bool","name":"approved","type":"bool"}],"name":"ApprovalForAll","type":"event"},{"anonymous":false,"inputs":[{"components":[{"internalType":"address","name":"owner","type":"address"},{"internalType":"string","name":"handle","type":"string"},{"internalType":"string","name":"name","type":"string"},{"internalType":"string","name":"imageURI","type":"string"},{"internalType":"string","name":"bio","type":"string"}],"indexed":false,"internalType":"struct Profile.ProfileNFTData","name":"profileNFTData","type":"tuple"}],"name":"CreateProfileNFT","type":"event"},{"anonymous":false,"inputs":[{"indexed":true,"internalType":"address","name":"previousOwner","type":"address"},{"indexed":true,"internalType":"address","name":"newOwner","type":"address"}],"name":"OwnershipTransferred","type":"event"},{"anonymous":false,"inputs":[{"indexed":true,"internalType":"address","name":"from","type":"address"},{"indexed":true,"internalType":"address","name":"to","type":"address"},{"indexed":true,"internalType":"uint256","name":"tokenId","type":"uint256"}],"name":"Transfer","type":"event"},{"anonymous":false,"inputs":[{"indexed":false,"internalType":"uint256","name":"profileId","type":"uint256"},{"components":[{"internalType":"address","name":"owner","type":"address"},{"internalType":"string","name":"handle","type":"string"},{"internalType":"string","name":"name","type":"string"},{"internalType":"string","name":"imageURI","type":"string"},{"internalType":"string","name":"bio","type":"string"}],"indexed":false,"internalType":"struct Profile.ProfileNFTData","name":"profileData","type":"tuple"}],"name":"UpdateProfile","type":"event"},{"inputs":[],"name":"_price","outputs":[{"internalType":"uint256","name":"","type":"uint256"}],"stateMutability":"view","type":"function"},{"inputs":[{"internalType":"address","name":"to","type":"address"},{"internalType":"uint256","name":"tokenId","type":"uint256"}],"name":"approve","outputs":[],"stateMutability":"nonpayable","type":"function"},{"inputs":[{"internalType":"address","name":"owner","type":"address"}],"name":"balanceOf","outputs":[{"internalType":"uint256","name":"","type":"uint256"}],"stateMutability":"view","type":"function"},{"inputs":[{"components":[{"internalType":"address","name":"owner","type":"address"},{"internalType":"string","name":"handle","type":"string"},{"internalType":"string","name":"name","type":"string"},{"internalType":"string","name":"imageURI","type":"string"},{"internalType":"string","name":"bio","type":"string"}],"internalType":"struct Profile.ProfileNFTData","name":"_profileNFTData","type":"tuple"}],"name":"createProfileNFT","outputs":[],"stateMutability":"payable","type":"function"},{"inputs":[],"name":"getAllProfileNFTData","outputs":[{"components":[{"internalType":"address","name":"owner","type":"address"},{"internalType":"string","name":"handle","type":"string"},{"internalType":"string","name":"name","type":"string"},{"internalType":"string","name":"imageURI","type":"string"},{"internalType":"string","name":"bio","type":"string"}],"internalType":"struct Profile.ProfileNFTData[]","name":"","type":"tuple[]"}],"stateMutability":"view","type":"function"},{"inputs":[{"internalType":"uint256","name":"tokenId","type":"uint256"}],"name":"getApproved","outputs":[{"internalType":"address","name":"","type":"address"}],"stateMutability":"view","type":"function"},{"inputs":[{"internalType":"uint256","name":"_profileId","type":"uint256"}],"name":"getProfileNFTData","outputs":[{"components":[{"internalType":"address","name":"owner","type":"address"},{"internalType":"string","name":"handle","type":"string"},{"internalType":"string","name":"name","type":"string"},{"internalType":"string","name":"imageURI","type":"string"},{"internalType":"string","name":"bio","type":"string"}],"internalType":"struct Profile.ProfileNFTData","name":"","type":"tuple"}],"stateMutability":"view","type":"function"},{"inputs":[{"internalType":"address","name":"_owner","type":"address"}],"name":"getUserHandles","outputs":[{"internalType":"string[]","name":"","type":"string[]"}],"stateMutability":"view","type":"function"},{"inputs":[{"internalType":"address","name":"_user","type":"address"}],"name":"getUserProfiles","outputs":[{"internalType":"uint256[]","name":"","type":"uint256[]"}],"stateMutability":"view","type":"function"},{"inputs":[{"internalType":"address","name":"owner","type":"address"},{"internalType":"address","name":"operator","type":"address"}],"name":"isApprovedForAll","outputs":[{"internalType":"bool","name":"","type":"bool"}],"stateMutability":"view","type":"function"},{"inputs":[],"name":"name","outputs":[{"internalType":"string","name":"","type":"string"}],"stateMutability":"view","type":"function"},{"inputs":[],"name":"owner","outputs":[{"internalType":"address","name":"","type":"address"}],"stateMutability":"view","type":"function"},{"inputs":[{"internalType":"uint256","name":"tokenId","type":"uint256"}],"name":"ownerOf","outputs":[{"internalType":"address","name":"","type":"address"}],"stateMutability":"view","type":"function"},{"inputs":[],"name":"profileId","outputs":[{"internalType":"uint256","name":"","type":"uint256"}],"stateMutability":"view","type":"function"},{"inputs":[],"name":"renounceOwnership","outputs":[],"stateMutability":"nonpayable","type":"function"},{"inputs":[{"internalType":"address","name":"from","type":"address"},{"internalType":"address","name":"to","type":"address"},{"internalType":"uint256","name":"tokenId","type":"uint256"}],"name":"safeTransferFrom","outputs":[],"stateMutability":"nonpayable","type":"function"},{"inputs":[{"internalType":"address","name":"from","type":"address"},{"internalType":"address","name":"to","type":"address"},{"internalType":"uint256","name":"tokenId","type":"uint256"},{"internalType":"bytes","name":"data","type":"bytes"}],"name":"safeTransferFrom","outputs":[],"stateMutability":"nonpayable","type":"function"},{"inputs":[{"internalType":"address","name":"operator","type":"address"},{"internalType":"bool","name":"approved","type":"bool"}],"name":"setApprovalForAll","outputs":[],"stateMutability":"nonpayable","type":"function"},{"inputs":[{"internalType":"bytes4","name":"interfaceId","type":"bytes4"}],"name":"supportsInterface","outputs":[{"internalType":"bool","name":"","type":"bool"}],"stateMutability":"view","type":"function"},{"inputs":[],"name":"symbol","outputs":[{"internalType":"string","name":"","type":"string"}],"stateMutability":"view","type":"function"},{"inputs":[{"internalType":"uint256","name":"index","type":"uint256"}],"name":"tokenByIndex","outputs":[{"internalType":"uint256","name":"","type":"uint256"}],"stateMutability":"view","type":"function"},{"inputs":[{"internalType":"address","name":"owner","type":"address"},{"internalType":"uint256","name":"index","type":"uint256"}],"name":"tokenOfOwnerByIndex","outputs":[{"internalType":"uint256","name":"","type":"uint256"}],"stateMutability":"view","type":"function"},{"inputs":[{"internalType":"uint256","name":"tokenId","type":"uint256"}],"name":"tokenURI","outputs":[{"internalType":"string","name":"","type":"string"}],"stateMutability":"view","type":"function"},{"inputs":[],"name":"totalSupply","outputs":[{"internalType":"uint256","name":"","type":"uint256"}],"stateMutability":"view","type":"function"},{"inputs":[{"internalType":"address","name":"from","type":"address"},{"internalType":"address","name":"to","type":"address"},{"internalType":"uint256","name":"tokenId","type":"uint256"}],"name":"transferFrom","outputs":[],"stateMutability":"nonpayable","type":"function"},{"inputs":[{"internalType":"address","name":"newOwner","type":"address"}],"name":"transferOwnership","outputs":[],"stateMutability":"nonpayable","type":"function"},{"inputs":[{"internalType":"uint256","name":"_profileId","type":"uint256"},{"components":[{"internalType":"address","name":"owner","type":"address"},{"internalType":"string","name":"handle","type":"string"},{"internalType":"string","name":"name","type":"string"},{"internalType":"string","name":"imageURI","type":"string"},{"internalType":"string","name":"bio","type":"string"}],"internalType":"struct Profile.ProfileNFTData","name":"_newProfileData","type":"tuple"}],"name":"updateProfile","outputs":[],"stateMutability":"nonpayable","type":"function"}],"evm":{"bytecode":{"linkReferences":{},"object":"6080604052662386f26fc10000600c553480156200001c57600080fd5b506040516200555c3803806200555c83398181016040528101906200004291906200036c565b6040518060400160405280600a81526020017f536f6369616c57656233000000000000000000000000000000000000000000008152506040518060400160405280600381526020017f5357330000000000000000000000000000000000000000000000000000000000815250620000ce620000c26200010d60201b60201c565b6200011560201b60201c565b8160019081620000df919062000608565b508060029081620000f1919062000608565b50505080600b908162000105919062000608565b5050620006ef565b600033905090565b60008060009054906101000a900473ffffffffffffffffffffffffffffffffffffffff169050816000806101000a81548173ffffffffffffffffffffffffffffffffffffffff021916908373ffffffffffffffffffffffffffffffffffffffff1602179055508173ffffffffffffffffffffffffffffffffffffffff168173ffffffffffffffffffffffffffffffffffffffff167f8be0079c531659141344cd1fd0a4f28419497f9722a3daafe3b4186f6b6457e060405160405180910390a35050565b6000604051905090565b600080fd5b600080fd5b600080fd5b600080fd5b6000601f19601f8301169050919050565b7f4e487b7100000000000000000000000000000000000000000000000000000000600052604160045260246000fd5b6200024282620001f7565b810181811067ffffffffffffffff8211171562000264576200026362000208565b5b80604052505050565b600062000279620001d9565b905062000287828262000237565b919050565b600067ffffffffffffffff821115620002aa57620002a962000208565b5b620002b582620001f7565b9050602081019050919050565b60005b83811015620002e2578082015181840152602081019050620002c5565b60008484015250505050565b600062000305620002ff846200028c565b6200026d565b905082815260208101848484011115620003245762000323620001f2565b5b62000331848285620002c2565b509392505050565b600082601f830112620003515762000350620001ed565b5b815162000363848260208601620002ee565b91505092915050565b600060208284031215620003855762000384620001e3565b5b600082015167ffffffffffffffff811115620003a657620003a5620001e8565b5b620003b48482850162000339565b91505092915050565b600081519050919050565b7f4e487b7100000000000000000000000000000000000000000000000000000000600052602260045260246000fd5b600060028204905060018216806200041057607f821691505b602082108103620004265762000425620003c8565b5b50919050565b60008190508160005260206000209050919050565b60006020601f8301049050919050565b600082821b905092915050565b600060088302620004907fffffffffffffffffffffffffffffffffffffffffffffffffffffffffffffffff8262000451565b6200049c868362000451565b95508019841693508086168417925050509392505050565b6000819050919050565b6000819050919050565b6000620004e9620004e3620004dd84620004b4565b620004be565b620004b4565b9050919050565b6000819050919050565b6200050583620004c8565b6200051d6200051482620004f0565b8484546200045e565b825550505050565b600090565b6200053462000525565b62000541818484620004fa565b505050565b5b8181101562000569576200055d6000826200052a565b60018101905062000547565b5050565b601f821115620005b85762000582816200042c565b6200058d8462000441565b810160208510156200059d578190505b620005b5620005ac8562000441565b83018262000546565b50505b505050565b600082821c905092915050565b6000620005dd60001984600802620005bd565b1980831691505092915050565b6000620005f88383620005ca565b9150826002028217905092915050565b6200061382620003bd565b67ffffffffffffffff8111156200062f576200062e62000208565b5b6200063b8254620003f7565b620006488282856200056d565b600060209050601f8311600181146200068057600084156200066b578287015190505b620006778582620005ea565b865550620006e7565b601f19841662000690866200042c565b60005b82811015620006ba5784890151825560018201915060208501945060208101905062000693565b86831015620006da5784890151620006d6601f891682620005ca565b8355505b6001600288020188555050505b505050505050565b614e5d80620006ff6000396000f3fe60806040526004361061019c5760003560e01c80636352211e116100ec578063a22cb4651161008a578063c87b56dd11610064578063c87b56dd14610600578063e563f7781461063d578063e985e9c514610659578063f2fde38b146106965761019c565b8063a22cb46514610583578063ac8b628e146105ac578063b88d4fde146105d75761019c565b806380985a87116100c657806380985a87146104b35780638da5cb5b146104f057806395d89b411461051b5780639b85b1f1146105465761019c565b80636352211e1461042257806370a082311461045f578063715018a61461049c5761019c565b8063235b6ea1116101595780632f745c59116101335780632f745c591461034257806342842e0e1461037f5780634f6ccce7146103a85780635dd4dff4146103e55761019c565b8063235b6ea1146102c557806323b872dd146102f05780632d6d852f146103195761019c565b806301ffc9a7146101a157806306fdde03146101de578063081812fc1461020957806308386eba14610246578063095ea7b31461027157806318160ddd1461029a575b600080fd5b3480156101ad57600080fd5b506101c860048036038101906101c39190612fe0565b6106bf565b6040516101d59190613028565b60405180910390f35b3480156101ea57600080fd5b506101f3610739565b60405161020091906130d3565b60405180910390f35b34801561021557600080fd5b50610230600480360381019061022b919061312b565b6107cb565b60405161023d9190613199565b60405180910390f35b34801561025257600080fd5b5061025b610811565b60405161026891906131c3565b60405180910390f35b34801561027d57600080fd5b506102986004803603810190610293919061320a565b610817565b005b3480156102a657600080fd5b506102af61092e565b6040516102bc91906131c3565b60405180910390f35b3480156102d157600080fd5b506102da61093b565b6040516102e791906131c3565b60405180910390f35b3480156102fc57600080fd5b506103176004803603810190610312919061324a565b610941565b005b34801561032557600080fd5b50610340600480360381019061033b91906132c1565b6109a1565b005b34801561034e57600080fd5b506103696004803603810190610364919061320a565b610a09565b60405161037691906131c3565b60405180910390f35b34801561038b57600080fd5b506103a660048036038101906103a1919061324a565b610aae565b005b3480156103b457600080fd5b506103cf60048036038101906103ca919061312b565b610ace565b6040516103dc91906131c3565b60405180910390f35b3480156103f157600080fd5b5061040c6004803603810190610407919061331d565b610b3f565b6040516104199190613408565b60405180910390f35b34801561042e57600080fd5b506104496004803603810190610444919061312b565b610bd6565b6040516104569190613199565b60405180910390f35b34801561046b57600080fd5b506104866004803603810190610481919061331d565b610c5c565b60405161049391906131c3565b60405180910390f35b3480156104a857600080fd5b506104b1610d13565b005b3480156104bf57600080fd5b506104da60048036038101906104d5919061331d565b610d27565b6040516104e79190613536565b60405180910390f35b3480156104fc57600080fd5b50610505610e3f565b6040516105129190613199565b60405180910390f35b34801561052757600080fd5b50610530610e68565b60405161053d91906130d3565b60405180910390f35b34801561055257600080fd5b5061056d6004803603810190610568919061312b565b610efa565b60405161057a91906135f2565b60405180910390f35b34801561058f57600080fd5b506105aa60048036038101906105a59190613640565b6111c5565b005b3480156105b857600080fd5b506105c16111db565b6040516105ce91906137cd565b60405180910390f35b3480156105e357600080fd5b506105fe60048036038101906105f99190613924565b61153c565b005b34801561060c57600080fd5b506106276004803603810190610622919061312b565b61159e565b60405161063491906130d3565b60405180910390f35b610657600480360381019061065291906139a7565b611645565b005b34801561066557600080fd5b50610680600480360381019061067b91906139f0565b611947565b60405161068d9190613028565b60405180910390f35b3480156106a257600080fd5b506106bd60048036038101906106b8919061331d565b6119db565b005b60007f780e9d63000000000000000000000000000000000000000000000000000000007bffffffffffffffffffffffffffffffffffffffffffffffffffffffff1916827bffffffffffffffffffffffffffffffffffffffffffffffffffffffff19161480610732575061073182611a5e565b5b9050919050565b60606001805461074890613a5f565b80601f016020809104026020016040519081016040528092919081815260200182805461077490613a5f565b80156107c15780601f10610796576101008083540402835291602001916107c1565b820191906000526020600020905b8154815290600101906020018083116107a457829003601f168201915b5050505050905090565b60006107d682611b40565b6005600083815260200190815260200160002060009054906101000a900473ffffffffffffffffffffffffffffffffffffffff169050919050565b600d5481565b600061082282610bd6565b90508073ffffffffffffffffffffffffffffffffffffffff168373ffffffffffffffffffffffffffffffffffffffff1603610892576040517f08c379a000000000000000000000000000000000000000000000000000000000815260040161088990613b02565b60405180910390fd5b8073ffffffffffffffffffffffffffffffffffffffff166108b1611b8b565b73ffffffffffffffffffffffffffffffffffffffff1614806108e057506108df816108da611b8b565b611947565b5b61091f576040517f08c379a000000000000000000000000000000000000000000000000000000000815260040161091690613b94565b60405180910390fd5b6109298383611b93565b505050565b6000600980549050905090565b600c5481565b61095261094c611b8b565b82611c4c565b610991576040517f08c379a000000000000000000000000000000000000000000000000000000000815260040161098890613c26565b60405180910390fd5b61099c838383611ce1565b505050565b6109a9611fda565b806010600084815260200190815260200160002081816109c991906140c4565b9050507f2af2668216c13797f987f500352b5dcccb7f93d074b60a9ea347afb160cfed9e82826040516109fd929190614243565b60405180910390a15050565b6000610a1483610c5c565b8210610a55576040517f08c379a0000000000000000000000000000000000000000000000000000000008152600401610a4c906142e5565b60405180910390fd5b600760008473ffffffffffffffffffffffffffffffffffffffff1673ffffffffffffffffffffffffffffffffffffffff168152602001908152602001600020600083815260200190815260200160002054905092915050565b610ac98383836040518060200160405280600081525061153c565b505050565b6000610ad861092e565b8210610b19576040517f08c379a0000000000000000000000000000000000000000000000000000000008152600401610b1090614377565b60405180910390fd5b60098281548110610b2d57610b2c614397565b5b90600052602060002001549050919050565b6060600e60008373ffffffffffffffffffffffffffffffffffffffff1673ffffffffffffffffffffffffffffffffffffffff168152602001908152602001600020805480602002602001604051908101604052809291908181526020018280548015610bca57602002820191906000526020600020905b815481526020019060010190808311610bb6575b50505050509050919050565b600080610be283612058565b9050600073ffffffffffffffffffffffffffffffffffffffff168173ffffffffffffffffffffffffffffffffffffffff1603610c53576040517f08c379a0000000000000000000000000000000000000000000000000000000008152600401610c4a90614412565b60405180910390fd5b80915050919050565b60008073ffffffffffffffffffffffffffffffffffffffff168273ffffffffffffffffffffffffffffffffffffffff1603610ccc576040517f08c379a0000000000000000000000000000000000000000000000000000000008152600401610cc3906144a4565b60405180910390fd5b600460008373ffffffffffffffffffffffffffffffffffffffff1673ffffffffffffffffffffffffffffffffffffffff168152602001908152602001600020549050919050565b610d1b611fda565b610d256000612095565b565b6060600f60008373ffffffffffffffffffffffffffffffffffffffff1673ffffffffffffffffffffffffffffffffffffffff168152602001908152602001600020805480602002602001604051908101604052809291908181526020016000905b82821015610e34578382906000526020600020018054610da790613a5f565b80601f0160208091040260200160405190810160405280929190818152602001828054610dd390613a5f565b8015610e205780601f10610df557610100808354040283529160200191610e20565b820191906000526020600020905b815481529060010190602001808311610e0357829003601f168201915b505050505081526020019060010190610d88565b505050509050919050565b60008060009054906101000a900473ffffffffffffffffffffffffffffffffffffffff16905090565b606060028054610e7790613a5f565b80601f0160208091040260200160405190810160405280929190818152602001828054610ea390613a5f565b8015610ef05780601f10610ec557610100808354040283529160200191610ef0565b820191906000526020600020905b815481529060010190602001808311610ed357829003601f168201915b5050505050905090565b610f02612f2f565b601060008381526020019081526020016000206040518060a00160405290816000820160009054906101000a900473ffffffffffffffffffffffffffffffffffffffff1673ffffffffffffffffffffffffffffffffffffffff1673ffffffffffffffffffffffffffffffffffffffff168152602001600182018054610f8690613a5f565b80601f0160208091040260200160405190810160405280929190818152602001828054610fb290613a5f565b8015610fff5780601f10610fd457610100808354040283529160200191610fff565b820191906000526020600020905b815481529060010190602001808311610fe257829003601f168201915b5050505050815260200160028201805461101890613a5f565b80601f016020809104026020016040519081016040528092919081815260200182805461104490613a5f565b80156110915780601f1061106657610100808354040283529160200191611091565b820191906000526020600020905b81548152906001019060200180831161107457829003601f168201915b505050505081526020016003820180546110aa90613a5f565b80601f01602080910402602001604051908101604052809291908181526020018280546110d690613a5f565b80156111235780601f106110f857610100808354040283529160200191611123565b820191906000526020600020905b81548152906001019060200180831161110657829003601f168201915b5050505050815260200160048201805461113c90613a5f565b80601f016020809104026020016040519081016040528092919081815260200182805461116890613a5f565b80156111b55780601f1061118a576101008083540402835291602001916111b5565b820191906000526020600020905b81548152906001019060200180831161119857829003601f168201915b5050505050815250509050919050565b6111d76111d0611b8b565b8383612159565b5050565b60606000600d5467ffffffffffffffff8111156111fb576111fa6137f9565b5b60405190808252806020026020018201604052801561123457816020015b611221612f2f565b8152602001906001900390816112195790505b5090506000600190505b600d54811161153457601060008281526020019081526020016000206040518060a00160405290816000820160009054906101000a900473ffffffffffffffffffffffffffffffffffffffff1673ffffffffffffffffffffffffffffffffffffffff1673ffffffffffffffffffffffffffffffffffffffff1681526020016001820180546112cb90613a5f565b80601f01602080910402602001604051908101604052809291908181526020018280546112f790613a5f565b80156113445780601f1061131957610100808354040283529160200191611344565b820191906000526020600020905b81548152906001019060200180831161132757829003601f168201915b5050505050815260200160028201805461135d90613a5f565b80601f016020809104026020016040519081016040528092919081815260200182805461138990613a5f565b80156113d65780601f106113ab576101008083540402835291602001916113d6565b820191906000526020600020905b8154815290600101906020018083116113b957829003601f168201915b505050505081526020016003820180546113ef90613a5f565b80601f016020809104026020016040519081016040528092919081815260200182805461141b90613a5f565b80156114685780601f1061143d57610100808354040283529160200191611468565b820191906000526020600020905b81548152906001019060200180831161144b57829003601f168201915b5050505050815260200160048201805461148190613a5f565b80601f01602080910402602001604051908101604052809291908181526020018280546114ad90613a5f565b80156114fa5780601f106114cf576101008083540402835291602001916114fa565b820191906000526020600020905b8154815290600101906020018083116114dd57829003601f168201915b50505050508152505082828151811061151657611515614397565b5b6020026020010181905250808061152c906144f3565b91505061123e565b508091505090565b61154d611547611b8b565b83611c4c565b61158c576040517f08c379a000000000000000000000000000000000000000000000000000000000815260040161158390613c26565b60405180910390fd5b611598848484846122c5565b50505050565b60606115a982612321565b6115e8576040517f08c379a00000000000000000000000000000000000000000000000000000000081526004016115df906145ad565b60405180910390fd5b60006115f2612362565b90506000815111611612576040518060200160405280600081525061163d565b8061161c846123f4565b60405160200161162d929190614655565b6040516020818303038152906040525b915050919050565b8080602001906116559190613d2b565b601182826040516116679291906146a9565b908152602001604051809103902060009054906101000a900460ff16156116c3576040517f08c379a00000000000000000000000000000000000000000000000000000000081526004016116ba9061470e565b60405180910390fd5b8260000160208101906116d6919061331d565b3373ffffffffffffffffffffffffffffffffffffffff168173ffffffffffffffffffffffffffffffffffffffff1614611744576040517f08c379a000000000000000000000000000000000000000000000000000000000815260040161173b9061477a565b60405180910390fd5b600c54341015611789576040517f08c379a0000000000000000000000000000000000000000000000000000000008152600401611780906147e6565b60405180910390fd5b600d600081548092919061179c906144f3565b91905055508360106000600d54815260200190815260200160002081816117c391906140c4565b905050600f60003373ffffffffffffffffffffffffffffffffffffffff1673ffffffffffffffffffffffffffffffffffffffff1681526020019081526020016000208480602001906118159190613d2b565b9091806001815401808255809150506001900390600052602060002001600090919290919290919290919250918261184e929190613f3b565b50600160118580602001906118639190613d2b565b6040516118719291906146a9565b908152602001604051809103902060006101000a81548160ff0219169083151502179055506118a233600d546124c2565b600e60003373ffffffffffffffffffffffffffffffffffffffff1673ffffffffffffffffffffffffffffffffffffffff168152602001908152602001600020600d5490806001815401808255809150506001900390600052602060002001600090919091909150557f68d89ba37b6b8d0b7cb139771c573485dd925fbb3007cfb62cb832bc2a24850a846040516119399190614806565b60405180910390a150505050565b6000600660008473ffffffffffffffffffffffffffffffffffffffff1673ffffffffffffffffffffffffffffffffffffffff16815260200190815260200160002060008373ffffffffffffffffffffffffffffffffffffffff1673ffffffffffffffffffffffffffffffffffffffff16815260200190815260200160002060009054906101000a900460ff16905092915050565b6119e3611fda565b600073ffffffffffffffffffffffffffffffffffffffff168173ffffffffffffffffffffffffffffffffffffffff1603611a52576040517f08c379a0000000000000000000000000000000000000000000000000000000008152600401611a499061489a565b60405180910390fd5b611a5b81612095565b50565b60007f80ac58cd000000000000000000000000000000000000000000000000000000007bffffffffffffffffffffffffffffffffffffffffffffffffffffffff1916827bffffffffffffffffffffffffffffffffffffffffffffffffffffffff19161480611b2957507f5b5e139f000000000000000000000000000000000000000000000000000000007bffffffffffffffffffffffffffffffffffffffffffffffffffffffff1916827bffffffffffffffffffffffffffffffffffffffffffffffffffffffff1916145b80611b395750611b38826124e0565b5b9050919050565b611b4981612321565b611b88576040517f08c379a0000000000000000000000000000000000000000000000000000000008152600401611b7f90614412565b60405180910390fd5b50565b600033905090565b816005600083815260200190815260200160002060006101000a81548173ffffffffffffffffffffffffffffffffffffffff021916908373ffffffffffffffffffffffffffffffffffffffff160217905550808273ffffffffffffffffffffffffffffffffffffffff16611c0683610bd6565b73ffffffffffffffffffffffffffffffffffffffff167f8c5be1e5ebec7d5bd14f71427d1e84f3dd0314c0f7b2291e5b200ac8c7c3b92560405160405180910390a45050565b600080611c5883610bd6565b90508073ffffffffffffffffffffffffffffffffffffffff168473ffffffffffffffffffffffffffffffffffffffff161480611c9a5750611c998185611947565b5b80611cd857508373ffffffffffffffffffffffffffffffffffffffff16611cc0846107cb565b73ffffffffffffffffffffffffffffffffffffffff16145b91505092915050565b8273ffffffffffffffffffffffffffffffffffffffff16611d0182610bd6565b73ffffffffffffffffffffffffffffffffffffffff1614611d57576040517f08c379a0000000000000000000000000000000000000000000000000000000008152600401611d4e9061492c565b60405180910390fd5b600073ffffffffffffffffffffffffffffffffffffffff168273ffffffffffffffffffffffffffffffffffffffff1603611dc6576040517f08c379a0000000000000000000000000000000000000000000000000000000008152600401611dbd906149be565b60405180910390fd5b611dd3838383600161254a565b8273ffffffffffffffffffffffffffffffffffffffff16611df382610bd6565b73ffffffffffffffffffffffffffffffffffffffff1614611e49576040517f08c379a0000000000000000000000000000000000000000000000000000000008152600401611e409061492c565b60405180910390fd5b6005600082815260200190815260200160002060006101000a81549073ffffffffffffffffffffffffffffffffffffffff02191690556001600460008573ffffffffffffffffffffffffffffffffffffffff1673ffffffffffffffffffffffffffffffffffffffff168152602001908152602001600020600082825403925050819055506001600460008473ffffffffffffffffffffffffffffffffffffffff1673ffffffffffffffffffffffffffffffffffffffff16815260200190815260200160002060008282540192505081905550816003600083815260200190815260200160002060006101000a81548173ffffffffffffffffffffffffffffffffffffffff021916908373ffffffffffffffffffffffffffffffffffffffff160217905550808273ffffffffffffffffffffffffffffffffffffffff168473ffffffffffffffffffffffffffffffffffffffff167fddf252ad1be2c89b69c2b068fc378daa952ba7f163c4a11628f55a4df523b3ef60405160405180910390a4611fd583838360016126a8565b505050565b611fe2611b8b565b73ffffffffffffffffffffffffffffffffffffffff16612000610e3f565b73ffffffffffffffffffffffffffffffffffffffff1614612056576040517f08c379a000000000000000000000000000000000000000000000000000000000815260040161204d90614a2a565b60405180910390fd5b565b60006003600083815260200190815260200160002060009054906101000a900473ffffffffffffffffffffffffffffffffffffffff169050919050565b60008060009054906101000a900473ffffffffffffffffffffffffffffffffffffffff169050816000806101000a81548173ffffffffffffffffffffffffffffffffffffffff021916908373ffffffffffffffffffffffffffffffffffffffff1602179055508173ffffffffffffffffffffffffffffffffffffffff168173ffffffffffffffffffffffffffffffffffffffff167f8be0079c531659141344cd1fd0a4f28419497f9722a3daafe3b4186f6b6457e060405160405180910390a35050565b8173ffffffffffffffffffffffffffffffffffffffff168373ffffffffffffffffffffffffffffffffffffffff16036121c7576040517f08c379a00000000000000000000000000000000000000000000000000000000081526004016121be90614a96565b60405180910390fd5b80600660008573ffffffffffffffffffffffffffffffffffffffff1673ffffffffffffffffffffffffffffffffffffffff16815260200190815260200160002060008473ffffffffffffffffffffffffffffffffffffffff1673ffffffffffffffffffffffffffffffffffffffff16815260200190815260200160002060006101000a81548160ff0219169083151502179055508173ffffffffffffffffffffffffffffffffffffffff168373ffffffffffffffffffffffffffffffffffffffff167f17307eab39ab6107e8899845ad3d59bd9653f200f220920489ca2b5937696c31836040516122b89190613028565b60405180910390a3505050565b6122d0848484611ce1565b6122dc848484846126ae565b61231b576040517f08c379a000000000000000000000000000000000000000000000000000000000815260040161231290614b28565b60405180910390fd5b50505050565b60008073ffffffffffffffffffffffffffffffffffffffff1661234383612058565b73ffffffffffffffffffffffffffffffffffffffff1614159050919050565b6060600b805461237190613a5f565b80601f016020809104026020016040519081016040528092919081815260200182805461239d90613a5f565b80156123ea5780601f106123bf576101008083540402835291602001916123ea565b820191906000526020600020905b8154815290600101906020018083116123cd57829003601f168201915b5050505050905090565b60606000600161240384612835565b01905060008167ffffffffffffffff811115612422576124216137f9565b5b6040519080825280601f01601f1916602001820160405280156124545781602001600182028036833780820191505090505b509050600082602001820190505b6001156124b7578080600190039150507f3031323334353637383961626364656600000000000000000000000000000000600a86061a8153600a85816124ab576124aa614b48565b5b04945060008503612462575b819350505050919050565b6124dc828260405180602001604052806000815250612988565b5050565b60007f01ffc9a7000000000000000000000000000000000000000000000000000000007bffffffffffffffffffffffffffffffffffffffffffffffffffffffff1916827bffffffffffffffffffffffffffffffffffffffffffffffffffffffff1916149050919050565b612556848484846129e3565b600181111561259a576040517f08c379a000000000000000000000000000000000000000000000000000000000815260040161259190614be9565b60405180910390fd5b6000829050600073ffffffffffffffffffffffffffffffffffffffff168573ffffffffffffffffffffffffffffffffffffffff16036125e1576125dc816129e9565b612620565b8373ffffffffffffffffffffffffffffffffffffffff168573ffffffffffffffffffffffffffffffffffffffff161461261f5761261e8582612a32565b5b5b600073ffffffffffffffffffffffffffffffffffffffff168473ffffffffffffffffffffffffffffffffffffffff16036126625761265d81612b9f565b6126a1565b8473ffffffffffffffffffffffffffffffffffffffff168473ffffffffffffffffffffffffffffffffffffffff16146126a05761269f8482612c70565b5b5b5050505050565b50505050565b60006126cf8473ffffffffffffffffffffffffffffffffffffffff16612cef565b15612828578373ffffffffffffffffffffffffffffffffffffffff1663150b7a026126f8611b8b565b8786866040518563ffffffff1660e01b815260040161271a9493929190614c5e565b6020604051808303816000875af192505050801561275657506040513d601f19601f820116820180604052508101906127539190614cbf565b60015b6127d8573d8060008114612786576040519150601f19603f3d011682016040523d82523d6000602084013e61278b565b606091505b5060008151036127d0576040517f08c379a00000000000000000000000000000000000000000000000000000000081526004016127c790614b28565b60405180910390fd5b805181602001fd5b63150b7a0260e01b7bffffffffffffffffffffffffffffffffffffffffffffffffffffffff1916817bffffffffffffffffffffffffffffffffffffffffffffffffffffffff19161491505061282d565b600190505b949350505050565b600080600090507a184f03e93ff9f4daa797ed6e38ed64bf6a1f0100000000000000008310612893577a184f03e93ff9f4daa797ed6e38ed64bf6a1f010000000000000000838161288957612888614b48565b5b0492506040810190505b6d04ee2d6d415b85acef810000000083106128d0576d04ee2d6d415b85acef810000000083816128c6576128c5614b48565b5b0492506020810190505b662386f26fc1000083106128ff57662386f26fc1000083816128f5576128f4614b48565b5b0492506010810190505b6305f5e1008310612928576305f5e100838161291e5761291d614b48565b5b0492506008810190505b612710831061294d57612710838161294357612942614b48565b5b0492506004810190505b60648310612970576064838161296657612965614b48565b5b0492506002810190505b600a831061297f576001810190505b80915050919050565b6129928383612d12565b61299f60008484846126ae565b6129de576040517f08c379a00000000000000000000000000000000000000000000000000000000081526004016129d590614b28565b60405180910390fd5b505050565b50505050565b600980549050600a600083815260200190815260200160002081905550600981908060018154018082558091505060019003906000526020600020016000909190919091505550565b60006001612a3f84610c5c565b612a499190614cec565b9050600060086000848152602001908152602001600020549050818114612b2e576000600760008673ffffffffffffffffffffffffffffffffffffffff1673ffffffffffffffffffffffffffffffffffffffff168152602001908152602001600020600084815260200190815260200160002054905080600760008773ffffffffffffffffffffffffffffffffffffffff1673ffffffffffffffffffffffffffffffffffffffff168152602001908152602001600020600084815260200190815260200160002081905550816008600083815260200190815260200160002081905550505b6008600084815260200190815260200160002060009055600760008573ffffffffffffffffffffffffffffffffffffffff1673ffffffffffffffffffffffffffffffffffffffff16815260200190815260200160002060008381526020019081526020016000206000905550505050565b60006001600980549050612bb39190614cec565b90506000600a6000848152602001908152602001600020549050600060098381548110612be357612be2614397565b5b906000526020600020015490508060098381548110612c0557612c04614397565b5b906000526020600020018190555081600a600083815260200190815260200160002081905550600a6000858152602001908152602001600020600090556009805480612c5457612c53614d20565b5b6001900381819060005260206000200160009055905550505050565b6000612c7b83610c5c565b905081600760008573ffffffffffffffffffffffffffffffffffffffff1673ffffffffffffffffffffffffffffffffffffffff168152602001908152602001600020600083815260200190815260200160002081905550806008600084815260200190815260200160002081905550505050565b6000808273ffffffffffffffffffffffffffffffffffffffff163b119050919050565b600073ffffffffffffffffffffffffffffffffffffffff168273ffffffffffffffffffffffffffffffffffffffff1603612d81576040517f08c379a0000000000000000000000000000000000000000000000000000000008152600401612d7890614d9b565b60405180910390fd5b612d8a81612321565b15612dca576040517f08c379a0000000000000000000000000000000000000000000000000000000008152600401612dc190614e07565b60405180910390fd5b612dd860008383600161254a565b612de181612321565b15612e21576040517f08c379a0000000000000000000000000000000000000000000000000000000008152600401612e1890614e07565b60405180910390fd5b6001600460008473ffffffffffffffffffffffffffffffffffffffff1673ffffffffffffffffffffffffffffffffffffffff16815260200190815260200160002060008282540192505081905550816003600083815260200190815260200160002060006101000a81548173ffffffffffffffffffffffffffffffffffffffff021916908373ffffffffffffffffffffffffffffffffffffffff160217905550808273ffffffffffffffffffffffffffffffffffffffff16600073ffffffffffffffffffffffffffffffffffffffff167fddf252ad1be2c89b69c2b068fc378daa952ba7f163c4a11628f55a4df523b3ef60405160405180910390a4612f2b6000838360016126a8565b5050565b6040518060a00160405280600073ffffffffffffffffffffffffffffffffffffffff168152602001606081526020016060815260200160608152602001606081525090565b6000604051905090565b600080fd5b600080fd5b60007fffffffff0000000000000000000000000000000000000000000000000000000082169050919050565b612fbd81612f88565b8114612fc857600080fd5b50565b600081359050612fda81612fb4565b92915050565b600060208284031215612ff657612ff5612f7e565b5b600061300484828501612fcb565b91505092915050565b60008115159050919050565b6130228161300d565b82525050565b600060208201905061303d6000830184613019565b92915050565b600081519050919050565b600082825260208201905092915050565b60005b8381101561307d578082015181840152602081019050613062565b60008484015250505050565b6000601f19601f8301169050919050565b60006130a582613043565b6130af818561304e565b93506130bf81856020860161305f565b6130c881613089565b840191505092915050565b600060208201905081810360008301526130ed818461309a565b905092915050565b6000819050919050565b613108816130f5565b811461311357600080fd5b50565b600081359050613125816130ff565b92915050565b60006020828403121561314157613140612f7e565b5b600061314f84828501613116565b91505092915050565b600073ffffffffffffffffffffffffffffffffffffffff82169050919050565b600061318382613158565b9050919050565b61319381613178565b82525050565b60006020820190506131ae600083018461318a565b92915050565b6131bd816130f5565b82525050565b60006020820190506131d860008301846131b4565b92915050565b6131e781613178565b81146131f257600080fd5b50565b600081359050613204816131de565b92915050565b6000806040838503121561322157613220612f7e565b5b600061322f858286016131f5565b925050602061324085828601613116565b9150509250929050565b60008060006060848603121561326357613262612f7e565b5b6000613271868287016131f5565b9350506020613282868287016131f5565b925050604061329386828701613116565b9150509250925092565b600080fd5b600060a082840312156132b8576132b761329d565b5b81905092915050565b600080604083850312156132d8576132d7612f7e565b5b60006132e685828601613116565b925050602083013567ffffffffffffffff81111561330757613306612f83565b5b613313858286016132a2565b9150509250929050565b60006020828403121561333357613332612f7e565b5b6000613341848285016131f5565b91505092915050565b600081519050919050565b600082825260208201905092915050565b6000819050602082019050919050565b61337f816130f5565b82525050565b60006133918383613376565b60208301905092915050565b6000602082019050919050565b60006133b58261334a565b6133bf8185613355565b93506133ca83613366565b8060005b838110156133fb5781516133e28882613385565b97506133ed8361339d565b9250506001810190506133ce565b5085935050505092915050565b6000602082019050818103600083015261342281846133aa565b905092915050565b600081519050919050565b600082825260208201905092915050565b6000819050602082019050919050565b600082825260208201905092915050565b600061347282613043565b61347c8185613456565b935061348c81856020860161305f565b61349581613089565b840191505092915050565b60006134ac8383613467565b905092915050565b6000602082019050919050565b60006134cc8261342a565b6134d68185613435565b9350836020820285016134e885613446565b8060005b85811015613524578484038952815161350585826134a0565b9450613510836134b4565b925060208a019950506001810190506134ec565b50829750879550505050505092915050565b6000602082019050818103600083015261355081846134c1565b905092915050565b61356181613178565b82525050565b600060a08301600083015161357f6000860182613558565b50602083015184820360208601526135978282613467565b915050604083015184820360408601526135b18282613467565b915050606083015184820360608601526135cb8282613467565b915050608083015184820360808601526135e58282613467565b9150508091505092915050565b6000602082019050818103600083015261360c8184613567565b905092915050565b61361d8161300d565b811461362857600080fd5b50565b60008135905061363a81613614565b92915050565b6000806040838503121561365757613656612f7e565b5b6000613665858286016131f5565b92505060206136768582860161362b565b9150509250929050565b600081519050919050565b600082825260208201905092915050565b6000819050602082019050919050565b600060a0830160008301516136c46000860182613558565b50602083015184820360208601526136dc8282613467565b915050604083015184820360408601526136f68282613467565b915050606083015184820360608601526137108282613467565b9150506080830151848203608086015261372a8282613467565b9150508091505092915050565b600061374383836136ac565b905092915050565b6000602082019050919050565b600061376382613680565b61376d818561368b565b93508360208202850161377f8561369c565b8060005b858110156137bb578484038952815161379c8582613737565b94506137a78361374b565b925060208a01995050600181019050613783565b50829750879550505050505092915050565b600060208201905081810360008301526137e78184613758565b905092915050565b600080fd5b600080fd5b7f4e487b7100000000000000000000000000000000000000000000000000000000600052604160045260246000fd5b61383182613089565b810181811067ffffffffffffffff821117156138505761384f6137f9565b5b80604052505050565b6000613863612f74565b905061386f8282613828565b919050565b600067ffffffffffffffff82111561388f5761388e6137f9565b5b61389882613089565b9050602081019050919050565b82818337600083830152505050565b60006138c76138c284613874565b613859565b9050828152602081018484840111156138e3576138e26137f4565b5b6138ee8482856138a5565b509392505050565b600082601f83011261390b5761390a6137ef565b5b813561391b8482602086016138b4565b91505092915050565b6000806000806080858703121561393e5761393d612f7e565b5b600061394c878288016131f5565b945050602061395d878288016131f5565b935050604061396e87828801613116565b925050606085013567ffffffffffffffff81111561398f5761398e612f83565b5b61399b878288016138f6565b91505092959194509250565b6000602082840312156139bd576139bc612f7e565b5b600082013567ffffffffffffffff8111156139db576139da612f83565b5b6139e7848285016132a2565b91505092915050565b60008060408385031215613a0757613a06612f7e565b5b6000613a15858286016131f5565b9250506020613a26858286016131f5565b9150509250929050565b7f4e487b7100000000000000000000000000000000000000000000000000000000600052602260045260246000fd5b60006002820490506001821680613a7757607f821691505b602082108103613a8a57613a89613a30565b5b50919050565b7f4552433732313a20617070726f76616c20746f2063757272656e74206f776e6560008201527f7200000000000000000000000000000000000000000000000000000000000000602082015250565b6000613aec60218361304e565b9150613af782613a90565b604082019050919050565b60006020820190508181036000830152613b1b81613adf565b9050919050565b7f4552433732313a20617070726f76652063616c6c6572206973206e6f7420746f60008201527f6b656e206f776e6572206f7220617070726f76656420666f7220616c6c000000602082015250565b6000613b7e603d8361304e565b9150613b8982613b22565b604082019050919050565b60006020820190508181036000830152613bad81613b71565b9050919050565b7f4552433732313a2063616c6c6572206973206e6f7420746f6b656e206f776e6560008201527f72206f7220617070726f76656400000000000000000000000000000000000000602082015250565b6000613c10602d8361304e565b9150613c1b82613bb4565b604082019050919050565b60006020820190508181036000830152613c3f81613c03565b9050919050565b60008135613c53816131de565b80915050919050565b60008160001b9050919050565b600073ffffffffffffffffffffffffffffffffffffffff613c8984613c5c565b9350801983169250808416831791505092915050565b6000819050919050565b6000613cc4613cbf613cba84613158565b613c9f565b613158565b9050919050565b6000613cd682613ca9565b9050919050565b6000613ce882613ccb565b9050919050565b6000819050919050565b613d0282613cdd565b613d15613d0e82613cef565b8354613c69565b8255505050565b600080fd5b600080fd5b600080fd5b60008083356001602003843603038112613d4857613d47613d1c565b5b80840192508235915067ffffffffffffffff821115613d6a57613d69613d21565b5b602083019250600182023603831315613d8657613d85613d26565b5b509250929050565b600082905092915050565b60008190508160005260206000209050919050565b60006020601f8301049050919050565b600082821b905092915050565b600060088302613dfb7fffffffffffffffffffffffffffffffffffffffffffffffffffffffffffffffff82613dbe565b613e058683613dbe565b95508019841693508086168417925050509392505050565b6000613e38613e33613e2e846130f5565b613c9f565b6130f5565b9050919050565b6000819050919050565b613e5283613e1d565b613e66613e5e82613e3f565b848454613dcb565b825550505050565b600090565b613e7b613e6e565b613e86818484613e49565b505050565b5b81811015613eaa57613e9f600082613e73565b600181019050613e8c565b5050565b601f821115613eef57613ec081613d99565b613ec984613dae565b81016020851015613ed8578190505b613eec613ee485613dae565b830182613e8b565b50505b505050565b600082821c905092915050565b6000613f1260001984600802613ef4565b1980831691505092915050565b6000613f2b8383613f01565b9150826002028217905092915050565b613f458383613d8e565b67ffffffffffffffff811115613f5e57613f5d6137f9565b5b613f688254613a5f565b613f73828285613eae565b6000601f831160018114613fa25760008415613f90578287013590505b613f9a8582613f1f565b865550614002565b601f198416613fb086613d99565b60005b82811015613fd857848901358255600182019150602085019450602081019050613fb3565b86831015613ff55784890135613ff1601f891682613f01565b8355505b6001600288020188555050505b50505050505050565b614016838383613f3b565b505050565b60008101600083018061402d81613c46565b90506140398184613cf9565b505050600181016020830161404e8185613d2b565b61405981838661400b565b50505050600281016040830161406f8185613d2b565b61407a81838661400b565b5050505060038101606083016140908185613d2b565b61409b81838661400b565b5050505060048101608083016140b18185613d2b565b6140bc81838661400b565b505050505050565b6140ce828261401b565b5050565b60006140e160208401846131f5565b905092915050565b600080fd5b600080fd5b600080fd5b60008083356001602003843603038112614115576141146140f3565b5b83810192508235915060208301925067ffffffffffffffff82111561413d5761413c6140e9565b5b600182023603831315614153576141526140ee565b5b509250929050565b60006141678385613456565b93506141748385846138a5565b61417d83613089565b840190509392505050565b600060a0830161419b60008401846140d2565b6141a86000860182613558565b506141b660208401846140f8565b85830360208701526141c983828461415b565b925050506141da60408401846140f8565b85830360408701526141ed83828461415b565b925050506141fe60608401846140f8565b858303606087015261421183828461415b565b9250505061422260808401846140f8565b858303608087015261423583828461415b565b925050508091505092915050565b600060408201905061425860008301856131b4565b818103602083015261426a8184614188565b90509392505050565b7f455243373231456e756d657261626c653a206f776e657220696e646578206f7560008201527f74206f6620626f756e6473000000000000000000000000000000000000000000602082015250565b60006142cf602b8361304e565b91506142da82614273565b604082019050919050565b600060208201905081810360008301526142fe816142c2565b9050919050565b7f455243373231456e756d657261626c653a20676c6f62616c20696e646578206f60008201527f7574206f6620626f756e64730000000000000000000000000000000000000000602082015250565b6000614361602c8361304e565b915061436c82614305565b604082019050919050565b6000602082019050818103600083015261439081614354565b9050919050565b7f4e487b7100000000000000000000000000000000000000000000000000000000600052603260045260246000fd5b7f4552433732313a20696e76616c696420746f6b656e2049440000000000000000600082015250565b60006143fc60188361304e565b9150614407826143c6565b602082019050919050565b6000602082019050818103600083015261442b816143ef565b9050919050565b7f4552433732313a2061646472657373207a65726f206973206e6f74206120766160008201527f6c6964206f776e65720000000000000000000000000000000000000000000000602082015250565b600061448e60298361304e565b915061449982614432565b604082019050919050565b600060208201905081810360008301526144bd81614481565b9050919050565b7f4e487b7100000000000000000000000000000000000000000000000000000000600052601160045260246000fd5b60006144fe826130f5565b91507fffffffffffffffffffffffffffffffffffffffffffffffffffffffffffffffff82036145305761452f6144c4565b5b600182019050919050565b7f4552433732314d657461646174613a2055524920717565727920666f72206e6f60008201527f6e6578697374656e7420746f6b656e0000000000000000000000000000000000602082015250565b6000614597602f8361304e565b91506145a28261453b565b604082019050919050565b600060208201905081810360008301526145c68161458a565b9050919050565b600081905092915050565b60006145e382613043565b6145ed81856145cd565b93506145fd81856020860161305f565b80840191505092915050565b7f2e6a736f6e000000000000000000000000000000000000000000000000000000600082015250565b600061463f6005836145cd565b915061464a82614609565b600582019050919050565b600061466182856145d8565b915061466d82846145d8565b915061467882614632565b91508190509392505050565b600061469083856145cd565b935061469d8385846138a5565b82840190509392505050565b60006146b6828486614684565b91508190509392505050565b7f48616e646c6520616c7265616479206578697374730000000000000000000000600082015250565b60006146f860158361304e565b9150614703826146c2565b602082019050919050565b60006020820190508181036000830152614727816146eb565b9050919050565b7f4f776e657220646966666572656e742066726f6d206d73672e73656e64657200600082015250565b6000614764601f8361304e565b915061476f8261472e565b602082019050919050565b6000602082019050818103600083015261479381614757565b9050919050565b7f45746865722073656e74206973206e6f7420636f727265637400000000000000600082015250565b60006147d060198361304e565b91506147db8261479a565b602082019050919050565b600060208201905081810360008301526147ff816147c3565b9050919050565b600060208201905081810360008301526148208184614188565b905092915050565b7f4f776e61626c653a206e6577206f776e657220697320746865207a65726f206160008201527f6464726573730000000000000000000000000000000000000000000000000000602082015250565b600061488460268361304e565b915061488f82614828565b604082019050919050565b600060208201905081810360008301526148b381614877565b9050919050565b7f4552433732313a207472616e736665722066726f6d20696e636f72726563742060008201527f6f776e6572000000000000000000000000000000000000000000000000000000602082015250565b600061491660258361304e565b9150614921826148ba565b604082019050919050565b6000602082019050818103600083015261494581614909565b9050919050565b7f4552433732313a207472616e7366657220746f20746865207a65726f2061646460008201527f7265737300000000000000000000000000000000000000000000000000000000602082015250565b60006149a860248361304e565b91506149b38261494c565b604082019050919050565b600060208201905081810360008301526149d78161499b565b9050919050565b7f4f776e61626c653a2063616c6c6572206973206e6f7420746865206f776e6572600082015250565b6000614a1460208361304e565b9150614a1f826149de565b602082019050919050565b60006020820190508181036000830152614a4381614a07565b9050919050565b7f4552433732313a20617070726f766520746f2063616c6c657200000000000000600082015250565b6000614a8060198361304e565b9150614a8b82614a4a565b602082019050919050565b60006020820190508181036000830152614aaf81614a73565b9050919050565b7f4552433732313a207472616e7366657220746f206e6f6e20455243373231526560008201527f63656976657220696d706c656d656e7465720000000000000000000000000000602082015250565b6000614b1260328361304e565b9150614b1d82614ab6565b604082019050919050565b60006020820190508181036000830152614b4181614b05565b9050919050565b7f4e487b7100000000000000000000000000000000000000000000000000000000600052601260045260246000fd5b7f455243373231456e756d657261626c653a20636f6e736563757469766520747260008201527f616e7366657273206e6f7420737570706f727465640000000000000000000000602082015250565b6000614bd360358361304e565b9150614bde82614b77565b604082019050919050565b60006020820190508181036000830152614c0281614bc6565b9050919050565b600081519050919050565b600082825260208201905092915050565b6000614c3082614c09565b614c3a8185614c14565b9350614c4a81856020860161305f565b614c5381613089565b840191505092915050565b6000608082019050614c73600083018761318a565b614c80602083018661318a565b614c8d60408301856131b4565b8181036060830152614c9f8184614c25565b905095945050505050565b600081519050614cb981612fb4565b92915050565b600060208284031215614cd557614cd4612f7e565b5b6000614ce384828501614caa565b91505092915050565b6000614cf7826130f5565b9150614d02836130f5565b9250828203905081811115614d1a57614d196144c4565b5b92915050565b7f4e487b7100000000000000000000000000000000000000000000000000000000600052603160045260246000fd5b7f4552433732313a206d696e7420746f20746865207a65726f2061646472657373600082015250565b6000614d8560208361304e565b9150614d9082614d4f565b602082019050919050565b60006020820190508181036000830152614db481614d78565b9050919050565b7f4552433732313a20746f6b656e20616c7265616479206d696e74656400000000600082015250565b6000614df1601c8361304e565b9150614dfc82614dbb565b602082019050919050565b60006020820190508181036000830152614e2081614de4565b905091905056fea26469706673582212206fe0943fbf149253b7864efdb9943874abaae4ec0c2d2726c3384e7a04ae6b4e64736f6c63430008130033","opcodes":"PUSH1 0x80 PUSH1 0x40 MSTORE PUSH7 0x2386F26FC10000 PUSH1 0xC SSTORE CALLVALUE DUP1 ISZERO PUSH3 0x1C JUMPI PUSH1 0x0 DUP1 REVERT JUMPDEST POP PUSH1 0x40 MLOAD PUSH3 0x555C CODESIZE SUB DUP1 PUSH3 0x555C DUP4 CODECOPY DUP2 DUP2 ADD PUSH1 0x40 MSTORE DUP2 ADD SWAP1 PUSH3 0x42 SWAP2 SWAP1 PUSH3 0x36C JUMP JUMPDEST PUSH1 0x40 MLOAD DUP1 PUSH1 0x40 ADD PUSH1 0x40 MSTORE DUP1 PUSH1 0xA DUP2 MSTORE PUSH1 0x20 ADD PUSH32 0x536F6369616C5765623300000000000000000000000000000000000000000000 DUP2 MSTORE POP PUSH1 0x40 MLOAD DUP1 PUSH1 0x40 ADD PUSH1 0x40 MSTORE DUP1 PUSH1 0x3 DUP2 MSTORE PUSH1 0x20 ADD PUSH32 0x5357330000000000000000000000000000000000000000000000000000000000 DUP2 MSTORE POP PUSH3 0xCE PUSH3 0xC2 PUSH3 0x10D PUSH1 0x20 SHL PUSH1 0x20 SHR JUMP JUMPDEST PUSH3 0x115 PUSH1 0x20 SHL PUSH1 0x20 SHR JUMP JUMPDEST DUP2 PUSH1 0x1 SWAP1 DUP2 PUSH3 0xDF SWAP2 SWAP1 PUSH3 0x608 JUMP JUMPDEST POP DUP1 PUSH1 0x2 SWAP1 DUP2 PUSH3 0xF1 SWAP2 SWAP1 PUSH3 0x608 JUMP JUMPDEST POP POP POP DUP1 PUSH1 0xB SWAP1 DUP2 PUSH3 0x105 SWAP2 SWAP1 PUSH3 0x608 JUMP JUMPDEST POP POP PUSH3 0x6EF JUMP JUMPDEST PUSH1 0x0 CALLER SWAP1 POP SWAP1 JUMP JUMPDEST PUSH1 0x0 DUP1 PUSH1 0x0 SWAP1 SLOAD SWAP1 PUSH2 0x100 EXP SWAP1 DIV PUSH20 0xFFFFFFFFFFFFFFFFFFFFFFFFFFFFFFFFFFFFFFFF AND SWAP1 POP DUP2 PUSH1 0x0 DUP1 PUSH2 0x100 EXP DUP2 SLOAD DUP2 PUSH20 0xFFFFFFFFFFFFFFFFFFFFFFFFFFFFFFFFFFFFFFFF MUL NOT AND SWAP1 DUP4 PUSH20 0xFFFFFFFFFFFFFFFFFFFFFFFFFFFFFFFFFFFFFFFF AND MUL OR SWAP1 SSTORE POP DUP2 PUSH20 0xFFFFFFFFFFFFFFFFFFFFFFFFFFFFFFFFFFFFFFFF AND DUP2 PUSH20 0xFFFFFFFFFFFFFFFFFFFFFFFFFFFFFFFFFFFFFFFF AND PUSH32 0x8BE0079C531659141344CD1FD0A4F28419497F9722A3DAAFE3B4186F6B6457E0 PUSH1 0x40 MLOAD PUSH1 0x40 MLOAD DUP1 SWAP2 SUB SWAP1 LOG3 POP POP JUMP JUMPDEST PUSH1 0x0 PUSH1 0x40 MLOAD SWAP1 POP SWAP1 JUMP JUMPDEST PUSH1 0x0 DUP1 REVERT JUMPDEST PUSH1 0x0 DUP1 REVERT JUMPDEST PUSH1 0x0 DUP1 REVERT JUMPDEST PUSH1 0x0 DUP1 REVERT JUMPDEST PUSH1 0x0 PUSH1 0x1F NOT PUSH1 0x1F DUP4 ADD AND SWAP1 POP SWAP2 SWAP1 POP JUMP JUMPDEST PUSH32 0x4E487B7100000000000000000000000000000000000000000000000000000000 PUSH1 0x0 MSTORE PUSH1 0x41 PUSH1 0x4 MSTORE PUSH1 0x24 PUSH1 0x0 REVERT JUMPDEST PUSH3 0x242 DUP3 PUSH3 0x1F7 JUMP JUMPDEST DUP2 ADD DUP2 DUP2 LT PUSH8 0xFFFFFFFFFFFFFFFF DUP3 GT OR ISZERO PUSH3 0x264 JUMPI PUSH3 0x263 PUSH3 0x208 JUMP JUMPDEST JUMPDEST DUP1 PUSH1 0x40 MSTORE POP POP POP JUMP JUMPDEST PUSH1 0x0 PUSH3 0x279 PUSH3 0x1D9 JUMP JUMPDEST SWAP1 POP PUSH3 0x287 DUP3 DUP3 PUSH3 0x237 JUMP JUMPDEST SWAP2 SWAP1 POP JUMP JUMPDEST PUSH1 0x0 PUSH8 0xFFFFFFFFFFFFFFFF DUP3 GT ISZERO PUSH3 0x2AA JUMPI PUSH3 0x2A9 PUSH3 0x208 JUMP JUMPDEST JUMPDEST PUSH3 0x2B5 DUP3 PUSH3 0x1F7 JUMP JUMPDEST SWAP1 POP PUSH1 0x20 DUP2 ADD SWAP1 POP SWAP2 SWAP1 POP JUMP JUMPDEST PUSH1 0x0 JUMPDEST DUP4 DUP2 LT ISZERO PUSH3 0x2E2 JUMPI DUP1 DUP3 ADD MLOAD DUP2 DUP5 ADD MSTORE PUSH1 0x20 DUP2 ADD SWAP1 POP PUSH3 0x2C5 JUMP JUMPDEST PUSH1 0x0 DUP5 DUP5 ADD MSTORE POP POP POP POP JUMP JUMPDEST PUSH1 0x0 PUSH3 0x305 PUSH3 0x2FF DUP5 PUSH3 0x28C JUMP JUMPDEST PUSH3 0x26D JUMP JUMPDEST SWAP1 POP DUP3 DUP2 MSTORE PUSH1 0x20 DUP2 ADD DUP5 DUP5 DUP5 ADD GT ISZERO PUSH3 0x324 JUMPI PUSH3 0x323 PUSH3 0x1F2 JUMP JUMPDEST JUMPDEST PUSH3 0x331 DUP5 DUP3 DUP6 PUSH3 0x2C2 JUMP JUMPDEST POP SWAP4 SWAP3 POP POP POP JUMP JUMPDEST PUSH1 0x0 DUP3 PUSH1 0x1F DUP4 ADD SLT PUSH3 0x351 JUMPI PUSH3 0x350 PUSH3 0x1ED JUMP JUMPDEST JUMPDEST DUP2 MLOAD PUSH3 0x363 DUP5 DUP3 PUSH1 0x20 DUP7 ADD PUSH3 0x2EE JUMP JUMPDEST SWAP2 POP POP SWAP3 SWAP2 POP POP JUMP JUMPDEST PUSH1 0x0 PUSH1 0x20 DUP3 DUP5 SUB SLT ISZERO PUSH3 0x385 JUMPI PUSH3 0x384 PUSH3 0x1E3 JUMP JUMPDEST JUMPDEST PUSH1 0x0 DUP3 ADD MLOAD PUSH8 0xFFFFFFFFFFFFFFFF DUP2 GT ISZERO PUSH3 0x3A6 JUMPI PUSH3 0x3A5 PUSH3 0x1E8 JUMP JUMPDEST JUMPDEST PUSH3 0x3B4 DUP5 DUP3 DUP6 ADD PUSH3 0x339 JUMP JUMPDEST SWAP2 POP POP SWAP3 SWAP2 POP POP JUMP JUMPDEST PUSH1 0x0 DUP2 MLOAD SWAP1 POP SWAP2 SWAP1 POP JUMP JUMPDEST PUSH32 0x4E487B7100000000000000000000000000000000000000000000000000000000 PUSH1 0x0 MSTORE PUSH1 0x22 PUSH1 0x4 MSTORE PUSH1 0x24 PUSH1 0x0 REVERT JUMPDEST PUSH1 0x0 PUSH1 0x2 DUP3 DIV SWAP1 POP PUSH1 0x1 DUP3 AND DUP1 PUSH3 0x410 JUMPI PUSH1 0x7F DUP3 AND SWAP2 POP JUMPDEST PUSH1 0x20 DUP3 LT DUP2 SUB PUSH3 0x426 JUMPI PUSH3 0x425 PUSH3 0x3C8 JUMP JUMPDEST JUMPDEST POP SWAP2 SWAP1 POP JUMP JUMPDEST PUSH1 0x0 DUP2 SWAP1 POP DUP2 PUSH1 0x0 MSTORE PUSH1 0x20 PUSH1 0x0 KECCAK256 SWAP1 POP SWAP2 SWAP1 POP JUMP JUMPDEST PUSH1 0x0 PUSH1 0x20 PUSH1 0x1F DUP4 ADD DIV SWAP1 POP SWAP2 SWAP1 POP JUMP JUMPDEST PUSH1 0x0 DUP3 DUP3 SHL SWAP1 POP SWAP3 SWAP2 POP POP JUMP JUMPDEST PUSH1 0x0 PUSH1 0x8 DUP4 MUL PUSH3 0x490 PUSH32 0xFFFFFFFFFFFFFFFFFFFFFFFFFFFFFFFFFFFFFFFFFFFFFFFFFFFFFFFFFFFFFFFF DUP3 PUSH3 0x451 JUMP JUMPDEST PUSH3 0x49C DUP7 DUP4 PUSH3 0x451 JUMP JUMPDEST SWAP6 POP DUP1 NOT DUP5 AND SWAP4 POP DUP1 DUP7 AND DUP5 OR SWAP3 POP POP POP SWAP4 SWAP3 POP POP POP JUMP JUMPDEST PUSH1 0x0 DUP2 SWAP1 POP SWAP2 SWAP1 POP JUMP JUMPDEST PUSH1 0x0 DUP2 SWAP1 POP SWAP2 SWAP1 POP JUMP JUMPDEST PUSH1 0x0 PUSH3 0x4E9 PUSH3 0x4E3 PUSH3 0x4DD DUP5 PUSH3 0x4B4 JUMP JUMPDEST PUSH3 0x4BE JUMP JUMPDEST PUSH3 0x4B4 JUMP JUMPDEST SWAP1 POP SWAP2 SWAP1 POP JUMP JUMPDEST PUSH1 0x0 DUP2 SWAP1 POP SWAP2 SWAP1 POP JUMP JUMPDEST PUSH3 0x505 DUP4 PUSH3 0x4C8 JUMP JUMPDEST PUSH3 0x51D PUSH3 0x514 DUP3 PUSH3 0x4F0 JUMP JUMPDEST DUP5 DUP5 SLOAD PUSH3 0x45E JUMP JUMPDEST DUP3 SSTORE POP POP POP POP JUMP JUMPDEST PUSH1 0x0 SWAP1 JUMP JUMPDEST PUSH3 0x534 PUSH3 0x525 JUMP JUMPDEST PUSH3 0x541 DUP2 DUP5 DUP5 PUSH3 0x4FA JUMP JUMPDEST POP POP POP JUMP JUMPDEST JUMPDEST DUP2 DUP2 LT ISZERO PUSH3 0x569 JUMPI PUSH3 0x55D PUSH1 0x0 DUP3 PUSH3 0x52A JUMP JUMPDEST PUSH1 0x1 DUP2 ADD SWAP1 POP PUSH3 0x547 JUMP JUMPDEST POP POP JUMP JUMPDEST PUSH1 0x1F DUP3 GT ISZERO PUSH3 0x5B8 JUMPI PUSH3 0x582 DUP2 PUSH3 0x42C JUMP JUMPDEST PUSH3 0x58D DUP5 PUSH3 0x441 JUMP JUMPDEST DUP2 ADD PUSH1 0x20 DUP6 LT ISZERO PUSH3 0x59D JUMPI DUP2 SWAP1 POP JUMPDEST PUSH3 0x5B5 PUSH3 0x5AC DUP6 PUSH3 0x441 JUMP JUMPDEST DUP4 ADD DUP3 PUSH3 0x546 JUMP JUMPDEST POP POP JUMPDEST POP POP POP JUMP JUMPDEST PUSH1 0x0 DUP3 DUP3 SHR SWAP1 POP SWAP3 SWAP2 POP POP JUMP JUMPDEST PUSH1 0x0 PUSH3 0x5DD PUSH1 0x0 NOT DUP5 PUSH1 0x8 MUL PUSH3 0x5BD JUMP JUMPDEST NOT DUP1 DUP4 AND SWAP2 POP POP SWAP3 SWAP2 POP POP JUMP JUMPDEST PUSH1 0x0 PUSH3 0x5F8 DUP4 DUP4 PUSH3 0x5CA JUMP JUMPDEST SWAP2 POP DUP3 PUSH1 0x2 MUL DUP3 OR SWAP1 POP SWAP3 SWAP2 POP POP JUMP JUMPDEST PUSH3 0x613 DUP3 PUSH3 0x3BD JUMP JUMPDEST PUSH8 0xFFFFFFFFFFFFFFFF DUP2 GT ISZERO PUSH3 0x62F JUMPI PUSH3 0x62E PUSH3 0x208 JUMP JUMPDEST JUMPDEST PUSH3 0x63B DUP3 SLOAD PUSH3 0x3F7 JUMP JUMPDEST PUSH3 0x648 DUP3 DUP3 DUP6 PUSH3 0x56D JUMP JUMPDEST PUSH1 0x0 PUSH1 0x20 SWAP1 POP PUSH1 0x1F DUP4 GT PUSH1 0x1 DUP2 EQ PUSH3 0x680 JUMPI PUSH1 0x0 DUP5 ISZERO PUSH3 0x66B JUMPI DUP3 DUP8 ADD MLOAD SWAP1 POP JUMPDEST PUSH3 0x677 DUP6 DUP3 PUSH3 0x5EA JUMP JUMPDEST DUP7 SSTORE POP PUSH3 0x6E7 JUMP JUMPDEST PUSH1 0x1F NOT DUP5 AND PUSH3 0x690 DUP7 PUSH3 0x42C JUMP JUMPDEST PUSH1 0x0 JUMPDEST DUP3 DUP2 LT ISZERO PUSH3 0x6BA JUMPI DUP5 DUP10 ADD MLOAD DUP3 SSTORE PUSH1 0x1 DUP3 ADD SWAP2 POP PUSH1 0x20 DUP6 ADD SWAP5 POP PUSH1 0x20 DUP2 ADD SWAP1 POP PUSH3 0x693 JUMP JUMPDEST DUP7 DUP4 LT ISZERO PUSH3 0x6DA JUMPI DUP5 DUP10 ADD MLOAD PUSH3 0x6D6 PUSH1 0x1F DUP10 AND DUP3 PUSH3 0x5CA JUMP JUMPDEST DUP4 SSTORE POP JUMPDEST PUSH1 0x1 PUSH1 0x2 DUP9 MUL ADD DUP9 SSTORE POP POP POP JUMPDEST POP POP POP POP POP POP JUMP JUMPDEST PUSH2 0x4E5D DUP1 PUSH3 0x6FF PUSH1 0x0 CODECOPY PUSH1 0x0 RETURN INVALID PUSH1 0x80 PUSH1 0x40 MSTORE PUSH1 0x4 CALLDATASIZE LT PUSH2 0x19C JUMPI PUSH1 0x0 CALLDATALOAD PUSH1 0xE0 SHR DUP1 PUSH4 0x6352211E GT PUSH2 0xEC JUMPI DUP1 PUSH4 0xA22CB465 GT PUSH2 0x8A JUMPI DUP1 PUSH4 0xC87B56DD GT PUSH2 0x64 JUMPI DUP1 PUSH4 0xC87B56DD EQ PUSH2 0x600 JUMPI DUP1 PUSH4 0xE563F778 EQ PUSH2 0x63D JUMPI DUP1 PUSH4 0xE985E9C5 EQ PUSH2 0x659 JUMPI DUP1 PUSH4 0xF2FDE38B EQ PUSH2 0x696 JUMPI PUSH2 0x19C JUMP JUMPDEST DUP1 PUSH4 0xA22CB465 EQ PUSH2 0x583 JUMPI DUP1 PUSH4 0xAC8B628E EQ PUSH2 0x5AC JUMPI DUP1 PUSH4 0xB88D4FDE EQ PUSH2 0x5D7 JUMPI PUSH2 0x19C JUMP JUMPDEST DUP1 PUSH4 0x80985A87 GT PUSH2 0xC6 JUMPI DUP1 PUSH4 0x80985A87 EQ PUSH2 0x4B3 JUMPI DUP1 PUSH4 0x8DA5CB5B EQ PUSH2 0x4F0 JUMPI DUP1 PUSH4 0x95D89B41 EQ PUSH2 0x51B JUMPI DUP1 PUSH4 0x9B85B1F1 EQ PUSH2 0x546 JUMPI PUSH2 0x19C JUMP JUMPDEST DUP1 PUSH4 0x6352211E EQ PUSH2 0x422 JUMPI DUP1 PUSH4 0x70A08231 EQ PUSH2 0x45F JUMPI DUP1 PUSH4 0x715018A6 EQ PUSH2 0x49C JUMPI PUSH2 0x19C JUMP JUMPDEST DUP1 PUSH4 0x235B6EA1 GT PUSH2 0x159 JUMPI DUP1 PUSH4 0x2F745C59 GT PUSH2 0x133 JUMPI DUP1 PUSH4 0x2F745C59 EQ PUSH2 0x342 JUMPI DUP1 PUSH4 0x42842E0E EQ PUSH2 0x37F JUMPI DUP1 PUSH4 0x4F6CCCE7 EQ PUSH2 0x3A8 JUMPI DUP1 PUSH4 0x5DD4DFF4 EQ PUSH2 0x3E5 JUMPI PUSH2 0x19C JUMP JUMPDEST DUP1 PUSH4 0x235B6EA1 EQ PUSH2 0x2C5 JUMPI DUP1 PUSH4 0x23B872DD EQ PUSH2 0x2F0 JUMPI DUP1 PUSH4 0x2D6D852F EQ PUSH2 0x319 JUMPI PUSH2 0x19C JUMP JUMPDEST DUP1 PUSH4 0x1FFC9A7 EQ PUSH2 0x1A1 JUMPI DUP1 PUSH4 0x6FDDE03 EQ PUSH2 0x1DE JUMPI DUP1 PUSH4 0x81812FC EQ PUSH2 0x209 JUMPI DUP1 PUSH4 0x8386EBA EQ PUSH2 0x246 JUMPI DUP1 PUSH4 0x95EA7B3 EQ PUSH2 0x271 JUMPI DUP1 PUSH4 0x18160DDD EQ PUSH2 0x29A JUMPI JUMPDEST PUSH1 0x0 DUP1 REVERT JUMPDEST CALLVALUE DUP1 ISZERO PUSH2 0x1AD JUMPI PUSH1 0x0 DUP1 REVERT JUMPDEST POP PUSH2 0x1C8 PUSH1 0x4 DUP1 CALLDATASIZE SUB DUP2 ADD SWAP1 PUSH2 0x1C3 SWAP2 SWAP1 PUSH2 0x2FE0 JUMP JUMPDEST PUSH2 0x6BF JUMP JUMPDEST PUSH1 0x40 MLOAD PUSH2 0x1D5 SWAP2 SWAP1 PUSH2 0x3028 JUMP JUMPDEST PUSH1 0x40 MLOAD DUP1 SWAP2 SUB SWAP1 RETURN JUMPDEST CALLVALUE DUP1 ISZERO PUSH2 0x1EA JUMPI PUSH1 0x0 DUP1 REVERT JUMPDEST POP PUSH2 0x1F3 PUSH2 0x739 JUMP JUMPDEST PUSH1 0x40 MLOAD PUSH2 0x200 SWAP2 SWAP1 PUSH2 0x30D3 JUMP JUMPDEST PUSH1 0x40 MLOAD DUP1 SWAP2 SUB SWAP1 RETURN JUMPDEST CALLVALUE DUP1 ISZERO PUSH2 0x215 JUMPI PUSH1 0x0 DUP1 REVERT JUMPDEST POP PUSH2 0x230 PUSH1 0x4 DUP1 CALLDATASIZE SUB DUP2 ADD SWAP1 PUSH2 0x22B SWAP2 SWAP1 PUSH2 0x312B JUMP JUMPDEST PUSH2 0x7CB JUMP JUMPDEST PUSH1 0x40 MLOAD PUSH2 0x23D SWAP2 SWAP1 PUSH2 0x3199 JUMP JUMPDEST PUSH1 0x40 MLOAD DUP1 SWAP2 SUB SWAP1 RETURN JUMPDEST CALLVALUE DUP1 ISZERO PUSH2 0x252 JUMPI PUSH1 0x0 DUP1 REVERT JUMPDEST POP PUSH2 0x25B PUSH2 0x811 JUMP JUMPDEST PUSH1 0x40 MLOAD PUSH2 0x268 SWAP2 SWAP1 PUSH2 0x31C3 JUMP JUMPDEST PUSH1 0x40 MLOAD DUP1 SWAP2 SUB SWAP1 RETURN JUMPDEST CALLVALUE DUP1 ISZERO PUSH2 0x27D JUMPI PUSH1 0x0 DUP1 REVERT JUMPDEST POP PUSH2 0x298 PUSH1 0x4 DUP1 CALLDATASIZE SUB DUP2 ADD SWAP1 PUSH2 0x293 SWAP2 SWAP1 PUSH2 0x320A JUMP JUMPDEST PUSH2 0x817 JUMP JUMPDEST STOP JUMPDEST CALLVALUE DUP1 ISZERO PUSH2 0x2A6 JUMPI PUSH1 0x0 DUP1 REVERT JUMPDEST POP PUSH2 0x2AF PUSH2 0x92E JUMP JUMPDEST PUSH1 0x40 MLOAD PUSH2 0x2BC SWAP2 SWAP1 PUSH2 0x31C3 JUMP JUMPDEST PUSH1 0x40 MLOAD DUP1 SWAP2 SUB SWAP1 RETURN JUMPDEST CALLVALUE DUP1 ISZERO PUSH2 0x2D1 JUMPI PUSH1 0x0 DUP1 REVERT JUMPDEST POP PUSH2 0x2DA PUSH2 0x93B JUMP JUMPDEST PUSH1 0x40 MLOAD PUSH2 0x2E7 SWAP2 SWAP1 PUSH2 0x31C3 JUMP JUMPDEST PUSH1 0x40 MLOAD DUP1 SWAP2 SUB SWAP1 RETURN JUMPDEST CALLVALUE DUP1 ISZERO PUSH2 0x2FC JUMPI PUSH1 0x0 DUP1 REVERT JUMPDEST POP PUSH2 0x317 PUSH1 0x4 DUP1 CALLDATASIZE SUB DUP2 ADD SWAP1 PUSH2 0x312 SWAP2 SWAP1 PUSH2 0x324A JUMP JUMPDEST PUSH2 0x941 JUMP JUMPDEST STOP JUMPDEST CALLVALUE DUP1 ISZERO PUSH2 0x325 JUMPI PUSH1 0x0 DUP1 REVERT JUMPDEST POP PUSH2 0x340 PUSH1 0x4 DUP1 CALLDATASIZE SUB DUP2 ADD SWAP1 PUSH2 0x33B SWAP2 SWAP1 PUSH2 0x32C1 JUMP JUMPDEST PUSH2 0x9A1 JUMP JUMPDEST STOP JUMPDEST CALLVALUE DUP1 ISZERO PUSH2 0x34E JUMPI PUSH1 0x0 DUP1 REVERT JUMPDEST POP PUSH2 0x369 PUSH1 0x4 DUP1 CALLDATASIZE SUB DUP2 ADD SWAP1 PUSH2 0x364 SWAP2 SWAP1 PUSH2 0x320A JUMP JUMPDEST PUSH2 0xA09 JUMP JUMPDEST PUSH1 0x40 MLOAD PUSH2 0x376 SWAP2 SWAP1 PUSH2 0x31C3 JUMP JUMPDEST PUSH1 0x40 MLOAD DUP1 SWAP2 SUB SWAP1 RETURN JUMPDEST CALLVALUE DUP1 ISZERO PUSH2 0x38B JUMPI PUSH1 0x0 DUP1 REVERT JUMPDEST POP PUSH2 0x3A6 PUSH1 0x4 DUP1 CALLDATASIZE SUB DUP2 ADD SWAP1 PUSH2 0x3A1 SWAP2 SWAP1 PUSH2 0x324A JUMP JUMPDEST PUSH2 0xAAE JUMP JUMPDEST STOP JUMPDEST CALLVALUE DUP1 ISZERO PUSH2 0x3B4 JUMPI PUSH1 0x0 DUP1 REVERT JUMPDEST POP PUSH2 0x3CF PUSH1 0x4 DUP1 CALLDATASIZE SUB DUP2 ADD SWAP1 PUSH2 0x3CA SWAP2 SWAP1 PUSH2 0x312B JUMP JUMPDEST PUSH2 0xACE JUMP JUMPDEST PUSH1 0x40 MLOAD PUSH2 0x3DC SWAP2 SWAP1 PUSH2 0x31C3 JUMP JUMPDEST PUSH1 0x40 MLOAD DUP1 SWAP2 SUB SWAP1 RETURN JUMPDEST CALLVALUE DUP1 ISZERO PUSH2 0x3F1 JUMPI PUSH1 0x0 DUP1 REVERT JUMPDEST POP PUSH2 0x40C PUSH1 0x4 DUP1 CALLDATASIZE SUB DUP2 ADD SWAP1 PUSH2 0x407 SWAP2 SWAP1 PUSH2 0x331D JUMP JUMPDEST PUSH2 0xB3F JUMP JUMPDEST PUSH1 0x40 MLOAD PUSH2 0x419 SWAP2 SWAP1 PUSH2 0x3408 JUMP JUMPDEST PUSH1 0x40 MLOAD DUP1 SWAP2 SUB SWAP1 RETURN JUMPDEST CALLVALUE DUP1 ISZERO PUSH2 0x42E JUMPI PUSH1 0x0 DUP1 REVERT JUMPDEST POP PUSH2 0x449 PUSH1 0x4 DUP1 CALLDATASIZE SUB DUP2 ADD SWAP1 PUSH2 0x444 SWAP2 SWAP1 PUSH2 0x312B JUMP JUMPDEST PUSH2 0xBD6 JUMP JUMPDEST PUSH1 0x40 MLOAD PUSH2 0x456 SWAP2 SWAP1 PUSH2 0x3199 JUMP JUMPDEST PUSH1 0x40 MLOAD DUP1 SWAP2 SUB SWAP1 RETURN JUMPDEST CALLVALUE DUP1 ISZERO PUSH2 0x46B JUMPI PUSH1 0x0 DUP1 REVERT JUMPDEST POP PUSH2 0x486 PUSH1 0x4 DUP1 CALLDATASIZE SUB DUP2 ADD SWAP1 PUSH2 0x481 SWAP2 SWAP1 PUSH2 0x331D JUMP JUMPDEST PUSH2 0xC5C JUMP JUMPDEST PUSH1 0x40 MLOAD PUSH2 0x493 SWAP2 SWAP1 PUSH2 0x31C3 JUMP JUMPDEST PUSH1 0x40 MLOAD DUP1 SWAP2 SUB SWAP1 RETURN JUMPDEST CALLVALUE DUP1 ISZERO PUSH2 0x4A8 JUMPI PUSH1 0x0 DUP1 REVERT JUMPDEST POP PUSH2 0x4B1 PUSH2 0xD13 JUMP JUMPDEST STOP JUMPDEST CALLVALUE DUP1 ISZERO PUSH2 0x4BF JUMPI PUSH1 0x0 DUP1 REVERT JUMPDEST POP PUSH2 0x4DA PUSH1 0x4 DUP1 CALLDATASIZE SUB DUP2 ADD SWAP1 PUSH2 0x4D5 SWAP2 SWAP1 PUSH2 0x331D JUMP JUMPDEST PUSH2 0xD27 JUMP JUMPDEST PUSH1 0x40 MLOAD PUSH2 0x4E7 SWAP2 SWAP1 PUSH2 0x3536 JUMP JUMPDEST PUSH1 0x40 MLOAD DUP1 SWAP2 SUB SWAP1 RETURN JUMPDEST CALLVALUE DUP1 ISZERO PUSH2 0x4FC JUMPI PUSH1 0x0 DUP1 REVERT JUMPDEST POP PUSH2 0x505 PUSH2 0xE3F JUMP JUMPDEST PUSH1 0x40 MLOAD PUSH2 0x512 SWAP2 SWAP1 PUSH2 0x3199 JUMP JUMPDEST PUSH1 0x40 MLOAD DUP1 SWAP2 SUB SWAP1 RETURN JUMPDEST CALLVALUE DUP1 ISZERO PUSH2 0x527 JUMPI PUSH1 0x0 DUP1 REVERT JUMPDEST POP PUSH2 0x530 PUSH2 0xE68 JUMP JUMPDEST PUSH1 0x40 MLOAD PUSH2 0x53D SWAP2 SWAP1 PUSH2 0x30D3 JUMP JUMPDEST PUSH1 0x40 MLOAD DUP1 SWAP2 SUB SWAP1 RETURN JUMPDEST CALLVALUE DUP1 ISZERO PUSH2 0x552 JUMPI PUSH1 0x0 DUP1 REVERT JUMPDEST POP PUSH2 0x56D PUSH1 0x4 DUP1 CALLDATASIZE SUB DUP2 ADD SWAP1 PUSH2 0x568 SWAP2 SWAP1 PUSH2 0x312B JUMP JUMPDEST PUSH2 0xEFA JUMP JUMPDEST PUSH1 0x40 MLOAD PUSH2 0x57A SWAP2 SWAP1 PUSH2 0x35F2 JUMP JUMPDEST PUSH1 0x40 MLOAD DUP1 SWAP2 SUB SWAP1 RETURN JUMPDEST CALLVALUE DUP1 ISZERO PUSH2 0x58F JUMPI PUSH1 0x0 DUP1 REVERT JUMPDEST POP PUSH2 0x5AA PUSH1 0x4 DUP1 CALLDATASIZE SUB DUP2 ADD SWAP1 PUSH2 0x5A5 SWAP2 SWAP1 PUSH2 0x3640 JUMP JUMPDEST PUSH2 0x11C5 JUMP JUMPDEST STOP JUMPDEST CALLVALUE DUP1 ISZERO PUSH2 0x5B8 JUMPI PUSH1 0x0 DUP1 REVERT JUMPDEST POP PUSH2 0x5C1 PUSH2 0x11DB JUMP JUMPDEST PUSH1 0x40 MLOAD PUSH2 0x5CE SWAP2 SWAP1 PUSH2 0x37CD JUMP JUMPDEST PUSH1 0x40 MLOAD DUP1 SWAP2 SUB SWAP1 RETURN JUMPDEST CALLVALUE DUP1 ISZERO PUSH2 0x5E3 JUMPI PUSH1 0x0 DUP1 REVERT JUMPDEST POP PUSH2 0x5FE PUSH1 0x4 DUP1 CALLDATASIZE SUB DUP2 ADD SWAP1 PUSH2 0x5F9 SWAP2 SWAP1 PUSH2 0x3924 JUMP JUMPDEST PUSH2 0x153C JUMP JUMPDEST STOP JUMPDEST CALLVALUE DUP1 ISZERO PUSH2 0x60C JUMPI PUSH1 0x0 DUP1 REVERT JUMPDEST POP PUSH2 0x627 PUSH1 0x4 DUP1 CALLDATASIZE SUB DUP2 ADD SWAP1 PUSH2 0x622 SWAP2 SWAP1 PUSH2 0x312B JUMP JUMPDEST PUSH2 0x159E JUMP JUMPDEST PUSH1 0x40 MLOAD PUSH2 0x634 SWAP2 SWAP1 PUSH2 0x30D3 JUMP JUMPDEST PUSH1 0x40 MLOAD DUP1 SWAP2 SUB SWAP1 RETURN JUMPDEST PUSH2 0x657 PUSH1 0x4 DUP1 CALLDATASIZE SUB DUP2 ADD SWAP1 PUSH2 0x652 SWAP2 SWAP1 PUSH2 0x39A7 JUMP JUMPDEST PUSH2 0x1645 JUMP JUMPDEST STOP JUMPDEST CALLVALUE DUP1 ISZERO PUSH2 0x665 JUMPI PUSH1 0x0 DUP1 REVERT JUMPDEST POP PUSH2 0x680 PUSH1 0x4 DUP1 CALLDATASIZE SUB DUP2 ADD SWAP1 PUSH2 0x67B SWAP2 SWAP1 PUSH2 0x39F0 JUMP JUMPDEST PUSH2 0x1947 JUMP JUMPDEST PUSH1 0x40 MLOAD PUSH2 0x68D SWAP2 SWAP1 PUSH2 0x3028 JUMP JUMPDEST PUSH1 0x40 MLOAD DUP1 SWAP2 SUB SWAP1 RETURN JUMPDEST CALLVALUE DUP1 ISZERO PUSH2 0x6A2 JUMPI PUSH1 0x0 DUP1 REVERT JUMPDEST POP PUSH2 0x6BD PUSH1 0x4 DUP1 CALLDATASIZE SUB DUP2 ADD SWAP1 PUSH2 0x6B8 SWAP2 SWAP1 PUSH2 0x331D JUMP JUMPDEST PUSH2 0x19DB JUMP JUMPDEST STOP JUMPDEST PUSH1 0x0 PUSH32 0x780E9D6300000000000000000000000000000000000000000000000000000000 PUSH28 0xFFFFFFFFFFFFFFFFFFFFFFFFFFFFFFFFFFFFFFFFFFFFFFFFFFFFFFFF NOT AND DUP3 PUSH28 0xFFFFFFFFFFFFFFFFFFFFFFFFFFFFFFFFFFFFFFFFFFFFFFFFFFFFFFFF NOT AND EQ DUP1 PUSH2 0x732 JUMPI POP PUSH2 0x731 DUP3 PUSH2 0x1A5E JUMP JUMPDEST JUMPDEST SWAP1 POP SWAP2 SWAP1 POP JUMP JUMPDEST PUSH1 0x60 PUSH1 0x1 DUP1 SLOAD PUSH2 0x748 SWAP1 PUSH2 0x3A5F JUMP JUMPDEST DUP1 PUSH1 0x1F ADD PUSH1 0x20 DUP1 SWAP2 DIV MUL PUSH1 0x20 ADD PUSH1 0x40 MLOAD SWAP1 DUP2 ADD PUSH1 0x40 MSTORE DUP1 SWAP3 SWAP2 SWAP1 DUP2 DUP2 MSTORE PUSH1 0x20 ADD DUP3 DUP1 SLOAD PUSH2 0x774 SWAP1 PUSH2 0x3A5F JUMP JUMPDEST DUP1 ISZERO PUSH2 0x7C1 JUMPI DUP1 PUSH1 0x1F LT PUSH2 0x796 JUMPI PUSH2 0x100 DUP1 DUP4 SLOAD DIV MUL DUP4 MSTORE SWAP2 PUSH1 0x20 ADD SWAP2 PUSH2 0x7C1 JUMP JUMPDEST DUP3 ADD SWAP2 SWAP1 PUSH1 0x0 MSTORE PUSH1 0x20 PUSH1 0x0 KECCAK256 SWAP1 JUMPDEST DUP2 SLOAD DUP2 MSTORE SWAP1 PUSH1 0x1 ADD SWAP1 PUSH1 0x20 ADD DUP1 DUP4 GT PUSH2 0x7A4 JUMPI DUP3 SWAP1 SUB PUSH1 0x1F AND DUP3 ADD SWAP2 JUMPDEST POP POP POP POP POP SWAP1 POP SWAP1 JUMP JUMPDEST PUSH1 0x0 PUSH2 0x7D6 DUP3 PUSH2 0x1B40 JUMP JUMPDEST PUSH1 0x5 PUSH1 0x0 DUP4 DUP2 MSTORE PUSH1 0x20 ADD SWAP1 DUP2 MSTORE PUSH1 0x20 ADD PUSH1 0x0 KECCAK256 PUSH1 0x0 SWAP1 SLOAD SWAP1 PUSH2 0x100 EXP SWAP1 DIV PUSH20 0xFFFFFFFFFFFFFFFFFFFFFFFFFFFFFFFFFFFFFFFF AND SWAP1 POP SWAP2 SWAP1 POP JUMP JUMPDEST PUSH1 0xD SLOAD DUP2 JUMP JUMPDEST PUSH1 0x0 PUSH2 0x822 DUP3 PUSH2 0xBD6 JUMP JUMPDEST SWAP1 POP DUP1 PUSH20 0xFFFFFFFFFFFFFFFFFFFFFFFFFFFFFFFFFFFFFFFF AND DUP4 PUSH20 0xFFFFFFFFFFFFFFFFFFFFFFFFFFFFFFFFFFFFFFFF AND SUB PUSH2 0x892 JUMPI PUSH1 0x40 MLOAD PUSH32 0x8C379A000000000000000000000000000000000000000000000000000000000 DUP2 MSTORE PUSH1 0x4 ADD PUSH2 0x889 SWAP1 PUSH2 0x3B02 JUMP JUMPDEST PUSH1 0x40 MLOAD DUP1 SWAP2 SUB SWAP1 REVERT JUMPDEST DUP1 PUSH20 0xFFFFFFFFFFFFFFFFFFFFFFFFFFFFFFFFFFFFFFFF AND PUSH2 0x8B1 PUSH2 0x1B8B JUMP JUMPDEST PUSH20 0xFFFFFFFFFFFFFFFFFFFFFFFFFFFFFFFFFFFFFFFF AND EQ DUP1 PUSH2 0x8E0 JUMPI POP PUSH2 0x8DF DUP2 PUSH2 0x8DA PUSH2 0x1B8B JUMP JUMPDEST PUSH2 0x1947 JUMP JUMPDEST JUMPDEST PUSH2 0x91F JUMPI PUSH1 0x40 MLOAD PUSH32 0x8C379A000000000000000000000000000000000000000000000000000000000 DUP2 MSTORE PUSH1 0x4 ADD PUSH2 0x916 SWAP1 PUSH2 0x3B94 JUMP JUMPDEST PUSH1 0x40 MLOAD DUP1 SWAP2 SUB SWAP1 REVERT JUMPDEST PUSH2 0x929 DUP4 DUP4 PUSH2 0x1B93 JUMP JUMPDEST POP POP POP JUMP JUMPDEST PUSH1 0x0 PUSH1 0x9 DUP1 SLOAD SWAP1 POP SWAP1 POP SWAP1 JUMP JUMPDEST PUSH1 0xC SLOAD DUP2 JUMP JUMPDEST PUSH2 0x952 PUSH2 0x94C PUSH2 0x1B8B JUMP JUMPDEST DUP3 PUSH2 0x1C4C JUMP JUMPDEST PUSH2 0x991 JUMPI PUSH1 0x40 MLOAD PUSH32 0x8C379A000000000000000000000000000000000000000000000000000000000 DUP2 MSTORE PUSH1 0x4 ADD PUSH2 0x988 SWAP1 PUSH2 0x3C26 JUMP JUMPDEST PUSH1 0x40 MLOAD DUP1 SWAP2 SUB SWAP1 REVERT JUMPDEST PUSH2 0x99C DUP4 DUP4 DUP4 PUSH2 0x1CE1 JUMP JUMPDEST POP POP POP JUMP JUMPDEST PUSH2 0x9A9 PUSH2 0x1FDA JUMP JUMPDEST DUP1 PUSH1 0x10 PUSH1 0x0 DUP5 DUP2 MSTORE PUSH1 0x20 ADD SWAP1 DUP2 MSTORE PUSH1 0x20 ADD PUSH1 0x0 KECCAK256 DUP2 DUP2 PUSH2 0x9C9 SWAP2 SWAP1 PUSH2 0x40C4 JUMP JUMPDEST SWAP1 POP POP PUSH32 0x2AF2668216C13797F987F500352B5DCCCB7F93D074B60A9EA347AFB160CFED9E DUP3 DUP3 PUSH1 0x40 MLOAD PUSH2 0x9FD SWAP3 SWAP2 SWAP1 PUSH2 0x4243 JUMP JUMPDEST PUSH1 0x40 MLOAD DUP1 SWAP2 SUB SWAP1 LOG1 POP POP JUMP JUMPDEST PUSH1 0x0 PUSH2 0xA14 DUP4 PUSH2 0xC5C JUMP JUMPDEST DUP3 LT PUSH2 0xA55 JUMPI PUSH1 0x40 MLOAD PUSH32 0x8C379A000000000000000000000000000000000000000000000000000000000 DUP2 MSTORE PUSH1 0x4 ADD PUSH2 0xA4C SWAP1 PUSH2 0x42E5 JUMP JUMPDEST PUSH1 0x40 MLOAD DUP1 SWAP2 SUB SWAP1 REVERT JUMPDEST PUSH1 0x7 PUSH1 0x0 DUP5 PUSH20 0xFFFFFFFFFFFFFFFFFFFFFFFFFFFFFFFFFFFFFFFF AND PUSH20 0xFFFFFFFFFFFFFFFFFFFFFFFFFFFFFFFFFFFFFFFF AND DUP2 MSTORE PUSH1 0x20 ADD SWAP1 DUP2 MSTORE PUSH1 0x20 ADD PUSH1 0x0 KECCAK256 PUSH1 0x0 DUP4 DUP2 MSTORE PUSH1 0x20 ADD SWAP1 DUP2 MSTORE PUSH1 0x20 ADD PUSH1 0x0 KECCAK256 SLOAD SWAP1 POP SWAP3 SWAP2 POP POP JUMP JUMPDEST PUSH2 0xAC9 DUP4 DUP4 DUP4 PUSH1 0x40 MLOAD DUP1 PUSH1 0x20 ADD PUSH1 0x40 MSTORE DUP1 PUSH1 0x0 DUP2 MSTORE POP PUSH2 0x153C JUMP JUMPDEST POP POP POP JUMP JUMPDEST PUSH1 0x0 PUSH2 0xAD8 PUSH2 0x92E JUMP JUMPDEST DUP3 LT PUSH2 0xB19 JUMPI PUSH1 0x40 MLOAD PUSH32 0x8C379A000000000000000000000000000000000000000000000000000000000 DUP2 MSTORE PUSH1 0x4 ADD PUSH2 0xB10 SWAP1 PUSH2 0x4377 JUMP JUMPDEST PUSH1 0x40 MLOAD DUP1 SWAP2 SUB SWAP1 REVERT JUMPDEST PUSH1 0x9 DUP3 DUP2 SLOAD DUP2 LT PUSH2 0xB2D JUMPI PUSH2 0xB2C PUSH2 0x4397 JUMP JUMPDEST JUMPDEST SWAP1 PUSH1 0x0 MSTORE PUSH1 0x20 PUSH1 0x0 KECCAK256 ADD SLOAD SWAP1 POP SWAP2 SWAP1 POP JUMP JUMPDEST PUSH1 0x60 PUSH1 0xE PUSH1 0x0 DUP4 PUSH20 0xFFFFFFFFFFFFFFFFFFFFFFFFFFFFFFFFFFFFFFFF AND PUSH20 0xFFFFFFFFFFFFFFFFFFFFFFFFFFFFFFFFFFFFFFFF AND DUP2 MSTORE PUSH1 0x20 ADD SWAP1 DUP2 MSTORE PUSH1 0x20 ADD PUSH1 0x0 KECCAK256 DUP1 SLOAD DUP1 PUSH1 0x20 MUL PUSH1 0x20 ADD PUSH1 0x40 MLOAD SWAP1 DUP2 ADD PUSH1 0x40 MSTORE DUP1 SWAP3 SWAP2 SWAP1 DUP2 DUP2 MSTORE PUSH1 0x20 ADD DUP3 DUP1 SLOAD DUP1 ISZERO PUSH2 0xBCA JUMPI PUSH1 0x20 MUL DUP3 ADD SWAP2 SWAP1 PUSH1 0x0 MSTORE PUSH1 0x20 PUSH1 0x0 KECCAK256 SWAP1 JUMPDEST DUP2 SLOAD DUP2 MSTORE PUSH1 0x20 ADD SWAP1 PUSH1 0x1 ADD SWAP1 DUP1 DUP4 GT PUSH2 0xBB6 JUMPI JUMPDEST POP POP POP POP POP SWAP1 POP SWAP2 SWAP1 POP JUMP JUMPDEST PUSH1 0x0 DUP1 PUSH2 0xBE2 DUP4 PUSH2 0x2058 JUMP JUMPDEST SWAP1 POP PUSH1 0x0 PUSH20 0xFFFFFFFFFFFFFFFFFFFFFFFFFFFFFFFFFFFFFFFF AND DUP2 PUSH20 0xFFFFFFFFFFFFFFFFFFFFFFFFFFFFFFFFFFFFFFFF AND SUB PUSH2 0xC53 JUMPI PUSH1 0x40 MLOAD PUSH32 0x8C379A000000000000000000000000000000000000000000000000000000000 DUP2 MSTORE PUSH1 0x4 ADD PUSH2 0xC4A SWAP1 PUSH2 0x4412 JUMP JUMPDEST PUSH1 0x40 MLOAD DUP1 SWAP2 SUB SWAP1 REVERT JUMPDEST DUP1 SWAP2 POP POP SWAP2 SWAP1 POP JUMP JUMPDEST PUSH1 0x0 DUP1 PUSH20 0xFFFFFFFFFFFFFFFFFFFFFFFFFFFFFFFFFFFFFFFF AND DUP3 PUSH20 0xFFFFFFFFFFFFFFFFFFFFFFFFFFFFFFFFFFFFFFFF AND SUB PUSH2 0xCCC JUMPI PUSH1 0x40 MLOAD PUSH32 0x8C379A000000000000000000000000000000000000000000000000000000000 DUP2 MSTORE PUSH1 0x4 ADD PUSH2 0xCC3 SWAP1 PUSH2 0x44A4 JUMP JUMPDEST PUSH1 0x40 MLOAD DUP1 SWAP2 SUB SWAP1 REVERT JUMPDEST PUSH1 0x4 PUSH1 0x0 DUP4 PUSH20 0xFFFFFFFFFFFFFFFFFFFFFFFFFFFFFFFFFFFFFFFF AND PUSH20 0xFFFFFFFFFFFFFFFFFFFFFFFFFFFFFFFFFFFFFFFF AND DUP2 MSTORE PUSH1 0x20 ADD SWAP1 DUP2 MSTORE PUSH1 0x20 ADD PUSH1 0x0 KECCAK256 SLOAD SWAP1 POP SWAP2 SWAP1 POP JUMP JUMPDEST PUSH2 0xD1B PUSH2 0x1FDA JUMP JUMPDEST PUSH2 0xD25 PUSH1 0x0 PUSH2 0x2095 JUMP JUMPDEST JUMP JUMPDEST PUSH1 0x60 PUSH1 0xF PUSH1 0x0 DUP4 PUSH20 0xFFFFFFFFFFFFFFFFFFFFFFFFFFFFFFFFFFFFFFFF AND PUSH20 0xFFFFFFFFFFFFFFFFFFFFFFFFFFFFFFFFFFFFFFFF AND DUP2 MSTORE PUSH1 0x20 ADD SWAP1 DUP2 MSTORE PUSH1 0x20 ADD PUSH1 0x0 KECCAK256 DUP1 SLOAD DUP1 PUSH1 0x20 MUL PUSH1 0x20 ADD PUSH1 0x40 MLOAD SWAP1 DUP2 ADD PUSH1 0x40 MSTORE DUP1 SWAP3 SWAP2 SWAP1 DUP2 DUP2 MSTORE PUSH1 0x20 ADD PUSH1 0x0 SWAP1 JUMPDEST DUP3 DUP3 LT ISZERO PUSH2 0xE34 JUMPI DUP4 DUP3 SWAP1 PUSH1 0x0 MSTORE PUSH1 0x20 PUSH1 0x0 KECCAK256 ADD DUP1 SLOAD PUSH2 0xDA7 SWAP1 PUSH2 0x3A5F JUMP JUMPDEST DUP1 PUSH1 0x1F ADD PUSH1 0x20 DUP1 SWAP2 DIV MUL PUSH1 0x20 ADD PUSH1 0x40 MLOAD SWAP1 DUP2 ADD PUSH1 0x40 MSTORE DUP1 SWAP3 SWAP2 SWAP1 DUP2 DUP2 MSTORE PUSH1 0x20 ADD DUP3 DUP1 SLOAD PUSH2 0xDD3 SWAP1 PUSH2 0x3A5F JUMP JUMPDEST DUP1 ISZERO PUSH2 0xE20 JUMPI DUP1 PUSH1 0x1F LT PUSH2 0xDF5 JUMPI PUSH2 0x100 DUP1 DUP4 SLOAD DIV MUL DUP4 MSTORE SWAP2 PUSH1 0x20 ADD SWAP2 PUSH2 0xE20 JUMP JUMPDEST DUP3 ADD SWAP2 SWAP1 PUSH1 0x0 MSTORE PUSH1 0x20 PUSH1 0x0 KECCAK256 SWAP1 JUMPDEST DUP2 SLOAD DUP2 MSTORE SWAP1 PUSH1 0x1 ADD SWAP1 PUSH1 0x20 ADD DUP1 DUP4 GT PUSH2 0xE03 JUMPI DUP3 SWAP1 SUB PUSH1 0x1F AND DUP3 ADD SWAP2 JUMPDEST POP POP POP POP POP DUP2 MSTORE PUSH1 0x20 ADD SWAP1 PUSH1 0x1 ADD SWAP1 PUSH2 0xD88 JUMP JUMPDEST POP POP POP POP SWAP1 POP SWAP2 SWAP1 POP JUMP JUMPDEST PUSH1 0x0 DUP1 PUSH1 0x0 SWAP1 SLOAD SWAP1 PUSH2 0x100 EXP SWAP1 DIV PUSH20 0xFFFFFFFFFFFFFFFFFFFFFFFFFFFFFFFFFFFFFFFF AND SWAP1 POP SWAP1 JUMP JUMPDEST PUSH1 0x60 PUSH1 0x2 DUP1 SLOAD PUSH2 0xE77 SWAP1 PUSH2 0x3A5F JUMP JUMPDEST DUP1 PUSH1 0x1F ADD PUSH1 0x20 DUP1 SWAP2 DIV MUL PUSH1 0x20 ADD PUSH1 0x40 MLOAD SWAP1 DUP2 ADD PUSH1 0x40 MSTORE DUP1 SWAP3 SWAP2 SWAP1 DUP2 DUP2 MSTORE PUSH1 0x20 ADD DUP3 DUP1 SLOAD PUSH2 0xEA3 SWAP1 PUSH2 0x3A5F JUMP JUMPDEST DUP1 ISZERO PUSH2 0xEF0 JUMPI DUP1 PUSH1 0x1F LT PUSH2 0xEC5 JUMPI PUSH2 0x100 DUP1 DUP4 SLOAD DIV MUL DUP4 MSTORE SWAP2 PUSH1 0x20 ADD SWAP2 PUSH2 0xEF0 JUMP JUMPDEST DUP3 ADD SWAP2 SWAP1 PUSH1 0x0 MSTORE PUSH1 0x20 PUSH1 0x0 KECCAK256 SWAP1 JUMPDEST DUP2 SLOAD DUP2 MSTORE SWAP1 PUSH1 0x1 ADD SWAP1 PUSH1 0x20 ADD DUP1 DUP4 GT PUSH2 0xED3 JUMPI DUP3 SWAP1 SUB PUSH1 0x1F AND DUP3 ADD SWAP2 JUMPDEST POP POP POP POP POP SWAP1 POP SWAP1 JUMP JUMPDEST PUSH2 0xF02 PUSH2 0x2F2F JUMP JUMPDEST PUSH1 0x10 PUSH1 0x0 DUP4 DUP2 MSTORE PUSH1 0x20 ADD SWAP1 DUP2 MSTORE PUSH1 0x20 ADD PUSH1 0x0 KECCAK256 PUSH1 0x40 MLOAD DUP1 PUSH1 0xA0 ADD PUSH1 0x40 MSTORE SWAP1 DUP2 PUSH1 0x0 DUP3 ADD PUSH1 0x0 SWAP1 SLOAD SWAP1 PUSH2 0x100 EXP SWAP1 DIV PUSH20 0xFFFFFFFFFFFFFFFFFFFFFFFFFFFFFFFFFFFFFFFF AND PUSH20 0xFFFFFFFFFFFFFFFFFFFFFFFFFFFFFFFFFFFFFFFF AND PUSH20 0xFFFFFFFFFFFFFFFFFFFFFFFFFFFFFFFFFFFFFFFF AND DUP2 MSTORE PUSH1 0x20 ADD PUSH1 0x1 DUP3 ADD DUP1 SLOAD PUSH2 0xF86 SWAP1 PUSH2 0x3A5F JUMP JUMPDEST DUP1 PUSH1 0x1F ADD PUSH1 0x20 DUP1 SWAP2 DIV MUL PUSH1 0x20 ADD PUSH1 0x40 MLOAD SWAP1 DUP2 ADD PUSH1 0x40 MSTORE DUP1 SWAP3 SWAP2 SWAP1 DUP2 DUP2 MSTORE PUSH1 0x20 ADD DUP3 DUP1 SLOAD PUSH2 0xFB2 SWAP1 PUSH2 0x3A5F JUMP JUMPDEST DUP1 ISZERO PUSH2 0xFFF JUMPI DUP1 PUSH1 0x1F LT PUSH2 0xFD4 JUMPI PUSH2 0x100 DUP1 DUP4 SLOAD DIV MUL DUP4 MSTORE SWAP2 PUSH1 0x20 ADD SWAP2 PUSH2 0xFFF JUMP JUMPDEST DUP3 ADD SWAP2 SWAP1 PUSH1 0x0 MSTORE PUSH1 0x20 PUSH1 0x0 KECCAK256 SWAP1 JUMPDEST DUP2 SLOAD DUP2 MSTORE SWAP1 PUSH1 0x1 ADD SWAP1 PUSH1 0x20 ADD DUP1 DUP4 GT PUSH2 0xFE2 JUMPI DUP3 SWAP1 SUB PUSH1 0x1F AND DUP3 ADD SWAP2 JUMPDEST POP POP POP POP POP DUP2 MSTORE PUSH1 0x20 ADD PUSH1 0x2 DUP3 ADD DUP1 SLOAD PUSH2 0x1018 SWAP1 PUSH2 0x3A5F JUMP JUMPDEST DUP1 PUSH1 0x1F ADD PUSH1 0x20 DUP1 SWAP2 DIV MUL PUSH1 0x20 ADD PUSH1 0x40 MLOAD SWAP1 DUP2 ADD PUSH1 0x40 MSTORE DUP1 SWAP3 SWAP2 SWAP1 DUP2 DUP2 MSTORE PUSH1 0x20 ADD DUP3 DUP1 SLOAD PUSH2 0x1044 SWAP1 PUSH2 0x3A5F JUMP JUMPDEST DUP1 ISZERO PUSH2 0x1091 JUMPI DUP1 PUSH1 0x1F LT PUSH2 0x1066 JUMPI PUSH2 0x100 DUP1 DUP4 SLOAD DIV MUL DUP4 MSTORE SWAP2 PUSH1 0x20 ADD SWAP2 PUSH2 0x1091 JUMP JUMPDEST DUP3 ADD SWAP2 SWAP1 PUSH1 0x0 MSTORE PUSH1 0x20 PUSH1 0x0 KECCAK256 SWAP1 JUMPDEST DUP2 SLOAD DUP2 MSTORE SWAP1 PUSH1 0x1 ADD SWAP1 PUSH1 0x20 ADD DUP1 DUP4 GT PUSH2 0x1074 JUMPI DUP3 SWAP1 SUB PUSH1 0x1F AND DUP3 ADD SWAP2 JUMPDEST POP POP POP POP POP DUP2 MSTORE PUSH1 0x20 ADD PUSH1 0x3 DUP3 ADD DUP1 SLOAD PUSH2 0x10AA SWAP1 PUSH2 0x3A5F JUMP JUMPDEST DUP1 PUSH1 0x1F ADD PUSH1 0x20 DUP1 SWAP2 DIV MUL PUSH1 0x20 ADD PUSH1 0x40 MLOAD SWAP1 DUP2 ADD PUSH1 0x40 MSTORE DUP1 SWAP3 SWAP2 SWAP1 DUP2 DUP2 MSTORE PUSH1 0x20 ADD DUP3 DUP1 SLOAD PUSH2 0x10D6 SWAP1 PUSH2 0x3A5F JUMP JUMPDEST DUP1 ISZERO PUSH2 0x1123 JUMPI DUP1 PUSH1 0x1F LT PUSH2 0x10F8 JUMPI PUSH2 0x100 DUP1 DUP4 SLOAD DIV MUL DUP4 MSTORE SWAP2 PUSH1 0x20 ADD SWAP2 PUSH2 0x1123 JUMP JUMPDEST DUP3 ADD SWAP2 SWAP1 PUSH1 0x0 MSTORE PUSH1 0x20 PUSH1 0x0 KECCAK256 SWAP1 JUMPDEST DUP2 SLOAD DUP2 MSTORE SWAP1 PUSH1 0x1 ADD SWAP1 PUSH1 0x20 ADD DUP1 DUP4 GT PUSH2 0x1106 JUMPI DUP3 SWAP1 SUB PUSH1 0x1F AND DUP3 ADD SWAP2 JUMPDEST POP POP POP POP POP DUP2 MSTORE PUSH1 0x20 ADD PUSH1 0x4 DUP3 ADD DUP1 SLOAD PUSH2 0x113C SWAP1 PUSH2 0x3A5F JUMP JUMPDEST DUP1 PUSH1 0x1F ADD PUSH1 0x20 DUP1 SWAP2 DIV MUL PUSH1 0x20 ADD PUSH1 0x40 MLOAD SWAP1 DUP2 ADD PUSH1 0x40 MSTORE DUP1 SWAP3 SWAP2 SWAP1 DUP2 DUP2 MSTORE PUSH1 0x20 ADD DUP3 DUP1 SLOAD PUSH2 0x1168 SWAP1 PUSH2 0x3A5F JUMP JUMPDEST DUP1 ISZERO PUSH2 0x11B5 JUMPI DUP1 PUSH1 0x1F LT PUSH2 0x118A JUMPI PUSH2 0x100 DUP1 DUP4 SLOAD DIV MUL DUP4 MSTORE SWAP2 PUSH1 0x20 ADD SWAP2 PUSH2 0x11B5 JUMP JUMPDEST DUP3 ADD SWAP2 SWAP1 PUSH1 0x0 MSTORE PUSH1 0x20 PUSH1 0x0 KECCAK256 SWAP1 JUMPDEST DUP2 SLOAD DUP2 MSTORE SWAP1 PUSH1 0x1 ADD SWAP1 PUSH1 0x20 ADD DUP1 DUP4 GT PUSH2 0x1198 JUMPI DUP3 SWAP1 SUB PUSH1 0x1F AND DUP3 ADD SWAP2 JUMPDEST POP POP POP POP POP DUP2 MSTORE POP POP SWAP1 POP SWAP2 SWAP1 POP JUMP JUMPDEST PUSH2 0x11D7 PUSH2 0x11D0 PUSH2 0x1B8B JUMP JUMPDEST DUP4 DUP4 PUSH2 0x2159 JUMP JUMPDEST POP POP JUMP JUMPDEST PUSH1 0x60 PUSH1 0x0 PUSH1 0xD SLOAD PUSH8 0xFFFFFFFFFFFFFFFF DUP2 GT ISZERO PUSH2 0x11FB JUMPI PUSH2 0x11FA PUSH2 0x37F9 JUMP JUMPDEST JUMPDEST PUSH1 0x40 MLOAD SWAP1 DUP1 DUP3 MSTORE DUP1 PUSH1 0x20 MUL PUSH1 0x20 ADD DUP3 ADD PUSH1 0x40 MSTORE DUP1 ISZERO PUSH2 0x1234 JUMPI DUP2 PUSH1 0x20 ADD JUMPDEST PUSH2 0x1221 PUSH2 0x2F2F JUMP JUMPDEST DUP2 MSTORE PUSH1 0x20 ADD SWAP1 PUSH1 0x1 SWAP1 SUB SWAP1 DUP2 PUSH2 0x1219 JUMPI SWAP1 POP JUMPDEST POP SWAP1 POP PUSH1 0x0 PUSH1 0x1 SWAP1 POP JUMPDEST PUSH1 0xD SLOAD DUP2 GT PUSH2 0x1534 JUMPI PUSH1 0x10 PUSH1 0x0 DUP3 DUP2 MSTORE PUSH1 0x20 ADD SWAP1 DUP2 MSTORE PUSH1 0x20 ADD PUSH1 0x0 KECCAK256 PUSH1 0x40 MLOAD DUP1 PUSH1 0xA0 ADD PUSH1 0x40 MSTORE SWAP1 DUP2 PUSH1 0x0 DUP3 ADD PUSH1 0x0 SWAP1 SLOAD SWAP1 PUSH2 0x100 EXP SWAP1 DIV PUSH20 0xFFFFFFFFFFFFFFFFFFFFFFFFFFFFFFFFFFFFFFFF AND PUSH20 0xFFFFFFFFFFFFFFFFFFFFFFFFFFFFFFFFFFFFFFFF AND PUSH20 0xFFFFFFFFFFFFFFFFFFFFFFFFFFFFFFFFFFFFFFFF AND DUP2 MSTORE PUSH1 0x20 ADD PUSH1 0x1 DUP3 ADD DUP1 SLOAD PUSH2 0x12CB SWAP1 PUSH2 0x3A5F JUMP JUMPDEST DUP1 PUSH1 0x1F ADD PUSH1 0x20 DUP1 SWAP2 DIV MUL PUSH1 0x20 ADD PUSH1 0x40 MLOAD SWAP1 DUP2 ADD PUSH1 0x40 MSTORE DUP1 SWAP3 SWAP2 SWAP1 DUP2 DUP2 MSTORE PUSH1 0x20 ADD DUP3 DUP1 SLOAD PUSH2 0x12F7 SWAP1 PUSH2 0x3A5F JUMP JUMPDEST DUP1 ISZERO PUSH2 0x1344 JUMPI DUP1 PUSH1 0x1F LT PUSH2 0x1319 JUMPI PUSH2 0x100 DUP1 DUP4 SLOAD DIV MUL DUP4 MSTORE SWAP2 PUSH1 0x20 ADD SWAP2 PUSH2 0x1344 JUMP JUMPDEST DUP3 ADD SWAP2 SWAP1 PUSH1 0x0 MSTORE PUSH1 0x20 PUSH1 0x0 KECCAK256 SWAP1 JUMPDEST DUP2 SLOAD DUP2 MSTORE SWAP1 PUSH1 0x1 ADD SWAP1 PUSH1 0x20 ADD DUP1 DUP4 GT PUSH2 0x1327 JUMPI DUP3 SWAP1 SUB PUSH1 0x1F AND DUP3 ADD SWAP2 JUMPDEST POP POP POP POP POP DUP2 MSTORE PUSH1 0x20 ADD PUSH1 0x2 DUP3 ADD DUP1 SLOAD PUSH2 0x135D SWAP1 PUSH2 0x3A5F JUMP JUMPDEST DUP1 PUSH1 0x1F ADD PUSH1 0x20 DUP1 SWAP2 DIV MUL PUSH1 0x20 ADD PUSH1 0x40 MLOAD SWAP1 DUP2 ADD PUSH1 0x40 MSTORE DUP1 SWAP3 SWAP2 SWAP1 DUP2 DUP2 MSTORE PUSH1 0x20 ADD DUP3 DUP1 SLOAD PUSH2 0x1389 SWAP1 PUSH2 0x3A5F JUMP JUMPDEST DUP1 ISZERO PUSH2 0x13D6 JUMPI DUP1 PUSH1 0x1F LT PUSH2 0x13AB JUMPI PUSH2 0x100 DUP1 DUP4 SLOAD DIV MUL DUP4 MSTORE SWAP2 PUSH1 0x20 ADD SWAP2 PUSH2 0x13D6 JUMP JUMPDEST DUP3 ADD SWAP2 SWAP1 PUSH1 0x0 MSTORE PUSH1 0x20 PUSH1 0x0 KECCAK256 SWAP1 JUMPDEST DUP2 SLOAD DUP2 MSTORE SWAP1 PUSH1 0x1 ADD SWAP1 PUSH1 0x20 ADD DUP1 DUP4 GT PUSH2 0x13B9 JUMPI DUP3 SWAP1 SUB PUSH1 0x1F AND DUP3 ADD SWAP2 JUMPDEST POP POP POP POP POP DUP2 MSTORE PUSH1 0x20 ADD PUSH1 0x3 DUP3 ADD DUP1 SLOAD PUSH2 0x13EF SWAP1 PUSH2 0x3A5F JUMP JUMPDEST DUP1 PUSH1 0x1F ADD PUSH1 0x20 DUP1 SWAP2 DIV MUL PUSH1 0x20 ADD PUSH1 0x40 MLOAD SWAP1 DUP2 ADD PUSH1 0x40 MSTORE DUP1 SWAP3 SWAP2 SWAP1 DUP2 DUP2 MSTORE PUSH1 0x20 ADD DUP3 DUP1 SLOAD PUSH2 0x141B SWAP1 PUSH2 0x3A5F JUMP JUMPDEST DUP1 ISZERO PUSH2 0x1468 JUMPI DUP1 PUSH1 0x1F LT PUSH2 0x143D JUMPI PUSH2 0x100 DUP1 DUP4 SLOAD DIV MUL DUP4 MSTORE SWAP2 PUSH1 0x20 ADD SWAP2 PUSH2 0x1468 JUMP JUMPDEST DUP3 ADD SWAP2 SWAP1 PUSH1 0x0 MSTORE PUSH1 0x20 PUSH1 0x0 KECCAK256 SWAP1 JUMPDEST DUP2 SLOAD DUP2 MSTORE SWAP1 PUSH1 0x1 ADD SWAP1 PUSH1 0x20 ADD DUP1 DUP4 GT PUSH2 0x144B JUMPI DUP3 SWAP1 SUB PUSH1 0x1F AND DUP3 ADD SWAP2 JUMPDEST POP POP POP POP POP DUP2 MSTORE PUSH1 0x20 ADD PUSH1 0x4 DUP3 ADD DUP1 SLOAD PUSH2 0x1481 SWAP1 PUSH2 0x3A5F JUMP JUMPDEST DUP1 PUSH1 0x1F ADD PUSH1 0x20 DUP1 SWAP2 DIV MUL PUSH1 0x20 ADD PUSH1 0x40 MLOAD SWAP1 DUP2 ADD PUSH1 0x40 MSTORE DUP1 SWAP3 SWAP2 SWAP1 DUP2 DUP2 MSTORE PUSH1 0x20 ADD DUP3 DUP1 SLOAD PUSH2 0x14AD SWAP1 PUSH2 0x3A5F JUMP JUMPDEST DUP1 ISZERO PUSH2 0x14FA JUMPI DUP1 PUSH1 0x1F LT PUSH2 0x14CF JUMPI PUSH2 0x100 DUP1 DUP4 SLOAD DIV MUL DUP4 MSTORE SWAP2 PUSH1 0x20 ADD SWAP2 PUSH2 0x14FA JUMP JUMPDEST DUP3 ADD SWAP2 SWAP1 PUSH1 0x0 MSTORE PUSH1 0x20 PUSH1 0x0 KECCAK256 SWAP1 JUMPDEST DUP2 SLOAD DUP2 MSTORE SWAP1 PUSH1 0x1 ADD SWAP1 PUSH1 0x20 ADD DUP1 DUP4 GT PUSH2 0x14DD JUMPI DUP3 SWAP1 SUB PUSH1 0x1F AND DUP3 ADD SWAP2 JUMPDEST POP POP POP POP POP DUP2 MSTORE POP POP DUP3 DUP3 DUP2 MLOAD DUP2 LT PUSH2 0x1516 JUMPI PUSH2 0x1515 PUSH2 0x4397 JUMP JUMPDEST JUMPDEST PUSH1 0x20 MUL PUSH1 0x20 ADD ADD DUP2 SWAP1 MSTORE POP DUP1 DUP1 PUSH2 0x152C SWAP1 PUSH2 0x44F3 JUMP JUMPDEST SWAP2 POP POP PUSH2 0x123E JUMP JUMPDEST POP DUP1 SWAP2 POP POP SWAP1 JUMP JUMPDEST PUSH2 0x154D PUSH2 0x1547 PUSH2 0x1B8B JUMP JUMPDEST DUP4 PUSH2 0x1C4C JUMP JUMPDEST PUSH2 0x158C JUMPI PUSH1 0x40 MLOAD PUSH32 0x8C379A000000000000000000000000000000000000000000000000000000000 DUP2 MSTORE PUSH1 0x4 ADD PUSH2 0x1583 SWAP1 PUSH2 0x3C26 JUMP JUMPDEST PUSH1 0x40 MLOAD DUP1 SWAP2 SUB SWAP1 REVERT JUMPDEST PUSH2 0x1598 DUP5 DUP5 DUP5 DUP5 PUSH2 0x22C5 JUMP JUMPDEST POP POP POP POP JUMP JUMPDEST PUSH1 0x60 PUSH2 0x15A9 DUP3 PUSH2 0x2321 JUMP JUMPDEST PUSH2 0x15E8 JUMPI PUSH1 0x40 MLOAD PUSH32 0x8C379A000000000000000000000000000000000000000000000000000000000 DUP2 MSTORE PUSH1 0x4 ADD PUSH2 0x15DF SWAP1 PUSH2 0x45AD JUMP JUMPDEST PUSH1 0x40 MLOAD DUP1 SWAP2 SUB SWAP1 REVERT JUMPDEST PUSH1 0x0 PUSH2 0x15F2 PUSH2 0x2362 JUMP JUMPDEST SWAP1 POP PUSH1 0x0 DUP2 MLOAD GT PUSH2 0x1612 JUMPI PUSH1 0x40 MLOAD DUP1 PUSH1 0x20 ADD PUSH1 0x40 MSTORE DUP1 PUSH1 0x0 DUP2 MSTORE POP PUSH2 0x163D JUMP JUMPDEST DUP1 PUSH2 0x161C DUP5 PUSH2 0x23F4 JUMP JUMPDEST PUSH1 0x40 MLOAD PUSH1 0x20 ADD PUSH2 0x162D SWAP3 SWAP2 SWAP1 PUSH2 0x4655 JUMP JUMPDEST PUSH1 0x40 MLOAD PUSH1 0x20 DUP2 DUP4 SUB SUB DUP2 MSTORE SWAP1 PUSH1 0x40 MSTORE JUMPDEST SWAP2 POP POP SWAP2 SWAP1 POP JUMP JUMPDEST DUP1 DUP1 PUSH1 0x20 ADD SWAP1 PUSH2 0x1655 SWAP2 SWAP1 PUSH2 0x3D2B JUMP JUMPDEST PUSH1 0x11 DUP3 DUP3 PUSH1 0x40 MLOAD PUSH2 0x1667 SWAP3 SWAP2 SWAP1 PUSH2 0x46A9 JUMP JUMPDEST SWAP1 DUP2 MSTORE PUSH1 0x20 ADD PUSH1 0x40 MLOAD DUP1 SWAP2 SUB SWAP1 KECCAK256 PUSH1 0x0 SWAP1 SLOAD SWAP1 PUSH2 0x100 EXP SWAP1 DIV PUSH1 0xFF AND ISZERO PUSH2 0x16C3 JUMPI PUSH1 0x40 MLOAD PUSH32 0x8C379A000000000000000000000000000000000000000000000000000000000 DUP2 MSTORE PUSH1 0x4 ADD PUSH2 0x16BA SWAP1 PUSH2 0x470E JUMP JUMPDEST PUSH1 0x40 MLOAD DUP1 SWAP2 SUB SWAP1 REVERT JUMPDEST DUP3 PUSH1 0x0 ADD PUSH1 0x20 DUP2 ADD SWAP1 PUSH2 0x16D6 SWAP2 SWAP1 PUSH2 0x331D JUMP JUMPDEST CALLER PUSH20 0xFFFFFFFFFFFFFFFFFFFFFFFFFFFFFFFFFFFFFFFF AND DUP2 PUSH20 0xFFFFFFFFFFFFFFFFFFFFFFFFFFFFFFFFFFFFFFFF AND EQ PUSH2 0x1744 JUMPI PUSH1 0x40 MLOAD PUSH32 0x8C379A000000000000000000000000000000000000000000000000000000000 DUP2 MSTORE PUSH1 0x4 ADD PUSH2 0x173B SWAP1 PUSH2 0x477A JUMP JUMPDEST PUSH1 0x40 MLOAD DUP1 SWAP2 SUB SWAP1 REVERT JUMPDEST PUSH1 0xC SLOAD CALLVALUE LT ISZERO PUSH2 0x1789 JUMPI PUSH1 0x40 MLOAD PUSH32 0x8C379A000000000000000000000000000000000000000000000000000000000 DUP2 MSTORE PUSH1 0x4 ADD PUSH2 0x1780 SWAP1 PUSH2 0x47E6 JUMP JUMPDEST PUSH1 0x40 MLOAD DUP1 SWAP2 SUB SWAP1 REVERT JUMPDEST PUSH1 0xD PUSH1 0x0 DUP2 SLOAD DUP1 SWAP3 SWAP2 SWAP1 PUSH2 0x179C SWAP1 PUSH2 0x44F3 JUMP JUMPDEST SWAP2 SWAP1 POP SSTORE POP DUP4 PUSH1 0x10 PUSH1 0x0 PUSH1 0xD SLOAD DUP2 MSTORE PUSH1 0x20 ADD SWAP1 DUP2 MSTORE PUSH1 0x20 ADD PUSH1 0x0 KECCAK256 DUP2 DUP2 PUSH2 0x17C3 SWAP2 SWAP1 PUSH2 0x40C4 JUMP JUMPDEST SWAP1 POP POP PUSH1 0xF PUSH1 0x0 CALLER PUSH20 0xFFFFFFFFFFFFFFFFFFFFFFFFFFFFFFFFFFFFFFFF AND PUSH20 0xFFFFFFFFFFFFFFFFFFFFFFFFFFFFFFFFFFFFFFFF AND DUP2 MSTORE PUSH1 0x20 ADD SWAP1 DUP2 MSTORE PUSH1 0x20 ADD PUSH1 0x0 KECCAK256 DUP5 DUP1 PUSH1 0x20 ADD SWAP1 PUSH2 0x1815 SWAP2 SWAP1 PUSH2 0x3D2B JUMP JUMPDEST SWAP1 SWAP2 DUP1 PUSH1 0x1 DUP2 SLOAD ADD DUP1 DUP3 SSTORE DUP1 SWAP2 POP POP PUSH1 0x1 SWAP1 SUB SWAP1 PUSH1 0x0 MSTORE PUSH1 0x20 PUSH1 0x0 KECCAK256 ADD PUSH1 0x0 SWAP1 SWAP2 SWAP3 SWAP1 SWAP2 SWAP3 SWAP1 SWAP2 SWAP3 SWAP1 SWAP2 SWAP3 POP SWAP2 DUP3 PUSH2 0x184E SWAP3 SWAP2 SWAP1 PUSH2 0x3F3B JUMP JUMPDEST POP PUSH1 0x1 PUSH1 0x11 DUP6 DUP1 PUSH1 0x20 ADD SWAP1 PUSH2 0x1863 SWAP2 SWAP1 PUSH2 0x3D2B JUMP JUMPDEST PUSH1 0x40 MLOAD PUSH2 0x1871 SWAP3 SWAP2 SWAP1 PUSH2 0x46A9 JUMP JUMPDEST SWAP1 DUP2 MSTORE PUSH1 0x20 ADD PUSH1 0x40 MLOAD DUP1 SWAP2 SUB SWAP1 KECCAK256 PUSH1 0x0 PUSH2 0x100 EXP DUP2 SLOAD DUP2 PUSH1 0xFF MUL NOT AND SWAP1 DUP4 ISZERO ISZERO MUL OR SWAP1 SSTORE POP PUSH2 0x18A2 CALLER PUSH1 0xD SLOAD PUSH2 0x24C2 JUMP JUMPDEST PUSH1 0xE PUSH1 0x0 CALLER PUSH20 0xFFFFFFFFFFFFFFFFFFFFFFFFFFFFFFFFFFFFFFFF AND PUSH20 0xFFFFFFFFFFFFFFFFFFFFFFFFFFFFFFFFFFFFFFFF AND DUP2 MSTORE PUSH1 0x20 ADD SWAP1 DUP2 MSTORE PUSH1 0x20 ADD PUSH1 0x0 KECCAK256 PUSH1 0xD SLOAD SWAP1 DUP1 PUSH1 0x1 DUP2 SLOAD ADD DUP1 DUP3 SSTORE DUP1 SWAP2 POP POP PUSH1 0x1 SWAP1 SUB SWAP1 PUSH1 0x0 MSTORE PUSH1 0x20 PUSH1 0x0 KECCAK256 ADD PUSH1 0x0 SWAP1 SWAP2 SWAP1 SWAP2 SWAP1 SWAP2 POP SSTORE PUSH32 0x68D89BA37B6B8D0B7CB139771C573485DD925FBB3007CFB62CB832BC2A24850A DUP5 PUSH1 0x40 MLOAD PUSH2 0x1939 SWAP2 SWAP1 PUSH2 0x4806 JUMP JUMPDEST PUSH1 0x40 MLOAD DUP1 SWAP2 SUB SWAP1 LOG1 POP POP POP POP JUMP JUMPDEST PUSH1 0x0 PUSH1 0x6 PUSH1 0x0 DUP5 PUSH20 0xFFFFFFFFFFFFFFFFFFFFFFFFFFFFFFFFFFFFFFFF AND PUSH20 0xFFFFFFFFFFFFFFFFFFFFFFFFFFFFFFFFFFFFFFFF AND DUP2 MSTORE PUSH1 0x20 ADD SWAP1 DUP2 MSTORE PUSH1 0x20 ADD PUSH1 0x0 KECCAK256 PUSH1 0x0 DUP4 PUSH20 0xFFFFFFFFFFFFFFFFFFFFFFFFFFFFFFFFFFFFFFFF AND PUSH20 0xFFFFFFFFFFFFFFFFFFFFFFFFFFFFFFFFFFFFFFFF AND DUP2 MSTORE PUSH1 0x20 ADD SWAP1 DUP2 MSTORE PUSH1 0x20 ADD PUSH1 0x0 KECCAK256 PUSH1 0x0 SWAP1 SLOAD SWAP1 PUSH2 0x100 EXP SWAP1 DIV PUSH1 0xFF AND SWAP1 POP SWAP3 SWAP2 POP POP JUMP JUMPDEST PUSH2 0x19E3 PUSH2 0x1FDA JUMP JUMPDEST PUSH1 0x0 PUSH20 0xFFFFFFFFFFFFFFFFFFFFFFFFFFFFFFFFFFFFFFFF AND DUP2 PUSH20 0xFFFFFFFFFFFFFFFFFFFFFFFFFFFFFFFFFFFFFFFF AND SUB PUSH2 0x1A52 JUMPI PUSH1 0x40 MLOAD PUSH32 0x8C379A000000000000000000000000000000000000000000000000000000000 DUP2 MSTORE PUSH1 0x4 ADD PUSH2 0x1A49 SWAP1 PUSH2 0x489A JUMP JUMPDEST PUSH1 0x40 MLOAD DUP1 SWAP2 SUB SWAP1 REVERT JUMPDEST PUSH2 0x1A5B DUP2 PUSH2 0x2095 JUMP JUMPDEST POP JUMP JUMPDEST PUSH1 0x0 PUSH32 0x80AC58CD00000000000000000000000000000000000000000000000000000000 PUSH28 0xFFFFFFFFFFFFFFFFFFFFFFFFFFFFFFFFFFFFFFFFFFFFFFFFFFFFFFFF NOT AND DUP3 PUSH28 0xFFFFFFFFFFFFFFFFFFFFFFFFFFFFFFFFFFFFFFFFFFFFFFFFFFFFFFFF NOT AND EQ DUP1 PUSH2 0x1B29 JUMPI POP PUSH32 0x5B5E139F00000000000000000000000000000000000000000000000000000000 PUSH28 0xFFFFFFFFFFFFFFFFFFFFFFFFFFFFFFFFFFFFFFFFFFFFFFFFFFFFFFFF NOT AND DUP3 PUSH28 0xFFFFFFFFFFFFFFFFFFFFFFFFFFFFFFFFFFFFFFFFFFFFFFFFFFFFFFFF NOT AND EQ JUMPDEST DUP1 PUSH2 0x1B39 JUMPI POP PUSH2 0x1B38 DUP3 PUSH2 0x24E0 JUMP JUMPDEST JUMPDEST SWAP1 POP SWAP2 SWAP1 POP JUMP JUMPDEST PUSH2 0x1B49 DUP2 PUSH2 0x2321 JUMP JUMPDEST PUSH2 0x1B88 JUMPI PUSH1 0x40 MLOAD PUSH32 0x8C379A000000000000000000000000000000000000000000000000000000000 DUP2 MSTORE PUSH1 0x4 ADD PUSH2 0x1B7F SWAP1 PUSH2 0x4412 JUMP JUMPDEST PUSH1 0x40 MLOAD DUP1 SWAP2 SUB SWAP1 REVERT JUMPDEST POP JUMP JUMPDEST PUSH1 0x0 CALLER SWAP1 POP SWAP1 JUMP JUMPDEST DUP2 PUSH1 0x5 PUSH1 0x0 DUP4 DUP2 MSTORE PUSH1 0x20 ADD SWAP1 DUP2 MSTORE PUSH1 0x20 ADD PUSH1 0x0 KECCAK256 PUSH1 0x0 PUSH2 0x100 EXP DUP2 SLOAD DUP2 PUSH20 0xFFFFFFFFFFFFFFFFFFFFFFFFFFFFFFFFFFFFFFFF MUL NOT AND SWAP1 DUP4 PUSH20 0xFFFFFFFFFFFFFFFFFFFFFFFFFFFFFFFFFFFFFFFF AND MUL OR SWAP1 SSTORE POP DUP1 DUP3 PUSH20 0xFFFFFFFFFFFFFFFFFFFFFFFFFFFFFFFFFFFFFFFF AND PUSH2 0x1C06 DUP4 PUSH2 0xBD6 JUMP JUMPDEST PUSH20 0xFFFFFFFFFFFFFFFFFFFFFFFFFFFFFFFFFFFFFFFF AND PUSH32 0x8C5BE1E5EBEC7D5BD14F71427D1E84F3DD0314C0F7B2291E5B200AC8C7C3B925 PUSH1 0x40 MLOAD PUSH1 0x40 MLOAD DUP1 SWAP2 SUB SWAP1 LOG4 POP POP JUMP JUMPDEST PUSH1 0x0 DUP1 PUSH2 0x1C58 DUP4 PUSH2 0xBD6 JUMP JUMPDEST SWAP1 POP DUP1 PUSH20 0xFFFFFFFFFFFFFFFFFFFFFFFFFFFFFFFFFFFFFFFF AND DUP5 PUSH20 0xFFFFFFFFFFFFFFFFFFFFFFFFFFFFFFFFFFFFFFFF AND EQ DUP1 PUSH2 0x1C9A JUMPI POP PUSH2 0x1C99 DUP2 DUP6 PUSH2 0x1947 JUMP JUMPDEST JUMPDEST DUP1 PUSH2 0x1CD8 JUMPI POP DUP4 PUSH20 0xFFFFFFFFFFFFFFFFFFFFFFFFFFFFFFFFFFFFFFFF AND PUSH2 0x1CC0 DUP5 PUSH2 0x7CB JUMP JUMPDEST PUSH20 0xFFFFFFFFFFFFFFFFFFFFFFFFFFFFFFFFFFFFFFFF AND EQ JUMPDEST SWAP2 POP POP SWAP3 SWAP2 POP POP JUMP JUMPDEST DUP3 PUSH20 0xFFFFFFFFFFFFFFFFFFFFFFFFFFFFFFFFFFFFFFFF AND PUSH2 0x1D01 DUP3 PUSH2 0xBD6 JUMP JUMPDEST PUSH20 0xFFFFFFFFFFFFFFFFFFFFFFFFFFFFFFFFFFFFFFFF AND EQ PUSH2 0x1D57 JUMPI PUSH1 0x40 MLOAD PUSH32 0x8C379A000000000000000000000000000000000000000000000000000000000 DUP2 MSTORE PUSH1 0x4 ADD PUSH2 0x1D4E SWAP1 PUSH2 0x492C JUMP JUMPDEST PUSH1 0x40 MLOAD DUP1 SWAP2 SUB SWAP1 REVERT JUMPDEST PUSH1 0x0 PUSH20 0xFFFFFFFFFFFFFFFFFFFFFFFFFFFFFFFFFFFFFFFF AND DUP3 PUSH20 0xFFFFFFFFFFFFFFFFFFFFFFFFFFFFFFFFFFFFFFFF AND SUB PUSH2 0x1DC6 JUMPI PUSH1 0x40 MLOAD PUSH32 0x8C379A000000000000000000000000000000000000000000000000000000000 DUP2 MSTORE PUSH1 0x4 ADD PUSH2 0x1DBD SWAP1 PUSH2 0x49BE JUMP JUMPDEST PUSH1 0x40 MLOAD DUP1 SWAP2 SUB SWAP1 REVERT JUMPDEST PUSH2 0x1DD3 DUP4 DUP4 DUP4 PUSH1 0x1 PUSH2 0x254A JUMP JUMPDEST DUP3 PUSH20 0xFFFFFFFFFFFFFFFFFFFFFFFFFFFFFFFFFFFFFFFF AND PUSH2 0x1DF3 DUP3 PUSH2 0xBD6 JUMP JUMPDEST PUSH20 0xFFFFFFFFFFFFFFFFFFFFFFFFFFFFFFFFFFFFFFFF AND EQ PUSH2 0x1E49 JUMPI PUSH1 0x40 MLOAD PUSH32 0x8C379A000000000000000000000000000000000000000000000000000000000 DUP2 MSTORE PUSH1 0x4 ADD PUSH2 0x1E40 SWAP1 PUSH2 0x492C JUMP JUMPDEST PUSH1 0x40 MLOAD DUP1 SWAP2 SUB SWAP1 REVERT JUMPDEST PUSH1 0x5 PUSH1 0x0 DUP3 DUP2 MSTORE PUSH1 0x20 ADD SWAP1 DUP2 MSTORE PUSH1 0x20 ADD PUSH1 0x0 KECCAK256 PUSH1 0x0 PUSH2 0x100 EXP DUP2 SLOAD SWAP1 PUSH20 0xFFFFFFFFFFFFFFFFFFFFFFFFFFFFFFFFFFFFFFFF MUL NOT AND SWAP1 SSTORE PUSH1 0x1 PUSH1 0x4 PUSH1 0x0 DUP6 PUSH20 0xFFFFFFFFFFFFFFFFFFFFFFFFFFFFFFFFFFFFFFFF AND PUSH20 0xFFFFFFFFFFFFFFFFFFFFFFFFFFFFFFFFFFFFFFFF AND DUP2 MSTORE PUSH1 0x20 ADD SWAP1 DUP2 MSTORE PUSH1 0x20 ADD PUSH1 0x0 KECCAK256 PUSH1 0x0 DUP3 DUP3 SLOAD SUB SWAP3 POP POP DUP2 SWAP1 SSTORE POP PUSH1 0x1 PUSH1 0x4 PUSH1 0x0 DUP5 PUSH20 0xFFFFFFFFFFFFFFFFFFFFFFFFFFFFFFFFFFFFFFFF AND PUSH20 0xFFFFFFFFFFFFFFFFFFFFFFFFFFFFFFFFFFFFFFFF AND DUP2 MSTORE PUSH1 0x20 ADD SWAP1 DUP2 MSTORE PUSH1 0x20 ADD PUSH1 0x0 KECCAK256 PUSH1 0x0 DUP3 DUP3 SLOAD ADD SWAP3 POP POP DUP2 SWAP1 SSTORE POP DUP2 PUSH1 0x3 PUSH1 0x0 DUP4 DUP2 MSTORE PUSH1 0x20 ADD SWAP1 DUP2 MSTORE PUSH1 0x20 ADD PUSH1 0x0 KECCAK256 PUSH1 0x0 PUSH2 0x100 EXP DUP2 SLOAD DUP2 PUSH20 0xFFFFFFFFFFFFFFFFFFFFFFFFFFFFFFFFFFFFFFFF MUL NOT AND SWAP1 DUP4 PUSH20 0xFFFFFFFFFFFFFFFFFFFFFFFFFFFFFFFFFFFFFFFF AND MUL OR SWAP1 SSTORE POP DUP1 DUP3 PUSH20 0xFFFFFFFFFFFFFFFFFFFFFFFFFFFFFFFFFFFFFFFF AND DUP5 PUSH20 0xFFFFFFFFFFFFFFFFFFFFFFFFFFFFFFFFFFFFFFFF AND PUSH32 0xDDF252AD1BE2C89B69C2B068FC378DAA952BA7F163C4A11628F55A4DF523B3EF PUSH1 0x40 MLOAD PUSH1 0x40 MLOAD DUP1 SWAP2 SUB SWAP1 LOG4 PUSH2 0x1FD5 DUP4 DUP4 DUP4 PUSH1 0x1 PUSH2 0x26A8 JUMP JUMPDEST POP POP POP JUMP JUMPDEST PUSH2 0x1FE2 PUSH2 0x1B8B JUMP JUMPDEST PUSH20 0xFFFFFFFFFFFFFFFFFFFFFFFFFFFFFFFFFFFFFFFF AND PUSH2 0x2000 PUSH2 0xE3F JUMP JUMPDEST PUSH20 0xFFFFFFFFFFFFFFFFFFFFFFFFFFFFFFFFFFFFFFFF AND EQ PUSH2 0x2056 JUMPI PUSH1 0x40 MLOAD PUSH32 0x8C379A000000000000000000000000000000000000000000000000000000000 DUP2 MSTORE PUSH1 0x4 ADD PUSH2 0x204D SWAP1 PUSH2 0x4A2A JUMP JUMPDEST PUSH1 0x40 MLOAD DUP1 SWAP2 SUB SWAP1 REVERT JUMPDEST JUMP JUMPDEST PUSH1 0x0 PUSH1 0x3 PUSH1 0x0 DUP4 DUP2 MSTORE PUSH1 0x20 ADD SWAP1 DUP2 MSTORE PUSH1 0x20 ADD PUSH1 0x0 KECCAK256 PUSH1 0x0 SWAP1 SLOAD SWAP1 PUSH2 0x100 EXP SWAP1 DIV PUSH20 0xFFFFFFFFFFFFFFFFFFFFFFFFFFFFFFFFFFFFFFFF AND SWAP1 POP SWAP2 SWAP1 POP JUMP JUMPDEST PUSH1 0x0 DUP1 PUSH1 0x0 SWAP1 SLOAD SWAP1 PUSH2 0x100 EXP SWAP1 DIV PUSH20 0xFFFFFFFFFFFFFFFFFFFFFFFFFFFFFFFFFFFFFFFF AND SWAP1 POP DUP2 PUSH1 0x0 DUP1 PUSH2 0x100 EXP DUP2 SLOAD DUP2 PUSH20 0xFFFFFFFFFFFFFFFFFFFFFFFFFFFFFFFFFFFFFFFF MUL NOT AND SWAP1 DUP4 PUSH20 0xFFFFFFFFFFFFFFFFFFFFFFFFFFFFFFFFFFFFFFFF AND MUL OR SWAP1 SSTORE POP DUP2 PUSH20 0xFFFFFFFFFFFFFFFFFFFFFFFFFFFFFFFFFFFFFFFF AND DUP2 PUSH20 0xFFFFFFFFFFFFFFFFFFFFFFFFFFFFFFFFFFFFFFFF AND PUSH32 0x8BE0079C531659141344CD1FD0A4F28419497F9722A3DAAFE3B4186F6B6457E0 PUSH1 0x40 MLOAD PUSH1 0x40 MLOAD DUP1 SWAP2 SUB SWAP1 LOG3 POP POP JUMP JUMPDEST DUP2 PUSH20 0xFFFFFFFFFFFFFFFFFFFFFFFFFFFFFFFFFFFFFFFF AND DUP4 PUSH20 0xFFFFFFFFFFFFFFFFFFFFFFFFFFFFFFFFFFFFFFFF AND SUB PUSH2 0x21C7 JUMPI PUSH1 0x40 MLOAD PUSH32 0x8C379A000000000000000000000000000000000000000000000000000000000 DUP2 MSTORE PUSH1 0x4 ADD PUSH2 0x21BE SWAP1 PUSH2 0x4A96 JUMP JUMPDEST PUSH1 0x40 MLOAD DUP1 SWAP2 SUB SWAP1 REVERT JUMPDEST DUP1 PUSH1 0x6 PUSH1 0x0 DUP6 PUSH20 0xFFFFFFFFFFFFFFFFFFFFFFFFFFFFFFFFFFFFFFFF AND PUSH20 0xFFFFFFFFFFFFFFFFFFFFFFFFFFFFFFFFFFFFFFFF AND DUP2 MSTORE PUSH1 0x20 ADD SWAP1 DUP2 MSTORE PUSH1 0x20 ADD PUSH1 0x0 KECCAK256 PUSH1 0x0 DUP5 PUSH20 0xFFFFFFFFFFFFFFFFFFFFFFFFFFFFFFFFFFFFFFFF AND PUSH20 0xFFFFFFFFFFFFFFFFFFFFFFFFFFFFFFFFFFFFFFFF AND DUP2 MSTORE PUSH1 0x20 ADD SWAP1 DUP2 MSTORE PUSH1 0x20 ADD PUSH1 0x0 KECCAK256 PUSH1 0x0 PUSH2 0x100 EXP DUP2 SLOAD DUP2 PUSH1 0xFF MUL NOT AND SWAP1 DUP4 ISZERO ISZERO MUL OR SWAP1 SSTORE POP DUP2 PUSH20 0xFFFFFFFFFFFFFFFFFFFFFFFFFFFFFFFFFFFFFFFF AND DUP4 PUSH20 0xFFFFFFFFFFFFFFFFFFFFFFFFFFFFFFFFFFFFFFFF AND PUSH32 0x17307EAB39AB6107E8899845AD3D59BD9653F200F220920489CA2B5937696C31 DUP4 PUSH1 0x40 MLOAD PUSH2 0x22B8 SWAP2 SWAP1 PUSH2 0x3028 JUMP JUMPDEST PUSH1 0x40 MLOAD DUP1 SWAP2 SUB SWAP1 LOG3 POP POP POP JUMP JUMPDEST PUSH2 0x22D0 DUP5 DUP5 DUP5 PUSH2 0x1CE1 JUMP JUMPDEST PUSH2 0x22DC DUP5 DUP5 DUP5 DUP5 PUSH2 0x26AE JUMP JUMPDEST PUSH2 0x231B JUMPI PUSH1 0x40 MLOAD PUSH32 0x8C379A000000000000000000000000000000000000000000000000000000000 DUP2 MSTORE PUSH1 0x4 ADD PUSH2 0x2312 SWAP1 PUSH2 0x4B28 JUMP JUMPDEST PUSH1 0x40 MLOAD DUP1 SWAP2 SUB SWAP1 REVERT JUMPDEST POP POP POP POP JUMP JUMPDEST PUSH1 0x0 DUP1 PUSH20 0xFFFFFFFFFFFFFFFFFFFFFFFFFFFFFFFFFFFFFFFF AND PUSH2 0x2343 DUP4 PUSH2 0x2058 JUMP JUMPDEST PUSH20 0xFFFFFFFFFFFFFFFFFFFFFFFFFFFFFFFFFFFFFFFF AND EQ ISZERO SWAP1 POP SWAP2 SWAP1 POP JUMP JUMPDEST PUSH1 0x60 PUSH1 0xB DUP1 SLOAD PUSH2 0x2371 SWAP1 PUSH2 0x3A5F JUMP JUMPDEST DUP1 PUSH1 0x1F ADD PUSH1 0x20 DUP1 SWAP2 DIV MUL PUSH1 0x20 ADD PUSH1 0x40 MLOAD SWAP1 DUP2 ADD PUSH1 0x40 MSTORE DUP1 SWAP3 SWAP2 SWAP1 DUP2 DUP2 MSTORE PUSH1 0x20 ADD DUP3 DUP1 SLOAD PUSH2 0x239D SWAP1 PUSH2 0x3A5F JUMP JUMPDEST DUP1 ISZERO PUSH2 0x23EA JUMPI DUP1 PUSH1 0x1F LT PUSH2 0x23BF JUMPI PUSH2 0x100 DUP1 DUP4 SLOAD DIV MUL DUP4 MSTORE SWAP2 PUSH1 0x20 ADD SWAP2 PUSH2 0x23EA JUMP JUMPDEST DUP3 ADD SWAP2 SWAP1 PUSH1 0x0 MSTORE PUSH1 0x20 PUSH1 0x0 KECCAK256 SWAP1 JUMPDEST DUP2 SLOAD DUP2 MSTORE SWAP1 PUSH1 0x1 ADD SWAP1 PUSH1 0x20 ADD DUP1 DUP4 GT PUSH2 0x23CD JUMPI DUP3 SWAP1 SUB PUSH1 0x1F AND DUP3 ADD SWAP2 JUMPDEST POP POP POP POP POP SWAP1 POP SWAP1 JUMP JUMPDEST PUSH1 0x60 PUSH1 0x0 PUSH1 0x1 PUSH2 0x2403 DUP5 PUSH2 0x2835 JUMP JUMPDEST ADD SWAP1 POP PUSH1 0x0 DUP2 PUSH8 0xFFFFFFFFFFFFFFFF DUP2 GT ISZERO PUSH2 0x2422 JUMPI PUSH2 0x2421 PUSH2 0x37F9 JUMP JUMPDEST JUMPDEST PUSH1 0x40 MLOAD SWAP1 DUP1 DUP3 MSTORE DUP1 PUSH1 0x1F ADD PUSH1 0x1F NOT AND PUSH1 0x20 ADD DUP3 ADD PUSH1 0x40 MSTORE DUP1 ISZERO PUSH2 0x2454 JUMPI DUP2 PUSH1 0x20 ADD PUSH1 0x1 DUP3 MUL DUP1 CALLDATASIZE DUP4 CALLDATACOPY DUP1 DUP3 ADD SWAP2 POP POP SWAP1 POP JUMPDEST POP SWAP1 POP PUSH1 0x0 DUP3 PUSH1 0x20 ADD DUP3 ADD SWAP1 POP JUMPDEST PUSH1 0x1 ISZERO PUSH2 0x24B7 JUMPI DUP1 DUP1 PUSH1 0x1 SWAP1 SUB SWAP2 POP POP PUSH32 0x3031323334353637383961626364656600000000000000000000000000000000 PUSH1 0xA DUP7 MOD BYTE DUP2 MSTORE8 PUSH1 0xA DUP6 DUP2 PUSH2 0x24AB JUMPI PUSH2 0x24AA PUSH2 0x4B48 JUMP JUMPDEST JUMPDEST DIV SWAP5 POP PUSH1 0x0 DUP6 SUB PUSH2 0x2462 JUMPI JUMPDEST DUP2 SWAP4 POP POP POP POP SWAP2 SWAP1 POP JUMP JUMPDEST PUSH2 0x24DC DUP3 DUP3 PUSH1 0x40 MLOAD DUP1 PUSH1 0x20 ADD PUSH1 0x40 MSTORE DUP1 PUSH1 0x0 DUP2 MSTORE POP PUSH2 0x2988 JUMP JUMPDEST POP POP JUMP JUMPDEST PUSH1 0x0 PUSH32 0x1FFC9A700000000000000000000000000000000000000000000000000000000 PUSH28 0xFFFFFFFFFFFFFFFFFFFFFFFFFFFFFFFFFFFFFFFFFFFFFFFFFFFFFFFF NOT AND DUP3 PUSH28 0xFFFFFFFFFFFFFFFFFFFFFFFFFFFFFFFFFFFFFFFFFFFFFFFFFFFFFFFF NOT AND EQ SWAP1 POP SWAP2 SWAP1 POP JUMP JUMPDEST PUSH2 0x2556 DUP5 DUP5 DUP5 DUP5 PUSH2 0x29E3 JUMP JUMPDEST PUSH1 0x1 DUP2 GT ISZERO PUSH2 0x259A JUMPI PUSH1 0x40 MLOAD PUSH32 0x8C379A000000000000000000000000000000000000000000000000000000000 DUP2 MSTORE PUSH1 0x4 ADD PUSH2 0x2591 SWAP1 PUSH2 0x4BE9 JUMP JUMPDEST PUSH1 0x40 MLOAD DUP1 SWAP2 SUB SWAP1 REVERT JUMPDEST PUSH1 0x0 DUP3 SWAP1 POP PUSH1 0x0 PUSH20 0xFFFFFFFFFFFFFFFFFFFFFFFFFFFFFFFFFFFFFFFF AND DUP6 PUSH20 0xFFFFFFFFFFFFFFFFFFFFFFFFFFFFFFFFFFFFFFFF AND SUB PUSH2 0x25E1 JUMPI PUSH2 0x25DC DUP2 PUSH2 0x29E9 JUMP JUMPDEST PUSH2 0x2620 JUMP JUMPDEST DUP4 PUSH20 0xFFFFFFFFFFFFFFFFFFFFFFFFFFFFFFFFFFFFFFFF AND DUP6 PUSH20 0xFFFFFFFFFFFFFFFFFFFFFFFFFFFFFFFFFFFFFFFF AND EQ PUSH2 0x261F JUMPI PUSH2 0x261E DUP6 DUP3 PUSH2 0x2A32 JUMP JUMPDEST JUMPDEST JUMPDEST PUSH1 0x0 PUSH20 0xFFFFFFFFFFFFFFFFFFFFFFFFFFFFFFFFFFFFFFFF AND DUP5 PUSH20 0xFFFFFFFFFFFFFFFFFFFFFFFFFFFFFFFFFFFFFFFF AND SUB PUSH2 0x2662 JUMPI PUSH2 0x265D DUP2 PUSH2 0x2B9F JUMP JUMPDEST PUSH2 0x26A1 JUMP JUMPDEST DUP5 PUSH20 0xFFFFFFFFFFFFFFFFFFFFFFFFFFFFFFFFFFFFFFFF AND DUP5 PUSH20 0xFFFFFFFFFFFFFFFFFFFFFFFFFFFFFFFFFFFFFFFF AND EQ PUSH2 0x26A0 JUMPI PUSH2 0x269F DUP5 DUP3 PUSH2 0x2C70 JUMP JUMPDEST JUMPDEST JUMPDEST POP POP POP POP POP JUMP JUMPDEST POP POP POP POP JUMP JUMPDEST PUSH1 0x0 PUSH2 0x26CF DUP5 PUSH20 0xFFFFFFFFFFFFFFFFFFFFFFFFFFFFFFFFFFFFFFFF AND PUSH2 0x2CEF JUMP JUMPDEST ISZERO PUSH2 0x2828 JUMPI DUP4 PUSH20 0xFFFFFFFFFFFFFFFFFFFFFFFFFFFFFFFFFFFFFFFF AND PUSH4 0x150B7A02 PUSH2 0x26F8 PUSH2 0x1B8B JUMP JUMPDEST DUP8 DUP7 DUP7 PUSH1 0x40 MLOAD DUP6 PUSH4 0xFFFFFFFF AND PUSH1 0xE0 SHL DUP2 MSTORE PUSH1 0x4 ADD PUSH2 0x271A SWAP5 SWAP4 SWAP3 SWAP2 SWAP1 PUSH2 0x4C5E JUMP JUMPDEST PUSH1 0x20 PUSH1 0x40 MLOAD DUP1 DUP4 SUB DUP2 PUSH1 0x0 DUP8 GAS CALL SWAP3 POP POP POP DUP1 ISZERO PUSH2 0x2756 JUMPI POP PUSH1 0x40 MLOAD RETURNDATASIZE PUSH1 0x1F NOT PUSH1 0x1F DUP3 ADD AND DUP3 ADD DUP1 PUSH1 0x40 MSTORE POP DUP2 ADD SWAP1 PUSH2 0x2753 SWAP2 SWAP1 PUSH2 0x4CBF JUMP JUMPDEST PUSH1 0x1 JUMPDEST PUSH2 0x27D8 JUMPI RETURNDATASIZE DUP1 PUSH1 0x0 DUP2 EQ PUSH2 0x2786 JUMPI PUSH1 0x40 MLOAD SWAP2 POP PUSH1 0x1F NOT PUSH1 0x3F RETURNDATASIZE ADD AND DUP3 ADD PUSH1 0x40 MSTORE RETURNDATASIZE DUP3 MSTORE RETURNDATASIZE PUSH1 0x0 PUSH1 0x20 DUP5 ADD RETURNDATACOPY PUSH2 0x278B JUMP JUMPDEST PUSH1 0x60 SWAP2 POP JUMPDEST POP PUSH1 0x0 DUP2 MLOAD SUB PUSH2 0x27D0 JUMPI PUSH1 0x40 MLOAD PUSH32 0x8C379A000000000000000000000000000000000000000000000000000000000 DUP2 MSTORE PUSH1 0x4 ADD PUSH2 0x27C7 SWAP1 PUSH2 0x4B28 JUMP JUMPDEST PUSH1 0x40 MLOAD DUP1 SWAP2 SUB SWAP1 REVERT JUMPDEST DUP1 MLOAD DUP2 PUSH1 0x20 ADD REVERT JUMPDEST PUSH4 0x150B7A02 PUSH1 0xE0 SHL PUSH28 0xFFFFFFFFFFFFFFFFFFFFFFFFFFFFFFFFFFFFFFFFFFFFFFFFFFFFFFFF NOT AND DUP2 PUSH28 0xFFFFFFFFFFFFFFFFFFFFFFFFFFFFFFFFFFFFFFFFFFFFFFFFFFFFFFFF NOT AND EQ SWAP2 POP POP PUSH2 0x282D JUMP JUMPDEST PUSH1 0x1 SWAP1 POP JUMPDEST SWAP5 SWAP4 POP POP POP POP JUMP JUMPDEST PUSH1 0x0 DUP1 PUSH1 0x0 SWAP1 POP PUSH27 0x184F03E93FF9F4DAA797ED6E38ED64BF6A1F010000000000000000 DUP4 LT PUSH2 0x2893 JUMPI PUSH27 0x184F03E93FF9F4DAA797ED6E38ED64BF6A1F010000000000000000 DUP4 DUP2 PUSH2 0x2889 JUMPI PUSH2 0x2888 PUSH2 0x4B48 JUMP JUMPDEST JUMPDEST DIV SWAP3 POP PUSH1 0x40 DUP2 ADD SWAP1 POP JUMPDEST PUSH14 0x4EE2D6D415B85ACEF8100000000 DUP4 LT PUSH2 0x28D0 JUMPI PUSH14 0x4EE2D6D415B85ACEF8100000000 DUP4 DUP2 PUSH2 0x28C6 JUMPI PUSH2 0x28C5 PUSH2 0x4B48 JUMP JUMPDEST JUMPDEST DIV SWAP3 POP PUSH1 0x20 DUP2 ADD SWAP1 POP JUMPDEST PUSH7 0x2386F26FC10000 DUP4 LT PUSH2 0x28FF JUMPI PUSH7 0x2386F26FC10000 DUP4 DUP2 PUSH2 0x28F5 JUMPI PUSH2 0x28F4 PUSH2 0x4B48 JUMP JUMPDEST JUMPDEST DIV SWAP3 POP PUSH1 0x10 DUP2 ADD SWAP1 POP JUMPDEST PUSH4 0x5F5E100 DUP4 LT PUSH2 0x2928 JUMPI PUSH4 0x5F5E100 DUP4 DUP2 PUSH2 0x291E JUMPI PUSH2 0x291D PUSH2 0x4B48 JUMP JUMPDEST JUMPDEST DIV SWAP3 POP PUSH1 0x8 DUP2 ADD SWAP1 POP JUMPDEST PUSH2 0x2710 DUP4 LT PUSH2 0x294D JUMPI PUSH2 0x2710 DUP4 DUP2 PUSH2 0x2943 JUMPI PUSH2 0x2942 PUSH2 0x4B48 JUMP JUMPDEST JUMPDEST DIV SWAP3 POP PUSH1 0x4 DUP2 ADD SWAP1 POP JUMPDEST PUSH1 0x64 DUP4 LT PUSH2 0x2970 JUMPI PUSH1 0x64 DUP4 DUP2 PUSH2 0x2966 JUMPI PUSH2 0x2965 PUSH2 0x4B48 JUMP JUMPDEST JUMPDEST DIV SWAP3 POP PUSH1 0x2 DUP2 ADD SWAP1 POP JUMPDEST PUSH1 0xA DUP4 LT PUSH2 0x297F JUMPI PUSH1 0x1 DUP2 ADD SWAP1 POP JUMPDEST DUP1 SWAP2 POP POP SWAP2 SWAP1 POP JUMP JUMPDEST PUSH2 0x2992 DUP4 DUP4 PUSH2 0x2D12 JUMP JUMPDEST PUSH2 0x299F PUSH1 0x0 DUP5 DUP5 DUP5 PUSH2 0x26AE JUMP JUMPDEST PUSH2 0x29DE JUMPI PUSH1 0x40 MLOAD PUSH32 0x8C379A000000000000000000000000000000000000000000000000000000000 DUP2 MSTORE PUSH1 0x4 ADD PUSH2 0x29D5 SWAP1 PUSH2 0x4B28 JUMP JUMPDEST PUSH1 0x40 MLOAD DUP1 SWAP2 SUB SWAP1 REVERT JUMPDEST POP POP POP JUMP JUMPDEST POP POP POP POP JUMP JUMPDEST PUSH1 0x9 DUP1 SLOAD SWAP1 POP PUSH1 0xA PUSH1 0x0 DUP4 DUP2 MSTORE PUSH1 0x20 ADD SWAP1 DUP2 MSTORE PUSH1 0x20 ADD PUSH1 0x0 KECCAK256 DUP2 SWAP1 SSTORE POP PUSH1 0x9 DUP2 SWAP1 DUP1 PUSH1 0x1 DUP2 SLOAD ADD DUP1 DUP3 SSTORE DUP1 SWAP2 POP POP PUSH1 0x1 SWAP1 SUB SWAP1 PUSH1 0x0 MSTORE PUSH1 0x20 PUSH1 0x0 KECCAK256 ADD PUSH1 0x0 SWAP1 SWAP2 SWAP1 SWAP2 SWAP1 SWAP2 POP SSTORE POP JUMP JUMPDEST PUSH1 0x0 PUSH1 0x1 PUSH2 0x2A3F DUP5 PUSH2 0xC5C JUMP JUMPDEST PUSH2 0x2A49 SWAP2 SWAP1 PUSH2 0x4CEC JUMP JUMPDEST SWAP1 POP PUSH1 0x0 PUSH1 0x8 PUSH1 0x0 DUP5 DUP2 MSTORE PUSH1 0x20 ADD SWAP1 DUP2 MSTORE PUSH1 0x20 ADD PUSH1 0x0 KECCAK256 SLOAD SWAP1 POP DUP2 DUP2 EQ PUSH2 0x2B2E JUMPI PUSH1 0x0 PUSH1 0x7 PUSH1 0x0 DUP7 PUSH20 0xFFFFFFFFFFFFFFFFFFFFFFFFFFFFFFFFFFFFFFFF AND PUSH20 0xFFFFFFFFFFFFFFFFFFFFFFFFFFFFFFFFFFFFFFFF AND DUP2 MSTORE PUSH1 0x20 ADD SWAP1 DUP2 MSTORE PUSH1 0x20 ADD PUSH1 0x0 KECCAK256 PUSH1 0x0 DUP5 DUP2 MSTORE PUSH1 0x20 ADD SWAP1 DUP2 MSTORE PUSH1 0x20 ADD PUSH1 0x0 KECCAK256 SLOAD SWAP1 POP DUP1 PUSH1 0x7 PUSH1 0x0 DUP8 PUSH20 0xFFFFFFFFFFFFFFFFFFFFFFFFFFFFFFFFFFFFFFFF AND PUSH20 0xFFFFFFFFFFFFFFFFFFFFFFFFFFFFFFFFFFFFFFFF AND DUP2 MSTORE PUSH1 0x20 ADD SWAP1 DUP2 MSTORE PUSH1 0x20 ADD PUSH1 0x0 KECCAK256 PUSH1 0x0 DUP5 DUP2 MSTORE PUSH1 0x20 ADD SWAP1 DUP2 MSTORE PUSH1 0x20 ADD PUSH1 0x0 KECCAK256 DUP2 SWAP1 SSTORE POP DUP2 PUSH1 0x8 PUSH1 0x0 DUP4 DUP2 MSTORE PUSH1 0x20 ADD SWAP1 DUP2 MSTORE PUSH1 0x20 ADD PUSH1 0x0 KECCAK256 DUP2 SWAP1 SSTORE POP POP JUMPDEST PUSH1 0x8 PUSH1 0x0 DUP5 DUP2 MSTORE PUSH1 0x20 ADD SWAP1 DUP2 MSTORE PUSH1 0x20 ADD PUSH1 0x0 KECCAK256 PUSH1 0x0 SWAP1 SSTORE PUSH1 0x7 PUSH1 0x0 DUP6 PUSH20 0xFFFFFFFFFFFFFFFFFFFFFFFFFFFFFFFFFFFFFFFF AND PUSH20 0xFFFFFFFFFFFFFFFFFFFFFFFFFFFFFFFFFFFFFFFF AND DUP2 MSTORE PUSH1 0x20 ADD SWAP1 DUP2 MSTORE PUSH1 0x20 ADD PUSH1 0x0 KECCAK256 PUSH1 0x0 DUP4 DUP2 MSTORE PUSH1 0x20 ADD SWAP1 DUP2 MSTORE PUSH1 0x20 ADD PUSH1 0x0 KECCAK256 PUSH1 0x0 SWAP1 SSTORE POP POP POP POP JUMP JUMPDEST PUSH1 0x0 PUSH1 0x1 PUSH1 0x9 DUP1 SLOAD SWAP1 POP PUSH2 0x2BB3 SWAP2 SWAP1 PUSH2 0x4CEC JUMP JUMPDEST SWAP1 POP PUSH1 0x0 PUSH1 0xA PUSH1 0x0 DUP5 DUP2 MSTORE PUSH1 0x20 ADD SWAP1 DUP2 MSTORE PUSH1 0x20 ADD PUSH1 0x0 KECCAK256 SLOAD SWAP1 POP PUSH1 0x0 PUSH1 0x9 DUP4 DUP2 SLOAD DUP2 LT PUSH2 0x2BE3 JUMPI PUSH2 0x2BE2 PUSH2 0x4397 JUMP JUMPDEST JUMPDEST SWAP1 PUSH1 0x0 MSTORE PUSH1 0x20 PUSH1 0x0 KECCAK256 ADD SLOAD SWAP1 POP DUP1 PUSH1 0x9 DUP4 DUP2 SLOAD DUP2 LT PUSH2 0x2C05 JUMPI PUSH2 0x2C04 PUSH2 0x4397 JUMP JUMPDEST JUMPDEST SWAP1 PUSH1 0x0 MSTORE PUSH1 0x20 PUSH1 0x0 KECCAK256 ADD DUP2 SWAP1 SSTORE POP DUP2 PUSH1 0xA PUSH1 0x0 DUP4 DUP2 MSTORE PUSH1 0x20 ADD SWAP1 DUP2 MSTORE PUSH1 0x20 ADD PUSH1 0x0 KECCAK256 DUP2 SWAP1 SSTORE POP PUSH1 0xA PUSH1 0x0 DUP6 DUP2 MSTORE PUSH1 0x20 ADD SWAP1 DUP2 MSTORE PUSH1 0x20 ADD PUSH1 0x0 KECCAK256 PUSH1 0x0 SWAP1 SSTORE PUSH1 0x9 DUP1 SLOAD DUP1 PUSH2 0x2C54 JUMPI PUSH2 0x2C53 PUSH2 0x4D20 JUMP JUMPDEST JUMPDEST PUSH1 0x1 SWAP1 SUB DUP2 DUP2 SWAP1 PUSH1 0x0 MSTORE PUSH1 0x20 PUSH1 0x0 KECCAK256 ADD PUSH1 0x0 SWAP1 SSTORE SWAP1 SSTORE POP POP POP POP JUMP JUMPDEST PUSH1 0x0 PUSH2 0x2C7B DUP4 PUSH2 0xC5C JUMP JUMPDEST SWAP1 POP DUP2 PUSH1 0x7 PUSH1 0x0 DUP6 PUSH20 0xFFFFFFFFFFFFFFFFFFFFFFFFFFFFFFFFFFFFFFFF AND PUSH20 0xFFFFFFFFFFFFFFFFFFFFFFFFFFFFFFFFFFFFFFFF AND DUP2 MSTORE PUSH1 0x20 ADD SWAP1 DUP2 MSTORE PUSH1 0x20 ADD PUSH1 0x0 KECCAK256 PUSH1 0x0 DUP4 DUP2 MSTORE PUSH1 0x20 ADD SWAP1 DUP2 MSTORE PUSH1 0x20 ADD PUSH1 0x0 KECCAK256 DUP2 SWAP1 SSTORE POP DUP1 PUSH1 0x8 PUSH1 0x0 DUP5 DUP2 MSTORE PUSH1 0x20 ADD SWAP1 DUP2 MSTORE PUSH1 0x20 ADD PUSH1 0x0 KECCAK256 DUP2 SWAP1 SSTORE POP POP POP POP JUMP JUMPDEST PUSH1 0x0 DUP1 DUP3 PUSH20 0xFFFFFFFFFFFFFFFFFFFFFFFFFFFFFFFFFFFFFFFF AND EXTCODESIZE GT SWAP1 POP SWAP2 SWAP1 POP JUMP JUMPDEST PUSH1 0x0 PUSH20 0xFFFFFFFFFFFFFFFFFFFFFFFFFFFFFFFFFFFFFFFF AND DUP3 PUSH20 0xFFFFFFFFFFFFFFFFFFFFFFFFFFFFFFFFFFFFFFFF AND SUB PUSH2 0x2D81 JUMPI PUSH1 0x40 MLOAD PUSH32 0x8C379A000000000000000000000000000000000000000000000000000000000 DUP2 MSTORE PUSH1 0x4 ADD PUSH2 0x2D78 SWAP1 PUSH2 0x4D9B JUMP JUMPDEST PUSH1 0x40 MLOAD DUP1 SWAP2 SUB SWAP1 REVERT JUMPDEST PUSH2 0x2D8A DUP2 PUSH2 0x2321 JUMP JUMPDEST ISZERO PUSH2 0x2DCA JUMPI PUSH1 0x40 MLOAD PUSH32 0x8C379A000000000000000000000000000000000000000000000000000000000 DUP2 MSTORE PUSH1 0x4 ADD PUSH2 0x2DC1 SWAP1 PUSH2 0x4E07 JUMP JUMPDEST PUSH1 0x40 MLOAD DUP1 SWAP2 SUB SWAP1 REVERT JUMPDEST PUSH2 0x2DD8 PUSH1 0x0 DUP4 DUP4 PUSH1 0x1 PUSH2 0x254A JUMP JUMPDEST PUSH2 0x2DE1 DUP2 PUSH2 0x2321 JUMP JUMPDEST ISZERO PUSH2 0x2E21 JUMPI PUSH1 0x40 MLOAD PUSH32 0x8C379A000000000000000000000000000000000000000000000000000000000 DUP2 MSTORE PUSH1 0x4 ADD PUSH2 0x2E18 SWAP1 PUSH2 0x4E07 JUMP JUMPDEST PUSH1 0x40 MLOAD DUP1 SWAP2 SUB SWAP1 REVERT JUMPDEST PUSH1 0x1 PUSH1 0x4 PUSH1 0x0 DUP5 PUSH20 0xFFFFFFFFFFFFFFFFFFFFFFFFFFFFFFFFFFFFFFFF AND PUSH20 0xFFFFFFFFFFFFFFFFFFFFFFFFFFFFFFFFFFFFFFFF AND DUP2 MSTORE PUSH1 0x20 ADD SWAP1 DUP2 MSTORE PUSH1 0x20 ADD PUSH1 0x0 KECCAK256 PUSH1 0x0 DUP3 DUP3 SLOAD ADD SWAP3 POP POP DUP2 SWAP1 SSTORE POP DUP2 PUSH1 0x3 PUSH1 0x0 DUP4 DUP2 MSTORE PUSH1 0x20 ADD SWAP1 DUP2 MSTORE PUSH1 0x20 ADD PUSH1 0x0 KECCAK256 PUSH1 0x0 PUSH2 0x100 EXP DUP2 SLOAD DUP2 PUSH20 0xFFFFFFFFFFFFFFFFFFFFFFFFFFFFFFFFFFFFFFFF MUL NOT AND SWAP1 DUP4 PUSH20 0xFFFFFFFFFFFFFFFFFFFFFFFFFFFFFFFFFFFFFFFF AND MUL OR SWAP1 SSTORE POP DUP1 DUP3 PUSH20 0xFFFFFFFFFFFFFFFFFFFFFFFFFFFFFFFFFFFFFFFF AND PUSH1 0x0 PUSH20 0xFFFFFFFFFFFFFFFFFFFFFFFFFFFFFFFFFFFFFFFF AND PUSH32 0xDDF252AD1BE2C89B69C2B068FC378DAA952BA7F163C4A11628F55A4DF523B3EF PUSH1 0x40 MLOAD PUSH1 0x40 MLOAD DUP1 SWAP2 SUB SWAP1 LOG4 PUSH2 0x2F2B PUSH1 0x0 DUP4 DUP4 PUSH1 0x1 PUSH2 0x26A8 JUMP JUMPDEST POP POP JUMP JUMPDEST PUSH1 0x40 MLOAD DUP1 PUSH1 0xA0 ADD PUSH1 0x40 MSTORE DUP1 PUSH1 0x0 PUSH20 0xFFFFFFFFFFFFFFFFFFFFFFFFFFFFFFFFFFFFFFFF AND DUP2 MSTORE PUSH1 0x20 ADD PUSH1 0x60 DUP2 MSTORE PUSH1 0x20 ADD PUSH1 0x60 DUP2 MSTORE PUSH1 0x20 ADD PUSH1 0x60 DUP2 MSTORE PUSH1 0x20 ADD PUSH1 0x60 DUP2 MSTORE POP SWAP1 JUMP JUMPDEST PUSH1 0x0 PUSH1 0x40 MLOAD SWAP1 POP SWAP1 JUMP JUMPDEST PUSH1 0x0 DUP1 REVERT JUMPDEST PUSH1 0x0 DUP1 REVERT JUMPDEST PUSH1 0x0 PUSH32 0xFFFFFFFF00000000000000000000000000000000000000000000000000000000 DUP3 AND SWAP1 POP SWAP2 SWAP1 POP JUMP JUMPDEST PUSH2 0x2FBD DUP2 PUSH2 0x2F88 JUMP JUMPDEST DUP2 EQ PUSH2 0x2FC8 JUMPI PUSH1 0x0 DUP1 REVERT JUMPDEST POP JUMP JUMPDEST PUSH1 0x0 DUP2 CALLDATALOAD SWAP1 POP PUSH2 0x2FDA DUP2 PUSH2 0x2FB4 JUMP JUMPDEST SWAP3 SWAP2 POP POP JUMP JUMPDEST PUSH1 0x0 PUSH1 0x20 DUP3 DUP5 SUB SLT ISZERO PUSH2 0x2FF6 JUMPI PUSH2 0x2FF5 PUSH2 0x2F7E JUMP JUMPDEST JUMPDEST PUSH1 0x0 PUSH2 0x3004 DUP5 DUP3 DUP6 ADD PUSH2 0x2FCB JUMP JUMPDEST SWAP2 POP POP SWAP3 SWAP2 POP POP JUMP JUMPDEST PUSH1 0x0 DUP2 ISZERO ISZERO SWAP1 POP SWAP2 SWAP1 POP JUMP JUMPDEST PUSH2 0x3022 DUP2 PUSH2 0x300D JUMP JUMPDEST DUP3 MSTORE POP POP JUMP JUMPDEST PUSH1 0x0 PUSH1 0x20 DUP3 ADD SWAP1 POP PUSH2 0x303D PUSH1 0x0 DUP4 ADD DUP5 PUSH2 0x3019 JUMP JUMPDEST SWAP3 SWAP2 POP POP JUMP JUMPDEST PUSH1 0x0 DUP2 MLOAD SWAP1 POP SWAP2 SWAP1 POP JUMP JUMPDEST PUSH1 0x0 DUP3 DUP3 MSTORE PUSH1 0x20 DUP3 ADD SWAP1 POP SWAP3 SWAP2 POP POP JUMP JUMPDEST PUSH1 0x0 JUMPDEST DUP4 DUP2 LT ISZERO PUSH2 0x307D JUMPI DUP1 DUP3 ADD MLOAD DUP2 DUP5 ADD MSTORE PUSH1 0x20 DUP2 ADD SWAP1 POP PUSH2 0x3062 JUMP JUMPDEST PUSH1 0x0 DUP5 DUP5 ADD MSTORE POP POP POP POP JUMP JUMPDEST PUSH1 0x0 PUSH1 0x1F NOT PUSH1 0x1F DUP4 ADD AND SWAP1 POP SWAP2 SWAP1 POP JUMP JUMPDEST PUSH1 0x0 PUSH2 0x30A5 DUP3 PUSH2 0x3043 JUMP JUMPDEST PUSH2 0x30AF DUP2 DUP6 PUSH2 0x304E JUMP JUMPDEST SWAP4 POP PUSH2 0x30BF DUP2 DUP6 PUSH1 0x20 DUP7 ADD PUSH2 0x305F JUMP JUMPDEST PUSH2 0x30C8 DUP2 PUSH2 0x3089 JUMP JUMPDEST DUP5 ADD SWAP2 POP POP SWAP3 SWAP2 POP POP JUMP JUMPDEST PUSH1 0x0 PUSH1 0x20 DUP3 ADD SWAP1 POP DUP2 DUP2 SUB PUSH1 0x0 DUP4 ADD MSTORE PUSH2 0x30ED DUP2 DUP5 PUSH2 0x309A JUMP JUMPDEST SWAP1 POP SWAP3 SWAP2 POP POP JUMP JUMPDEST PUSH1 0x0 DUP2 SWAP1 POP SWAP2 SWAP1 POP JUMP JUMPDEST PUSH2 0x3108 DUP2 PUSH2 0x30F5 JUMP JUMPDEST DUP2 EQ PUSH2 0x3113 JUMPI PUSH1 0x0 DUP1 REVERT JUMPDEST POP JUMP JUMPDEST PUSH1 0x0 DUP2 CALLDATALOAD SWAP1 POP PUSH2 0x3125 DUP2 PUSH2 0x30FF JUMP JUMPDEST SWAP3 SWAP2 POP POP JUMP JUMPDEST PUSH1 0x0 PUSH1 0x20 DUP3 DUP5 SUB SLT ISZERO PUSH2 0x3141 JUMPI PUSH2 0x3140 PUSH2 0x2F7E JUMP JUMPDEST JUMPDEST PUSH1 0x0 PUSH2 0x314F DUP5 DUP3 DUP6 ADD PUSH2 0x3116 JUMP JUMPDEST SWAP2 POP POP SWAP3 SWAP2 POP POP JUMP JUMPDEST PUSH1 0x0 PUSH20 0xFFFFFFFFFFFFFFFFFFFFFFFFFFFFFFFFFFFFFFFF DUP3 AND SWAP1 POP SWAP2 SWAP1 POP JUMP JUMPDEST PUSH1 0x0 PUSH2 0x3183 DUP3 PUSH2 0x3158 JUMP JUMPDEST SWAP1 POP SWAP2 SWAP1 POP JUMP JUMPDEST PUSH2 0x3193 DUP2 PUSH2 0x3178 JUMP JUMPDEST DUP3 MSTORE POP POP JUMP JUMPDEST PUSH1 0x0 PUSH1 0x20 DUP3 ADD SWAP1 POP PUSH2 0x31AE PUSH1 0x0 DUP4 ADD DUP5 PUSH2 0x318A JUMP JUMPDEST SWAP3 SWAP2 POP POP JUMP JUMPDEST PUSH2 0x31BD DUP2 PUSH2 0x30F5 JUMP JUMPDEST DUP3 MSTORE POP POP JUMP JUMPDEST PUSH1 0x0 PUSH1 0x20 DUP3 ADD SWAP1 POP PUSH2 0x31D8 PUSH1 0x0 DUP4 ADD DUP5 PUSH2 0x31B4 JUMP JUMPDEST SWAP3 SWAP2 POP POP JUMP JUMPDEST PUSH2 0x31E7 DUP2 PUSH2 0x3178 JUMP JUMPDEST DUP2 EQ PUSH2 0x31F2 JUMPI PUSH1 0x0 DUP1 REVERT JUMPDEST POP JUMP JUMPDEST PUSH1 0x0 DUP2 CALLDATALOAD SWAP1 POP PUSH2 0x3204 DUP2 PUSH2 0x31DE JUMP JUMPDEST SWAP3 SWAP2 POP POP JUMP JUMPDEST PUSH1 0x0 DUP1 PUSH1 0x40 DUP4 DUP6 SUB SLT ISZERO PUSH2 0x3221 JUMPI PUSH2 0x3220 PUSH2 0x2F7E JUMP JUMPDEST JUMPDEST PUSH1 0x0 PUSH2 0x322F DUP6 DUP3 DUP7 ADD PUSH2 0x31F5 JUMP JUMPDEST SWAP3 POP POP PUSH1 0x20 PUSH2 0x3240 DUP6 DUP3 DUP7 ADD PUSH2 0x3116 JUMP JUMPDEST SWAP2 POP POP SWAP3 POP SWAP3 SWAP1 POP JUMP JUMPDEST PUSH1 0x0 DUP1 PUSH1 0x0 PUSH1 0x60 DUP5 DUP7 SUB SLT ISZERO PUSH2 0x3263 JUMPI PUSH2 0x3262 PUSH2 0x2F7E JUMP JUMPDEST JUMPDEST PUSH1 0x0 PUSH2 0x3271 DUP7 DUP3 DUP8 ADD PUSH2 0x31F5 JUMP JUMPDEST SWAP4 POP POP PUSH1 0x20 PUSH2 0x3282 DUP7 DUP3 DUP8 ADD PUSH2 0x31F5 JUMP JUMPDEST SWAP3 POP POP PUSH1 0x40 PUSH2 0x3293 DUP7 DUP3 DUP8 ADD PUSH2 0x3116 JUMP JUMPDEST SWAP2 POP POP SWAP3 POP SWAP3 POP SWAP3 JUMP JUMPDEST PUSH1 0x0 DUP1 REVERT JUMPDEST PUSH1 0x0 PUSH1 0xA0 DUP3 DUP5 SUB SLT ISZERO PUSH2 0x32B8 JUMPI PUSH2 0x32B7 PUSH2 0x329D JUMP JUMPDEST JUMPDEST DUP2 SWAP1 POP SWAP3 SWAP2 POP POP JUMP JUMPDEST PUSH1 0x0 DUP1 PUSH1 0x40 DUP4 DUP6 SUB SLT ISZERO PUSH2 0x32D8 JUMPI PUSH2 0x32D7 PUSH2 0x2F7E JUMP JUMPDEST JUMPDEST PUSH1 0x0 PUSH2 0x32E6 DUP6 DUP3 DUP7 ADD PUSH2 0x3116 JUMP JUMPDEST SWAP3 POP POP PUSH1 0x20 DUP4 ADD CALLDATALOAD PUSH8 0xFFFFFFFFFFFFFFFF DUP2 GT ISZERO PUSH2 0x3307 JUMPI PUSH2 0x3306 PUSH2 0x2F83 JUMP JUMPDEST JUMPDEST PUSH2 0x3313 DUP6 DUP3 DUP7 ADD PUSH2 0x32A2 JUMP JUMPDEST SWAP2 POP POP SWAP3 POP SWAP3 SWAP1 POP JUMP JUMPDEST PUSH1 0x0 PUSH1 0x20 DUP3 DUP5 SUB SLT ISZERO PUSH2 0x3333 JUMPI PUSH2 0x3332 PUSH2 0x2F7E JUMP JUMPDEST JUMPDEST PUSH1 0x0 PUSH2 0x3341 DUP5 DUP3 DUP6 ADD PUSH2 0x31F5 JUMP JUMPDEST SWAP2 POP POP SWAP3 SWAP2 POP POP JUMP JUMPDEST PUSH1 0x0 DUP2 MLOAD SWAP1 POP SWAP2 SWAP1 POP JUMP JUMPDEST PUSH1 0x0 DUP3 DUP3 MSTORE PUSH1 0x20 DUP3 ADD SWAP1 POP SWAP3 SWAP2 POP POP JUMP JUMPDEST PUSH1 0x0 DUP2 SWAP1 POP PUSH1 0x20 DUP3 ADD SWAP1 POP SWAP2 SWAP1 POP JUMP JUMPDEST PUSH2 0x337F DUP2 PUSH2 0x30F5 JUMP JUMPDEST DUP3 MSTORE POP POP JUMP JUMPDEST PUSH1 0x0 PUSH2 0x3391 DUP4 DUP4 PUSH2 0x3376 JUMP JUMPDEST PUSH1 0x20 DUP4 ADD SWAP1 POP SWAP3 SWAP2 POP POP JUMP JUMPDEST PUSH1 0x0 PUSH1 0x20 DUP3 ADD SWAP1 POP SWAP2 SWAP1 POP JUMP JUMPDEST PUSH1 0x0 PUSH2 0x33B5 DUP3 PUSH2 0x334A JUMP JUMPDEST PUSH2 0x33BF DUP2 DUP6 PUSH2 0x3355 JUMP JUMPDEST SWAP4 POP PUSH2 0x33CA DUP4 PUSH2 0x3366 JUMP JUMPDEST DUP1 PUSH1 0x0 JUMPDEST DUP4 DUP2 LT ISZERO PUSH2 0x33FB JUMPI DUP2 MLOAD PUSH2 0x33E2 DUP9 DUP3 PUSH2 0x3385 JUMP JUMPDEST SWAP8 POP PUSH2 0x33ED DUP4 PUSH2 0x339D JUMP JUMPDEST SWAP3 POP POP PUSH1 0x1 DUP2 ADD SWAP1 POP PUSH2 0x33CE JUMP JUMPDEST POP DUP6 SWAP4 POP POP POP POP SWAP3 SWAP2 POP POP JUMP JUMPDEST PUSH1 0x0 PUSH1 0x20 DUP3 ADD SWAP1 POP DUP2 DUP2 SUB PUSH1 0x0 DUP4 ADD MSTORE PUSH2 0x3422 DUP2 DUP5 PUSH2 0x33AA JUMP JUMPDEST SWAP1 POP SWAP3 SWAP2 POP POP JUMP JUMPDEST PUSH1 0x0 DUP2 MLOAD SWAP1 POP SWAP2 SWAP1 POP JUMP JUMPDEST PUSH1 0x0 DUP3 DUP3 MSTORE PUSH1 0x20 DUP3 ADD SWAP1 POP SWAP3 SWAP2 POP POP JUMP JUMPDEST PUSH1 0x0 DUP2 SWAP1 POP PUSH1 0x20 DUP3 ADD SWAP1 POP SWAP2 SWAP1 POP JUMP JUMPDEST PUSH1 0x0 DUP3 DUP3 MSTORE PUSH1 0x20 DUP3 ADD SWAP1 POP SWAP3 SWAP2 POP POP JUMP JUMPDEST PUSH1 0x0 PUSH2 0x3472 DUP3 PUSH2 0x3043 JUMP JUMPDEST PUSH2 0x347C DUP2 DUP6 PUSH2 0x3456 JUMP JUMPDEST SWAP4 POP PUSH2 0x348C DUP2 DUP6 PUSH1 0x20 DUP7 ADD PUSH2 0x305F JUMP JUMPDEST PUSH2 0x3495 DUP2 PUSH2 0x3089 JUMP JUMPDEST DUP5 ADD SWAP2 POP POP SWAP3 SWAP2 POP POP JUMP JUMPDEST PUSH1 0x0 PUSH2 0x34AC DUP4 DUP4 PUSH2 0x3467 JUMP JUMPDEST SWAP1 POP SWAP3 SWAP2 POP POP JUMP JUMPDEST PUSH1 0x0 PUSH1 0x20 DUP3 ADD SWAP1 POP SWAP2 SWAP1 POP JUMP JUMPDEST PUSH1 0x0 PUSH2 0x34CC DUP3 PUSH2 0x342A JUMP JUMPDEST PUSH2 0x34D6 DUP2 DUP6 PUSH2 0x3435 JUMP JUMPDEST SWAP4 POP DUP4 PUSH1 0x20 DUP3 MUL DUP6 ADD PUSH2 0x34E8 DUP6 PUSH2 0x3446 JUMP JUMPDEST DUP1 PUSH1 0x0 JUMPDEST DUP6 DUP2 LT ISZERO PUSH2 0x3524 JUMPI DUP5 DUP5 SUB DUP10 MSTORE DUP2 MLOAD PUSH2 0x3505 DUP6 DUP3 PUSH2 0x34A0 JUMP JUMPDEST SWAP5 POP PUSH2 0x3510 DUP4 PUSH2 0x34B4 JUMP JUMPDEST SWAP3 POP PUSH1 0x20 DUP11 ADD SWAP10 POP POP PUSH1 0x1 DUP2 ADD SWAP1 POP PUSH2 0x34EC JUMP JUMPDEST POP DUP3 SWAP8 POP DUP8 SWAP6 POP POP POP POP POP POP SWAP3 SWAP2 POP POP JUMP JUMPDEST PUSH1 0x0 PUSH1 0x20 DUP3 ADD SWAP1 POP DUP2 DUP2 SUB PUSH1 0x0 DUP4 ADD MSTORE PUSH2 0x3550 DUP2 DUP5 PUSH2 0x34C1 JUMP JUMPDEST SWAP1 POP SWAP3 SWAP2 POP POP JUMP JUMPDEST PUSH2 0x3561 DUP2 PUSH2 0x3178 JUMP JUMPDEST DUP3 MSTORE POP POP JUMP JUMPDEST PUSH1 0x0 PUSH1 0xA0 DUP4 ADD PUSH1 0x0 DUP4 ADD MLOAD PUSH2 0x357F PUSH1 0x0 DUP7 ADD DUP3 PUSH2 0x3558 JUMP JUMPDEST POP PUSH1 0x20 DUP4 ADD MLOAD DUP5 DUP3 SUB PUSH1 0x20 DUP7 ADD MSTORE PUSH2 0x3597 DUP3 DUP3 PUSH2 0x3467 JUMP JUMPDEST SWAP2 POP POP PUSH1 0x40 DUP4 ADD MLOAD DUP5 DUP3 SUB PUSH1 0x40 DUP7 ADD MSTORE PUSH2 0x35B1 DUP3 DUP3 PUSH2 0x3467 JUMP JUMPDEST SWAP2 POP POP PUSH1 0x60 DUP4 ADD MLOAD DUP5 DUP3 SUB PUSH1 0x60 DUP7 ADD MSTORE PUSH2 0x35CB DUP3 DUP3 PUSH2 0x3467 JUMP JUMPDEST SWAP2 POP POP PUSH1 0x80 DUP4 ADD MLOAD DUP5 DUP3 SUB PUSH1 0x80 DUP7 ADD MSTORE PUSH2 0x35E5 DUP3 DUP3 PUSH2 0x3467 JUMP JUMPDEST SWAP2 POP POP DUP1 SWAP2 POP POP SWAP3 SWAP2 POP POP JUMP JUMPDEST PUSH1 0x0 PUSH1 0x20 DUP3 ADD SWAP1 POP DUP2 DUP2 SUB PUSH1 0x0 DUP4 ADD MSTORE PUSH2 0x360C DUP2 DUP5 PUSH2 0x3567 JUMP JUMPDEST SWAP1 POP SWAP3 SWAP2 POP POP JUMP JUMPDEST PUSH2 0x361D DUP2 PUSH2 0x300D JUMP JUMPDEST DUP2 EQ PUSH2 0x3628 JUMPI PUSH1 0x0 DUP1 REVERT JUMPDEST POP JUMP JUMPDEST PUSH1 0x0 DUP2 CALLDATALOAD SWAP1 POP PUSH2 0x363A DUP2 PUSH2 0x3614 JUMP JUMPDEST SWAP3 SWAP2 POP POP JUMP JUMPDEST PUSH1 0x0 DUP1 PUSH1 0x40 DUP4 DUP6 SUB SLT ISZERO PUSH2 0x3657 JUMPI PUSH2 0x3656 PUSH2 0x2F7E JUMP JUMPDEST JUMPDEST PUSH1 0x0 PUSH2 0x3665 DUP6 DUP3 DUP7 ADD PUSH2 0x31F5 JUMP JUMPDEST SWAP3 POP POP PUSH1 0x20 PUSH2 0x3676 DUP6 DUP3 DUP7 ADD PUSH2 0x362B JUMP JUMPDEST SWAP2 POP POP SWAP3 POP SWAP3 SWAP1 POP JUMP JUMPDEST PUSH1 0x0 DUP2 MLOAD SWAP1 POP SWAP2 SWAP1 POP JUMP JUMPDEST PUSH1 0x0 DUP3 DUP3 MSTORE PUSH1 0x20 DUP3 ADD SWAP1 POP SWAP3 SWAP2 POP POP JUMP JUMPDEST PUSH1 0x0 DUP2 SWAP1 POP PUSH1 0x20 DUP3 ADD SWAP1 POP SWAP2 SWAP1 POP JUMP JUMPDEST PUSH1 0x0 PUSH1 0xA0 DUP4 ADD PUSH1 0x0 DUP4 ADD MLOAD PUSH2 0x36C4 PUSH1 0x0 DUP7 ADD DUP3 PUSH2 0x3558 JUMP JUMPDEST POP PUSH1 0x20 DUP4 ADD MLOAD DUP5 DUP3 SUB PUSH1 0x20 DUP7 ADD MSTORE PUSH2 0x36DC DUP3 DUP3 PUSH2 0x3467 JUMP JUMPDEST SWAP2 POP POP PUSH1 0x40 DUP4 ADD MLOAD DUP5 DUP3 SUB PUSH1 0x40 DUP7 ADD MSTORE PUSH2 0x36F6 DUP3 DUP3 PUSH2 0x3467 JUMP JUMPDEST SWAP2 POP POP PUSH1 0x60 DUP4 ADD MLOAD DUP5 DUP3 SUB PUSH1 0x60 DUP7 ADD MSTORE PUSH2 0x3710 DUP3 DUP3 PUSH2 0x3467 JUMP JUMPDEST SWAP2 POP POP PUSH1 0x80 DUP4 ADD MLOAD DUP5 DUP3 SUB PUSH1 0x80 DUP7 ADD MSTORE PUSH2 0x372A DUP3 DUP3 PUSH2 0x3467 JUMP JUMPDEST SWAP2 POP POP DUP1 SWAP2 POP POP SWAP3 SWAP2 POP POP JUMP JUMPDEST PUSH1 0x0 PUSH2 0x3743 DUP4 DUP4 PUSH2 0x36AC JUMP JUMPDEST SWAP1 POP SWAP3 SWAP2 POP POP JUMP JUMPDEST PUSH1 0x0 PUSH1 0x20 DUP3 ADD SWAP1 POP SWAP2 SWAP1 POP JUMP JUMPDEST PUSH1 0x0 PUSH2 0x3763 DUP3 PUSH2 0x3680 JUMP JUMPDEST PUSH2 0x376D DUP2 DUP6 PUSH2 0x368B JUMP JUMPDEST SWAP4 POP DUP4 PUSH1 0x20 DUP3 MUL DUP6 ADD PUSH2 0x377F DUP6 PUSH2 0x369C JUMP JUMPDEST DUP1 PUSH1 0x0 JUMPDEST DUP6 DUP2 LT ISZERO PUSH2 0x37BB JUMPI DUP5 DUP5 SUB DUP10 MSTORE DUP2 MLOAD PUSH2 0x379C DUP6 DUP3 PUSH2 0x3737 JUMP JUMPDEST SWAP5 POP PUSH2 0x37A7 DUP4 PUSH2 0x374B JUMP JUMPDEST SWAP3 POP PUSH1 0x20 DUP11 ADD SWAP10 POP POP PUSH1 0x1 DUP2 ADD SWAP1 POP PUSH2 0x3783 JUMP JUMPDEST POP DUP3 SWAP8 POP DUP8 SWAP6 POP POP POP POP POP POP SWAP3 SWAP2 POP POP JUMP JUMPDEST PUSH1 0x0 PUSH1 0x20 DUP3 ADD SWAP1 POP DUP2 DUP2 SUB PUSH1 0x0 DUP4 ADD MSTORE PUSH2 0x37E7 DUP2 DUP5 PUSH2 0x3758 JUMP JUMPDEST SWAP1 POP SWAP3 SWAP2 POP POP JUMP JUMPDEST PUSH1 0x0 DUP1 REVERT JUMPDEST PUSH1 0x0 DUP1 REVERT JUMPDEST PUSH32 0x4E487B7100000000000000000000000000000000000000000000000000000000 PUSH1 0x0 MSTORE PUSH1 0x41 PUSH1 0x4 MSTORE PUSH1 0x24 PUSH1 0x0 REVERT JUMPDEST PUSH2 0x3831 DUP3 PUSH2 0x3089 JUMP JUMPDEST DUP2 ADD DUP2 DUP2 LT PUSH8 0xFFFFFFFFFFFFFFFF DUP3 GT OR ISZERO PUSH2 0x3850 JUMPI PUSH2 0x384F PUSH2 0x37F9 JUMP JUMPDEST JUMPDEST DUP1 PUSH1 0x40 MSTORE POP POP POP JUMP JUMPDEST PUSH1 0x0 PUSH2 0x3863 PUSH2 0x2F74 JUMP JUMPDEST SWAP1 POP PUSH2 0x386F DUP3 DUP3 PUSH2 0x3828 JUMP JUMPDEST SWAP2 SWAP1 POP JUMP JUMPDEST PUSH1 0x0 PUSH8 0xFFFFFFFFFFFFFFFF DUP3 GT ISZERO PUSH2 0x388F JUMPI PUSH2 0x388E PUSH2 0x37F9 JUMP JUMPDEST JUMPDEST PUSH2 0x3898 DUP3 PUSH2 0x3089 JUMP JUMPDEST SWAP1 POP PUSH1 0x20 DUP2 ADD SWAP1 POP SWAP2 SWAP1 POP JUMP JUMPDEST DUP3 DUP2 DUP4 CALLDATACOPY PUSH1 0x0 DUP4 DUP4 ADD MSTORE POP POP POP JUMP JUMPDEST PUSH1 0x0 PUSH2 0x38C7 PUSH2 0x38C2 DUP5 PUSH2 0x3874 JUMP JUMPDEST PUSH2 0x3859 JUMP JUMPDEST SWAP1 POP DUP3 DUP2 MSTORE PUSH1 0x20 DUP2 ADD DUP5 DUP5 DUP5 ADD GT ISZERO PUSH2 0x38E3 JUMPI PUSH2 0x38E2 PUSH2 0x37F4 JUMP JUMPDEST JUMPDEST PUSH2 0x38EE DUP5 DUP3 DUP6 PUSH2 0x38A5 JUMP JUMPDEST POP SWAP4 SWAP3 POP POP POP JUMP JUMPDEST PUSH1 0x0 DUP3 PUSH1 0x1F DUP4 ADD SLT PUSH2 0x390B JUMPI PUSH2 0x390A PUSH2 0x37EF JUMP JUMPDEST JUMPDEST DUP2 CALLDATALOAD PUSH2 0x391B DUP5 DUP3 PUSH1 0x20 DUP7 ADD PUSH2 0x38B4 JUMP JUMPDEST SWAP2 POP POP SWAP3 SWAP2 POP POP JUMP JUMPDEST PUSH1 0x0 DUP1 PUSH1 0x0 DUP1 PUSH1 0x80 DUP6 DUP8 SUB SLT ISZERO PUSH2 0x393E JUMPI PUSH2 0x393D PUSH2 0x2F7E JUMP JUMPDEST JUMPDEST PUSH1 0x0 PUSH2 0x394C DUP8 DUP3 DUP9 ADD PUSH2 0x31F5 JUMP JUMPDEST SWAP5 POP POP PUSH1 0x20 PUSH2 0x395D DUP8 DUP3 DUP9 ADD PUSH2 0x31F5 JUMP JUMPDEST SWAP4 POP POP PUSH1 0x40 PUSH2 0x396E DUP8 DUP3 DUP9 ADD PUSH2 0x3116 JUMP JUMPDEST SWAP3 POP POP PUSH1 0x60 DUP6 ADD CALLDATALOAD PUSH8 0xFFFFFFFFFFFFFFFF DUP2 GT ISZERO PUSH2 0x398F JUMPI PUSH2 0x398E PUSH2 0x2F83 JUMP JUMPDEST JUMPDEST PUSH2 0x399B DUP8 DUP3 DUP9 ADD PUSH2 0x38F6 JUMP JUMPDEST SWAP2 POP POP SWAP3 SWAP6 SWAP2 SWAP5 POP SWAP3 POP JUMP JUMPDEST PUSH1 0x0 PUSH1 0x20 DUP3 DUP5 SUB SLT ISZERO PUSH2 0x39BD JUMPI PUSH2 0x39BC PUSH2 0x2F7E JUMP JUMPDEST JUMPDEST PUSH1 0x0 DUP3 ADD CALLDATALOAD PUSH8 0xFFFFFFFFFFFFFFFF DUP2 GT ISZERO PUSH2 0x39DB JUMPI PUSH2 0x39DA PUSH2 0x2F83 JUMP JUMPDEST JUMPDEST PUSH2 0x39E7 DUP5 DUP3 DUP6 ADD PUSH2 0x32A2 JUMP JUMPDEST SWAP2 POP POP SWAP3 SWAP2 POP POP JUMP JUMPDEST PUSH1 0x0 DUP1 PUSH1 0x40 DUP4 DUP6 SUB SLT ISZERO PUSH2 0x3A07 JUMPI PUSH2 0x3A06 PUSH2 0x2F7E JUMP JUMPDEST JUMPDEST PUSH1 0x0 PUSH2 0x3A15 DUP6 DUP3 DUP7 ADD PUSH2 0x31F5 JUMP JUMPDEST SWAP3 POP POP PUSH1 0x20 PUSH2 0x3A26 DUP6 DUP3 DUP7 ADD PUSH2 0x31F5 JUMP JUMPDEST SWAP2 POP POP SWAP3 POP SWAP3 SWAP1 POP JUMP JUMPDEST PUSH32 0x4E487B7100000000000000000000000000000000000000000000000000000000 PUSH1 0x0 MSTORE PUSH1 0x22 PUSH1 0x4 MSTORE PUSH1 0x24 PUSH1 0x0 REVERT JUMPDEST PUSH1 0x0 PUSH1 0x2 DUP3 DIV SWAP1 POP PUSH1 0x1 DUP3 AND DUP1 PUSH2 0x3A77 JUMPI PUSH1 0x7F DUP3 AND SWAP2 POP JUMPDEST PUSH1 0x20 DUP3 LT DUP2 SUB PUSH2 0x3A8A JUMPI PUSH2 0x3A89 PUSH2 0x3A30 JUMP JUMPDEST JUMPDEST POP SWAP2 SWAP1 POP JUMP JUMPDEST PUSH32 0x4552433732313A20617070726F76616C20746F2063757272656E74206F776E65 PUSH1 0x0 DUP3 ADD MSTORE PUSH32 0x7200000000000000000000000000000000000000000000000000000000000000 PUSH1 0x20 DUP3 ADD MSTORE POP JUMP JUMPDEST PUSH1 0x0 PUSH2 0x3AEC PUSH1 0x21 DUP4 PUSH2 0x304E JUMP JUMPDEST SWAP2 POP PUSH2 0x3AF7 DUP3 PUSH2 0x3A90 JUMP JUMPDEST PUSH1 0x40 DUP3 ADD SWAP1 POP SWAP2 SWAP1 POP JUMP JUMPDEST PUSH1 0x0 PUSH1 0x20 DUP3 ADD SWAP1 POP DUP2 DUP2 SUB PUSH1 0x0 DUP4 ADD MSTORE PUSH2 0x3B1B DUP2 PUSH2 0x3ADF JUMP JUMPDEST SWAP1 POP SWAP2 SWAP1 POP JUMP JUMPDEST PUSH32 0x4552433732313A20617070726F76652063616C6C6572206973206E6F7420746F PUSH1 0x0 DUP3 ADD MSTORE PUSH32 0x6B656E206F776E6572206F7220617070726F76656420666F7220616C6C000000 PUSH1 0x20 DUP3 ADD MSTORE POP JUMP JUMPDEST PUSH1 0x0 PUSH2 0x3B7E PUSH1 0x3D DUP4 PUSH2 0x304E JUMP JUMPDEST SWAP2 POP PUSH2 0x3B89 DUP3 PUSH2 0x3B22 JUMP JUMPDEST PUSH1 0x40 DUP3 ADD SWAP1 POP SWAP2 SWAP1 POP JUMP JUMPDEST PUSH1 0x0 PUSH1 0x20 DUP3 ADD SWAP1 POP DUP2 DUP2 SUB PUSH1 0x0 DUP4 ADD MSTORE PUSH2 0x3BAD DUP2 PUSH2 0x3B71 JUMP JUMPDEST SWAP1 POP SWAP2 SWAP1 POP JUMP JUMPDEST PUSH32 0x4552433732313A2063616C6C6572206973206E6F7420746F6B656E206F776E65 PUSH1 0x0 DUP3 ADD MSTORE PUSH32 0x72206F7220617070726F76656400000000000000000000000000000000000000 PUSH1 0x20 DUP3 ADD MSTORE POP JUMP JUMPDEST PUSH1 0x0 PUSH2 0x3C10 PUSH1 0x2D DUP4 PUSH2 0x304E JUMP JUMPDEST SWAP2 POP PUSH2 0x3C1B DUP3 PUSH2 0x3BB4 JUMP JUMPDEST PUSH1 0x40 DUP3 ADD SWAP1 POP SWAP2 SWAP1 POP JUMP JUMPDEST PUSH1 0x0 PUSH1 0x20 DUP3 ADD SWAP1 POP DUP2 DUP2 SUB PUSH1 0x0 DUP4 ADD MSTORE PUSH2 0x3C3F DUP2 PUSH2 0x3C03 JUMP JUMPDEST SWAP1 POP SWAP2 SWAP1 POP JUMP JUMPDEST PUSH1 0x0 DUP2 CALLDATALOAD PUSH2 0x3C53 DUP2 PUSH2 0x31DE JUMP JUMPDEST DUP1 SWAP2 POP POP SWAP2 SWAP1 POP JUMP JUMPDEST PUSH1 0x0 DUP2 PUSH1 0x0 SHL SWAP1 POP SWAP2 SWAP1 POP JUMP JUMPDEST PUSH1 0x0 PUSH20 0xFFFFFFFFFFFFFFFFFFFFFFFFFFFFFFFFFFFFFFFF PUSH2 0x3C89 DUP5 PUSH2 0x3C5C JUMP JUMPDEST SWAP4 POP DUP1 NOT DUP4 AND SWAP3 POP DUP1 DUP5 AND DUP4 OR SWAP2 POP POP SWAP3 SWAP2 POP POP JUMP JUMPDEST PUSH1 0x0 DUP2 SWAP1 POP SWAP2 SWAP1 POP JUMP JUMPDEST PUSH1 0x0 PUSH2 0x3CC4 PUSH2 0x3CBF PUSH2 0x3CBA DUP5 PUSH2 0x3158 JUMP JUMPDEST PUSH2 0x3C9F JUMP JUMPDEST PUSH2 0x3158 JUMP JUMPDEST SWAP1 POP SWAP2 SWAP1 POP JUMP JUMPDEST PUSH1 0x0 PUSH2 0x3CD6 DUP3 PUSH2 0x3CA9 JUMP JUMPDEST SWAP1 POP SWAP2 SWAP1 POP JUMP JUMPDEST PUSH1 0x0 PUSH2 0x3CE8 DUP3 PUSH2 0x3CCB JUMP JUMPDEST SWAP1 POP SWAP2 SWAP1 POP JUMP JUMPDEST PUSH1 0x0 DUP2 SWAP1 POP SWAP2 SWAP1 POP JUMP JUMPDEST PUSH2 0x3D02 DUP3 PUSH2 0x3CDD JUMP JUMPDEST PUSH2 0x3D15 PUSH2 0x3D0E DUP3 PUSH2 0x3CEF JUMP JUMPDEST DUP4 SLOAD PUSH2 0x3C69 JUMP JUMPDEST DUP3 SSTORE POP POP POP JUMP JUMPDEST PUSH1 0x0 DUP1 REVERT JUMPDEST PUSH1 0x0 DUP1 REVERT JUMPDEST PUSH1 0x0 DUP1 REVERT JUMPDEST PUSH1 0x0 DUP1 DUP4 CALLDATALOAD PUSH1 0x1 PUSH1 0x20 SUB DUP5 CALLDATASIZE SUB SUB DUP2 SLT PUSH2 0x3D48 JUMPI PUSH2 0x3D47 PUSH2 0x3D1C JUMP JUMPDEST JUMPDEST DUP1 DUP5 ADD SWAP3 POP DUP3 CALLDATALOAD SWAP2 POP PUSH8 0xFFFFFFFFFFFFFFFF DUP3 GT ISZERO PUSH2 0x3D6A JUMPI PUSH2 0x3D69 PUSH2 0x3D21 JUMP JUMPDEST JUMPDEST PUSH1 0x20 DUP4 ADD SWAP3 POP PUSH1 0x1 DUP3 MUL CALLDATASIZE SUB DUP4 SGT ISZERO PUSH2 0x3D86 JUMPI PUSH2 0x3D85 PUSH2 0x3D26 JUMP JUMPDEST JUMPDEST POP SWAP3 POP SWAP3 SWAP1 POP JUMP JUMPDEST PUSH1 0x0 DUP3 SWAP1 POP SWAP3 SWAP2 POP POP JUMP JUMPDEST PUSH1 0x0 DUP2 SWAP1 POP DUP2 PUSH1 0x0 MSTORE PUSH1 0x20 PUSH1 0x0 KECCAK256 SWAP1 POP SWAP2 SWAP1 POP JUMP JUMPDEST PUSH1 0x0 PUSH1 0x20 PUSH1 0x1F DUP4 ADD DIV SWAP1 POP SWAP2 SWAP1 POP JUMP JUMPDEST PUSH1 0x0 DUP3 DUP3 SHL SWAP1 POP SWAP3 SWAP2 POP POP JUMP JUMPDEST PUSH1 0x0 PUSH1 0x8 DUP4 MUL PUSH2 0x3DFB PUSH32 0xFFFFFFFFFFFFFFFFFFFFFFFFFFFFFFFFFFFFFFFFFFFFFFFFFFFFFFFFFFFFFFFF DUP3 PUSH2 0x3DBE JUMP JUMPDEST PUSH2 0x3E05 DUP7 DUP4 PUSH2 0x3DBE JUMP JUMPDEST SWAP6 POP DUP1 NOT DUP5 AND SWAP4 POP DUP1 DUP7 AND DUP5 OR SWAP3 POP POP POP SWAP4 SWAP3 POP POP POP JUMP JUMPDEST PUSH1 0x0 PUSH2 0x3E38 PUSH2 0x3E33 PUSH2 0x3E2E DUP5 PUSH2 0x30F5 JUMP JUMPDEST PUSH2 0x3C9F JUMP JUMPDEST PUSH2 0x30F5 JUMP JUMPDEST SWAP1 POP SWAP2 SWAP1 POP JUMP JUMPDEST PUSH1 0x0 DUP2 SWAP1 POP SWAP2 SWAP1 POP JUMP JUMPDEST PUSH2 0x3E52 DUP4 PUSH2 0x3E1D JUMP JUMPDEST PUSH2 0x3E66 PUSH2 0x3E5E DUP3 PUSH2 0x3E3F JUMP JUMPDEST DUP5 DUP5 SLOAD PUSH2 0x3DCB JUMP JUMPDEST DUP3 SSTORE POP POP POP POP JUMP JUMPDEST PUSH1 0x0 SWAP1 JUMP JUMPDEST PUSH2 0x3E7B PUSH2 0x3E6E JUMP JUMPDEST PUSH2 0x3E86 DUP2 DUP5 DUP5 PUSH2 0x3E49 JUMP JUMPDEST POP POP POP JUMP JUMPDEST JUMPDEST DUP2 DUP2 LT ISZERO PUSH2 0x3EAA JUMPI PUSH2 0x3E9F PUSH1 0x0 DUP3 PUSH2 0x3E73 JUMP JUMPDEST PUSH1 0x1 DUP2 ADD SWAP1 POP PUSH2 0x3E8C JUMP JUMPDEST POP POP JUMP JUMPDEST PUSH1 0x1F DUP3 GT ISZERO PUSH2 0x3EEF JUMPI PUSH2 0x3EC0 DUP2 PUSH2 0x3D99 JUMP JUMPDEST PUSH2 0x3EC9 DUP5 PUSH2 0x3DAE JUMP JUMPDEST DUP2 ADD PUSH1 0x20 DUP6 LT ISZERO PUSH2 0x3ED8 JUMPI DUP2 SWAP1 POP JUMPDEST PUSH2 0x3EEC PUSH2 0x3EE4 DUP6 PUSH2 0x3DAE JUMP JUMPDEST DUP4 ADD DUP3 PUSH2 0x3E8B JUMP JUMPDEST POP POP JUMPDEST POP POP POP JUMP JUMPDEST PUSH1 0x0 DUP3 DUP3 SHR SWAP1 POP SWAP3 SWAP2 POP POP JUMP JUMPDEST PUSH1 0x0 PUSH2 0x3F12 PUSH1 0x0 NOT DUP5 PUSH1 0x8 MUL PUSH2 0x3EF4 JUMP JUMPDEST NOT DUP1 DUP4 AND SWAP2 POP POP SWAP3 SWAP2 POP POP JUMP JUMPDEST PUSH1 0x0 PUSH2 0x3F2B DUP4 DUP4 PUSH2 0x3F01 JUMP JUMPDEST SWAP2 POP DUP3 PUSH1 0x2 MUL DUP3 OR SWAP1 POP SWAP3 SWAP2 POP POP JUMP JUMPDEST PUSH2 0x3F45 DUP4 DUP4 PUSH2 0x3D8E JUMP JUMPDEST PUSH8 0xFFFFFFFFFFFFFFFF DUP2 GT ISZERO PUSH2 0x3F5E JUMPI PUSH2 0x3F5D PUSH2 0x37F9 JUMP JUMPDEST JUMPDEST PUSH2 0x3F68 DUP3 SLOAD PUSH2 0x3A5F JUMP JUMPDEST PUSH2 0x3F73 DUP3 DUP3 DUP6 PUSH2 0x3EAE JUMP JUMPDEST PUSH1 0x0 PUSH1 0x1F DUP4 GT PUSH1 0x1 DUP2 EQ PUSH2 0x3FA2 JUMPI PUSH1 0x0 DUP5 ISZERO PUSH2 0x3F90 JUMPI DUP3 DUP8 ADD CALLDATALOAD SWAP1 POP JUMPDEST PUSH2 0x3F9A DUP6 DUP3 PUSH2 0x3F1F JUMP JUMPDEST DUP7 SSTORE POP PUSH2 0x4002 JUMP JUMPDEST PUSH1 0x1F NOT DUP5 AND PUSH2 0x3FB0 DUP7 PUSH2 0x3D99 JUMP JUMPDEST PUSH1 0x0 JUMPDEST DUP3 DUP2 LT ISZERO PUSH2 0x3FD8 JUMPI DUP5 DUP10 ADD CALLDATALOAD DUP3 SSTORE PUSH1 0x1 DUP3 ADD SWAP2 POP PUSH1 0x20 DUP6 ADD SWAP5 POP PUSH1 0x20 DUP2 ADD SWAP1 POP PUSH2 0x3FB3 JUMP JUMPDEST DUP7 DUP4 LT ISZERO PUSH2 0x3FF5 JUMPI DUP5 DUP10 ADD CALLDATALOAD PUSH2 0x3FF1 PUSH1 0x1F DUP10 AND DUP3 PUSH2 0x3F01 JUMP JUMPDEST DUP4 SSTORE POP JUMPDEST PUSH1 0x1 PUSH1 0x2 DUP9 MUL ADD DUP9 SSTORE POP POP POP JUMPDEST POP POP POP POP POP POP POP JUMP JUMPDEST PUSH2 0x4016 DUP4 DUP4 DUP4 PUSH2 0x3F3B JUMP JUMPDEST POP POP POP JUMP JUMPDEST PUSH1 0x0 DUP2 ADD PUSH1 0x0 DUP4 ADD DUP1 PUSH2 0x402D DUP2 PUSH2 0x3C46 JUMP JUMPDEST SWAP1 POP PUSH2 0x4039 DUP2 DUP5 PUSH2 0x3CF9 JUMP JUMPDEST POP POP POP PUSH1 0x1 DUP2 ADD PUSH1 0x20 DUP4 ADD PUSH2 0x404E DUP2 DUP6 PUSH2 0x3D2B JUMP JUMPDEST PUSH2 0x4059 DUP2 DUP4 DUP7 PUSH2 0x400B JUMP JUMPDEST POP POP POP POP PUSH1 0x2 DUP2 ADD PUSH1 0x40 DUP4 ADD PUSH2 0x406F DUP2 DUP6 PUSH2 0x3D2B JUMP JUMPDEST PUSH2 0x407A DUP2 DUP4 DUP7 PUSH2 0x400B JUMP JUMPDEST POP POP POP POP PUSH1 0x3 DUP2 ADD PUSH1 0x60 DUP4 ADD PUSH2 0x4090 DUP2 DUP6 PUSH2 0x3D2B JUMP JUMPDEST PUSH2 0x409B DUP2 DUP4 DUP7 PUSH2 0x400B JUMP JUMPDEST POP POP POP POP PUSH1 0x4 DUP2 ADD PUSH1 0x80 DUP4 ADD PUSH2 0x40B1 DUP2 DUP6 PUSH2 0x3D2B JUMP JUMPDEST PUSH2 0x40BC DUP2 DUP4 DUP7 PUSH2 0x400B JUMP JUMPDEST POP POP POP POP POP POP JUMP JUMPDEST PUSH2 0x40CE DUP3 DUP3 PUSH2 0x401B JUMP JUMPDEST POP POP JUMP JUMPDEST PUSH1 0x0 PUSH2 0x40E1 PUSH1 0x20 DUP5 ADD DUP5 PUSH2 0x31F5 JUMP JUMPDEST SWAP1 POP SWAP3 SWAP2 POP POP JUMP JUMPDEST PUSH1 0x0 DUP1 REVERT JUMPDEST PUSH1 0x0 DUP1 REVERT JUMPDEST PUSH1 0x0 DUP1 REVERT JUMPDEST PUSH1 0x0 DUP1 DUP4 CALLDATALOAD PUSH1 0x1 PUSH1 0x20 SUB DUP5 CALLDATASIZE SUB SUB DUP2 SLT PUSH2 0x4115 JUMPI PUSH2 0x4114 PUSH2 0x40F3 JUMP JUMPDEST JUMPDEST DUP4 DUP2 ADD SWAP3 POP DUP3 CALLDATALOAD SWAP2 POP PUSH1 0x20 DUP4 ADD SWAP3 POP PUSH8 0xFFFFFFFFFFFFFFFF DUP3 GT ISZERO PUSH2 0x413D JUMPI PUSH2 0x413C PUSH2 0x40E9 JUMP JUMPDEST JUMPDEST PUSH1 0x1 DUP3 MUL CALLDATASIZE SUB DUP4 SGT ISZERO PUSH2 0x4153 JUMPI PUSH2 0x4152 PUSH2 0x40EE JUMP JUMPDEST JUMPDEST POP SWAP3 POP SWAP3 SWAP1 POP JUMP JUMPDEST PUSH1 0x0 PUSH2 0x4167 DUP4 DUP6 PUSH2 0x3456 JUMP JUMPDEST SWAP4 POP PUSH2 0x4174 DUP4 DUP6 DUP5 PUSH2 0x38A5 JUMP JUMPDEST PUSH2 0x417D DUP4 PUSH2 0x3089 JUMP JUMPDEST DUP5 ADD SWAP1 POP SWAP4 SWAP3 POP POP POP JUMP JUMPDEST PUSH1 0x0 PUSH1 0xA0 DUP4 ADD PUSH2 0x419B PUSH1 0x0 DUP5 ADD DUP5 PUSH2 0x40D2 JUMP JUMPDEST PUSH2 0x41A8 PUSH1 0x0 DUP7 ADD DUP3 PUSH2 0x3558 JUMP JUMPDEST POP PUSH2 0x41B6 PUSH1 0x20 DUP5 ADD DUP5 PUSH2 0x40F8 JUMP JUMPDEST DUP6 DUP4 SUB PUSH1 0x20 DUP8 ADD MSTORE PUSH2 0x41C9 DUP4 DUP3 DUP5 PUSH2 0x415B JUMP JUMPDEST SWAP3 POP POP POP PUSH2 0x41DA PUSH1 0x40 DUP5 ADD DUP5 PUSH2 0x40F8 JUMP JUMPDEST DUP6 DUP4 SUB PUSH1 0x40 DUP8 ADD MSTORE PUSH2 0x41ED DUP4 DUP3 DUP5 PUSH2 0x415B JUMP JUMPDEST SWAP3 POP POP POP PUSH2 0x41FE PUSH1 0x60 DUP5 ADD DUP5 PUSH2 0x40F8 JUMP JUMPDEST DUP6 DUP4 SUB PUSH1 0x60 DUP8 ADD MSTORE PUSH2 0x4211 DUP4 DUP3 DUP5 PUSH2 0x415B JUMP JUMPDEST SWAP3 POP POP POP PUSH2 0x4222 PUSH1 0x80 DUP5 ADD DUP5 PUSH2 0x40F8 JUMP JUMPDEST DUP6 DUP4 SUB PUSH1 0x80 DUP8 ADD MSTORE PUSH2 0x4235 DUP4 DUP3 DUP5 PUSH2 0x415B JUMP JUMPDEST SWAP3 POP POP POP DUP1 SWAP2 POP POP SWAP3 SWAP2 POP POP JUMP JUMPDEST PUSH1 0x0 PUSH1 0x40 DUP3 ADD SWAP1 POP PUSH2 0x4258 PUSH1 0x0 DUP4 ADD DUP6 PUSH2 0x31B4 JUMP JUMPDEST DUP2 DUP2 SUB PUSH1 0x20 DUP4 ADD MSTORE PUSH2 0x426A DUP2 DUP5 PUSH2 0x4188 JUMP JUMPDEST SWAP1 POP SWAP4 SWAP3 POP POP POP JUMP JUMPDEST PUSH32 0x455243373231456E756D657261626C653A206F776E657220696E646578206F75 PUSH1 0x0 DUP3 ADD MSTORE PUSH32 0x74206F6620626F756E6473000000000000000000000000000000000000000000 PUSH1 0x20 DUP3 ADD MSTORE POP JUMP JUMPDEST PUSH1 0x0 PUSH2 0x42CF PUSH1 0x2B DUP4 PUSH2 0x304E JUMP JUMPDEST SWAP2 POP PUSH2 0x42DA DUP3 PUSH2 0x4273 JUMP JUMPDEST PUSH1 0x40 DUP3 ADD SWAP1 POP SWAP2 SWAP1 POP JUMP JUMPDEST PUSH1 0x0 PUSH1 0x20 DUP3 ADD SWAP1 POP DUP2 DUP2 SUB PUSH1 0x0 DUP4 ADD MSTORE PUSH2 0x42FE DUP2 PUSH2 0x42C2 JUMP JUMPDEST SWAP1 POP SWAP2 SWAP1 POP JUMP JUMPDEST PUSH32 0x455243373231456E756D657261626C653A20676C6F62616C20696E646578206F PUSH1 0x0 DUP3 ADD MSTORE PUSH32 0x7574206F6620626F756E64730000000000000000000000000000000000000000 PUSH1 0x20 DUP3 ADD MSTORE POP JUMP JUMPDEST PUSH1 0x0 PUSH2 0x4361 PUSH1 0x2C DUP4 PUSH2 0x304E JUMP JUMPDEST SWAP2 POP PUSH2 0x436C DUP3 PUSH2 0x4305 JUMP JUMPDEST PUSH1 0x40 DUP3 ADD SWAP1 POP SWAP2 SWAP1 POP JUMP JUMPDEST PUSH1 0x0 PUSH1 0x20 DUP3 ADD SWAP1 POP DUP2 DUP2 SUB PUSH1 0x0 DUP4 ADD MSTORE PUSH2 0x4390 DUP2 PUSH2 0x4354 JUMP JUMPDEST SWAP1 POP SWAP2 SWAP1 POP JUMP JUMPDEST PUSH32 0x4E487B7100000000000000000000000000000000000000000000000000000000 PUSH1 0x0 MSTORE PUSH1 0x32 PUSH1 0x4 MSTORE PUSH1 0x24 PUSH1 0x0 REVERT JUMPDEST PUSH32 0x4552433732313A20696E76616C696420746F6B656E2049440000000000000000 PUSH1 0x0 DUP3 ADD MSTORE POP JUMP JUMPDEST PUSH1 0x0 PUSH2 0x43FC PUSH1 0x18 DUP4 PUSH2 0x304E JUMP JUMPDEST SWAP2 POP PUSH2 0x4407 DUP3 PUSH2 0x43C6 JUMP JUMPDEST PUSH1 0x20 DUP3 ADD SWAP1 POP SWAP2 SWAP1 POP JUMP JUMPDEST PUSH1 0x0 PUSH1 0x20 DUP3 ADD SWAP1 POP DUP2 DUP2 SUB PUSH1 0x0 DUP4 ADD MSTORE PUSH2 0x442B DUP2 PUSH2 0x43EF JUMP JUMPDEST SWAP1 POP SWAP2 SWAP1 POP JUMP JUMPDEST PUSH32 0x4552433732313A2061646472657373207A65726F206973206E6F742061207661 PUSH1 0x0 DUP3 ADD MSTORE PUSH32 0x6C6964206F776E65720000000000000000000000000000000000000000000000 PUSH1 0x20 DUP3 ADD MSTORE POP JUMP JUMPDEST PUSH1 0x0 PUSH2 0x448E PUSH1 0x29 DUP4 PUSH2 0x304E JUMP JUMPDEST SWAP2 POP PUSH2 0x4499 DUP3 PUSH2 0x4432 JUMP JUMPDEST PUSH1 0x40 DUP3 ADD SWAP1 POP SWAP2 SWAP1 POP JUMP JUMPDEST PUSH1 0x0 PUSH1 0x20 DUP3 ADD SWAP1 POP DUP2 DUP2 SUB PUSH1 0x0 DUP4 ADD MSTORE PUSH2 0x44BD DUP2 PUSH2 0x4481 JUMP JUMPDEST SWAP1 POP SWAP2 SWAP1 POP JUMP JUMPDEST PUSH32 0x4E487B7100000000000000000000000000000000000000000000000000000000 PUSH1 0x0 MSTORE PUSH1 0x11 PUSH1 0x4 MSTORE PUSH1 0x24 PUSH1 0x0 REVERT JUMPDEST PUSH1 0x0 PUSH2 0x44FE DUP3 PUSH2 0x30F5 JUMP JUMPDEST SWAP2 POP PUSH32 0xFFFFFFFFFFFFFFFFFFFFFFFFFFFFFFFFFFFFFFFFFFFFFFFFFFFFFFFFFFFFFFFF DUP3 SUB PUSH2 0x4530 JUMPI PUSH2 0x452F PUSH2 0x44C4 JUMP JUMPDEST JUMPDEST PUSH1 0x1 DUP3 ADD SWAP1 POP SWAP2 SWAP1 POP JUMP JUMPDEST PUSH32 0x4552433732314D657461646174613A2055524920717565727920666F72206E6F PUSH1 0x0 DUP3 ADD MSTORE PUSH32 0x6E6578697374656E7420746F6B656E0000000000000000000000000000000000 PUSH1 0x20 DUP3 ADD MSTORE POP JUMP JUMPDEST PUSH1 0x0 PUSH2 0x4597 PUSH1 0x2F DUP4 PUSH2 0x304E JUMP JUMPDEST SWAP2 POP PUSH2 0x45A2 DUP3 PUSH2 0x453B JUMP JUMPDEST PUSH1 0x40 DUP3 ADD SWAP1 POP SWAP2 SWAP1 POP JUMP JUMPDEST PUSH1 0x0 PUSH1 0x20 DUP3 ADD SWAP1 POP DUP2 DUP2 SUB PUSH1 0x0 DUP4 ADD MSTORE PUSH2 0x45C6 DUP2 PUSH2 0x458A JUMP JUMPDEST SWAP1 POP SWAP2 SWAP1 POP JUMP JUMPDEST PUSH1 0x0 DUP2 SWAP1 POP SWAP3 SWAP2 POP POP JUMP JUMPDEST PUSH1 0x0 PUSH2 0x45E3 DUP3 PUSH2 0x3043 JUMP JUMPDEST PUSH2 0x45ED DUP2 DUP6 PUSH2 0x45CD JUMP JUMPDEST SWAP4 POP PUSH2 0x45FD DUP2 DUP6 PUSH1 0x20 DUP7 ADD PUSH2 0x305F JUMP JUMPDEST DUP1 DUP5 ADD SWAP2 POP POP SWAP3 SWAP2 POP POP JUMP JUMPDEST PUSH32 0x2E6A736F6E000000000000000000000000000000000000000000000000000000 PUSH1 0x0 DUP3 ADD MSTORE POP JUMP JUMPDEST PUSH1 0x0 PUSH2 0x463F PUSH1 0x5 DUP4 PUSH2 0x45CD JUMP JUMPDEST SWAP2 POP PUSH2 0x464A DUP3 PUSH2 0x4609 JUMP JUMPDEST PUSH1 0x5 DUP3 ADD SWAP1 POP SWAP2 SWAP1 POP JUMP JUMPDEST PUSH1 0x0 PUSH2 0x4661 DUP3 DUP6 PUSH2 0x45D8 JUMP JUMPDEST SWAP2 POP PUSH2 0x466D DUP3 DUP5 PUSH2 0x45D8 JUMP JUMPDEST SWAP2 POP PUSH2 0x4678 DUP3 PUSH2 0x4632 JUMP JUMPDEST SWAP2 POP DUP2 SWAP1 POP SWAP4 SWAP3 POP POP POP JUMP JUMPDEST PUSH1 0x0 PUSH2 0x4690 DUP4 DUP6 PUSH2 0x45CD JUMP JUMPDEST SWAP4 POP PUSH2 0x469D DUP4 DUP6 DUP5 PUSH2 0x38A5 JUMP JUMPDEST DUP3 DUP5 ADD SWAP1 POP SWAP4 SWAP3 POP POP POP JUMP JUMPDEST PUSH1 0x0 PUSH2 0x46B6 DUP3 DUP5 DUP7 PUSH2 0x4684 JUMP JUMPDEST SWAP2 POP DUP2 SWAP1 POP SWAP4 SWAP3 POP POP POP JUMP JUMPDEST PUSH32 0x48616E646C6520616C7265616479206578697374730000000000000000000000 PUSH1 0x0 DUP3 ADD MSTORE POP JUMP JUMPDEST PUSH1 0x0 PUSH2 0x46F8 PUSH1 0x15 DUP4 PUSH2 0x304E JUMP JUMPDEST SWAP2 POP PUSH2 0x4703 DUP3 PUSH2 0x46C2 JUMP JUMPDEST PUSH1 0x20 DUP3 ADD SWAP1 POP SWAP2 SWAP1 POP JUMP JUMPDEST PUSH1 0x0 PUSH1 0x20 DUP3 ADD SWAP1 POP DUP2 DUP2 SUB PUSH1 0x0 DUP4 ADD MSTORE PUSH2 0x4727 DUP2 PUSH2 0x46EB JUMP JUMPDEST SWAP1 POP SWAP2 SWAP1 POP JUMP JUMPDEST PUSH32 0x4F776E657220646966666572656E742066726F6D206D73672E73656E64657200 PUSH1 0x0 DUP3 ADD MSTORE POP JUMP JUMPDEST PUSH1 0x0 PUSH2 0x4764 PUSH1 0x1F DUP4 PUSH2 0x304E JUMP JUMPDEST SWAP2 POP PUSH2 0x476F DUP3 PUSH2 0x472E JUMP JUMPDEST PUSH1 0x20 DUP3 ADD SWAP1 POP SWAP2 SWAP1 POP JUMP JUMPDEST PUSH1 0x0 PUSH1 0x20 DUP3 ADD SWAP1 POP DUP2 DUP2 SUB PUSH1 0x0 DUP4 ADD MSTORE PUSH2 0x4793 DUP2 PUSH2 0x4757 JUMP JUMPDEST SWAP1 POP SWAP2 SWAP1 POP JUMP JUMPDEST PUSH32 0x45746865722073656E74206973206E6F7420636F727265637400000000000000 PUSH1 0x0 DUP3 ADD MSTORE POP JUMP JUMPDEST PUSH1 0x0 PUSH2 0x47D0 PUSH1 0x19 DUP4 PUSH2 0x304E JUMP JUMPDEST SWAP2 POP PUSH2 0x47DB DUP3 PUSH2 0x479A JUMP JUMPDEST PUSH1 0x20 DUP3 ADD SWAP1 POP SWAP2 SWAP1 POP JUMP JUMPDEST PUSH1 0x0 PUSH1 0x20 DUP3 ADD SWAP1 POP DUP2 DUP2 SUB PUSH1 0x0 DUP4 ADD MSTORE PUSH2 0x47FF DUP2 PUSH2 0x47C3 JUMP JUMPDEST SWAP1 POP SWAP2 SWAP1 POP JUMP JUMPDEST PUSH1 0x0 PUSH1 0x20 DUP3 ADD SWAP1 POP DUP2 DUP2 SUB PUSH1 0x0 DUP4 ADD MSTORE PUSH2 0x4820 DUP2 DUP5 PUSH2 0x4188 JUMP JUMPDEST SWAP1 POP SWAP3 SWAP2 POP POP JUMP JUMPDEST PUSH32 0x4F776E61626C653A206E6577206F776E657220697320746865207A65726F2061 PUSH1 0x0 DUP3 ADD MSTORE PUSH32 0x6464726573730000000000000000000000000000000000000000000000000000 PUSH1 0x20 DUP3 ADD MSTORE POP JUMP JUMPDEST PUSH1 0x0 PUSH2 0x4884 PUSH1 0x26 DUP4 PUSH2 0x304E JUMP JUMPDEST SWAP2 POP PUSH2 0x488F DUP3 PUSH2 0x4828 JUMP JUMPDEST PUSH1 0x40 DUP3 ADD SWAP1 POP SWAP2 SWAP1 POP JUMP JUMPDEST PUSH1 0x0 PUSH1 0x20 DUP3 ADD SWAP1 POP DUP2 DUP2 SUB PUSH1 0x0 DUP4 ADD MSTORE PUSH2 0x48B3 DUP2 PUSH2 0x4877 JUMP JUMPDEST SWAP1 POP SWAP2 SWAP1 POP JUMP JUMPDEST PUSH32 0x4552433732313A207472616E736665722066726F6D20696E636F727265637420 PUSH1 0x0 DUP3 ADD MSTORE PUSH32 0x6F776E6572000000000000000000000000000000000000000000000000000000 PUSH1 0x20 DUP3 ADD MSTORE POP JUMP JUMPDEST PUSH1 0x0 PUSH2 0x4916 PUSH1 0x25 DUP4 PUSH2 0x304E JUMP JUMPDEST SWAP2 POP PUSH2 0x4921 DUP3 PUSH2 0x48BA JUMP JUMPDEST PUSH1 0x40 DUP3 ADD SWAP1 POP SWAP2 SWAP1 POP JUMP JUMPDEST PUSH1 0x0 PUSH1 0x20 DUP3 ADD SWAP1 POP DUP2 DUP2 SUB PUSH1 0x0 DUP4 ADD MSTORE PUSH2 0x4945 DUP2 PUSH2 0x4909 JUMP JUMPDEST SWAP1 POP SWAP2 SWAP1 POP JUMP JUMPDEST PUSH32 0x4552433732313A207472616E7366657220746F20746865207A65726F20616464 PUSH1 0x0 DUP3 ADD MSTORE PUSH32 0x7265737300000000000000000000000000000000000000000000000000000000 PUSH1 0x20 DUP3 ADD MSTORE POP JUMP JUMPDEST PUSH1 0x0 PUSH2 0x49A8 PUSH1 0x24 DUP4 PUSH2 0x304E JUMP JUMPDEST SWAP2 POP PUSH2 0x49B3 DUP3 PUSH2 0x494C JUMP JUMPDEST PUSH1 0x40 DUP3 ADD SWAP1 POP SWAP2 SWAP1 POP JUMP JUMPDEST PUSH1 0x0 PUSH1 0x20 DUP3 ADD SWAP1 POP DUP2 DUP2 SUB PUSH1 0x0 DUP4 ADD MSTORE PUSH2 0x49D7 DUP2 PUSH2 0x499B JUMP JUMPDEST SWAP1 POP SWAP2 SWAP1 POP JUMP JUMPDEST PUSH32 0x4F776E61626C653A2063616C6C6572206973206E6F7420746865206F776E6572 PUSH1 0x0 DUP3 ADD MSTORE POP JUMP JUMPDEST PUSH1 0x0 PUSH2 0x4A14 PUSH1 0x20 DUP4 PUSH2 0x304E JUMP JUMPDEST SWAP2 POP PUSH2 0x4A1F DUP3 PUSH2 0x49DE JUMP JUMPDEST PUSH1 0x20 DUP3 ADD SWAP1 POP SWAP2 SWAP1 POP JUMP JUMPDEST PUSH1 0x0 PUSH1 0x20 DUP3 ADD SWAP1 POP DUP2 DUP2 SUB PUSH1 0x0 DUP4 ADD MSTORE PUSH2 0x4A43 DUP2 PUSH2 0x4A07 JUMP JUMPDEST SWAP1 POP SWAP2 SWAP1 POP JUMP JUMPDEST PUSH32 0x4552433732313A20617070726F766520746F2063616C6C657200000000000000 PUSH1 0x0 DUP3 ADD MSTORE POP JUMP JUMPDEST PUSH1 0x0 PUSH2 0x4A80 PUSH1 0x19 DUP4 PUSH2 0x304E JUMP JUMPDEST SWAP2 POP PUSH2 0x4A8B DUP3 PUSH2 0x4A4A JUMP JUMPDEST PUSH1 0x20 DUP3 ADD SWAP1 POP SWAP2 SWAP1 POP JUMP JUMPDEST PUSH1 0x0 PUSH1 0x20 DUP3 ADD SWAP1 POP DUP2 DUP2 SUB PUSH1 0x0 DUP4 ADD MSTORE PUSH2 0x4AAF DUP2 PUSH2 0x4A73 JUMP JUMPDEST SWAP1 POP SWAP2 SWAP1 POP JUMP JUMPDEST PUSH32 0x4552433732313A207472616E7366657220746F206E6F6E204552433732315265 PUSH1 0x0 DUP3 ADD MSTORE PUSH32 0x63656976657220696D706C656D656E7465720000000000000000000000000000 PUSH1 0x20 DUP3 ADD MSTORE POP JUMP JUMPDEST PUSH1 0x0 PUSH2 0x4B12 PUSH1 0x32 DUP4 PUSH2 0x304E JUMP JUMPDEST SWAP2 POP PUSH2 0x4B1D DUP3 PUSH2 0x4AB6 JUMP JUMPDEST PUSH1 0x40 DUP3 ADD SWAP1 POP SWAP2 SWAP1 POP JUMP JUMPDEST PUSH1 0x0 PUSH1 0x20 DUP3 ADD SWAP1 POP DUP2 DUP2 SUB PUSH1 0x0 DUP4 ADD MSTORE PUSH2 0x4B41 DUP2 PUSH2 0x4B05 JUMP JUMPDEST SWAP1 POP SWAP2 SWAP1 POP JUMP JUMPDEST PUSH32 0x4E487B7100000000000000000000000000000000000000000000000000000000 PUSH1 0x0 MSTORE PUSH1 0x12 PUSH1 0x4 MSTORE PUSH1 0x24 PUSH1 0x0 REVERT JUMPDEST PUSH32 0x455243373231456E756D657261626C653A20636F6E7365637574697665207472 PUSH1 0x0 DUP3 ADD MSTORE PUSH32 0x616E7366657273206E6F7420737570706F727465640000000000000000000000 PUSH1 0x20 DUP3 ADD MSTORE POP JUMP JUMPDEST PUSH1 0x0 PUSH2 0x4BD3 PUSH1 0x35 DUP4 PUSH2 0x304E JUMP JUMPDEST SWAP2 POP PUSH2 0x4BDE DUP3 PUSH2 0x4B77 JUMP JUMPDEST PUSH1 0x40 DUP3 ADD SWAP1 POP SWAP2 SWAP1 POP JUMP JUMPDEST PUSH1 0x0 PUSH1 0x20 DUP3 ADD SWAP1 POP DUP2 DUP2 SUB PUSH1 0x0 DUP4 ADD MSTORE PUSH2 0x4C02 DUP2 PUSH2 0x4BC6 JUMP JUMPDEST SWAP1 POP SWAP2 SWAP1 POP JUMP JUMPDEST PUSH1 0x0 DUP2 MLOAD SWAP1 POP SWAP2 SWAP1 POP JUMP JUMPDEST PUSH1 0x0 DUP3 DUP3 MSTORE PUSH1 0x20 DUP3 ADD SWAP1 POP SWAP3 SWAP2 POP POP JUMP JUMPDEST PUSH1 0x0 PUSH2 0x4C30 DUP3 PUSH2 0x4C09 JUMP JUMPDEST PUSH2 0x4C3A DUP2 DUP6 PUSH2 0x4C14 JUMP JUMPDEST SWAP4 POP PUSH2 0x4C4A DUP2 DUP6 PUSH1 0x20 DUP7 ADD PUSH2 0x305F JUMP JUMPDEST PUSH2 0x4C53 DUP2 PUSH2 0x3089 JUMP JUMPDEST DUP5 ADD SWAP2 POP POP SWAP3 SWAP2 POP POP JUMP JUMPDEST PUSH1 0x0 PUSH1 0x80 DUP3 ADD SWAP1 POP PUSH2 0x4C73 PUSH1 0x0 DUP4 ADD DUP8 PUSH2 0x318A JUMP JUMPDEST PUSH2 0x4C80 PUSH1 0x20 DUP4 ADD DUP7 PUSH2 0x318A JUMP JUMPDEST PUSH2 0x4C8D PUSH1 0x40 DUP4 ADD DUP6 PUSH2 0x31B4 JUMP JUMPDEST DUP2 DUP2 SUB PUSH1 0x60 DUP4 ADD MSTORE PUSH2 0x4C9F DUP2 DUP5 PUSH2 0x4C25 JUMP JUMPDEST SWAP1 POP SWAP6 SWAP5 POP POP POP POP POP JUMP JUMPDEST PUSH1 0x0 DUP2 MLOAD SWAP1 POP PUSH2 0x4CB9 DUP2 PUSH2 0x2FB4 JUMP JUMPDEST SWAP3 SWAP2 POP POP JUMP JUMPDEST PUSH1 0x0 PUSH1 0x20 DUP3 DUP5 SUB SLT ISZERO PUSH2 0x4CD5 JUMPI PUSH2 0x4CD4 PUSH2 0x2F7E JUMP JUMPDEST JUMPDEST PUSH1 0x0 PUSH2 0x4CE3 DUP5 DUP3 DUP6 ADD PUSH2 0x4CAA JUMP JUMPDEST SWAP2 POP POP SWAP3 SWAP2 POP POP JUMP JUMPDEST PUSH1 0x0 PUSH2 0x4CF7 DUP3 PUSH2 0x30F5 JUMP JUMPDEST SWAP2 POP PUSH2 0x4D02 DUP4 PUSH2 0x30F5 JUMP JUMPDEST SWAP3 POP DUP3 DUP3 SUB SWAP1 POP DUP2 DUP2 GT ISZERO PUSH2 0x4D1A JUMPI PUSH2 0x4D19 PUSH2 0x44C4 JUMP JUMPDEST JUMPDEST SWAP3 SWAP2 POP POP JUMP JUMPDEST PUSH32 0x4E487B7100000000000000000000000000000000000000000000000000000000 PUSH1 0x0 MSTORE PUSH1 0x31 PUSH1 0x4 MSTORE PUSH1 0x24 PUSH1 0x0 REVERT JUMPDEST PUSH32 0x4552433732313A206D696E7420746F20746865207A65726F2061646472657373 PUSH1 0x0 DUP3 ADD MSTORE POP JUMP JUMPDEST PUSH1 0x0 PUSH2 0x4D85 PUSH1 0x20 DUP4 PUSH2 0x304E JUMP JUMPDEST SWAP2 POP PUSH2 0x4D90 DUP3 PUSH2 0x4D4F JUMP JUMPDEST PUSH1 0x20 DUP3 ADD SWAP1 POP SWAP2 SWAP1 POP JUMP JUMPDEST PUSH1 0x0 PUSH1 0x20 DUP3 ADD SWAP1 POP DUP2 DUP2 SUB PUSH1 0x0 DUP4 ADD MSTORE PUSH2 0x4DB4 DUP2 PUSH2 0x4D78 JUMP JUMPDEST SWAP1 POP SWAP2 SWAP1 POP JUMP JUMPDEST PUSH32 0x4552433732313A20746F6B656E20616C7265616479206D696E74656400000000 PUSH1 0x0 DUP3 ADD MSTORE POP JUMP JUMPDEST PUSH1 0x0 PUSH2 0x4DF1 PUSH1 0x1C DUP4 PUSH2 0x304E JUMP JUMPDEST SWAP2 POP PUSH2 0x4DFC DUP3 PUSH2 0x4DBB JUMP JUMPDEST PUSH1 0x20 DUP3 ADD SWAP1 POP SWAP2 SWAP1 POP JUMP JUMPDEST PUSH1 0x0 PUSH1 0x20 DUP3 ADD SWAP1 POP DUP2 DUP2 SUB PUSH1 0x0 DUP4 ADD MSTORE PUSH2 0x4E20 DUP2 PUSH2 0x4DE4 JUMP JUMPDEST SWAP1 POP SWAP2 SWAP1 POP JUMP INVALID LOG2 PUSH5 0x6970667358 0x22 SLT KECCAK256 PUSH16 0xE0943FBF149253B7864EFDB9943874AB 0xAA 0xE4 0xEC 0xC 0x2D 0x27 0x26 0xC3 CODESIZE 0x4E PUSH27 0x4AE6B4E64736F6C63430008130033000000000000000000000000 "},"methodIdentifiers":{"_price()":"235b6ea1","approve(address,uint256)":"095ea7b3","balanceOf(address)":"70a08231","createProfileNFT((address,string,string,string,string))":"e563f778","getAllProfileNFTData()":"ac8b628e","getApproved(uint256)":"081812fc","getProfileNFTData(uint256)":"9b85b1f1","getUserHandles(address)":"80985a87","getUserProfiles(address)":"5dd4dff4","isApprovedForAll(address,address)":"e985e9c5","name()":"06fdde03","owner()":"8da5cb5b","ownerOf(uint256)":"6352211e","profileId()":"08386eba","renounceOwnership()":"715018a6","safeTransferFrom(address,address,uint256)":"42842e0e","safeTransferFrom(address,address,uint256,bytes)":"b88d4fde","setApprovalForAll(address,bool)":"a22cb465","supportsInterface(bytes4)":"01ffc9a7","symbol()":"95d89b41","tokenByIndex(uint256)":"4f6ccce7","tokenOfOwnerByIndex(address,uint256)":"2f745c59","tokenURI(uint256)":"c87b56dd","totalSupply()":"18160ddd","transferFrom(address,address,uint256)":"23b872dd","transferOwnership(address)":"f2fde38b","updateProfile(uint256,(address,string,string,string,string))":"2d6d852f"}}}}}