{"contracts/SourceMinter.sol":{"SourceMinter":{"abi":[{"inputs":[{"internalType":"address","name":"router","type":"address"},{"internalType":"address","name":"link","type":"address"}],"stateMutability":"nonpayable","type":"constructor"},{"inputs":[{"internalType":"address","name":"owner","type":"address"},{"internalType":"address","name":"target","type":"address"},{"internalType":"uint256","name":"value","type":"uint256"}],"name":"FailedToWithdrawEth","type":"error"},{"anonymous":false,"inputs":[{"indexed":false,"internalType":"bytes32","name":"messageId","type":"bytes32"}],"name":"MessageSent","type":"event"},{"anonymous":false,"inputs":[{"indexed":true,"internalType":"address","name":"from","type":"address"},{"indexed":true,"internalType":"address","name":"to","type":"address"}],"name":"OwnershipTransferRequested","type":"event"},{"anonymous":false,"inputs":[{"indexed":true,"internalType":"address","name":"from","type":"address"},{"indexed":true,"internalType":"address","name":"to","type":"address"}],"name":"OwnershipTransferred","type":"event"},{"inputs":[],"name":"acceptOwnership","outputs":[],"stateMutability":"nonpayable","type":"function"},{"inputs":[{"internalType":"uint64","name":"destinationChainSelector","type":"uint64"},{"internalType":"address","name":"receiver","type":"address"},{"internalType":"enum SourceMinter.PayFeesIn","name":"payFeesIn","type":"uint8"}],"name":"createProfileNFT","outputs":[],"stateMutability":"nonpayable","type":"function"},{"inputs":[],"name":"owner","outputs":[{"internalType":"address","name":"","type":"address"}],"stateMutability":"view","type":"function"},{"inputs":[{"internalType":"address","name":"to","type":"address"}],"name":"transferOwnership","outputs":[],"stateMutability":"nonpayable","type":"function"},{"inputs":[{"internalType":"address","name":"beneficiary","type":"address"}],"name":"withdraw","outputs":[],"stateMutability":"nonpayable","type":"function"},{"inputs":[{"internalType":"address","name":"beneficiary","type":"address"},{"internalType":"address","name":"token","type":"address"}],"name":"withdrawToken","outputs":[],"stateMutability":"nonpayable","type":"function"},{"stateMutability":"payable","type":"receive"}],"evm":{"bytecode":{"linkReferences":{},"object":"60c06040523480156200001157600080fd5b50604051620018e7380380620018e78339818101604052810190620000379190620003e7565b338060008073ffffffffffffffffffffffffffffffffffffffff168273ffffffffffffffffffffffffffffffffffffffff1603620000ac576040517f08c379a0000000000000000000000000000000000000000000000000000000008152600401620000a3906200048f565b60405180910390fd5b816000806101000a81548173ffffffffffffffffffffffffffffffffffffffff021916908373ffffffffffffffffffffffffffffffffffffffff160217905550600073ffffffffffffffffffffffffffffffffffffffff168173ffffffffffffffffffffffffffffffffffffffff1614620001335762000132816200024e60201b60201c565b5b5050508173ffffffffffffffffffffffffffffffffffffffff1660808173ffffffffffffffffffffffffffffffffffffffff16815250508073ffffffffffffffffffffffffffffffffffffffff1660a08173ffffffffffffffffffffffffffffffffffffffff168152505060a05173ffffffffffffffffffffffffffffffffffffffff1663095ea7b36080517fffffffffffffffffffffffffffffffffffffffffffffffffffffffffffffffff6040518363ffffffff1660e01b8152600401620001ff929190620004dd565b6020604051808303816000875af11580156200021f573d6000803e3d6000fd5b505050506040513d601f19601f8201168201806040525081019062000245919062000547565b505050620005eb565b3373ffffffffffffffffffffffffffffffffffffffff168173ffffffffffffffffffffffffffffffffffffffff1603620002bf576040517f08c379a0000000000000000000000000000000000000000000000000000000008152600401620002b690620005c9565b60405180910390fd5b80600160006101000a81548173ffffffffffffffffffffffffffffffffffffffff021916908373ffffffffffffffffffffffffffffffffffffffff1602179055508073ffffffffffffffffffffffffffffffffffffffff1660008054906101000a900473ffffffffffffffffffffffffffffffffffffffff1673ffffffffffffffffffffffffffffffffffffffff167fed8889f560326eb138920d842192f0eb3dd22b4f139c87a2c57538e05bae127860405160405180910390a350565b600080fd5b600073ffffffffffffffffffffffffffffffffffffffff82169050919050565b6000620003af8262000382565b9050919050565b620003c181620003a2565b8114620003cd57600080fd5b50565b600081519050620003e181620003b6565b92915050565b600080604083850312156200040157620004006200037d565b5b60006200041185828601620003d0565b92505060206200042485828601620003d0565b9150509250929050565b600082825260208201905092915050565b7f43616e6e6f7420736574206f776e657220746f207a65726f0000000000000000600082015250565b6000620004776018836200042e565b915062000484826200043f565b602082019050919050565b60006020820190508181036000830152620004aa8162000468565b9050919050565b620004bc81620003a2565b82525050565b6000819050919050565b620004d781620004c2565b82525050565b6000604082019050620004f46000830185620004b1565b620005036020830184620004cc565b9392505050565b60008115159050919050565b62000521816200050a565b81146200052d57600080fd5b50565b600081519050620005418162000516565b92915050565b60006020828403121562000560576200055f6200037d565b5b6000620005708482850162000530565b91505092915050565b7f43616e6e6f74207472616e7366657220746f2073656c66000000000000000000600082015250565b6000620005b16017836200042e565b9150620005be8262000579565b602082019050919050565b60006020820190508181036000830152620005e481620005a2565b9050919050565b60805160a0516112c86200061f600039600061029e0152600081816102f2015281816103bd015261046201526112c86000f3fe6080604052600436106100595760003560e01c806312c6fc31146100655780633aeac4e11461008e57806351cff8d9146100b757806379ba5097146100e05780638da5cb5b146100f7578063f2fde38b1461012257610060565b3661006057005b600080fd5b34801561007157600080fd5b5061008c60048036038101906100879190610b95565b61014b565b005b34801561009a57600080fd5b506100b560048036038101906100b09190610be8565b610541565b005b3480156100c357600080fd5b506100de60048036038101906100d99190610c28565b61064b565b005b3480156100ec57600080fd5b506100f561070f565b005b34801561010357600080fd5b5061010c6108a4565b6040516101199190610c64565b60405180910390f35b34801561012e57600080fd5b5061014960048036038101906101449190610c28565b6108cd565b005b60006040518060a00160405280846040516020016101699190610c64565b60405160208183030381529060405281526020013360405160240161018e9190610c64565b6040516020818303038152906040527f3b9fcc30000000000000000000000000000000000000000000000000000000007bffffffffffffffffffffffffffffffffffffffffffffffffffffffff19166020820180517bffffffffffffffffffffffffffffffffffffffffffffffffffffffff83818316178352505050508152602001600067ffffffffffffffff81111561022b5761022a610c7f565b5b60405190808252806020026020018201604052801561026457816020015b610251610a9d565b8152602001906001900390816102495790505b50815260200160018081111561027d5761027c610cae565b5b8460018111156102905761028f610cae565b5b1461029c5760006102be565b7f00000000000000000000000000000000000000000000000000000000000000005b73ffffffffffffffffffffffffffffffffffffffff16815260200160405180602001604052806000815250815250905060007f000000000000000000000000000000000000000000000000000000000000000073ffffffffffffffffffffffffffffffffffffffff166320487ded86846040518363ffffffff1660e01b815260040161034b929190610f0d565b602060405180830381865afa158015610368573d6000803e3d6000fd5b505050506040513d601f19601f8201168201806040525081019061038c9190610f69565b905060006001808111156103a3576103a2610cae565b5b8460018111156103b6576103b5610cae565b5b03610460577f000000000000000000000000000000000000000000000000000000000000000073ffffffffffffffffffffffffffffffffffffffff166396f4e9f987856040518363ffffffff1660e01b8152600401610416929190610f0d565b6020604051808303816000875af1158015610435573d6000803e3d6000fd5b505050506040513d601f19601f820116820180604052508101906104599190610fcc565b9050610502565b7f000000000000000000000000000000000000000000000000000000000000000073ffffffffffffffffffffffffffffffffffffffff166396f4e9f98388866040518463ffffffff1660e01b81526004016104bc929190610f0d565b60206040518083038185885af11580156104da573d6000803e3d6000fd5b50505050506040513d601f19601f820116820180604052508101906104ff9190610fcc565b90505b7f54791b38f3859327992a1ca0590ad3c0f08feba98d1a4f56ab0dca74d203392a816040516105319190611008565b60405180910390a1505050505050565b6105496108e1565b60008173ffffffffffffffffffffffffffffffffffffffff166370a08231306040518263ffffffff1660e01b81526004016105849190610c64565b602060405180830381865afa1580156105a1573d6000803e3d6000fd5b505050506040513d601f19601f820116820180604052508101906105c59190610f69565b90508173ffffffffffffffffffffffffffffffffffffffff1663a9059cbb84836040518363ffffffff1660e01b8152600401610602929190611032565b6020604051808303816000875af1158015610621573d6000803e3d6000fd5b505050506040513d601f19601f820116820180604052508101906106459190611093565b50505050565b6106536108e1565b600047905060008273ffffffffffffffffffffffffffffffffffffffff168260405161067e906110f1565b60006040518083038185875af1925050503d80600081146106bb576040519150601f19603f3d011682016040523d82523d6000602084013e6106c0565b606091505b505090508061070a573383836040517f9d11f56300000000000000000000000000000000000000000000000000000000815260040161070193929190611106565b60405180910390fd5b505050565b600160009054906101000a900473ffffffffffffffffffffffffffffffffffffffff1673ffffffffffffffffffffffffffffffffffffffff163373ffffffffffffffffffffffffffffffffffffffff161461079f576040517f08c379a00000000000000000000000000000000000000000000000000000000081526004016107969061119a565b60405180910390fd5b60008060009054906101000a900473ffffffffffffffffffffffffffffffffffffffff169050336000806101000a81548173ffffffffffffffffffffffffffffffffffffffff021916908373ffffffffffffffffffffffffffffffffffffffff1602179055506000600160006101000a81548173ffffffffffffffffffffffffffffffffffffffff021916908373ffffffffffffffffffffffffffffffffffffffff1602179055503373ffffffffffffffffffffffffffffffffffffffff168173ffffffffffffffffffffffffffffffffffffffff167f8be0079c531659141344cd1fd0a4f28419497f9722a3daafe3b4186f6b6457e060405160405180910390a350565b60008060009054906101000a900473ffffffffffffffffffffffffffffffffffffffff16905090565b6108d56108e1565b6108de81610971565b50565b60008054906101000a900473ffffffffffffffffffffffffffffffffffffffff1673ffffffffffffffffffffffffffffffffffffffff163373ffffffffffffffffffffffffffffffffffffffff161461096f576040517f08c379a000000000000000000000000000000000000000000000000000000000815260040161096690611206565b60405180910390fd5b565b3373ffffffffffffffffffffffffffffffffffffffff168173ffffffffffffffffffffffffffffffffffffffff16036109df576040517f08c379a00000000000000000000000000000000000000000000000000000000081526004016109d690611272565b60405180910390fd5b80600160006101000a81548173ffffffffffffffffffffffffffffffffffffffff021916908373ffffffffffffffffffffffffffffffffffffffff1602179055508073ffffffffffffffffffffffffffffffffffffffff1660008054906101000a900473ffffffffffffffffffffffffffffffffffffffff1673ffffffffffffffffffffffffffffffffffffffff167fed8889f560326eb138920d842192f0eb3dd22b4f139c87a2c57538e05bae127860405160405180910390a350565b6040518060400160405280600073ffffffffffffffffffffffffffffffffffffffff168152602001600081525090565b600080fd5b600067ffffffffffffffff82169050919050565b610aef81610ad2565b8114610afa57600080fd5b50565b600081359050610b0c81610ae6565b92915050565b600073ffffffffffffffffffffffffffffffffffffffff82169050919050565b6000610b3d82610b12565b9050919050565b610b4d81610b32565b8114610b5857600080fd5b50565b600081359050610b6a81610b44565b92915050565b60028110610b7d57600080fd5b50565b600081359050610b8f81610b70565b92915050565b600080600060608486031215610bae57610bad610acd565b5b6000610bbc86828701610afd565b9350506020610bcd86828701610b5b565b9250506040610bde86828701610b80565b9150509250925092565b60008060408385031215610bff57610bfe610acd565b5b6000610c0d85828601610b5b565b9250506020610c1e85828601610b5b565b9150509250929050565b600060208284031215610c3e57610c3d610acd565b5b6000610c4c84828501610b5b565b91505092915050565b610c5e81610b32565b82525050565b6000602082019050610c796000830184610c55565b92915050565b7f4e487b7100000000000000000000000000000000000000000000000000000000600052604160045260246000fd5b7f4e487b7100000000000000000000000000000000000000000000000000000000600052602160045260246000fd5b610ce681610ad2565b82525050565b600081519050919050565b600082825260208201905092915050565b60005b83811015610d26578082015181840152602081019050610d0b565b60008484015250505050565b6000601f19601f8301169050919050565b6000610d4e82610cec565b610d588185610cf7565b9350610d68818560208601610d08565b610d7181610d32565b840191505092915050565b600081519050919050565b600082825260208201905092915050565b6000819050602082019050919050565b610db181610b32565b82525050565b6000819050919050565b610dca81610db7565b82525050565b604082016000820151610de66000850182610da8565b506020820151610df96020850182610dc1565b50505050565b6000610e0b8383610dd0565b60408301905092915050565b6000602082019050919050565b6000610e2f82610d7c565b610e398185610d87565b9350610e4483610d98565b8060005b83811015610e75578151610e5c8882610dff565b9750610e6783610e17565b925050600181019050610e48565b5085935050505092915050565b600060a0830160008301518482036000860152610e9f8282610d43565b91505060208301518482036020860152610eb98282610d43565b91505060408301518482036040860152610ed38282610e24565b9150506060830151610ee86060860182610da8565b5060808301518482036080860152610f008282610d43565b9150508091505092915050565b6000604082019050610f226000830185610cdd565b8181036020830152610f348184610e82565b90509392505050565b610f4681610db7565b8114610f5157600080fd5b50565b600081519050610f6381610f3d565b92915050565b600060208284031215610f7f57610f7e610acd565b5b6000610f8d84828501610f54565b91505092915050565b6000819050919050565b610fa981610f96565b8114610fb457600080fd5b50565b600081519050610fc681610fa0565b92915050565b600060208284031215610fe257610fe1610acd565b5b6000610ff084828501610fb7565b91505092915050565b61100281610f96565b82525050565b600060208201905061101d6000830184610ff9565b92915050565b61102c81610db7565b82525050565b60006040820190506110476000830185610c55565b6110546020830184611023565b9392505050565b60008115159050919050565b6110708161105b565b811461107b57600080fd5b50565b60008151905061108d81611067565b92915050565b6000602082840312156110a9576110a8610acd565b5b60006110b78482850161107e565b91505092915050565b600081905092915050565b50565b60006110db6000836110c0565b91506110e6826110cb565b600082019050919050565b60006110fc826110ce565b9150819050919050565b600060608201905061111b6000830186610c55565b6111286020830185610c55565b6111356040830184611023565b949350505050565b600082825260208201905092915050565b7f4d7573742062652070726f706f736564206f776e657200000000000000000000600082015250565b600061118460168361113d565b915061118f8261114e565b602082019050919050565b600060208201905081810360008301526111b381611177565b9050919050565b7f4f6e6c792063616c6c61626c65206279206f776e657200000000000000000000600082015250565b60006111f060168361113d565b91506111fb826111ba565b602082019050919050565b6000602082019050818103600083015261121f816111e3565b9050919050565b7f43616e6e6f74207472616e7366657220746f2073656c66000000000000000000600082015250565b600061125c60178361113d565b915061126782611226565b602082019050919050565b6000602082019050818103600083015261128b8161124f565b905091905056fea264697066735822122064e65f1b1c200ea9d7023b350deba7652ad4f2525f89489d361dd10427a27b2964736f6c63430008130033","opcodes":"PUSH1 0xC0 PUSH1 0x40 MSTORE CALLVALUE DUP1 ISZERO PUSH3 0x11 JUMPI PUSH1 0x0 DUP1 REVERT JUMPDEST POP PUSH1 0x40 MLOAD PUSH3 0x18E7 CODESIZE SUB DUP1 PUSH3 0x18E7 DUP4 CODECOPY DUP2 DUP2 ADD PUSH1 0x40 MSTORE DUP2 ADD SWAP1 PUSH3 0x37 SWAP2 SWAP1 PUSH3 0x3E7 JUMP JUMPDEST CALLER DUP1 PUSH1 0x0 DUP1 PUSH20 0xFFFFFFFFFFFFFFFFFFFFFFFFFFFFFFFFFFFFFFFF AND DUP3 PUSH20 0xFFFFFFFFFFFFFFFFFFFFFFFFFFFFFFFFFFFFFFFF AND SUB PUSH3 0xAC JUMPI PUSH1 0x40 MLOAD PUSH32 0x8C379A000000000000000000000000000000000000000000000000000000000 DUP2 MSTORE PUSH1 0x4 ADD PUSH3 0xA3 SWAP1 PUSH3 0x48F JUMP JUMPDEST PUSH1 0x40 MLOAD DUP1 SWAP2 SUB SWAP1 REVERT JUMPDEST DUP2 PUSH1 0x0 DUP1 PUSH2 0x100 EXP DUP2 SLOAD DUP2 PUSH20 0xFFFFFFFFFFFFFFFFFFFFFFFFFFFFFFFFFFFFFFFF MUL NOT AND SWAP1 DUP4 PUSH20 0xFFFFFFFFFFFFFFFFFFFFFFFFFFFFFFFFFFFFFFFF AND MUL OR SWAP1 SSTORE POP PUSH1 0x0 PUSH20 0xFFFFFFFFFFFFFFFFFFFFFFFFFFFFFFFFFFFFFFFF AND DUP2 PUSH20 0xFFFFFFFFFFFFFFFFFFFFFFFFFFFFFFFFFFFFFFFF AND EQ PUSH3 0x133 JUMPI PUSH3 0x132 DUP2 PUSH3 0x24E PUSH1 0x20 SHL PUSH1 0x20 SHR JUMP JUMPDEST JUMPDEST POP POP POP DUP2 PUSH20 0xFFFFFFFFFFFFFFFFFFFFFFFFFFFFFFFFFFFFFFFF AND PUSH1 0x80 DUP2 PUSH20 0xFFFFFFFFFFFFFFFFFFFFFFFFFFFFFFFFFFFFFFFF AND DUP2 MSTORE POP POP DUP1 PUSH20 0xFFFFFFFFFFFFFFFFFFFFFFFFFFFFFFFFFFFFFFFF AND PUSH1 0xA0 DUP2 PUSH20 0xFFFFFFFFFFFFFFFFFFFFFFFFFFFFFFFFFFFFFFFF AND DUP2 MSTORE POP POP PUSH1 0xA0 MLOAD PUSH20 0xFFFFFFFFFFFFFFFFFFFFFFFFFFFFFFFFFFFFFFFF AND PUSH4 0x95EA7B3 PUSH1 0x80 MLOAD PUSH32 0xFFFFFFFFFFFFFFFFFFFFFFFFFFFFFFFFFFFFFFFFFFFFFFFFFFFFFFFFFFFFFFFF PUSH1 0x40 MLOAD DUP4 PUSH4 0xFFFFFFFF AND PUSH1 0xE0 SHL DUP2 MSTORE PUSH1 0x4 ADD PUSH3 0x1FF SWAP3 SWAP2 SWAP1 PUSH3 0x4DD JUMP JUMPDEST PUSH1 0x20 PUSH1 0x40 MLOAD DUP1 DUP4 SUB DUP2 PUSH1 0x0 DUP8 GAS CALL ISZERO DUP1 ISZERO PUSH3 0x21F JUMPI RETURNDATASIZE PUSH1 0x0 DUP1 RETURNDATACOPY RETURNDATASIZE PUSH1 0x0 REVERT JUMPDEST POP POP POP POP PUSH1 0x40 MLOAD RETURNDATASIZE PUSH1 0x1F NOT PUSH1 0x1F DUP3 ADD AND DUP3 ADD DUP1 PUSH1 0x40 MSTORE POP DUP2 ADD SWAP1 PUSH3 0x245 SWAP2 SWAP1 PUSH3 0x547 JUMP JUMPDEST POP POP POP PUSH3 0x5EB JUMP JUMPDEST CALLER PUSH20 0xFFFFFFFFFFFFFFFFFFFFFFFFFFFFFFFFFFFFFFFF AND DUP2 PUSH20 0xFFFFFFFFFFFFFFFFFFFFFFFFFFFFFFFFFFFFFFFF AND SUB PUSH3 0x2BF JUMPI PUSH1 0x40 MLOAD PUSH32 0x8C379A000000000000000000000000000000000000000000000000000000000 DUP2 MSTORE PUSH1 0x4 ADD PUSH3 0x2B6 SWAP1 PUSH3 0x5C9 JUMP JUMPDEST PUSH1 0x40 MLOAD DUP1 SWAP2 SUB SWAP1 REVERT JUMPDEST DUP1 PUSH1 0x1 PUSH1 0x0 PUSH2 0x100 EXP DUP2 SLOAD DUP2 PUSH20 0xFFFFFFFFFFFFFFFFFFFFFFFFFFFFFFFFFFFFFFFF MUL NOT AND SWAP1 DUP4 PUSH20 0xFFFFFFFFFFFFFFFFFFFFFFFFFFFFFFFFFFFFFFFF AND MUL OR SWAP1 SSTORE POP DUP1 PUSH20 0xFFFFFFFFFFFFFFFFFFFFFFFFFFFFFFFFFFFFFFFF AND PUSH1 0x0 DUP1 SLOAD SWAP1 PUSH2 0x100 EXP SWAP1 DIV PUSH20 0xFFFFFFFFFFFFFFFFFFFFFFFFFFFFFFFFFFFFFFFF AND PUSH20 0xFFFFFFFFFFFFFFFFFFFFFFFFFFFFFFFFFFFFFFFF AND PUSH32 0xED8889F560326EB138920D842192F0EB3DD22B4F139C87A2C57538E05BAE1278 PUSH1 0x40 MLOAD PUSH1 0x40 MLOAD DUP1 SWAP2 SUB SWAP1 LOG3 POP JUMP JUMPDEST PUSH1 0x0 DUP1 REVERT JUMPDEST PUSH1 0x0 PUSH20 0xFFFFFFFFFFFFFFFFFFFFFFFFFFFFFFFFFFFFFFFF DUP3 AND SWAP1 POP SWAP2 SWAP1 POP JUMP JUMPDEST PUSH1 0x0 PUSH3 0x3AF DUP3 PUSH3 0x382 JUMP JUMPDEST SWAP1 POP SWAP2 SWAP1 POP JUMP JUMPDEST PUSH3 0x3C1 DUP2 PUSH3 0x3A2 JUMP JUMPDEST DUP2 EQ PUSH3 0x3CD JUMPI PUSH1 0x0 DUP1 REVERT JUMPDEST POP JUMP JUMPDEST PUSH1 0x0 DUP2 MLOAD SWAP1 POP PUSH3 0x3E1 DUP2 PUSH3 0x3B6 JUMP JUMPDEST SWAP3 SWAP2 POP POP JUMP JUMPDEST PUSH1 0x0 DUP1 PUSH1 0x40 DUP4 DUP6 SUB SLT ISZERO PUSH3 0x401 JUMPI PUSH3 0x400 PUSH3 0x37D JUMP JUMPDEST JUMPDEST PUSH1 0x0 PUSH3 0x411 DUP6 DUP3 DUP7 ADD PUSH3 0x3D0 JUMP JUMPDEST SWAP3 POP POP PUSH1 0x20 PUSH3 0x424 DUP6 DUP3 DUP7 ADD PUSH3 0x3D0 JUMP JUMPDEST SWAP2 POP POP SWAP3 POP SWAP3 SWAP1 POP JUMP JUMPDEST PUSH1 0x0 DUP3 DUP3 MSTORE PUSH1 0x20 DUP3 ADD SWAP1 POP SWAP3 SWAP2 POP POP JUMP JUMPDEST PUSH32 0x43616E6E6F7420736574206F776E657220746F207A65726F0000000000000000 PUSH1 0x0 DUP3 ADD MSTORE POP JUMP JUMPDEST PUSH1 0x0 PUSH3 0x477 PUSH1 0x18 DUP4 PUSH3 0x42E JUMP JUMPDEST SWAP2 POP PUSH3 0x484 DUP3 PUSH3 0x43F JUMP JUMPDEST PUSH1 0x20 DUP3 ADD SWAP1 POP SWAP2 SWAP1 POP JUMP JUMPDEST PUSH1 0x0 PUSH1 0x20 DUP3 ADD SWAP1 POP DUP2 DUP2 SUB PUSH1 0x0 DUP4 ADD MSTORE PUSH3 0x4AA DUP2 PUSH3 0x468 JUMP JUMPDEST SWAP1 POP SWAP2 SWAP1 POP JUMP JUMPDEST PUSH3 0x4BC DUP2 PUSH3 0x3A2 JUMP JUMPDEST DUP3 MSTORE POP POP JUMP JUMPDEST PUSH1 0x0 DUP2 SWAP1 POP SWAP2 SWAP1 POP JUMP JUMPDEST PUSH3 0x4D7 DUP2 PUSH3 0x4C2 JUMP JUMPDEST DUP3 MSTORE POP POP JUMP JUMPDEST PUSH1 0x0 PUSH1 0x40 DUP3 ADD SWAP1 POP PUSH3 0x4F4 PUSH1 0x0 DUP4 ADD DUP6 PUSH3 0x4B1 JUMP JUMPDEST PUSH3 0x503 PUSH1 0x20 DUP4 ADD DUP5 PUSH3 0x4CC JUMP JUMPDEST SWAP4 SWAP3 POP POP POP JUMP JUMPDEST PUSH1 0x0 DUP2 ISZERO ISZERO SWAP1 POP SWAP2 SWAP1 POP JUMP JUMPDEST PUSH3 0x521 DUP2 PUSH3 0x50A JUMP JUMPDEST DUP2 EQ PUSH3 0x52D JUMPI PUSH1 0x0 DUP1 REVERT JUMPDEST POP JUMP JUMPDEST PUSH1 0x0 DUP2 MLOAD SWAP1 POP PUSH3 0x541 DUP2 PUSH3 0x516 JUMP JUMPDEST SWAP3 SWAP2 POP POP JUMP JUMPDEST PUSH1 0x0 PUSH1 0x20 DUP3 DUP5 SUB SLT ISZERO PUSH3 0x560 JUMPI PUSH3 0x55F PUSH3 0x37D JUMP JUMPDEST JUMPDEST PUSH1 0x0 PUSH3 0x570 DUP5 DUP3 DUP6 ADD PUSH3 0x530 JUMP JUMPDEST SWAP2 POP POP SWAP3 SWAP2 POP POP JUMP JUMPDEST PUSH32 0x43616E6E6F74207472616E7366657220746F2073656C66000000000000000000 PUSH1 0x0 DUP3 ADD MSTORE POP JUMP JUMPDEST PUSH1 0x0 PUSH3 0x5B1 PUSH1 0x17 DUP4 PUSH3 0x42E JUMP JUMPDEST SWAP2 POP PUSH3 0x5BE DUP3 PUSH3 0x579 JUMP JUMPDEST PUSH1 0x20 DUP3 ADD SWAP1 POP SWAP2 SWAP1 POP JUMP JUMPDEST PUSH1 0x0 PUSH1 0x20 DUP3 ADD SWAP1 POP DUP2 DUP2 SUB PUSH1 0x0 DUP4 ADD MSTORE PUSH3 0x5E4 DUP2 PUSH3 0x5A2 JUMP JUMPDEST SWAP1 POP SWAP2 SWAP1 POP JUMP JUMPDEST PUSH1 0x80 MLOAD PUSH1 0xA0 MLOAD PUSH2 0x12C8 PUSH3 0x61F PUSH1 0x0 CODECOPY PUSH1 0x0 PUSH2 0x29E ADD MSTORE PUSH1 0x0 DUP2 DUP2 PUSH2 0x2F2 ADD MSTORE DUP2 DUP2 PUSH2 0x3BD ADD MSTORE PUSH2 0x462 ADD MSTORE PUSH2 0x12C8 PUSH1 0x0 RETURN INVALID PUSH1 0x80 PUSH1 0x40 MSTORE PUSH1 0x4 CALLDATASIZE LT PUSH2 0x59 JUMPI PUSH1 0x0 CALLDATALOAD PUSH1 0xE0 SHR DUP1 PUSH4 0x12C6FC31 EQ PUSH2 0x65 JUMPI DUP1 PUSH4 0x3AEAC4E1 EQ PUSH2 0x8E JUMPI DUP1 PUSH4 0x51CFF8D9 EQ PUSH2 0xB7 JUMPI DUP1 PUSH4 0x79BA5097 EQ PUSH2 0xE0 JUMPI DUP1 PUSH4 0x8DA5CB5B EQ PUSH2 0xF7 JUMPI DUP1 PUSH4 0xF2FDE38B EQ PUSH2 0x122 JUMPI PUSH2 0x60 JUMP JUMPDEST CALLDATASIZE PUSH2 0x60 JUMPI STOP JUMPDEST PUSH1 0x0 DUP1 REVERT JUMPDEST CALLVALUE DUP1 ISZERO PUSH2 0x71 JUMPI PUSH1 0x0 DUP1 REVERT JUMPDEST POP PUSH2 0x8C PUSH1 0x4 DUP1 CALLDATASIZE SUB DUP2 ADD SWAP1 PUSH2 0x87 SWAP2 SWAP1 PUSH2 0xB95 JUMP JUMPDEST PUSH2 0x14B JUMP JUMPDEST STOP JUMPDEST CALLVALUE DUP1 ISZERO PUSH2 0x9A JUMPI PUSH1 0x0 DUP1 REVERT JUMPDEST POP PUSH2 0xB5 PUSH1 0x4 DUP1 CALLDATASIZE SUB DUP2 ADD SWAP1 PUSH2 0xB0 SWAP2 SWAP1 PUSH2 0xBE8 JUMP JUMPDEST PUSH2 0x541 JUMP JUMPDEST STOP JUMPDEST CALLVALUE DUP1 ISZERO PUSH2 0xC3 JUMPI PUSH1 0x0 DUP1 REVERT JUMPDEST POP PUSH2 0xDE PUSH1 0x4 DUP1 CALLDATASIZE SUB DUP2 ADD SWAP1 PUSH2 0xD9 SWAP2 SWAP1 PUSH2 0xC28 JUMP JUMPDEST PUSH2 0x64B JUMP JUMPDEST STOP JUMPDEST CALLVALUE DUP1 ISZERO PUSH2 0xEC JUMPI PUSH1 0x0 DUP1 REVERT JUMPDEST POP PUSH2 0xF5 PUSH2 0x70F JUMP JUMPDEST STOP JUMPDEST CALLVALUE DUP1 ISZERO PUSH2 0x103 JUMPI PUSH1 0x0 DUP1 REVERT JUMPDEST POP PUSH2 0x10C PUSH2 0x8A4 JUMP JUMPDEST PUSH1 0x40 MLOAD PUSH2 0x119 SWAP2 SWAP1 PUSH2 0xC64 JUMP JUMPDEST PUSH1 0x40 MLOAD DUP1 SWAP2 SUB SWAP1 RETURN JUMPDEST CALLVALUE DUP1 ISZERO PUSH2 0x12E JUMPI PUSH1 0x0 DUP1 REVERT JUMPDEST POP PUSH2 0x149 PUSH1 0x4 DUP1 CALLDATASIZE SUB DUP2 ADD SWAP1 PUSH2 0x144 SWAP2 SWAP1 PUSH2 0xC28 JUMP JUMPDEST PUSH2 0x8CD JUMP JUMPDEST STOP JUMPDEST PUSH1 0x0 PUSH1 0x40 MLOAD DUP1 PUSH1 0xA0 ADD PUSH1 0x40 MSTORE DUP1 DUP5 PUSH1 0x40 MLOAD PUSH1 0x20 ADD PUSH2 0x169 SWAP2 SWAP1 PUSH2 0xC64 JUMP JUMPDEST PUSH1 0x40 MLOAD PUSH1 0x20 DUP2 DUP4 SUB SUB DUP2 MSTORE SWAP1 PUSH1 0x40 MSTORE DUP2 MSTORE PUSH1 0x20 ADD CALLER PUSH1 0x40 MLOAD PUSH1 0x24 ADD PUSH2 0x18E SWAP2 SWAP1 PUSH2 0xC64 JUMP JUMPDEST PUSH1 0x40 MLOAD PUSH1 0x20 DUP2 DUP4 SUB SUB DUP2 MSTORE SWAP1 PUSH1 0x40 MSTORE PUSH32 0x3B9FCC3000000000000000000000000000000000000000000000000000000000 PUSH28 0xFFFFFFFFFFFFFFFFFFFFFFFFFFFFFFFFFFFFFFFFFFFFFFFFFFFFFFFF NOT AND PUSH1 0x20 DUP3 ADD DUP1 MLOAD PUSH28 0xFFFFFFFFFFFFFFFFFFFFFFFFFFFFFFFFFFFFFFFFFFFFFFFFFFFFFFFF DUP4 DUP2 DUP4 AND OR DUP4 MSTORE POP POP POP POP DUP2 MSTORE PUSH1 0x20 ADD PUSH1 0x0 PUSH8 0xFFFFFFFFFFFFFFFF DUP2 GT ISZERO PUSH2 0x22B JUMPI PUSH2 0x22A PUSH2 0xC7F JUMP JUMPDEST JUMPDEST PUSH1 0x40 MLOAD SWAP1 DUP1 DUP3 MSTORE DUP1 PUSH1 0x20 MUL PUSH1 0x20 ADD DUP3 ADD PUSH1 0x40 MSTORE DUP1 ISZERO PUSH2 0x264 JUMPI DUP2 PUSH1 0x20 ADD JUMPDEST PUSH2 0x251 PUSH2 0xA9D JUMP JUMPDEST DUP2 MSTORE PUSH1 0x20 ADD SWAP1 PUSH1 0x1 SWAP1 SUB SWAP1 DUP2 PUSH2 0x249 JUMPI SWAP1 POP JUMPDEST POP DUP2 MSTORE PUSH1 0x20 ADD PUSH1 0x1 DUP1 DUP2 GT ISZERO PUSH2 0x27D JUMPI PUSH2 0x27C PUSH2 0xCAE JUMP JUMPDEST JUMPDEST DUP5 PUSH1 0x1 DUP2 GT ISZERO PUSH2 0x290 JUMPI PUSH2 0x28F PUSH2 0xCAE JUMP JUMPDEST JUMPDEST EQ PUSH2 0x29C JUMPI PUSH1 0x0 PUSH2 0x2BE JUMP JUMPDEST PUSH32 0x0 JUMPDEST PUSH20 0xFFFFFFFFFFFFFFFFFFFFFFFFFFFFFFFFFFFFFFFF AND DUP2 MSTORE PUSH1 0x20 ADD PUSH1 0x40 MLOAD DUP1 PUSH1 0x20 ADD PUSH1 0x40 MSTORE DUP1 PUSH1 0x0 DUP2 MSTORE POP DUP2 MSTORE POP SWAP1 POP PUSH1 0x0 PUSH32 0x0 PUSH20 0xFFFFFFFFFFFFFFFFFFFFFFFFFFFFFFFFFFFFFFFF AND PUSH4 0x20487DED DUP7 DUP5 PUSH1 0x40 MLOAD DUP4 PUSH4 0xFFFFFFFF AND PUSH1 0xE0 SHL DUP2 MSTORE PUSH1 0x4 ADD PUSH2 0x34B SWAP3 SWAP2 SWAP1 PUSH2 0xF0D JUMP JUMPDEST PUSH1 0x20 PUSH1 0x40 MLOAD DUP1 DUP4 SUB DUP2 DUP7 GAS STATICCALL ISZERO DUP1 ISZERO PUSH2 0x368 JUMPI RETURNDATASIZE PUSH1 0x0 DUP1 RETURNDATACOPY RETURNDATASIZE PUSH1 0x0 REVERT JUMPDEST POP POP POP POP PUSH1 0x40 MLOAD RETURNDATASIZE PUSH1 0x1F NOT PUSH1 0x1F DUP3 ADD AND DUP3 ADD DUP1 PUSH1 0x40 MSTORE POP DUP2 ADD SWAP1 PUSH2 0x38C SWAP2 SWAP1 PUSH2 0xF69 JUMP JUMPDEST SWAP1 POP PUSH1 0x0 PUSH1 0x1 DUP1 DUP2 GT ISZERO PUSH2 0x3A3 JUMPI PUSH2 0x3A2 PUSH2 0xCAE JUMP JUMPDEST JUMPDEST DUP5 PUSH1 0x1 DUP2 GT ISZERO PUSH2 0x3B6 JUMPI PUSH2 0x3B5 PUSH2 0xCAE JUMP JUMPDEST JUMPDEST SUB PUSH2 0x460 JUMPI PUSH32 0x0 PUSH20 0xFFFFFFFFFFFFFFFFFFFFFFFFFFFFFFFFFFFFFFFF AND PUSH4 0x96F4E9F9 DUP8 DUP6 PUSH1 0x40 MLOAD DUP4 PUSH4 0xFFFFFFFF AND PUSH1 0xE0 SHL DUP2 MSTORE PUSH1 0x4 ADD PUSH2 0x416 SWAP3 SWAP2 SWAP1 PUSH2 0xF0D JUMP JUMPDEST PUSH1 0x20 PUSH1 0x40 MLOAD DUP1 DUP4 SUB DUP2 PUSH1 0x0 DUP8 GAS CALL ISZERO DUP1 ISZERO PUSH2 0x435 JUMPI RETURNDATASIZE PUSH1 0x0 DUP1 RETURNDATACOPY RETURNDATASIZE PUSH1 0x0 REVERT JUMPDEST POP POP POP POP PUSH1 0x40 MLOAD RETURNDATASIZE PUSH1 0x1F NOT PUSH1 0x1F DUP3 ADD AND DUP3 ADD DUP1 PUSH1 0x40 MSTORE POP DUP2 ADD SWAP1 PUSH2 0x459 SWAP2 SWAP1 PUSH2 0xFCC JUMP JUMPDEST SWAP1 POP PUSH2 0x502 JUMP JUMPDEST PUSH32 0x0 PUSH20 0xFFFFFFFFFFFFFFFFFFFFFFFFFFFFFFFFFFFFFFFF AND PUSH4 0x96F4E9F9 DUP4 DUP9 DUP7 PUSH1 0x40 MLOAD DUP5 PUSH4 0xFFFFFFFF AND PUSH1 0xE0 SHL DUP2 MSTORE PUSH1 0x4 ADD PUSH2 0x4BC SWAP3 SWAP2 SWAP1 PUSH2 0xF0D JUMP JUMPDEST PUSH1 0x20 PUSH1 0x40 MLOAD DUP1 DUP4 SUB DUP2 DUP6 DUP9 GAS CALL ISZERO DUP1 ISZERO PUSH2 0x4DA JUMPI RETURNDATASIZE PUSH1 0x0 DUP1 RETURNDATACOPY RETURNDATASIZE PUSH1 0x0 REVERT JUMPDEST POP POP POP POP POP PUSH1 0x40 MLOAD RETURNDATASIZE PUSH1 0x1F NOT PUSH1 0x1F DUP3 ADD AND DUP3 ADD DUP1 PUSH1 0x40 MSTORE POP DUP2 ADD SWAP1 PUSH2 0x4FF SWAP2 SWAP1 PUSH2 0xFCC JUMP JUMPDEST SWAP1 POP JUMPDEST PUSH32 0x54791B38F3859327992A1CA0590AD3C0F08FEBA98D1A4F56AB0DCA74D203392A DUP2 PUSH1 0x40 MLOAD PUSH2 0x531 SWAP2 SWAP1 PUSH2 0x1008 JUMP JUMPDEST PUSH1 0x40 MLOAD DUP1 SWAP2 SUB SWAP1 LOG1 POP POP POP POP POP POP JUMP JUMPDEST PUSH2 0x549 PUSH2 0x8E1 JUMP JUMPDEST PUSH1 0x0 DUP2 PUSH20 0xFFFFFFFFFFFFFFFFFFFFFFFFFFFFFFFFFFFFFFFF AND PUSH4 0x70A08231 ADDRESS PUSH1 0x40 MLOAD DUP3 PUSH4 0xFFFFFFFF AND PUSH1 0xE0 SHL DUP2 MSTORE PUSH1 0x4 ADD PUSH2 0x584 SWAP2 SWAP1 PUSH2 0xC64 JUMP JUMPDEST PUSH1 0x20 PUSH1 0x40 MLOAD DUP1 DUP4 SUB DUP2 DUP7 GAS STATICCALL ISZERO DUP1 ISZERO PUSH2 0x5A1 JUMPI RETURNDATASIZE PUSH1 0x0 DUP1 RETURNDATACOPY RETURNDATASIZE PUSH1 0x0 REVERT JUMPDEST POP POP POP POP PUSH1 0x40 MLOAD RETURNDATASIZE PUSH1 0x1F NOT PUSH1 0x1F DUP3 ADD AND DUP3 ADD DUP1 PUSH1 0x40 MSTORE POP DUP2 ADD SWAP1 PUSH2 0x5C5 SWAP2 SWAP1 PUSH2 0xF69 JUMP JUMPDEST SWAP1 POP DUP2 PUSH20 0xFFFFFFFFFFFFFFFFFFFFFFFFFFFFFFFFFFFFFFFF AND PUSH4 0xA9059CBB DUP5 DUP4 PUSH1 0x40 MLOAD DUP4 PUSH4 0xFFFFFFFF AND PUSH1 0xE0 SHL DUP2 MSTORE PUSH1 0x4 ADD PUSH2 0x602 SWAP3 SWAP2 SWAP1 PUSH2 0x1032 JUMP JUMPDEST PUSH1 0x20 PUSH1 0x40 MLOAD DUP1 DUP4 SUB DUP2 PUSH1 0x0 DUP8 GAS CALL ISZERO DUP1 ISZERO PUSH2 0x621 JUMPI RETURNDATASIZE PUSH1 0x0 DUP1 RETURNDATACOPY RETURNDATASIZE PUSH1 0x0 REVERT JUMPDEST POP POP POP POP PUSH1 0x40 MLOAD RETURNDATASIZE PUSH1 0x1F NOT PUSH1 0x1F DUP3 ADD AND DUP3 ADD DUP1 PUSH1 0x40 MSTORE POP DUP2 ADD SWAP1 PUSH2 0x645 SWAP2 SWAP1 PUSH2 0x1093 JUMP JUMPDEST POP POP POP POP JUMP JUMPDEST PUSH2 0x653 PUSH2 0x8E1 JUMP JUMPDEST PUSH1 0x0 SELFBALANCE SWAP1 POP PUSH1 0x0 DUP3 PUSH20 0xFFFFFFFFFFFFFFFFFFFFFFFFFFFFFFFFFFFFFFFF AND DUP3 PUSH1 0x40 MLOAD PUSH2 0x67E SWAP1 PUSH2 0x10F1 JUMP JUMPDEST PUSH1 0x0 PUSH1 0x40 MLOAD DUP1 DUP4 SUB DUP2 DUP6 DUP8 GAS CALL SWAP3 POP POP POP RETURNDATASIZE DUP1 PUSH1 0x0 DUP2 EQ PUSH2 0x6BB JUMPI PUSH1 0x40 MLOAD SWAP2 POP PUSH1 0x1F NOT PUSH1 0x3F RETURNDATASIZE ADD AND DUP3 ADD PUSH1 0x40 MSTORE RETURNDATASIZE DUP3 MSTORE RETURNDATASIZE PUSH1 0x0 PUSH1 0x20 DUP5 ADD RETURNDATACOPY PUSH2 0x6C0 JUMP JUMPDEST PUSH1 0x60 SWAP2 POP JUMPDEST POP POP SWAP1 POP DUP1 PUSH2 0x70A JUMPI CALLER DUP4 DUP4 PUSH1 0x40 MLOAD PUSH32 0x9D11F56300000000000000000000000000000000000000000000000000000000 DUP2 MSTORE PUSH1 0x4 ADD PUSH2 0x701 SWAP4 SWAP3 SWAP2 SWAP1 PUSH2 0x1106 JUMP JUMPDEST PUSH1 0x40 MLOAD DUP1 SWAP2 SUB SWAP1 REVERT JUMPDEST POP POP POP JUMP JUMPDEST PUSH1 0x1 PUSH1 0x0 SWAP1 SLOAD SWAP1 PUSH2 0x100 EXP SWAP1 DIV PUSH20 0xFFFFFFFFFFFFFFFFFFFFFFFFFFFFFFFFFFFFFFFF AND PUSH20 0xFFFFFFFFFFFFFFFFFFFFFFFFFFFFFFFFFFFFFFFF AND CALLER PUSH20 0xFFFFFFFFFFFFFFFFFFFFFFFFFFFFFFFFFFFFFFFF AND EQ PUSH2 0x79F JUMPI PUSH1 0x40 MLOAD PUSH32 0x8C379A000000000000000000000000000000000000000000000000000000000 DUP2 MSTORE PUSH1 0x4 ADD PUSH2 0x796 SWAP1 PUSH2 0x119A JUMP JUMPDEST PUSH1 0x40 MLOAD DUP1 SWAP2 SUB SWAP1 REVERT JUMPDEST PUSH1 0x0 DUP1 PUSH1 0x0 SWAP1 SLOAD SWAP1 PUSH2 0x100 EXP SWAP1 DIV PUSH20 0xFFFFFFFFFFFFFFFFFFFFFFFFFFFFFFFFFFFFFFFF AND SWAP1 POP CALLER PUSH1 0x0 DUP1 PUSH2 0x100 EXP DUP2 SLOAD DUP2 PUSH20 0xFFFFFFFFFFFFFFFFFFFFFFFFFFFFFFFFFFFFFFFF MUL NOT AND SWAP1 DUP4 PUSH20 0xFFFFFFFFFFFFFFFFFFFFFFFFFFFFFFFFFFFFFFFF AND MUL OR SWAP1 SSTORE POP PUSH1 0x0 PUSH1 0x1 PUSH1 0x0 PUSH2 0x100 EXP DUP2 SLOAD DUP2 PUSH20 0xFFFFFFFFFFFFFFFFFFFFFFFFFFFFFFFFFFFFFFFF MUL NOT AND SWAP1 DUP4 PUSH20 0xFFFFFFFFFFFFFFFFFFFFFFFFFFFFFFFFFFFFFFFF AND MUL OR SWAP1 SSTORE POP CALLER PUSH20 0xFFFFFFFFFFFFFFFFFFFFFFFFFFFFFFFFFFFFFFFF AND DUP2 PUSH20 0xFFFFFFFFFFFFFFFFFFFFFFFFFFFFFFFFFFFFFFFF AND PUSH32 0x8BE0079C531659141344CD1FD0A4F28419497F9722A3DAAFE3B4186F6B6457E0 PUSH1 0x40 MLOAD PUSH1 0x40 MLOAD DUP1 SWAP2 SUB SWAP1 LOG3 POP JUMP JUMPDEST PUSH1 0x0 DUP1 PUSH1 0x0 SWAP1 SLOAD SWAP1 PUSH2 0x100 EXP SWAP1 DIV PUSH20 0xFFFFFFFFFFFFFFFFFFFFFFFFFFFFFFFFFFFFFFFF AND SWAP1 POP SWAP1 JUMP JUMPDEST PUSH2 0x8D5 PUSH2 0x8E1 JUMP JUMPDEST PUSH2 0x8DE DUP2 PUSH2 0x971 JUMP JUMPDEST POP JUMP JUMPDEST PUSH1 0x0 DUP1 SLOAD SWAP1 PUSH2 0x100 EXP SWAP1 DIV PUSH20 0xFFFFFFFFFFFFFFFFFFFFFFFFFFFFFFFFFFFFFFFF AND PUSH20 0xFFFFFFFFFFFFFFFFFFFFFFFFFFFFFFFFFFFFFFFF AND CALLER PUSH20 0xFFFFFFFFFFFFFFFFFFFFFFFFFFFFFFFFFFFFFFFF AND EQ PUSH2 0x96F JUMPI PUSH1 0x40 MLOAD PUSH32 0x8C379A000000000000000000000000000000000000000000000000000000000 DUP2 MSTORE PUSH1 0x4 ADD PUSH2 0x966 SWAP1 PUSH2 0x1206 JUMP JUMPDEST PUSH1 0x40 MLOAD DUP1 SWAP2 SUB SWAP1 REVERT JUMPDEST JUMP JUMPDEST CALLER PUSH20 0xFFFFFFFFFFFFFFFFFFFFFFFFFFFFFFFFFFFFFFFF AND DUP2 PUSH20 0xFFFFFFFFFFFFFFFFFFFFFFFFFFFFFFFFFFFFFFFF AND SUB PUSH2 0x9DF JUMPI PUSH1 0x40 MLOAD PUSH32 0x8C379A000000000000000000000000000000000000000000000000000000000 DUP2 MSTORE PUSH1 0x4 ADD PUSH2 0x9D6 SWAP1 PUSH2 0x1272 JUMP JUMPDEST PUSH1 0x40 MLOAD DUP1 SWAP2 SUB SWAP1 REVERT JUMPDEST DUP1 PUSH1 0x1 PUSH1 0x0 PUSH2 0x100 EXP DUP2 SLOAD DUP2 PUSH20 0xFFFFFFFFFFFFFFFFFFFFFFFFFFFFFFFFFFFFFFFF MUL NOT AND SWAP1 DUP4 PUSH20 0xFFFFFFFFFFFFFFFFFFFFFFFFFFFFFFFFFFFFFFFF AND MUL OR SWAP1 SSTORE POP DUP1 PUSH20 0xFFFFFFFFFFFFFFFFFFFFFFFFFFFFFFFFFFFFFFFF AND PUSH1 0x0 DUP1 SLOAD SWAP1 PUSH2 0x100 EXP SWAP1 DIV PUSH20 0xFFFFFFFFFFFFFFFFFFFFFFFFFFFFFFFFFFFFFFFF AND PUSH20 0xFFFFFFFFFFFFFFFFFFFFFFFFFFFFFFFFFFFFFFFF AND PUSH32 0xED8889F560326EB138920D842192F0EB3DD22B4F139C87A2C57538E05BAE1278 PUSH1 0x40 MLOAD PUSH1 0x40 MLOAD DUP1 SWAP2 SUB SWAP1 LOG3 POP JUMP JUMPDEST PUSH1 0x40 MLOAD DUP1 PUSH1 0x40 ADD PUSH1 0x40 MSTORE DUP1 PUSH1 0x0 PUSH20 0xFFFFFFFFFFFFFFFFFFFFFFFFFFFFFFFFFFFFFFFF AND DUP2 MSTORE PUSH1 0x20 ADD PUSH1 0x0 DUP2 MSTORE POP SWAP1 JUMP JUMPDEST PUSH1 0x0 DUP1 REVERT JUMPDEST PUSH1 0x0 PUSH8 0xFFFFFFFFFFFFFFFF DUP3 AND SWAP1 POP SWAP2 SWAP1 POP JUMP JUMPDEST PUSH2 0xAEF DUP2 PUSH2 0xAD2 JUMP JUMPDEST DUP2 EQ PUSH2 0xAFA JUMPI PUSH1 0x0 DUP1 REVERT JUMPDEST POP JUMP JUMPDEST PUSH1 0x0 DUP2 CALLDATALOAD SWAP1 POP PUSH2 0xB0C DUP2 PUSH2 0xAE6 JUMP JUMPDEST SWAP3 SWAP2 POP POP JUMP JUMPDEST PUSH1 0x0 PUSH20 0xFFFFFFFFFFFFFFFFFFFFFFFFFFFFFFFFFFFFFFFF DUP3 AND SWAP1 POP SWAP2 SWAP1 POP JUMP JUMPDEST PUSH1 0x0 PUSH2 0xB3D DUP3 PUSH2 0xB12 JUMP JUMPDEST SWAP1 POP SWAP2 SWAP1 POP JUMP JUMPDEST PUSH2 0xB4D DUP2 PUSH2 0xB32 JUMP JUMPDEST DUP2 EQ PUSH2 0xB58 JUMPI PUSH1 0x0 DUP1 REVERT JUMPDEST POP JUMP JUMPDEST PUSH1 0x0 DUP2 CALLDATALOAD SWAP1 POP PUSH2 0xB6A DUP2 PUSH2 0xB44 JUMP JUMPDEST SWAP3 SWAP2 POP POP JUMP JUMPDEST PUSH1 0x2 DUP2 LT PUSH2 0xB7D JUMPI PUSH1 0x0 DUP1 REVERT JUMPDEST POP JUMP JUMPDEST PUSH1 0x0 DUP2 CALLDATALOAD SWAP1 POP PUSH2 0xB8F DUP2 PUSH2 0xB70 JUMP JUMPDEST SWAP3 SWAP2 POP POP JUMP JUMPDEST PUSH1 0x0 DUP1 PUSH1 0x0 PUSH1 0x60 DUP5 DUP7 SUB SLT ISZERO PUSH2 0xBAE JUMPI PUSH2 0xBAD PUSH2 0xACD JUMP JUMPDEST JUMPDEST PUSH1 0x0 PUSH2 0xBBC DUP7 DUP3 DUP8 ADD PUSH2 0xAFD JUMP JUMPDEST SWAP4 POP POP PUSH1 0x20 PUSH2 0xBCD DUP7 DUP3 DUP8 ADD PUSH2 0xB5B JUMP JUMPDEST SWAP3 POP POP PUSH1 0x40 PUSH2 0xBDE DUP7 DUP3 DUP8 ADD PUSH2 0xB80 JUMP JUMPDEST SWAP2 POP POP SWAP3 POP SWAP3 POP SWAP3 JUMP JUMPDEST PUSH1 0x0 DUP1 PUSH1 0x40 DUP4 DUP6 SUB SLT ISZERO PUSH2 0xBFF JUMPI PUSH2 0xBFE PUSH2 0xACD JUMP JUMPDEST JUMPDEST PUSH1 0x0 PUSH2 0xC0D DUP6 DUP3 DUP7 ADD PUSH2 0xB5B JUMP JUMPDEST SWAP3 POP POP PUSH1 0x20 PUSH2 0xC1E DUP6 DUP3 DUP7 ADD PUSH2 0xB5B JUMP JUMPDEST SWAP2 POP POP SWAP3 POP SWAP3 SWAP1 POP JUMP JUMPDEST PUSH1 0x0 PUSH1 0x20 DUP3 DUP5 SUB SLT ISZERO PUSH2 0xC3E JUMPI PUSH2 0xC3D PUSH2 0xACD JUMP JUMPDEST JUMPDEST PUSH1 0x0 PUSH2 0xC4C DUP5 DUP3 DUP6 ADD PUSH2 0xB5B JUMP JUMPDEST SWAP2 POP POP SWAP3 SWAP2 POP POP JUMP JUMPDEST PUSH2 0xC5E DUP2 PUSH2 0xB32 JUMP JUMPDEST DUP3 MSTORE POP POP JUMP JUMPDEST PUSH1 0x0 PUSH1 0x20 DUP3 ADD SWAP1 POP PUSH2 0xC79 PUSH1 0x0 DUP4 ADD DUP5 PUSH2 0xC55 JUMP JUMPDEST SWAP3 SWAP2 POP POP JUMP JUMPDEST PUSH32 0x4E487B7100000000000000000000000000000000000000000000000000000000 PUSH1 0x0 MSTORE PUSH1 0x41 PUSH1 0x4 MSTORE PUSH1 0x24 PUSH1 0x0 REVERT JUMPDEST PUSH32 0x4E487B7100000000000000000000000000000000000000000000000000000000 PUSH1 0x0 MSTORE PUSH1 0x21 PUSH1 0x4 MSTORE PUSH1 0x24 PUSH1 0x0 REVERT JUMPDEST PUSH2 0xCE6 DUP2 PUSH2 0xAD2 JUMP JUMPDEST DUP3 MSTORE POP POP JUMP JUMPDEST PUSH1 0x0 DUP2 MLOAD SWAP1 POP SWAP2 SWAP1 POP JUMP JUMPDEST PUSH1 0x0 DUP3 DUP3 MSTORE PUSH1 0x20 DUP3 ADD SWAP1 POP SWAP3 SWAP2 POP POP JUMP JUMPDEST PUSH1 0x0 JUMPDEST DUP4 DUP2 LT ISZERO PUSH2 0xD26 JUMPI DUP1 DUP3 ADD MLOAD DUP2 DUP5 ADD MSTORE PUSH1 0x20 DUP2 ADD SWAP1 POP PUSH2 0xD0B JUMP JUMPDEST PUSH1 0x0 DUP5 DUP5 ADD MSTORE POP POP POP POP JUMP JUMPDEST PUSH1 0x0 PUSH1 0x1F NOT PUSH1 0x1F DUP4 ADD AND SWAP1 POP SWAP2 SWAP1 POP JUMP JUMPDEST PUSH1 0x0 PUSH2 0xD4E DUP3 PUSH2 0xCEC JUMP JUMPDEST PUSH2 0xD58 DUP2 DUP6 PUSH2 0xCF7 JUMP JUMPDEST SWAP4 POP PUSH2 0xD68 DUP2 DUP6 PUSH1 0x20 DUP7 ADD PUSH2 0xD08 JUMP JUMPDEST PUSH2 0xD71 DUP2 PUSH2 0xD32 JUMP JUMPDEST DUP5 ADD SWAP2 POP POP SWAP3 SWAP2 POP POP JUMP JUMPDEST PUSH1 0x0 DUP2 MLOAD SWAP1 POP SWAP2 SWAP1 POP JUMP JUMPDEST PUSH1 0x0 DUP3 DUP3 MSTORE PUSH1 0x20 DUP3 ADD SWAP1 POP SWAP3 SWAP2 POP POP JUMP JUMPDEST PUSH1 0x0 DUP2 SWAP1 POP PUSH1 0x20 DUP3 ADD SWAP1 POP SWAP2 SWAP1 POP JUMP JUMPDEST PUSH2 0xDB1 DUP2 PUSH2 0xB32 JUMP JUMPDEST DUP3 MSTORE POP POP JUMP JUMPDEST PUSH1 0x0 DUP2 SWAP1 POP SWAP2 SWAP1 POP JUMP JUMPDEST PUSH2 0xDCA DUP2 PUSH2 0xDB7 JUMP JUMPDEST DUP3 MSTORE POP POP JUMP JUMPDEST PUSH1 0x40 DUP3 ADD PUSH1 0x0 DUP3 ADD MLOAD PUSH2 0xDE6 PUSH1 0x0 DUP6 ADD DUP3 PUSH2 0xDA8 JUMP JUMPDEST POP PUSH1 0x20 DUP3 ADD MLOAD PUSH2 0xDF9 PUSH1 0x20 DUP6 ADD DUP3 PUSH2 0xDC1 JUMP JUMPDEST POP POP POP POP JUMP JUMPDEST PUSH1 0x0 PUSH2 0xE0B DUP4 DUP4 PUSH2 0xDD0 JUMP JUMPDEST PUSH1 0x40 DUP4 ADD SWAP1 POP SWAP3 SWAP2 POP POP JUMP JUMPDEST PUSH1 0x0 PUSH1 0x20 DUP3 ADD SWAP1 POP SWAP2 SWAP1 POP JUMP JUMPDEST PUSH1 0x0 PUSH2 0xE2F DUP3 PUSH2 0xD7C JUMP JUMPDEST PUSH2 0xE39 DUP2 DUP6 PUSH2 0xD87 JUMP JUMPDEST SWAP4 POP PUSH2 0xE44 DUP4 PUSH2 0xD98 JUMP JUMPDEST DUP1 PUSH1 0x0 JUMPDEST DUP4 DUP2 LT ISZERO PUSH2 0xE75 JUMPI DUP2 MLOAD PUSH2 0xE5C DUP9 DUP3 PUSH2 0xDFF JUMP JUMPDEST SWAP8 POP PUSH2 0xE67 DUP4 PUSH2 0xE17 JUMP JUMPDEST SWAP3 POP POP PUSH1 0x1 DUP2 ADD SWAP1 POP PUSH2 0xE48 JUMP JUMPDEST POP DUP6 SWAP4 POP POP POP POP SWAP3 SWAP2 POP POP JUMP JUMPDEST PUSH1 0x0 PUSH1 0xA0 DUP4 ADD PUSH1 0x0 DUP4 ADD MLOAD DUP5 DUP3 SUB PUSH1 0x0 DUP7 ADD MSTORE PUSH2 0xE9F DUP3 DUP3 PUSH2 0xD43 JUMP JUMPDEST SWAP2 POP POP PUSH1 0x20 DUP4 ADD MLOAD DUP5 DUP3 SUB PUSH1 0x20 DUP7 ADD MSTORE PUSH2 0xEB9 DUP3 DUP3 PUSH2 0xD43 JUMP JUMPDEST SWAP2 POP POP PUSH1 0x40 DUP4 ADD MLOAD DUP5 DUP3 SUB PUSH1 0x40 DUP7 ADD MSTORE PUSH2 0xED3 DUP3 DUP3 PUSH2 0xE24 JUMP JUMPDEST SWAP2 POP POP PUSH1 0x60 DUP4 ADD MLOAD PUSH2 0xEE8 PUSH1 0x60 DUP7 ADD DUP3 PUSH2 0xDA8 JUMP JUMPDEST POP PUSH1 0x80 DUP4 ADD MLOAD DUP5 DUP3 SUB PUSH1 0x80 DUP7 ADD MSTORE PUSH2 0xF00 DUP3 DUP3 PUSH2 0xD43 JUMP JUMPDEST SWAP2 POP POP DUP1 SWAP2 POP POP SWAP3 SWAP2 POP POP JUMP JUMPDEST PUSH1 0x0 PUSH1 0x40 DUP3 ADD SWAP1 POP PUSH2 0xF22 PUSH1 0x0 DUP4 ADD DUP6 PUSH2 0xCDD JUMP JUMPDEST DUP2 DUP2 SUB PUSH1 0x20 DUP4 ADD MSTORE PUSH2 0xF34 DUP2 DUP5 PUSH2 0xE82 JUMP JUMPDEST SWAP1 POP SWAP4 SWAP3 POP POP POP JUMP JUMPDEST PUSH2 0xF46 DUP2 PUSH2 0xDB7 JUMP JUMPDEST DUP2 EQ PUSH2 0xF51 JUMPI PUSH1 0x0 DUP1 REVERT JUMPDEST POP JUMP JUMPDEST PUSH1 0x0 DUP2 MLOAD SWAP1 POP PUSH2 0xF63 DUP2 PUSH2 0xF3D JUMP JUMPDEST SWAP3 SWAP2 POP POP JUMP JUMPDEST PUSH1 0x0 PUSH1 0x20 DUP3 DUP5 SUB SLT ISZERO PUSH2 0xF7F JUMPI PUSH2 0xF7E PUSH2 0xACD JUMP JUMPDEST JUMPDEST PUSH1 0x0 PUSH2 0xF8D DUP5 DUP3 DUP6 ADD PUSH2 0xF54 JUMP JUMPDEST SWAP2 POP POP SWAP3 SWAP2 POP POP JUMP JUMPDEST PUSH1 0x0 DUP2 SWAP1 POP SWAP2 SWAP1 POP JUMP JUMPDEST PUSH2 0xFA9 DUP2 PUSH2 0xF96 JUMP JUMPDEST DUP2 EQ PUSH2 0xFB4 JUMPI PUSH1 0x0 DUP1 REVERT JUMPDEST POP JUMP JUMPDEST PUSH1 0x0 DUP2 MLOAD SWAP1 POP PUSH2 0xFC6 DUP2 PUSH2 0xFA0 JUMP JUMPDEST SWAP3 SWAP2 POP POP JUMP JUMPDEST PUSH1 0x0 PUSH1 0x20 DUP3 DUP5 SUB SLT ISZERO PUSH2 0xFE2 JUMPI PUSH2 0xFE1 PUSH2 0xACD JUMP JUMPDEST JUMPDEST PUSH1 0x0 PUSH2 0xFF0 DUP5 DUP3 DUP6 ADD PUSH2 0xFB7 JUMP JUMPDEST SWAP2 POP POP SWAP3 SWAP2 POP POP JUMP JUMPDEST PUSH2 0x1002 DUP2 PUSH2 0xF96 JUMP JUMPDEST DUP3 MSTORE POP POP JUMP JUMPDEST PUSH1 0x0 PUSH1 0x20 DUP3 ADD SWAP1 POP PUSH2 0x101D PUSH1 0x0 DUP4 ADD DUP5 PUSH2 0xFF9 JUMP JUMPDEST SWAP3 SWAP2 POP POP JUMP JUMPDEST PUSH2 0x102C DUP2 PUSH2 0xDB7 JUMP JUMPDEST DUP3 MSTORE POP POP JUMP JUMPDEST PUSH1 0x0 PUSH1 0x40 DUP3 ADD SWAP1 POP PUSH2 0x1047 PUSH1 0x0 DUP4 ADD DUP6 PUSH2 0xC55 JUMP JUMPDEST PUSH2 0x1054 PUSH1 0x20 DUP4 ADD DUP5 PUSH2 0x1023 JUMP JUMPDEST SWAP4 SWAP3 POP POP POP JUMP JUMPDEST PUSH1 0x0 DUP2 ISZERO ISZERO SWAP1 POP SWAP2 SWAP1 POP JUMP JUMPDEST PUSH2 0x1070 DUP2 PUSH2 0x105B JUMP JUMPDEST DUP2 EQ PUSH2 0x107B JUMPI PUSH1 0x0 DUP1 REVERT JUMPDEST POP JUMP JUMPDEST PUSH1 0x0 DUP2 MLOAD SWAP1 POP PUSH2 0x108D DUP2 PUSH2 0x1067 JUMP JUMPDEST SWAP3 SWAP2 POP POP JUMP JUMPDEST PUSH1 0x0 PUSH1 0x20 DUP3 DUP5 SUB SLT ISZERO PUSH2 0x10A9 JUMPI PUSH2 0x10A8 PUSH2 0xACD JUMP JUMPDEST JUMPDEST PUSH1 0x0 PUSH2 0x10B7 DUP5 DUP3 DUP6 ADD PUSH2 0x107E JUMP JUMPDEST SWAP2 POP POP SWAP3 SWAP2 POP POP JUMP JUMPDEST PUSH1 0x0 DUP2 SWAP1 POP SWAP3 SWAP2 POP POP JUMP JUMPDEST POP JUMP JUMPDEST PUSH1 0x0 PUSH2 0x10DB PUSH1 0x0 DUP4 PUSH2 0x10C0 JUMP JUMPDEST SWAP2 POP PUSH2 0x10E6 DUP3 PUSH2 0x10CB JUMP JUMPDEST PUSH1 0x0 DUP3 ADD SWAP1 POP SWAP2 SWAP1 POP JUMP JUMPDEST PUSH1 0x0 PUSH2 0x10FC DUP3 PUSH2 0x10CE JUMP JUMPDEST SWAP2 POP DUP2 SWAP1 POP SWAP2 SWAP1 POP JUMP JUMPDEST PUSH1 0x0 PUSH1 0x60 DUP3 ADD SWAP1 POP PUSH2 0x111B PUSH1 0x0 DUP4 ADD DUP7 PUSH2 0xC55 JUMP JUMPDEST PUSH2 0x1128 PUSH1 0x20 DUP4 ADD DUP6 PUSH2 0xC55 JUMP JUMPDEST PUSH2 0x1135 PUSH1 0x40 DUP4 ADD DUP5 PUSH2 0x1023 JUMP JUMPDEST SWAP5 SWAP4 POP POP POP POP JUMP JUMPDEST PUSH1 0x0 DUP3 DUP3 MSTORE PUSH1 0x20 DUP3 ADD SWAP1 POP SWAP3 SWAP2 POP POP JUMP JUMPDEST PUSH32 0x4D7573742062652070726F706F736564206F776E657200000000000000000000 PUSH1 0x0 DUP3 ADD MSTORE POP JUMP JUMPDEST PUSH1 0x0 PUSH2 0x1184 PUSH1 0x16 DUP4 PUSH2 0x113D JUMP JUMPDEST SWAP2 POP PUSH2 0x118F DUP3 PUSH2 0x114E JUMP JUMPDEST PUSH1 0x20 DUP3 ADD SWAP1 POP SWAP2 SWAP1 POP JUMP JUMPDEST PUSH1 0x0 PUSH1 0x20 DUP3 ADD SWAP1 POP DUP2 DUP2 SUB PUSH1 0x0 DUP4 ADD MSTORE PUSH2 0x11B3 DUP2 PUSH2 0x1177 JUMP JUMPDEST SWAP1 POP SWAP2 SWAP1 POP JUMP JUMPDEST PUSH32 0x4F6E6C792063616C6C61626C65206279206F776E657200000000000000000000 PUSH1 0x0 DUP3 ADD MSTORE POP JUMP JUMPDEST PUSH1 0x0 PUSH2 0x11F0 PUSH1 0x16 DUP4 PUSH2 0x113D JUMP JUMPDEST SWAP2 POP PUSH2 0x11FB DUP3 PUSH2 0x11BA JUMP JUMPDEST PUSH1 0x20 DUP3 ADD SWAP1 POP SWAP2 SWAP1 POP JUMP JUMPDEST PUSH1 0x0 PUSH1 0x20 DUP3 ADD SWAP1 POP DUP2 DUP2 SUB PUSH1 0x0 DUP4 ADD MSTORE PUSH2 0x121F DUP2 PUSH2 0x11E3 JUMP JUMPDEST SWAP1 POP SWAP2 SWAP1 POP JUMP JUMPDEST PUSH32 0x43616E6E6F74207472616E7366657220746F2073656C66000000000000000000 PUSH1 0x0 DUP3 ADD MSTORE POP JUMP JUMPDEST PUSH1 0x0 PUSH2 0x125C PUSH1 0x17 DUP4 PUSH2 0x113D JUMP JUMPDEST SWAP2 POP PUSH2 0x1267 DUP3 PUSH2 0x1226 JUMP JUMPDEST PUSH1 0x20 DUP3 ADD SWAP1 POP SWAP2 SWAP1 POP JUMP JUMPDEST PUSH1 0x0 PUSH1 0x20 DUP3 ADD SWAP1 POP DUP2 DUP2 SUB PUSH1 0x0 DUP4 ADD MSTORE PUSH2 0x128B DUP2 PUSH2 0x124F JUMP JUMPDEST SWAP1 POP SWAP2 SWAP1 POP JUMP INVALID LOG2 PUSH5 0x6970667358 0x22 SLT KECCAK256 PUSH5 0xE65F1B1C20 0xE 0xA9 0xD7 MUL EXTCODESIZE CALLDATALOAD 0xD 0xEB 0xA7 PUSH6 0x2AD4F2525F89 BASEFEE SWAP14 CALLDATASIZE SAR 0xD1 DIV 0x27 LOG2 PUSH28 0x2964736F6C6343000813003300000000000000000000000000000000 "},"methodIdentifiers":{"acceptOwnership()":"79ba5097","createProfileNFT(uint64,address,uint8)":"12c6fc31","owner()":"8da5cb5b","transferOwnership(address)":"f2fde38b","withdraw(address)":"51cff8d9","withdrawToken(address,address)":"3aeac4e1"}}}}}