{
  "_format": "hh-sol-artifact-1",
  "contractName": "SocialWeb3",
  "sourceName": "contracts/SocialWeb3.sol",
  "abi": [
    {
      "inputs": [],
      "stateMutability": "nonpayable",
      "type": "constructor"
    },
    {
      "anonymous": false,
      "inputs": [
        {
          "indexed": true,
          "internalType": "address",
          "name": "owner",
          "type": "address"
        },
        {
          "indexed": true,
          "internalType": "address",
          "name": "approved",
          "type": "address"
        },
        {
          "indexed": true,
          "internalType": "uint256",
          "name": "tokenId",
          "type": "uint256"
        }
      ],
      "name": "Approval",
      "type": "event"
    },
    {
      "anonymous": false,
      "inputs": [
        {
          "indexed": true,
          "internalType": "address",
          "name": "owner",
          "type": "address"
        },
        {
          "indexed": true,
          "internalType": "address",
          "name": "operator",
          "type": "address"
        },
        {
          "indexed": false,
          "internalType": "bool",
          "name": "approved",
          "type": "bool"
        }
      ],
      "name": "ApprovalForAll",
      "type": "event"
    },
    {
      "anonymous": false,
      "inputs": [
        {
          "components": [
            {
              "internalType": "uint256",
              "name": "postId",
              "type": "uint256"
            },
            {
              "internalType": "string",
              "name": "handle",
              "type": "string"
            },
            {
              "internalType": "string",
              "name": "content",
              "type": "string"
            },
            {
              "internalType": "uint256",
              "name": "timestamp",
              "type": "uint256"
            }
          ],
          "indexed": false,
          "internalType": "struct SocialWeb3.Post",
          "name": "post",
          "type": "tuple"
        }
      ],
      "name": "CreatePost",
      "type": "event"
    },
    {
      "anonymous": false,
      "inputs": [
        {
          "components": [
            {
              "internalType": "address",
              "name": "owner",
              "type": "address"
            },
            {
              "internalType": "string",
              "name": "handle",
              "type": "string"
            },
            {
              "internalType": "string",
              "name": "name",
              "type": "string"
            },
            {
              "internalType": "string",
              "name": "imageURI",
              "type": "string"
            },
            {
              "internalType": "string",
              "name": "bio",
              "type": "string"
            }
          ],
          "indexed": false,
          "internalType": "struct SocialWeb3.ProfileNFTData",
          "name": "profileNFTData",
          "type": "tuple"
        }
      ],
      "name": "CreateProfileNFT",
      "type": "event"
    },
    {
      "anonymous": false,
      "inputs": [
        {
          "indexed": true,
          "internalType": "address",
          "name": "previousOwner",
          "type": "address"
        },
        {
          "indexed": true,
          "internalType": "address",
          "name": "newOwner",
          "type": "address"
        }
      ],
      "name": "OwnershipTransferred",
      "type": "event"
    },
    {
      "anonymous": false,
      "inputs": [
        {
          "indexed": true,
          "internalType": "address",
          "name": "from",
          "type": "address"
        },
        {
          "indexed": true,
          "internalType": "address",
          "name": "to",
          "type": "address"
        },
        {
          "indexed": true,
          "internalType": "uint256",
          "name": "tokenId",
          "type": "uint256"
        }
      ],
      "name": "Transfer",
      "type": "event"
    },
    {
      "anonymous": false,
      "inputs": [
        {
          "indexed": false,
          "internalType": "uint256",
          "name": "profileId",
          "type": "uint256"
        },
        {
          "components": [
            {
              "internalType": "address",
              "name": "owner",
              "type": "address"
            },
            {
              "internalType": "string",
              "name": "handle",
              "type": "string"
            },
            {
              "internalType": "string",
              "name": "name",
              "type": "string"
            },
            {
              "internalType": "string",
              "name": "imageURI",
              "type": "string"
            },
            {
              "internalType": "string",
              "name": "bio",
              "type": "string"
            }
          ],
          "indexed": false,
          "internalType": "struct SocialWeb3.ProfileNFTData",
          "name": "profileData",
          "type": "tuple"
        }
      ],
      "name": "UpdateProfile",
      "type": "event"
    },
    {
      "inputs": [
        {
          "internalType": "address",
          "name": "to",
          "type": "address"
        },
        {
          "internalType": "uint256",
          "name": "tokenId",
          "type": "uint256"
        }
      ],
      "name": "approve",
      "outputs": [],
      "stateMutability": "nonpayable",
      "type": "function"
    },
    {
      "inputs": [
        {
          "internalType": "address",
          "name": "owner",
          "type": "address"
        }
      ],
      "name": "balanceOf",
      "outputs": [
        {
          "internalType": "uint256",
          "name": "",
          "type": "uint256"
        }
      ],
      "stateMutability": "view",
      "type": "function"
    },
    {
      "inputs": [
        {
          "internalType": "string",
          "name": "_handle",
          "type": "string"
        },
        {
          "internalType": "string",
          "name": "_content",
          "type": "string"
        }
      ],
      "name": "createPost",
      "outputs": [],
      "stateMutability": "nonpayable",
      "type": "function"
    },
    {
      "inputs": [
        {
          "components": [
            {
              "internalType": "address",
              "name": "owner",
              "type": "address"
            },
            {
              "internalType": "string",
              "name": "handle",
              "type": "string"
            },
            {
              "internalType": "string",
              "name": "name",
              "type": "string"
            },
            {
              "internalType": "string",
              "name": "imageURI",
              "type": "string"
            },
            {
              "internalType": "string",
              "name": "bio",
              "type": "string"
            }
          ],
          "internalType": "struct SocialWeb3.ProfileNFTData",
          "name": "_profileNFTData",
          "type": "tuple"
        }
      ],
      "name": "createProfileNFT",
      "outputs": [],
      "stateMutability": "nonpayable",
      "type": "function"
    },
    {
      "inputs": [
        {
          "internalType": "uint256",
          "name": "tokenId",
          "type": "uint256"
        }
      ],
      "name": "getApproved",
      "outputs": [
        {
          "internalType": "address",
          "name": "",
          "type": "address"
        }
      ],
      "stateMutability": "view",
      "type": "function"
    },
    {
      "inputs": [
        {
          "internalType": "uint256",
          "name": "_postId",
          "type": "uint256"
        }
      ],
      "name": "getPost",
      "outputs": [
        {
          "components": [
            {
              "internalType": "uint256",
              "name": "postId",
              "type": "uint256"
            },
            {
              "internalType": "string",
              "name": "handle",
              "type": "string"
            },
            {
              "internalType": "string",
              "name": "content",
              "type": "string"
            },
            {
              "internalType": "uint256",
              "name": "timestamp",
              "type": "uint256"
            }
          ],
          "internalType": "struct SocialWeb3.Post",
          "name": "",
          "type": "tuple"
        }
      ],
      "stateMutability": "view",
      "type": "function"
    },
    {
      "inputs": [
        {
          "internalType": "uint256",
          "name": "_number",
          "type": "uint256"
        }
      ],
      "name": "getPostWithNumber",
      "outputs": [
        {
          "components": [
            {
              "internalType": "uint256",
              "name": "postId",
              "type": "uint256"
            },
            {
              "internalType": "string",
              "name": "handle",
              "type": "string"
            },
            {
              "internalType": "string",
              "name": "content",
              "type": "string"
            },
            {
              "internalType": "uint256",
              "name": "timestamp",
              "type": "uint256"
            }
          ],
          "internalType": "struct SocialWeb3.Post[]",
          "name": "",
          "type": "tuple[]"
        }
      ],
      "stateMutability": "view",
      "type": "function"
    },
    {
      "inputs": [
        {
          "internalType": "uint256",
          "name": "_profileId",
          "type": "uint256"
        }
      ],
      "name": "getProfileNFTData",
      "outputs": [
        {
          "components": [
            {
              "internalType": "address",
              "name": "owner",
              "type": "address"
            },
            {
              "internalType": "string",
              "name": "handle",
              "type": "string"
            },
            {
              "internalType": "string",
              "name": "name",
              "type": "string"
            },
            {
              "internalType": "string",
              "name": "imageURI",
              "type": "string"
            },
            {
              "internalType": "string",
              "name": "bio",
              "type": "string"
            }
          ],
          "internalType": "struct SocialWeb3.ProfileNFTData",
          "name": "",
          "type": "tuple"
        }
      ],
      "stateMutability": "view",
      "type": "function"
    },
    {
      "inputs": [
        {
          "internalType": "string",
          "name": "_handle",
          "type": "string"
        }
      ],
      "name": "getProfilePosts",
      "outputs": [
        {
          "components": [
            {
              "internalType": "uint256",
              "name": "postId",
              "type": "uint256"
            },
            {
              "internalType": "string",
              "name": "handle",
              "type": "string"
            },
            {
              "internalType": "string",
              "name": "content",
              "type": "string"
            },
            {
              "internalType": "uint256",
              "name": "timestamp",
              "type": "uint256"
            }
          ],
          "internalType": "struct SocialWeb3.Post[]",
          "name": "",
          "type": "tuple[]"
        }
      ],
      "stateMutability": "view",
      "type": "function"
    },
    {
      "inputs": [
        {
          "internalType": "address",
          "name": "_user",
          "type": "address"
        }
      ],
      "name": "getUserProfiles",
      "outputs": [
        {
          "internalType": "uint256[]",
          "name": "",
          "type": "uint256[]"
        }
      ],
      "stateMutability": "view",
      "type": "function"
    },
    {
      "inputs": [
        {
          "internalType": "address",
          "name": "owner",
          "type": "address"
        },
        {
          "internalType": "address",
          "name": "operator",
          "type": "address"
        }
      ],
      "name": "isApprovedForAll",
      "outputs": [
        {
          "internalType": "bool",
          "name": "",
          "type": "bool"
        }
      ],
      "stateMutability": "view",
      "type": "function"
    },
    {
      "inputs": [],
      "name": "name",
      "outputs": [
        {
          "internalType": "string",
          "name": "",
          "type": "string"
        }
      ],
      "stateMutability": "view",
      "type": "function"
    },
    {
      "inputs": [],
      "name": "owner",
      "outputs": [
        {
          "internalType": "address",
          "name": "",
          "type": "address"
        }
      ],
      "stateMutability": "view",
      "type": "function"
    },
    {
      "inputs": [
        {
          "internalType": "uint256",
          "name": "tokenId",
          "type": "uint256"
        }
      ],
      "name": "ownerOf",
      "outputs": [
        {
          "internalType": "address",
          "name": "",
          "type": "address"
        }
      ],
      "stateMutability": "view",
      "type": "function"
    },
    {
      "inputs": [],
      "name": "postId",
      "outputs": [
        {
          "internalType": "uint256",
          "name": "",
          "type": "uint256"
        }
      ],
      "stateMutability": "view",
      "type": "function"
    },
    {
      "inputs": [
        {
          "internalType": "uint256",
          "name": "",
          "type": "uint256"
        }
      ],
      "name": "posts",
      "outputs": [
        {
          "internalType": "uint256",
          "name": "postId",
          "type": "uint256"
        },
        {
          "internalType": "string",
          "name": "handle",
          "type": "string"
        },
        {
          "internalType": "string",
          "name": "content",
          "type": "string"
        },
        {
          "internalType": "uint256",
          "name": "timestamp",
          "type": "uint256"
        }
      ],
      "stateMutability": "view",
      "type": "function"
    },
    {
      "inputs": [],
      "name": "profileId",
      "outputs": [
        {
          "internalType": "uint256",
          "name": "",
          "type": "uint256"
        }
      ],
      "stateMutability": "view",
      "type": "function"
    },
    {
      "inputs": [
        {
          "internalType": "uint256",
          "name": "",
          "type": "uint256"
        }
      ],
      "name": "profileNFTData",
      "outputs": [
        {
          "internalType": "address",
          "name": "owner",
          "type": "address"
        },
        {
          "internalType": "string",
          "name": "handle",
          "type": "string"
        },
        {
          "internalType": "string",
          "name": "name",
          "type": "string"
        },
        {
          "internalType": "string",
          "name": "imageURI",
          "type": "string"
        },
        {
          "internalType": "string",
          "name": "bio",
          "type": "string"
        }
      ],
      "stateMutability": "view",
      "type": "function"
    },
    {
      "inputs": [],
      "name": "renounceOwnership",
      "outputs": [],
      "stateMutability": "nonpayable",
      "type": "function"
    },
    {
      "inputs": [
        {
          "internalType": "address",
          "name": "from",
          "type": "address"
        },
        {
          "internalType": "address",
          "name": "to",
          "type": "address"
        },
        {
          "internalType": "uint256",
          "name": "tokenId",
          "type": "uint256"
        }
      ],
      "name": "safeTransferFrom",
      "outputs": [],
      "stateMutability": "nonpayable",
      "type": "function"
    },
    {
      "inputs": [
        {
          "internalType": "address",
          "name": "from",
          "type": "address"
        },
        {
          "internalType": "address",
          "name": "to",
          "type": "address"
        },
        {
          "internalType": "uint256",
          "name": "tokenId",
          "type": "uint256"
        },
        {
          "internalType": "bytes",
          "name": "data",
          "type": "bytes"
        }
      ],
      "name": "safeTransferFrom",
      "outputs": [],
      "stateMutability": "nonpayable",
      "type": "function"
    },
    {
      "inputs": [
        {
          "internalType": "address",
          "name": "operator",
          "type": "address"
        },
        {
          "internalType": "bool",
          "name": "approved",
          "type": "bool"
        }
      ],
      "name": "setApprovalForAll",
      "outputs": [],
      "stateMutability": "nonpayable",
      "type": "function"
    },
    {
      "inputs": [
        {
          "internalType": "bytes4",
          "name": "interfaceId",
          "type": "bytes4"
        }
      ],
      "name": "supportsInterface",
      "outputs": [
        {
          "internalType": "bool",
          "name": "",
          "type": "bool"
        }
      ],
      "stateMutability": "view",
      "type": "function"
    },
    {
      "inputs": [],
      "name": "symbol",
      "outputs": [
        {
          "internalType": "string",
          "name": "",
          "type": "string"
        }
      ],
      "stateMutability": "view",
      "type": "function"
    },
    {
      "inputs": [
        {
          "internalType": "uint256",
          "name": "index",
          "type": "uint256"
        }
      ],
      "name": "tokenByIndex",
      "outputs": [
        {
          "internalType": "uint256",
          "name": "",
          "type": "uint256"
        }
      ],
      "stateMutability": "view",
      "type": "function"
    },
    {
      "inputs": [
        {
          "internalType": "address",
          "name": "owner",
          "type": "address"
        },
        {
          "internalType": "uint256",
          "name": "index",
          "type": "uint256"
        }
      ],
      "name": "tokenOfOwnerByIndex",
      "outputs": [
        {
          "internalType": "uint256",
          "name": "",
          "type": "uint256"
        }
      ],
      "stateMutability": "view",
      "type": "function"
    },
    {
      "inputs": [
        {
          "internalType": "uint256",
          "name": "tokenId",
          "type": "uint256"
        }
      ],
      "name": "tokenURI",
      "outputs": [
        {
          "internalType": "string",
          "name": "",
          "type": "string"
        }
      ],
      "stateMutability": "view",
      "type": "function"
    },
    {
      "inputs": [],
      "name": "totalSupply",
      "outputs": [
        {
          "internalType": "uint256",
          "name": "",
          "type": "uint256"
        }
      ],
      "stateMutability": "view",
      "type": "function"
    },
    {
      "inputs": [
        {
          "internalType": "address",
          "name": "from",
          "type": "address"
        },
        {
          "internalType": "address",
          "name": "to",
          "type": "address"
        },
        {
          "internalType": "uint256",
          "name": "tokenId",
          "type": "uint256"
        }
      ],
      "name": "transferFrom",
      "outputs": [],
      "stateMutability": "nonpayable",
      "type": "function"
    },
    {
      "inputs": [
        {
          "internalType": "address",
          "name": "newOwner",
          "type": "address"
        }
      ],
      "name": "transferOwnership",
      "outputs": [],
      "stateMutability": "nonpayable",
      "type": "function"
    },
    {
      "inputs": [
        {
          "internalType": "uint256",
          "name": "_profileId",
          "type": "uint256"
        },
        {
          "components": [
            {
              "internalType": "address",
              "name": "owner",
              "type": "address"
            },
            {
              "internalType": "string",
              "name": "handle",
              "type": "string"
            },
            {
              "internalType": "string",
              "name": "name",
              "type": "string"
            },
            {
              "internalType": "string",
              "name": "imageURI",
              "type": "string"
            },
            {
              "internalType": "string",
              "name": "bio",
              "type": "string"
            }
          ],
          "internalType": "struct SocialWeb3.ProfileNFTData",
          "name": "_newProfileData",
          "type": "tuple"
        }
      ],
      "name": "updateProfile",
      "outputs": [],
      "stateMutability": "nonpayable",
      "type": "function"
    }
  ],
  "bytecode": "0x60806040523480156200001157600080fd5b506040518060400160405280600a81526020017f536f6369616c57656233000000000000000000000000000000000000000000008152506040518060400160405280600381526020017f53573300000000000000000000000000000000000000000000000000000000008152506200009e62000092620000ca60201b60201c565b620000d260201b60201c565b8160019081620000af919062000410565b508060029081620000c1919062000410565b505050620004f7565b600033905090565b60008060009054906101000a900473ffffffffffffffffffffffffffffffffffffffff169050816000806101000a81548173ffffffffffffffffffffffffffffffffffffffff021916908373ffffffffffffffffffffffffffffffffffffffff1602179055508173ffffffffffffffffffffffffffffffffffffffff168173ffffffffffffffffffffffffffffffffffffffff167f8be0079c531659141344cd1fd0a4f28419497f9722a3daafe3b4186f6b6457e060405160405180910390a35050565b600081519050919050565b7f4e487b7100000000000000000000000000000000000000000000000000000000600052604160045260246000fd5b7f4e487b7100000000000000000000000000000000000000000000000000000000600052602260045260246000fd5b600060028204905060018216806200021857607f821691505b6020821081036200022e576200022d620001d0565b5b50919050565b60008190508160005260206000209050919050565b60006020601f8301049050919050565b600082821b905092915050565b600060088302620002987fffffffffffffffffffffffffffffffffffffffffffffffffffffffffffffffff8262000259565b620002a4868362000259565b95508019841693508086168417925050509392505050565b6000819050919050565b6000819050919050565b6000620002f1620002eb620002e584620002bc565b620002c6565b620002bc565b9050919050565b6000819050919050565b6200030d83620002d0565b620003256200031c82620002f8565b84845462000266565b825550505050565b600090565b6200033c6200032d565b6200034981848462000302565b505050565b5b8181101562000371576200036560008262000332565b6001810190506200034f565b5050565b601f821115620003c0576200038a8162000234565b620003958462000249565b81016020851015620003a5578190505b620003bd620003b48562000249565b8301826200034e565b50505b505050565b600082821c905092915050565b6000620003e560001984600802620003c5565b1980831691505092915050565b6000620004008383620003d2565b9150826002028217905092915050565b6200041b8262000196565b67ffffffffffffffff811115620004375762000436620001a1565b5b620004438254620001ff565b6200045082828562000375565b600060209050601f83116001811462000488576000841562000473578287015190505b6200047f8582620003f2565b865550620004ef565b601f198416620004988662000234565b60005b82811015620004c2578489015182556001820191506020850194506020810190506200049b565b86831015620004e25784890151620004de601f891682620003d2565b8355505b6001600288020188555050505b505050505050565b61573280620005076000396000f3fe608060405234801561001057600080fd5b50600436106101e55760003560e01c80635cafa5391161010f5780639b85b1f1116100a2578063c87b56dd11610071578063c87b56dd146105e3578063e563f77814610613578063e985e9c51461062f578063f2fde38b1461065f576101e5565b80639b85b1f114610547578063a22cb46514610577578063b602066e14610593578063b88d4fde146105c7576101e5565b806370a08231116100de57806370a08231146104d1578063715018a6146105015780638da5cb5b1461050b57806395d89b4114610529576101e5565b80635cafa539146104235780635dd4dff41461045357806360a0ecda146104835780636352211e146104a1576101e5565b806323b872dd1161018757806340731c241161015657806340731c241461037757806342842e0e146103a75780634f6ccce7146103c357806354ebb999146103f3576101e5565b806323b872dd146102f35780632d6d852f1461030f5780632f745c591461032b578063392338f51461035b576101e5565b806308386eba116101c357806308386eba14610268578063095ea7b3146102865780630b1e7f83146102a257806318160ddd146102d5576101e5565b806301ffc9a7146101ea57806306fdde031461021a578063081812fc14610238575b600080fd5b61020460048036038101906101ff919061355e565b61067b565b60405161021191906135a6565b60405180910390f35b6102226106f5565b60405161022f9190613651565b60405180910390f35b610252600480360381019061024d91906136a9565b610787565b60405161025f9190613717565b60405180910390f35b6102706107cd565b60405161027d9190613741565b60405180910390f35b6102a0600480360381019061029b9190613788565b6107d3565b005b6102bc60048036038101906102b791906136a9565b6108ea565b6040516102cc94939291906137c8565b60405180910390f35b6102dd610a2a565b6040516102ea9190613741565b60405180910390f35b61030d6004803603810190610308919061381b565b610a37565b005b61032960048036038101906103249190613892565b610a97565b005b61034560048036038101906103409190613788565b610b44565b6040516103529190613741565b60405180910390f35b61037560048036038101906103709190613953565b610be9565b005b610391600480360381019061038c91906136a9565b610e0b565b60405161039e9190613a97565b60405180910390f35b6103c160048036038101906103bc919061381b565b610f70565b005b6103dd60048036038101906103d891906136a9565b610f90565b6040516103ea9190613741565b60405180910390f35b61040d600480360381019061040891906136a9565b611001565b60405161041a9190613be5565b60405180910390f35b61043d60048036038101906104389190613c07565b611213565b60405161044a9190613be5565b60405180910390f35b61046d60048036038101906104689190613c54565b61146f565b60405161047a9190613d30565b60405180910390f35b61048b611506565b6040516104989190613741565b60405180910390f35b6104bb60048036038101906104b691906136a9565b61150c565b6040516104c89190613717565b60405180910390f35b6104eb60048036038101906104e69190613c54565b611592565b6040516104f89190613741565b60405180910390f35b610509611649565b005b61051361165d565b6040516105209190613717565b60405180910390f35b610531611686565b60405161053e9190613651565b60405180910390f35b610561600480360381019061055c91906136a9565b611718565b60405161056e9190613dec565b60405180910390f35b610591600480360381019061058c9190613e3a565b6119e3565b005b6105ad60048036038101906105a891906136a9565b6119f9565b6040516105be959493929190613e7a565b60405180910390f35b6105e160048036038101906105dc9190614019565b611c6f565b005b6105fd60048036038101906105f891906136a9565b611cd1565b60405161060a9190613651565b60405180910390f35b61062d6004803603810190610628919061409c565b611d39565b005b610649600480360381019061064491906140e5565b611f91565b60405161065691906135a6565b60405180910390f35b61067960048036038101906106749190613c54565b612025565b005b60007f780e9d63000000000000000000000000000000000000000000000000000000007bffffffffffffffffffffffffffffffffffffffffffffffffffffffff1916827bffffffffffffffffffffffffffffffffffffffffffffffffffffffff191614806106ee57506106ed826120a8565b5b9050919050565b60606001805461070490614154565b80601f016020809104026020016040519081016040528092919081815260200182805461073090614154565b801561077d5780601f106107525761010080835404028352916020019161077d565b820191906000526020600020905b81548152906001019060200180831161076057829003601f168201915b5050505050905090565b60006107928261218a565b6005600083815260200190815260200160002060009054906101000a900473ffffffffffffffffffffffffffffffffffffffff169050919050565b600b5481565b60006107de8261150c565b90508073ffffffffffffffffffffffffffffffffffffffff168373ffffffffffffffffffffffffffffffffffffffff160361084e576040517f08c379a0000000000000000000000000000000000000000000000000000000008152600401610845906141f7565b60405180910390fd5b8073ffffffffffffffffffffffffffffffffffffffff1661086d6121d5565b73ffffffffffffffffffffffffffffffffffffffff16148061089c575061089b816108966121d5565b611f91565b5b6108db576040517f08c379a00000000000000000000000000000000000000000000000000000000081526004016108d290614289565b60405180910390fd5b6108e583836121dd565b505050565b601060205280600052604060002060009150905080600001549080600101805461091390614154565b80601f016020809104026020016040519081016040528092919081815260200182805461093f90614154565b801561098c5780601f106109615761010080835404028352916020019161098c565b820191906000526020600020905b81548152906001019060200180831161096f57829003601f168201915b5050505050908060020180546109a190614154565b80601f01602080910402602001604051908101604052809291908181526020018280546109cd90614154565b8015610a1a5780601f106109ef57610100808354040283529160200191610a1a565b820191906000526020600020905b8154815290600101906020018083116109fd57829003601f168201915b5050505050908060030154905084565b6000600980549050905090565b610a48610a426121d5565b82612296565b610a87576040517f08c379a0000000000000000000000000000000000000000000000000000000008152600401610a7e9061431b565b60405180910390fd5b610a9283838361232b565b505050565b610a9f612624565b600b54821115610ae4576040517f08c379a0000000000000000000000000000000000000000000000000000000008152600401610adb90614387565b60405180910390fd5b80600e60008481526020019081526020016000208181610b049190614825565b9050507f2af2668216c13797f987f500352b5dcccb7f93d074b60a9ea347afb160cfed9e8282604051610b389291906149a4565b60405180910390a15050565b6000610b4f83611592565b8210610b90576040517f08c379a0000000000000000000000000000000000000000000000000000000008152600401610b8790614a46565b60405180910390fd5b600760008473ffffffffffffffffffffffffffffffffffffffff1673ffffffffffffffffffffffffffffffffffffffff168152602001908152602001600020600083815260200190815260200160002054905092915050565b600f8484604051610bfb929190614a96565b908152602001604051809103902060009054906101000a900460ff16610c56576040517f08c379a0000000000000000000000000000000000000000000000000000000008152600401610c4d90614afb565b60405180910390fd5b600c6000815480929190610c6990614b4a565b91905055506040518060800160405280600c54815260200185858080601f016020809104026020016040519081016040528093929190818152602001838380828437600081840152601f19601f82011690508083019250505050505050815260200183838080601f016020809104026020016040519081016040528093929190818152602001838380828437600081840152601f19601f8201169050808301925050505050505081526020014281525060106000600c548152602001908152602001600020600082015181600001556020820151816001019081610d4d9190614b92565b506040820151816002019081610d639190614b92565b506060820151816003015590505060118484604051610d83929190614a96565b9081526020016040518091039020600c5490806001815401808255809150506001900390600052602060002001600090919091909150557f104af12493094a08a9af15004754171fd42e502f3cffec40976bb4e6ecd1ae8a60106000600c548152602001908152602001600020604051610dfd9190614d99565b60405180910390a150505050565b610e13613485565b6010600083815260200190815260200160002060405180608001604052908160008201548152602001600182018054610e4b90614154565b80601f0160208091040260200160405190810160405280929190818152602001828054610e7790614154565b8015610ec45780601f10610e9957610100808354040283529160200191610ec4565b820191906000526020600020905b815481529060010190602001808311610ea757829003601f168201915b50505050508152602001600282018054610edd90614154565b80601f0160208091040260200160405190810160405280929190818152602001828054610f0990614154565b8015610f565780601f10610f2b57610100808354040283529160200191610f56565b820191906000526020600020905b815481529060010190602001808311610f3957829003601f168201915b505050505081526020016003820154815250509050919050565b610f8b83838360405180602001604052806000815250611c6f565b505050565b6000610f9a610a2a565b8210610fdb576040517f08c379a0000000000000000000000000000000000000000000000000000000008152600401610fd290614e2d565b60405180910390fd5b60098281548110610fef57610fee614e4d565b5b90600052602060002001549050919050565b60606000600a67ffffffffffffffff8111156110205761101f613eee565b5b60405190808252806020026020018201604052801561105957816020015b611046613485565b81526020019060019003908161103e5790505b5090506000600190505b600a81116112095760106000828661107b9190614e7c565b8152602001908152602001600020604051806080016040529081600082015481526020016001820180546110ae90614154565b80601f01602080910402602001604051908101604052809291908181526020018280546110da90614154565b80156111275780601f106110fc57610100808354040283529160200191611127565b820191906000526020600020905b81548152906001019060200180831161110a57829003601f168201915b5050505050815260200160028201805461114090614154565b80601f016020809104026020016040519081016040528092919081815260200182805461116c90614154565b80156111b95780601f1061118e576101008083540402835291602001916111b9565b820191906000526020600020905b81548152906001019060200180831161119c57829003601f168201915b50505050508152602001600382015481525050826001836111da9190614eb0565b815181106111eb576111ea614e4d565b5b6020026020010181905250808061120190614b4a565b915050611063565b5080915050919050565b6060600060118484604051611229929190614a96565b908152602001604051809103902080549050905060008167ffffffffffffffff81111561125957611258613eee565b5b60405190808252806020026020018201604052801561129257816020015b61127f613485565b8152602001906001900390816112775790505b50905060005b828110156114635760106000601188886040516112b6929190614a96565b908152602001604051809103902083815481106112d6576112d5614e4d565b5b906000526020600020015481526020019081526020016000206040518060800160405290816000820154815260200160018201805461131490614154565b80601f016020809104026020016040519081016040528092919081815260200182805461134090614154565b801561138d5780601f106113625761010080835404028352916020019161138d565b820191906000526020600020905b81548152906001019060200180831161137057829003601f168201915b505050505081526020016002820180546113a690614154565b80601f01602080910402602001604051908101604052809291908181526020018280546113d290614154565b801561141f5780601f106113f45761010080835404028352916020019161141f565b820191906000526020600020905b81548152906001019060200180831161140257829003601f168201915b5050505050815260200160038201548152505082828151811061144557611444614e4d565b5b6020026020010181905250808061145b90614b4a565b915050611298565b50809250505092915050565b6060600d60008373ffffffffffffffffffffffffffffffffffffffff1673ffffffffffffffffffffffffffffffffffffffff1681526020019081526020016000208054806020026020016040519081016040528092919081815260200182805480156114fa57602002820191906000526020600020905b8154815260200190600101908083116114e6575b50505050509050919050565b600c5481565b600080611518836126a2565b9050600073ffffffffffffffffffffffffffffffffffffffff168173ffffffffffffffffffffffffffffffffffffffff1603611589576040517f08c379a000000000000000000000000000000000000000000000000000000000815260040161158090614f30565b60405180910390fd5b80915050919050565b60008073ffffffffffffffffffffffffffffffffffffffff168273ffffffffffffffffffffffffffffffffffffffff1603611602576040517f08c379a00000000000000000000000000000000000000000000000000000000081526004016115f990614fc2565b60405180910390fd5b600460008373ffffffffffffffffffffffffffffffffffffffff1673ffffffffffffffffffffffffffffffffffffffff168152602001908152602001600020549050919050565b611651612624565b61165b60006126df565b565b60008060009054906101000a900473ffffffffffffffffffffffffffffffffffffffff16905090565b60606002805461169590614154565b80601f01602080910402602001604051908101604052809291908181526020018280546116c190614154565b801561170e5780601f106116e35761010080835404028352916020019161170e565b820191906000526020600020905b8154815290600101906020018083116116f157829003601f168201915b5050505050905090565b6117206134ad565b600e60008381526020019081526020016000206040518060a00160405290816000820160009054906101000a900473ffffffffffffffffffffffffffffffffffffffff1673ffffffffffffffffffffffffffffffffffffffff1673ffffffffffffffffffffffffffffffffffffffff1681526020016001820180546117a490614154565b80601f01602080910402602001604051908101604052809291908181526020018280546117d090614154565b801561181d5780601f106117f25761010080835404028352916020019161181d565b820191906000526020600020905b81548152906001019060200180831161180057829003601f168201915b5050505050815260200160028201805461183690614154565b80601f016020809104026020016040519081016040528092919081815260200182805461186290614154565b80156118af5780601f10611884576101008083540402835291602001916118af565b820191906000526020600020905b81548152906001019060200180831161189257829003601f168201915b505050505081526020016003820180546118c890614154565b80601f01602080910402602001604051908101604052809291908181526020018280546118f490614154565b80156119415780601f1061191657610100808354040283529160200191611941565b820191906000526020600020905b81548152906001019060200180831161192457829003601f168201915b5050505050815260200160048201805461195a90614154565b80601f016020809104026020016040519081016040528092919081815260200182805461198690614154565b80156119d35780601f106119a8576101008083540402835291602001916119d3565b820191906000526020600020905b8154815290600101906020018083116119b657829003601f168201915b5050505050815250509050919050565b6119f56119ee6121d5565b83836127a3565b5050565b600e6020528060005260406000206000915090508060000160009054906101000a900473ffffffffffffffffffffffffffffffffffffffff1690806001018054611a4290614154565b80601f0160208091040260200160405190810160405280929190818152602001828054611a6e90614154565b8015611abb5780601f10611a9057610100808354040283529160200191611abb565b820191906000526020600020905b815481529060010190602001808311611a9e57829003601f168201915b505050505090806002018054611ad090614154565b80601f0160208091040260200160405190810160405280929190818152602001828054611afc90614154565b8015611b495780601f10611b1e57610100808354040283529160200191611b49565b820191906000526020600020905b815481529060010190602001808311611b2c57829003601f168201915b505050505090806003018054611b5e90614154565b80601f0160208091040260200160405190810160405280929190818152602001828054611b8a90614154565b8015611bd75780601f10611bac57610100808354040283529160200191611bd7565b820191906000526020600020905b815481529060010190602001808311611bba57829003601f168201915b505050505090806004018054611bec90614154565b80601f0160208091040260200160405190810160405280929190818152602001828054611c1890614154565b8015611c655780601f10611c3a57610100808354040283529160200191611c65565b820191906000526020600020905b815481529060010190602001808311611c4857829003601f168201915b5050505050905085565b611c80611c7a6121d5565b83612296565b611cbf576040517f08c379a0000000000000000000000000000000000000000000000000000000008152600401611cb69061431b565b60405180910390fd5b611ccb8484848461290f565b50505050565b6060611cdc8261218a565b6000611ce661296b565b90506000815111611d065760405180602001604052806000815250611d31565b80611d1084612982565b604051602001611d21929190615013565b6040516020818303038152906040525b915050919050565b808060200190611d49919061448c565b600f8282604051611d5b929190614a96565b908152602001604051809103902060009054906101000a900460ff1615611db7576040517f08c379a0000000000000000000000000000000000000000000000000000000008152600401611dae90615083565b60405180910390fd5b826000016020810190611dca9190613c54565b3373ffffffffffffffffffffffffffffffffffffffff168173ffffffffffffffffffffffffffffffffffffffff1614611e38576040517f08c379a0000000000000000000000000000000000000000000000000000000008152600401611e2f906150ef565b60405180910390fd5b600b6000815480929190611e4b90614b4a565b919050555083600e6000600b5481526020019081526020016000208181611e729190614825565b9050506001600f858060200190611e89919061448c565b604051611e97929190614a96565b908152602001604051809103902060006101000a81548160ff021916908315150217905550611eda846000016020810190611ed29190613c54565b600b54612a50565b600d6000856000016020810190611ef19190613c54565b73ffffffffffffffffffffffffffffffffffffffff1673ffffffffffffffffffffffffffffffffffffffff168152602001908152602001600020600b5490806001815401808255809150506001900390600052602060002001600090919091909150557f68d89ba37b6b8d0b7cb139771c573485dd925fbb3007cfb62cb832bc2a24850a84604051611f83919061510f565b60405180910390a150505050565b6000600660008473ffffffffffffffffffffffffffffffffffffffff1673ffffffffffffffffffffffffffffffffffffffff16815260200190815260200160002060008373ffffffffffffffffffffffffffffffffffffffff1673ffffffffffffffffffffffffffffffffffffffff16815260200190815260200160002060009054906101000a900460ff16905092915050565b61202d612624565b600073ffffffffffffffffffffffffffffffffffffffff168173ffffffffffffffffffffffffffffffffffffffff160361209c576040517f08c379a0000000000000000000000000000000000000000000000000000000008152600401612093906151a3565b60405180910390fd5b6120a5816126df565b50565b60007f80ac58cd000000000000000000000000000000000000000000000000000000007bffffffffffffffffffffffffffffffffffffffffffffffffffffffff1916827bffffffffffffffffffffffffffffffffffffffffffffffffffffffff1916148061217357507f5b5e139f000000000000000000000000000000000000000000000000000000007bffffffffffffffffffffffffffffffffffffffffffffffffffffffff1916827bffffffffffffffffffffffffffffffffffffffffffffffffffffffff1916145b80612183575061218282612c6d565b5b9050919050565b61219381612cd7565b6121d2576040517f08c379a00000000000000000000000000000000000000000000000000000000081526004016121c990614f30565b60405180910390fd5b50565b600033905090565b816005600083815260200190815260200160002060006101000a81548173ffffffffffffffffffffffffffffffffffffffff021916908373ffffffffffffffffffffffffffffffffffffffff160217905550808273ffffffffffffffffffffffffffffffffffffffff166122508361150c565b73ffffffffffffffffffffffffffffffffffffffff167f8c5be1e5ebec7d5bd14f71427d1e84f3dd0314c0f7b2291e5b200ac8c7c3b92560405160405180910390a45050565b6000806122a28361150c565b90508073ffffffffffffffffffffffffffffffffffffffff168473ffffffffffffffffffffffffffffffffffffffff1614806122e457506122e38185611f91565b5b8061232257508373ffffffffffffffffffffffffffffffffffffffff1661230a84610787565b73ffffffffffffffffffffffffffffffffffffffff16145b91505092915050565b8273ffffffffffffffffffffffffffffffffffffffff1661234b8261150c565b73ffffffffffffffffffffffffffffffffffffffff16146123a1576040517f08c379a000000000000000000000000000000000000000000000000000000000815260040161239890615235565b60405180910390fd5b600073ffffffffffffffffffffffffffffffffffffffff168273ffffffffffffffffffffffffffffffffffffffff1603612410576040517f08c379a0000000000000000000000000000000000000000000000000000000008152600401612407906152c7565b60405180910390fd5b61241d8383836001612d18565b8273ffffffffffffffffffffffffffffffffffffffff1661243d8261150c565b73ffffffffffffffffffffffffffffffffffffffff1614612493576040517f08c379a000000000000000000000000000000000000000000000000000000000815260040161248a90615235565b60405180910390fd5b6005600082815260200190815260200160002060006101000a81549073ffffffffffffffffffffffffffffffffffffffff02191690556001600460008573ffffffffffffffffffffffffffffffffffffffff1673ffffffffffffffffffffffffffffffffffffffff168152602001908152602001600020600082825403925050819055506001600460008473ffffffffffffffffffffffffffffffffffffffff1673ffffffffffffffffffffffffffffffffffffffff16815260200190815260200160002060008282540192505081905550816003600083815260200190815260200160002060006101000a81548173ffffffffffffffffffffffffffffffffffffffff021916908373ffffffffffffffffffffffffffffffffffffffff160217905550808273ffffffffffffffffffffffffffffffffffffffff168473ffffffffffffffffffffffffffffffffffffffff167fddf252ad1be2c89b69c2b068fc378daa952ba7f163c4a11628f55a4df523b3ef60405160405180910390a461261f8383836001612e76565b505050565b61262c6121d5565b73ffffffffffffffffffffffffffffffffffffffff1661264a61165d565b73ffffffffffffffffffffffffffffffffffffffff16146126a0576040517f08c379a000000000000000000000000000000000000000000000000000000000815260040161269790615333565b60405180910390fd5b565b60006003600083815260200190815260200160002060009054906101000a900473ffffffffffffffffffffffffffffffffffffffff169050919050565b60008060009054906101000a900473ffffffffffffffffffffffffffffffffffffffff169050816000806101000a81548173ffffffffffffffffffffffffffffffffffffffff021916908373ffffffffffffffffffffffffffffffffffffffff1602179055508173ffffffffffffffffffffffffffffffffffffffff168173ffffffffffffffffffffffffffffffffffffffff167f8be0079c531659141344cd1fd0a4f28419497f9722a3daafe3b4186f6b6457e060405160405180910390a35050565b8173ffffffffffffffffffffffffffffffffffffffff168373ffffffffffffffffffffffffffffffffffffffff1603612811576040517f08c379a00000000000000000000000000000000000000000000000000000000081526004016128089061539f565b60405180910390fd5b80600660008573ffffffffffffffffffffffffffffffffffffffff1673ffffffffffffffffffffffffffffffffffffffff16815260200190815260200160002060008473ffffffffffffffffffffffffffffffffffffffff1673ffffffffffffffffffffffffffffffffffffffff16815260200190815260200160002060006101000a81548160ff0219169083151502179055508173ffffffffffffffffffffffffffffffffffffffff168373ffffffffffffffffffffffffffffffffffffffff167f17307eab39ab6107e8899845ad3d59bd9653f200f220920489ca2b5937696c318360405161290291906135a6565b60405180910390a3505050565b61291a84848461232b565b61292684848484612e7c565b612965576040517f08c379a000000000000000000000000000000000000000000000000000000000815260040161295c90615431565b60405180910390fd5b50505050565b606060405180602001604052806000815250905090565b60606000600161299184613003565b01905060008167ffffffffffffffff8111156129b0576129af613eee565b5b6040519080825280601f01601f1916602001820160405280156129e25781602001600182028036833780820191505090505b509050600082602001820190505b600115612a45578080600190039150507f3031323334353637383961626364656600000000000000000000000000000000600a86061a8153600a8581612a3957612a38615451565b5b049450600085036129f0575b819350505050919050565b600073ffffffffffffffffffffffffffffffffffffffff168273ffffffffffffffffffffffffffffffffffffffff1603612abf576040517f08c379a0000000000000000000000000000000000000000000000000000000008152600401612ab6906154cc565b60405180910390fd5b612ac881612cd7565b15612b08576040517f08c379a0000000000000000000000000000000000000000000000000000000008152600401612aff90615538565b60405180910390fd5b612b16600083836001612d18565b612b1f81612cd7565b15612b5f576040517f08c379a0000000000000000000000000000000000000000000000000000000008152600401612b5690615538565b60405180910390fd5b6001600460008473ffffffffffffffffffffffffffffffffffffffff1673ffffffffffffffffffffffffffffffffffffffff16815260200190815260200160002060008282540192505081905550816003600083815260200190815260200160002060006101000a81548173ffffffffffffffffffffffffffffffffffffffff021916908373ffffffffffffffffffffffffffffffffffffffff160217905550808273ffffffffffffffffffffffffffffffffffffffff16600073ffffffffffffffffffffffffffffffffffffffff167fddf252ad1be2c89b69c2b068fc378daa952ba7f163c4a11628f55a4df523b3ef60405160405180910390a4612c69600083836001612e76565b5050565b60007f01ffc9a7000000000000000000000000000000000000000000000000000000007bffffffffffffffffffffffffffffffffffffffffffffffffffffffff1916827bffffffffffffffffffffffffffffffffffffffffffffffffffffffff1916149050919050565b60008073ffffffffffffffffffffffffffffffffffffffff16612cf9836126a2565b73ffffffffffffffffffffffffffffffffffffffff1614159050919050565b612d2484848484613156565b6001811115612d68576040517f08c379a0000000000000000000000000000000000000000000000000000000008152600401612d5f906155ca565b60405180910390fd5b6000829050600073ffffffffffffffffffffffffffffffffffffffff168573ffffffffffffffffffffffffffffffffffffffff1603612daf57612daa8161315c565b612dee565b8373ffffffffffffffffffffffffffffffffffffffff168573ffffffffffffffffffffffffffffffffffffffff1614612ded57612dec85826131a5565b5b5b600073ffffffffffffffffffffffffffffffffffffffff168473ffffffffffffffffffffffffffffffffffffffff1603612e3057612e2b81613312565b612e6f565b8473ffffffffffffffffffffffffffffffffffffffff168473ffffffffffffffffffffffffffffffffffffffff1614612e6e57612e6d84826133e3565b5b5b5050505050565b50505050565b6000612e9d8473ffffffffffffffffffffffffffffffffffffffff16613462565b15612ff6578373ffffffffffffffffffffffffffffffffffffffff1663150b7a02612ec66121d5565b8786866040518563ffffffff1660e01b8152600401612ee8949392919061563f565b6020604051808303816000875af1925050508015612f2457506040513d601f19601f82011682018060405250810190612f2191906156a0565b60015b612fa6573d8060008114612f54576040519150601f19603f3d011682016040523d82523d6000602084013e612f59565b606091505b506000815103612f9e576040517f08c379a0000000000000000000000000000000000000000000000000000000008152600401612f9590615431565b60405180910390fd5b805181602001fd5b63150b7a0260e01b7bffffffffffffffffffffffffffffffffffffffffffffffffffffffff1916817bffffffffffffffffffffffffffffffffffffffffffffffffffffffff191614915050612ffb565b600190505b949350505050565b600080600090507a184f03e93ff9f4daa797ed6e38ed64bf6a1f0100000000000000008310613061577a184f03e93ff9f4daa797ed6e38ed64bf6a1f010000000000000000838161305757613056615451565b5b0492506040810190505b6d04ee2d6d415b85acef8100000000831061309e576d04ee2d6d415b85acef8100000000838161309457613093615451565b5b0492506020810190505b662386f26fc1000083106130cd57662386f26fc1000083816130c3576130c2615451565b5b0492506010810190505b6305f5e10083106130f6576305f5e10083816130ec576130eb615451565b5b0492506008810190505b612710831061311b57612710838161311157613110615451565b5b0492506004810190505b6064831061313e576064838161313457613133615451565b5b0492506002810190505b600a831061314d576001810190505b80915050919050565b50505050565b600980549050600a600083815260200190815260200160002081905550600981908060018154018082558091505060019003906000526020600020016000909190919091505550565b600060016131b284611592565b6131bc9190614eb0565b90506000600860008481526020019081526020016000205490508181146132a1576000600760008673ffffffffffffffffffffffffffffffffffffffff1673ffffffffffffffffffffffffffffffffffffffff168152602001908152602001600020600084815260200190815260200160002054905080600760008773ffffffffffffffffffffffffffffffffffffffff1673ffffffffffffffffffffffffffffffffffffffff168152602001908152602001600020600084815260200190815260200160002081905550816008600083815260200190815260200160002081905550505b6008600084815260200190815260200160002060009055600760008573ffffffffffffffffffffffffffffffffffffffff1673ffffffffffffffffffffffffffffffffffffffff16815260200190815260200160002060008381526020019081526020016000206000905550505050565b600060016009805490506133269190614eb0565b90506000600a600084815260200190815260200160002054905060006009838154811061335657613355614e4d565b5b90600052602060002001549050806009838154811061337857613377614e4d565b5b906000526020600020018190555081600a600083815260200190815260200160002081905550600a60008581526020019081526020016000206000905560098054806133c7576133c66156cd565b5b6001900381819060005260206000200160009055905550505050565b60006133ee83611592565b905081600760008573ffffffffffffffffffffffffffffffffffffffff1673ffffffffffffffffffffffffffffffffffffffff168152602001908152602001600020600083815260200190815260200160002081905550806008600084815260200190815260200160002081905550505050565b6000808273ffffffffffffffffffffffffffffffffffffffff163b119050919050565b6040518060800160405280600081526020016060815260200160608152602001600081525090565b6040518060a00160405280600073ffffffffffffffffffffffffffffffffffffffff168152602001606081526020016060815260200160608152602001606081525090565b6000604051905090565b600080fd5b600080fd5b60007fffffffff0000000000000000000000000000000000000000000000000000000082169050919050565b61353b81613506565b811461354657600080fd5b50565b60008135905061355881613532565b92915050565b600060208284031215613574576135736134fc565b5b600061358284828501613549565b91505092915050565b60008115159050919050565b6135a08161358b565b82525050565b60006020820190506135bb6000830184613597565b92915050565b600081519050919050565b600082825260208201905092915050565b60005b838110156135fb5780820151818401526020810190506135e0565b60008484015250505050565b6000601f19601f8301169050919050565b6000613623826135c1565b61362d81856135cc565b935061363d8185602086016135dd565b61364681613607565b840191505092915050565b6000602082019050818103600083015261366b8184613618565b905092915050565b6000819050919050565b61368681613673565b811461369157600080fd5b50565b6000813590506136a38161367d565b92915050565b6000602082840312156136bf576136be6134fc565b5b60006136cd84828501613694565b91505092915050565b600073ffffffffffffffffffffffffffffffffffffffff82169050919050565b6000613701826136d6565b9050919050565b613711816136f6565b82525050565b600060208201905061372c6000830184613708565b92915050565b61373b81613673565b82525050565b60006020820190506137566000830184613732565b92915050565b613765816136f6565b811461377057600080fd5b50565b6000813590506137828161375c565b92915050565b6000806040838503121561379f5761379e6134fc565b5b60006137ad85828601613773565b92505060206137be85828601613694565b9150509250929050565b60006080820190506137dd6000830187613732565b81810360208301526137ef8186613618565b905081810360408301526138038185613618565b90506138126060830184613732565b95945050505050565b600080600060608486031215613834576138336134fc565b5b600061384286828701613773565b935050602061385386828701613773565b925050604061386486828701613694565b9150509250925092565b600080fd5b600060a082840312156138895761388861386e565b5b81905092915050565b600080604083850312156138a9576138a86134fc565b5b60006138b785828601613694565b925050602083013567ffffffffffffffff8111156138d8576138d7613501565b5b6138e485828601613873565b9150509250929050565b600080fd5b600080fd5b600080fd5b60008083601f840112613913576139126138ee565b5b8235905067ffffffffffffffff8111156139305761392f6138f3565b5b60208301915083600182028301111561394c5761394b6138f8565b5b9250929050565b6000806000806040858703121561396d5761396c6134fc565b5b600085013567ffffffffffffffff81111561398b5761398a613501565b5b613997878288016138fd565b9450945050602085013567ffffffffffffffff8111156139ba576139b9613501565b5b6139c6878288016138fd565b925092505092959194509250565b6139dd81613673565b82525050565b600082825260208201905092915050565b60006139ff826135c1565b613a0981856139e3565b9350613a198185602086016135dd565b613a2281613607565b840191505092915050565b6000608083016000830151613a4560008601826139d4565b5060208301518482036020860152613a5d82826139f4565b91505060408301518482036040860152613a7782826139f4565b9150506060830151613a8c60608601826139d4565b508091505092915050565b60006020820190508181036000830152613ab18184613a2d565b905092915050565b600081519050919050565b600082825260208201905092915050565b6000819050602082019050919050565b6000608083016000830151613afd60008601826139d4565b5060208301518482036020860152613b1582826139f4565b91505060408301518482036040860152613b2f82826139f4565b9150506060830151613b4460608601826139d4565b508091505092915050565b6000613b5b8383613ae5565b905092915050565b6000602082019050919050565b6000613b7b82613ab9565b613b858185613ac4565b935083602082028501613b9785613ad5565b8060005b85811015613bd35784840389528151613bb48582613b4f565b9450613bbf83613b63565b925060208a01995050600181019050613b9b565b50829750879550505050505092915050565b60006020820190508181036000830152613bff8184613b70565b905092915050565b60008060208385031215613c1e57613c1d6134fc565b5b600083013567ffffffffffffffff811115613c3c57613c3b613501565b5b613c48858286016138fd565b92509250509250929050565b600060208284031215613c6a57613c696134fc565b5b6000613c7884828501613773565b91505092915050565b600081519050919050565b600082825260208201905092915050565b6000819050602082019050919050565b6000613cb983836139d4565b60208301905092915050565b6000602082019050919050565b6000613cdd82613c81565b613ce78185613c8c565b9350613cf283613c9d565b8060005b83811015613d23578151613d0a8882613cad565b9750613d1583613cc5565b925050600181019050613cf6565b5085935050505092915050565b60006020820190508181036000830152613d4a8184613cd2565b905092915050565b613d5b816136f6565b82525050565b600060a083016000830151613d796000860182613d52565b5060208301518482036020860152613d9182826139f4565b91505060408301518482036040860152613dab82826139f4565b91505060608301518482036060860152613dc582826139f4565b91505060808301518482036080860152613ddf82826139f4565b9150508091505092915050565b60006020820190508181036000830152613e068184613d61565b905092915050565b613e178161358b565b8114613e2257600080fd5b50565b600081359050613e3481613e0e565b92915050565b60008060408385031215613e5157613e506134fc565b5b6000613e5f85828601613773565b9250506020613e7085828601613e25565b9150509250929050565b600060a082019050613e8f6000830188613708565b8181036020830152613ea18187613618565b90508181036040830152613eb58186613618565b90508181036060830152613ec98185613618565b90508181036080830152613edd8184613618565b90509695505050505050565b600080fd5b7f4e487b7100000000000000000000000000000000000000000000000000000000600052604160045260246000fd5b613f2682613607565b810181811067ffffffffffffffff82111715613f4557613f44613eee565b5b80604052505050565b6000613f586134f2565b9050613f648282613f1d565b919050565b600067ffffffffffffffff821115613f8457613f83613eee565b5b613f8d82613607565b9050602081019050919050565b82818337600083830152505050565b6000613fbc613fb784613f69565b613f4e565b905082815260208101848484011115613fd857613fd7613ee9565b5b613fe3848285613f9a565b509392505050565b600082601f83011261400057613fff6138ee565b5b8135614010848260208601613fa9565b91505092915050565b60008060008060808587031215614033576140326134fc565b5b600061404187828801613773565b945050602061405287828801613773565b935050604061406387828801613694565b925050606085013567ffffffffffffffff81111561408457614083613501565b5b61409087828801613feb565b91505092959194509250565b6000602082840312156140b2576140b16134fc565b5b600082013567ffffffffffffffff8111156140d0576140cf613501565b5b6140dc84828501613873565b91505092915050565b600080604083850312156140fc576140fb6134fc565b5b600061410a85828601613773565b925050602061411b85828601613773565b9150509250929050565b7f4e487b7100000000000000000000000000000000000000000000000000000000600052602260045260246000fd5b6000600282049050600182168061416c57607f821691505b60208210810361417f5761417e614125565b5b50919050565b7f4552433732313a20617070726f76616c20746f2063757272656e74206f776e6560008201527f7200000000000000000000000000000000000000000000000000000000000000602082015250565b60006141e16021836135cc565b91506141ec82614185565b604082019050919050565b60006020820190508181036000830152614210816141d4565b9050919050565b7f4552433732313a20617070726f76652063616c6c6572206973206e6f7420746f60008201527f6b656e206f776e6572206f7220617070726f76656420666f7220616c6c000000602082015250565b6000614273603d836135cc565b915061427e82614217565b604082019050919050565b600060208201905081810360008301526142a281614266565b9050919050565b7f4552433732313a2063616c6c6572206973206e6f7420746f6b656e206f776e6560008201527f72206f7220617070726f76656400000000000000000000000000000000000000602082015250565b6000614305602d836135cc565b9150614310826142a9565b604082019050919050565b60006020820190508181036000830152614334816142f8565b9050919050565b7f496e76616c69642070726f66696c652049440000000000000000000000000000600082015250565b60006143716012836135cc565b915061437c8261433b565b602082019050919050565b600060208201905081810360008301526143a081614364565b9050919050565b600081356143b48161375c565b80915050919050565b60008160001b9050919050565b600073ffffffffffffffffffffffffffffffffffffffff6143ea846143bd565b9350801983169250808416831791505092915050565b6000819050919050565b600061442561442061441b846136d6565b614400565b6136d6565b9050919050565b60006144378261440a565b9050919050565b60006144498261442c565b9050919050565b6000819050919050565b6144638261443e565b61447661446f82614450565b83546143ca565b8255505050565b600080fd5b600080fd5b600080fd5b600080833560016020038436030381126144a9576144a861447d565b5b80840192508235915067ffffffffffffffff8211156144cb576144ca614482565b5b6020830192506001820236038313156144e7576144e6614487565b5b509250929050565b600082905092915050565b60008190508160005260206000209050919050565b60006020601f8301049050919050565b600082821b905092915050565b60006008830261455c7fffffffffffffffffffffffffffffffffffffffffffffffffffffffffffffffff8261451f565b614566868361451f565b95508019841693508086168417925050509392505050565b600061459961459461458f84613673565b614400565b613673565b9050919050565b6000819050919050565b6145b38361457e565b6145c76145bf826145a0565b84845461452c565b825550505050565b600090565b6145dc6145cf565b6145e78184846145aa565b505050565b5b8181101561460b576146006000826145d4565b6001810190506145ed565b5050565b601f82111561465057614621816144fa565b61462a8461450f565b81016020851015614639578190505b61464d6146458561450f565b8301826145ec565b50505b505050565b600082821c905092915050565b600061467360001984600802614655565b1980831691505092915050565b600061468c8383614662565b9150826002028217905092915050565b6146a683836144ef565b67ffffffffffffffff8111156146bf576146be613eee565b5b6146c98254614154565b6146d482828561460f565b6000601f83116001811461470357600084156146f1578287013590505b6146fb8582614680565b865550614763565b601f198416614711866144fa565b60005b8281101561473957848901358255600182019150602085019450602081019050614714565b868310156147565784890135614752601f891682614662565b8355505b6001600288020188555050505b50505050505050565b61477783838361469c565b505050565b60008101600083018061478e816143a7565b905061479a818461445a565b50505060018101602083016147af818561448c565b6147ba81838661476c565b5050505060028101604083016147d0818561448c565b6147db81838661476c565b5050505060038101606083016147f1818561448c565b6147fc81838661476c565b505050506004810160808301614812818561448c565b61481d81838661476c565b505050505050565b61482f828261477c565b5050565b60006148426020840184613773565b905092915050565b600080fd5b600080fd5b600080fd5b6000808335600160200384360303811261487657614875614854565b5b83810192508235915060208301925067ffffffffffffffff82111561489e5761489d61484a565b5b6001820236038313156148b4576148b361484f565b5b509250929050565b60006148c883856139e3565b93506148d5838584613f9a565b6148de83613607565b840190509392505050565b600060a083016148fc6000840184614833565b6149096000860182613d52565b506149176020840184614859565b858303602087015261492a8382846148bc565b9250505061493b6040840184614859565b858303604087015261494e8382846148bc565b9250505061495f6060840184614859565b85830360608701526149728382846148bc565b925050506149836080840184614859565b85830360808701526149968382846148bc565b925050508091505092915050565b60006040820190506149b96000830185613732565b81810360208301526149cb81846148e9565b90509392505050565b7f455243373231456e756d657261626c653a206f776e657220696e646578206f7560008201527f74206f6620626f756e6473000000000000000000000000000000000000000000602082015250565b6000614a30602b836135cc565b9150614a3b826149d4565b604082019050919050565b60006020820190508181036000830152614a5f81614a23565b9050919050565b600081905092915050565b6000614a7d8385614a66565b9350614a8a838584613f9a565b82840190509392505050565b6000614aa3828486614a71565b91508190509392505050565b7f48616e646c65206e6f7420666f756e6400000000000000000000000000000000600082015250565b6000614ae56010836135cc565b9150614af082614aaf565b602082019050919050565b60006020820190508181036000830152614b1481614ad8565b9050919050565b7f4e487b7100000000000000000000000000000000000000000000000000000000600052601160045260246000fd5b6000614b5582613673565b91507fffffffffffffffffffffffffffffffffffffffffffffffffffffffffffffffff8203614b8757614b86614b1b565b5b600182019050919050565b614b9b826135c1565b67ffffffffffffffff811115614bb457614bb3613eee565b5b614bbe8254614154565b614bc982828561460f565b600060209050601f831160018114614bfc5760008415614bea578287015190505b614bf48582614680565b865550614c5c565b601f198416614c0a866144fa565b60005b82811015614c3257848901518255600182019150602085019450602081019050614c0d565b86831015614c4f5784890151614c4b601f891682614662565b8355505b6001600288020188555050505b505050505050565b60008160001c9050919050565b6000819050919050565b6000614c8e614c8983614c64565b614c71565b9050919050565b60008154614ca281614154565b614cac81866139e3565b94506001821660008114614cc75760018114614cdd57614d10565b60ff198316865281151560200286019350614d10565b614ce6856144fa565b60005b83811015614d0857815481890152600182019150602081019050614ce9565b808801955050505b50505092915050565b6000608083016000808401549050614d3081614c7b565b614d3d60008701826139d4565b50600184018583036020870152614d548382614c95565b925050600284018583036040870152614d6d8382614c95565b92505060038401549050614d8081614c7b565b614d8d60608701826139d4565b50819250505092915050565b60006020820190508181036000830152614db38184614d19565b905092915050565b7f455243373231456e756d657261626c653a20676c6f62616c20696e646578206f60008201527f7574206f6620626f756e64730000000000000000000000000000000000000000602082015250565b6000614e17602c836135cc565b9150614e2282614dbb565b604082019050919050565b60006020820190508181036000830152614e4681614e0a565b9050919050565b7f4e487b7100000000000000000000000000000000000000000000000000000000600052603260045260246000fd5b6000614e8782613673565b9150614e9283613673565b9250828201905080821115614eaa57614ea9614b1b565b5b92915050565b6000614ebb82613673565b9150614ec683613673565b9250828203905081811115614ede57614edd614b1b565b5b92915050565b7f4552433732313a20696e76616c696420746f6b656e2049440000000000000000600082015250565b6000614f1a6018836135cc565b9150614f2582614ee4565b602082019050919050565b60006020820190508181036000830152614f4981614f0d565b9050919050565b7f4552433732313a2061646472657373207a65726f206973206e6f74206120766160008201527f6c6964206f776e65720000000000000000000000000000000000000000000000602082015250565b6000614fac6029836135cc565b9150614fb782614f50565b604082019050919050565b60006020820190508181036000830152614fdb81614f9f565b9050919050565b6000614fed826135c1565b614ff78185614a66565b93506150078185602086016135dd565b80840191505092915050565b600061501f8285614fe2565b915061502b8284614fe2565b91508190509392505050565b7f48616e646c6520616c7265616479206578697374730000000000000000000000600082015250565b600061506d6015836135cc565b915061507882615037565b602082019050919050565b6000602082019050818103600083015261509c81615060565b9050919050565b7f4f776e657220646966666572656e742066726f6d206d73672e73656e64657200600082015250565b60006150d9601f836135cc565b91506150e4826150a3565b602082019050919050565b60006020820190508181036000830152615108816150cc565b9050919050565b6000602082019050818103600083015261512981846148e9565b905092915050565b7f4f776e61626c653a206e6577206f776e657220697320746865207a65726f206160008201527f6464726573730000000000000000000000000000000000000000000000000000602082015250565b600061518d6026836135cc565b915061519882615131565b604082019050919050565b600060208201905081810360008301526151bc81615180565b9050919050565b7f4552433732313a207472616e736665722066726f6d20696e636f72726563742060008201527f6f776e6572000000000000000000000000000000000000000000000000000000602082015250565b600061521f6025836135cc565b915061522a826151c3565b604082019050919050565b6000602082019050818103600083015261524e81615212565b9050919050565b7f4552433732313a207472616e7366657220746f20746865207a65726f2061646460008201527f7265737300000000000000000000000000000000000000000000000000000000602082015250565b60006152b16024836135cc565b91506152bc82615255565b604082019050919050565b600060208201905081810360008301526152e0816152a4565b9050919050565b7f4f776e61626c653a2063616c6c6572206973206e6f7420746865206f776e6572600082015250565b600061531d6020836135cc565b9150615328826152e7565b602082019050919050565b6000602082019050818103600083015261534c81615310565b9050919050565b7f4552433732313a20617070726f766520746f2063616c6c657200000000000000600082015250565b60006153896019836135cc565b915061539482615353565b602082019050919050565b600060208201905081810360008301526153b88161537c565b9050919050565b7f4552433732313a207472616e7366657220746f206e6f6e20455243373231526560008201527f63656976657220696d706c656d656e7465720000000000000000000000000000602082015250565b600061541b6032836135cc565b9150615426826153bf565b604082019050919050565b6000602082019050818103600083015261544a8161540e565b9050919050565b7f4e487b7100000000000000000000000000000000000000000000000000000000600052601260045260246000fd5b7f4552433732313a206d696e7420746f20746865207a65726f2061646472657373600082015250565b60006154b66020836135cc565b91506154c182615480565b602082019050919050565b600060208201905081810360008301526154e5816154a9565b9050919050565b7f4552433732313a20746f6b656e20616c7265616479206d696e74656400000000600082015250565b6000615522601c836135cc565b915061552d826154ec565b602082019050919050565b6000602082019050818103600083015261555181615515565b9050919050565b7f455243373231456e756d657261626c653a20636f6e736563757469766520747260008201527f616e7366657273206e6f7420737570706f727465640000000000000000000000602082015250565b60006155b46035836135cc565b91506155bf82615558565b604082019050919050565b600060208201905081810360008301526155e3816155a7565b9050919050565b600081519050919050565b600082825260208201905092915050565b6000615611826155ea565b61561b81856155f5565b935061562b8185602086016135dd565b61563481613607565b840191505092915050565b60006080820190506156546000830187613708565b6156616020830186613708565b61566e6040830185613732565b81810360608301526156808184615606565b905095945050505050565b60008151905061569a81613532565b92915050565b6000602082840312156156b6576156b56134fc565b5b60006156c48482850161568b565b91505092915050565b7f4e487b7100000000000000000000000000000000000000000000000000000000600052603160045260246000fdfea2646970667358221220744a9c9a131edef3c6dc4b7af7665934b9b5ced18c5d099625c5c3d297ba242864736f6c63430008130033",
  "linkReferences": {},
  "deployedLinkReferences": {}
}