{
  "_format": "hh-sol-artifact-1",
  "contractName": "SocialWeb3",
  "sourceName": "contracts/SocialWeb3.sol",
  "abi": [
    {
      "inputs": [],
      "stateMutability": "nonpayable",
      "type": "constructor"
    },
    {
      "anonymous": false,
      "inputs": [
        {
          "indexed": true,
          "internalType": "address",
          "name": "owner",
          "type": "address"
        },
        {
          "indexed": true,
          "internalType": "address",
          "name": "approved",
          "type": "address"
        },
        {
          "indexed": true,
          "internalType": "uint256",
          "name": "tokenId",
          "type": "uint256"
        }
      ],
      "name": "Approval",
      "type": "event"
    },
    {
      "anonymous": false,
      "inputs": [
        {
          "indexed": true,
          "internalType": "address",
          "name": "owner",
          "type": "address"
        },
        {
          "indexed": true,
          "internalType": "address",
          "name": "operator",
          "type": "address"
        },
        {
          "indexed": false,
          "internalType": "bool",
          "name": "approved",
          "type": "bool"
        }
      ],
      "name": "ApprovalForAll",
      "type": "event"
    },
    {
      "anonymous": false,
      "inputs": [
        {
          "components": [
            {
              "internalType": "uint256",
              "name": "postId",
              "type": "uint256"
            },
            {
              "internalType": "string",
              "name": "handle",
              "type": "string"
            },
            {
              "internalType": "string",
              "name": "content",
              "type": "string"
            },
            {
              "internalType": "uint256",
              "name": "timestamp",
              "type": "uint256"
            }
          ],
          "indexed": false,
          "internalType": "struct SocialWeb3.Post",
          "name": "post",
          "type": "tuple"
        }
      ],
      "name": "CreatePost",
      "type": "event"
    },
    {
      "anonymous": false,
      "inputs": [
        {
          "components": [
            {
              "internalType": "address",
              "name": "owner",
              "type": "address"
            },
            {
              "internalType": "string",
              "name": "handle",
              "type": "string"
            },
            {
              "internalType": "string",
              "name": "name",
              "type": "string"
            },
            {
              "internalType": "string",
              "name": "imageURI",
              "type": "string"
            },
            {
              "internalType": "string",
              "name": "bio",
              "type": "string"
            }
          ],
          "indexed": false,
          "internalType": "struct SocialWeb3.ProfileNFTData",
          "name": "profileNFTData",
          "type": "tuple"
        }
      ],
      "name": "CreateProfileNFT",
      "type": "event"
    },
    {
      "anonymous": false,
      "inputs": [
        {
          "indexed": true,
          "internalType": "address",
          "name": "previousOwner",
          "type": "address"
        },
        {
          "indexed": true,
          "internalType": "address",
          "name": "newOwner",
          "type": "address"
        }
      ],
      "name": "OwnershipTransferred",
      "type": "event"
    },
    {
      "anonymous": false,
      "inputs": [
        {
          "indexed": true,
          "internalType": "address",
          "name": "from",
          "type": "address"
        },
        {
          "indexed": true,
          "internalType": "address",
          "name": "to",
          "type": "address"
        },
        {
          "indexed": true,
          "internalType": "uint256",
          "name": "tokenId",
          "type": "uint256"
        }
      ],
      "name": "Transfer",
      "type": "event"
    },
    {
      "anonymous": false,
      "inputs": [
        {
          "indexed": false,
          "internalType": "uint256",
          "name": "profileId",
          "type": "uint256"
        },
        {
          "components": [
            {
              "internalType": "address",
              "name": "owner",
              "type": "address"
            },
            {
              "internalType": "string",
              "name": "handle",
              "type": "string"
            },
            {
              "internalType": "string",
              "name": "name",
              "type": "string"
            },
            {
              "internalType": "string",
              "name": "imageURI",
              "type": "string"
            },
            {
              "internalType": "string",
              "name": "bio",
              "type": "string"
            }
          ],
          "indexed": false,
          "internalType": "struct SocialWeb3.ProfileNFTData",
          "name": "profileData",
          "type": "tuple"
        }
      ],
      "name": "UpdateProfile",
      "type": "event"
    },
    {
      "inputs": [
        {
          "internalType": "address",
          "name": "to",
          "type": "address"
        },
        {
          "internalType": "uint256",
          "name": "tokenId",
          "type": "uint256"
        }
      ],
      "name": "approve",
      "outputs": [],
      "stateMutability": "nonpayable",
      "type": "function"
    },
    {
      "inputs": [
        {
          "internalType": "address",
          "name": "owner",
          "type": "address"
        }
      ],
      "name": "balanceOf",
      "outputs": [
        {
          "internalType": "uint256",
          "name": "",
          "type": "uint256"
        }
      ],
      "stateMutability": "view",
      "type": "function"
    },
    {
      "inputs": [
        {
          "internalType": "string",
          "name": "_handle",
          "type": "string"
        },
        {
          "internalType": "string",
          "name": "_content",
          "type": "string"
        }
      ],
      "name": "createPost",
      "outputs": [],
      "stateMutability": "nonpayable",
      "type": "function"
    },
    {
      "inputs": [
        {
          "components": [
            {
              "internalType": "address",
              "name": "owner",
              "type": "address"
            },
            {
              "internalType": "string",
              "name": "handle",
              "type": "string"
            },
            {
              "internalType": "string",
              "name": "name",
              "type": "string"
            },
            {
              "internalType": "string",
              "name": "imageURI",
              "type": "string"
            },
            {
              "internalType": "string",
              "name": "bio",
              "type": "string"
            }
          ],
          "internalType": "struct SocialWeb3.ProfileNFTData",
          "name": "_profileNFTData",
          "type": "tuple"
        }
      ],
      "name": "createProfileNFT",
      "outputs": [],
      "stateMutability": "nonpayable",
      "type": "function"
    },
    {
      "inputs": [
        {
          "internalType": "uint256",
          "name": "tokenId",
          "type": "uint256"
        }
      ],
      "name": "getApproved",
      "outputs": [
        {
          "internalType": "address",
          "name": "",
          "type": "address"
        }
      ],
      "stateMutability": "view",
      "type": "function"
    },
    {
      "inputs": [
        {
          "internalType": "uint256",
          "name": "_postId",
          "type": "uint256"
        }
      ],
      "name": "getPost",
      "outputs": [
        {
          "components": [
            {
              "internalType": "uint256",
              "name": "postId",
              "type": "uint256"
            },
            {
              "internalType": "string",
              "name": "handle",
              "type": "string"
            },
            {
              "internalType": "string",
              "name": "content",
              "type": "string"
            },
            {
              "internalType": "uint256",
              "name": "timestamp",
              "type": "uint256"
            }
          ],
          "internalType": "struct SocialWeb3.Post",
          "name": "",
          "type": "tuple"
        }
      ],
      "stateMutability": "view",
      "type": "function"
    },
    {
      "inputs": [
        {
          "internalType": "uint256",
          "name": "_number",
          "type": "uint256"
        }
      ],
      "name": "getPostWithNumber",
      "outputs": [
        {
          "components": [
            {
              "internalType": "uint256",
              "name": "postId",
              "type": "uint256"
            },
            {
              "internalType": "string",
              "name": "handle",
              "type": "string"
            },
            {
              "internalType": "string",
              "name": "content",
              "type": "string"
            },
            {
              "internalType": "uint256",
              "name": "timestamp",
              "type": "uint256"
            }
          ],
          "internalType": "struct SocialWeb3.Post[]",
          "name": "",
          "type": "tuple[]"
        }
      ],
      "stateMutability": "view",
      "type": "function"
    },
    {
      "inputs": [
        {
          "internalType": "uint256",
          "name": "_profileId",
          "type": "uint256"
        }
      ],
      "name": "getProfileNFTData",
      "outputs": [
        {
          "components": [
            {
              "internalType": "address",
              "name": "owner",
              "type": "address"
            },
            {
              "internalType": "string",
              "name": "handle",
              "type": "string"
            },
            {
              "internalType": "string",
              "name": "name",
              "type": "string"
            },
            {
              "internalType": "string",
              "name": "imageURI",
              "type": "string"
            },
            {
              "internalType": "string",
              "name": "bio",
              "type": "string"
            }
          ],
          "internalType": "struct SocialWeb3.ProfileNFTData",
          "name": "",
          "type": "tuple"
        }
      ],
      "stateMutability": "view",
      "type": "function"
    },
    {
      "inputs": [
        {
          "internalType": "string",
          "name": "_handle",
          "type": "string"
        }
      ],
      "name": "getProfilePosts",
      "outputs": [
        {
          "components": [
            {
              "internalType": "uint256",
              "name": "postId",
              "type": "uint256"
            },
            {
              "internalType": "string",
              "name": "handle",
              "type": "string"
            },
            {
              "internalType": "string",
              "name": "content",
              "type": "string"
            },
            {
              "internalType": "uint256",
              "name": "timestamp",
              "type": "uint256"
            }
          ],
          "internalType": "struct SocialWeb3.Post[]",
          "name": "",
          "type": "tuple[]"
        }
      ],
      "stateMutability": "view",
      "type": "function"
    },
    {
      "inputs": [
        {
          "internalType": "address",
          "name": "_user",
          "type": "address"
        }
      ],
      "name": "getUserProfiles",
      "outputs": [
        {
          "internalType": "uint256[]",
          "name": "",
          "type": "uint256[]"
        }
      ],
      "stateMutability": "view",
      "type": "function"
    },
    {
      "inputs": [
        {
          "internalType": "address",
          "name": "owner",
          "type": "address"
        },
        {
          "internalType": "address",
          "name": "operator",
          "type": "address"
        }
      ],
      "name": "isApprovedForAll",
      "outputs": [
        {
          "internalType": "bool",
          "name": "",
          "type": "bool"
        }
      ],
      "stateMutability": "view",
      "type": "function"
    },
    {
      "inputs": [],
      "name": "name",
      "outputs": [
        {
          "internalType": "string",
          "name": "",
          "type": "string"
        }
      ],
      "stateMutability": "view",
      "type": "function"
    },
    {
      "inputs": [],
      "name": "owner",
      "outputs": [
        {
          "internalType": "address",
          "name": "",
          "type": "address"
        }
      ],
      "stateMutability": "view",
      "type": "function"
    },
    {
      "inputs": [
        {
          "internalType": "uint256",
          "name": "tokenId",
          "type": "uint256"
        }
      ],
      "name": "ownerOf",
      "outputs": [
        {
          "internalType": "address",
          "name": "",
          "type": "address"
        }
      ],
      "stateMutability": "view",
      "type": "function"
    },
    {
      "inputs": [],
      "name": "postId",
      "outputs": [
        {
          "internalType": "uint256",
          "name": "",
          "type": "uint256"
        }
      ],
      "stateMutability": "view",
      "type": "function"
    },
    {
      "inputs": [
        {
          "internalType": "uint256",
          "name": "",
          "type": "uint256"
        }
      ],
      "name": "posts",
      "outputs": [
        {
          "internalType": "uint256",
          "name": "postId",
          "type": "uint256"
        },
        {
          "internalType": "string",
          "name": "handle",
          "type": "string"
        },
        {
          "internalType": "string",
          "name": "content",
          "type": "string"
        },
        {
          "internalType": "uint256",
          "name": "timestamp",
          "type": "uint256"
        }
      ],
      "stateMutability": "view",
      "type": "function"
    },
    {
      "inputs": [],
      "name": "profileId",
      "outputs": [
        {
          "internalType": "uint256",
          "name": "",
          "type": "uint256"
        }
      ],
      "stateMutability": "view",
      "type": "function"
    },
    {
      "inputs": [
        {
          "internalType": "uint256",
          "name": "",
          "type": "uint256"
        }
      ],
      "name": "profileNFTData",
      "outputs": [
        {
          "internalType": "address",
          "name": "owner",
          "type": "address"
        },
        {
          "internalType": "string",
          "name": "handle",
          "type": "string"
        },
        {
          "internalType": "string",
          "name": "name",
          "type": "string"
        },
        {
          "internalType": "string",
          "name": "imageURI",
          "type": "string"
        },
        {
          "internalType": "string",
          "name": "bio",
          "type": "string"
        }
      ],
      "stateMutability": "view",
      "type": "function"
    },
    {
      "inputs": [],
      "name": "renounceOwnership",
      "outputs": [],
      "stateMutability": "nonpayable",
      "type": "function"
    },
    {
      "inputs": [
        {
          "internalType": "address",
          "name": "from",
          "type": "address"
        },
        {
          "internalType": "address",
          "name": "to",
          "type": "address"
        },
        {
          "internalType": "uint256",
          "name": "tokenId",
          "type": "uint256"
        }
      ],
      "name": "safeTransferFrom",
      "outputs": [],
      "stateMutability": "nonpayable",
      "type": "function"
    },
    {
      "inputs": [
        {
          "internalType": "address",
          "name": "from",
          "type": "address"
        },
        {
          "internalType": "address",
          "name": "to",
          "type": "address"
        },
        {
          "internalType": "uint256",
          "name": "tokenId",
          "type": "uint256"
        },
        {
          "internalType": "bytes",
          "name": "data",
          "type": "bytes"
        }
      ],
      "name": "safeTransferFrom",
      "outputs": [],
      "stateMutability": "nonpayable",
      "type": "function"
    },
    {
      "inputs": [
        {
          "internalType": "address",
          "name": "operator",
          "type": "address"
        },
        {
          "internalType": "bool",
          "name": "approved",
          "type": "bool"
        }
      ],
      "name": "setApprovalForAll",
      "outputs": [],
      "stateMutability": "nonpayable",
      "type": "function"
    },
    {
      "inputs": [
        {
          "internalType": "bytes4",
          "name": "interfaceId",
          "type": "bytes4"
        }
      ],
      "name": "supportsInterface",
      "outputs": [
        {
          "internalType": "bool",
          "name": "",
          "type": "bool"
        }
      ],
      "stateMutability": "view",
      "type": "function"
    },
    {
      "inputs": [],
      "name": "symbol",
      "outputs": [
        {
          "internalType": "string",
          "name": "",
          "type": "string"
        }
      ],
      "stateMutability": "view",
      "type": "function"
    },
    {
      "inputs": [
        {
          "internalType": "uint256",
          "name": "index",
          "type": "uint256"
        }
      ],
      "name": "tokenByIndex",
      "outputs": [
        {
          "internalType": "uint256",
          "name": "",
          "type": "uint256"
        }
      ],
      "stateMutability": "view",
      "type": "function"
    },
    {
      "inputs": [
        {
          "internalType": "address",
          "name": "owner",
          "type": "address"
        },
        {
          "internalType": "uint256",
          "name": "index",
          "type": "uint256"
        }
      ],
      "name": "tokenOfOwnerByIndex",
      "outputs": [
        {
          "internalType": "uint256",
          "name": "",
          "type": "uint256"
        }
      ],
      "stateMutability": "view",
      "type": "function"
    },
    {
      "inputs": [
        {
          "internalType": "uint256",
          "name": "tokenId",
          "type": "uint256"
        }
      ],
      "name": "tokenURI",
      "outputs": [
        {
          "internalType": "string",
          "name": "",
          "type": "string"
        }
      ],
      "stateMutability": "view",
      "type": "function"
    },
    {
      "inputs": [],
      "name": "totalSupply",
      "outputs": [
        {
          "internalType": "uint256",
          "name": "",
          "type": "uint256"
        }
      ],
      "stateMutability": "view",
      "type": "function"
    },
    {
      "inputs": [
        {
          "internalType": "address",
          "name": "from",
          "type": "address"
        },
        {
          "internalType": "address",
          "name": "to",
          "type": "address"
        },
        {
          "internalType": "uint256",
          "name": "tokenId",
          "type": "uint256"
        }
      ],
      "name": "transferFrom",
      "outputs": [],
      "stateMutability": "nonpayable",
      "type": "function"
    },
    {
      "inputs": [
        {
          "internalType": "address",
          "name": "newOwner",
          "type": "address"
        }
      ],
      "name": "transferOwnership",
      "outputs": [],
      "stateMutability": "nonpayable",
      "type": "function"
    },
    {
      "inputs": [
        {
          "internalType": "uint256",
          "name": "_profileId",
          "type": "uint256"
        },
        {
          "components": [
            {
              "internalType": "address",
              "name": "owner",
              "type": "address"
            },
            {
              "internalType": "string",
              "name": "handle",
              "type": "string"
            },
            {
              "internalType": "string",
              "name": "name",
              "type": "string"
            },
            {
              "internalType": "string",
              "name": "imageURI",
              "type": "string"
            },
            {
              "internalType": "string",
              "name": "bio",
              "type": "string"
            }
          ],
          "internalType": "struct SocialWeb3.ProfileNFTData",
          "name": "_newProfileData",
          "type": "tuple"
        }
      ],
      "name": "updateProfile",
      "outputs": [],
      "stateMutability": "nonpayable",
      "type": "function"
    }
  ],
  "bytecode": "0x60806040523480156200001157600080fd5b506040518060400160405280600a81526020017f536f6369616c57656233000000000000000000000000000000000000000000008152506040518060400160405280600381526020017f53573300000000000000000000000000000000000000000000000000000000008152506200009e62000092620000ca60201b60201c565b620000d260201b60201c565b8160019081620000af919062000410565b508060029081620000c1919062000410565b505050620004f7565b600033905090565b60008060009054906101000a900473ffffffffffffffffffffffffffffffffffffffff169050816000806101000a81548173ffffffffffffffffffffffffffffffffffffffff021916908373ffffffffffffffffffffffffffffffffffffffff1602179055508173ffffffffffffffffffffffffffffffffffffffff168173ffffffffffffffffffffffffffffffffffffffff167f8be0079c531659141344cd1fd0a4f28419497f9722a3daafe3b4186f6b6457e060405160405180910390a35050565b600081519050919050565b7f4e487b7100000000000000000000000000000000000000000000000000000000600052604160045260246000fd5b7f4e487b7100000000000000000000000000000000000000000000000000000000600052602260045260246000fd5b600060028204905060018216806200021857607f821691505b6020821081036200022e576200022d620001d0565b5b50919050565b60008190508160005260206000209050919050565b60006020601f8301049050919050565b600082821b905092915050565b600060088302620002987fffffffffffffffffffffffffffffffffffffffffffffffffffffffffffffffff8262000259565b620002a4868362000259565b95508019841693508086168417925050509392505050565b6000819050919050565b6000819050919050565b6000620002f1620002eb620002e584620002bc565b620002c6565b620002bc565b9050919050565b6000819050919050565b6200030d83620002d0565b620003256200031c82620002f8565b84845462000266565b825550505050565b600090565b6200033c6200032d565b6200034981848462000302565b505050565b5b8181101562000371576200036560008262000332565b6001810190506200034f565b5050565b601f821115620003c0576200038a8162000234565b620003958462000249565b81016020851015620003a5578190505b620003bd620003b48562000249565b8301826200034e565b50505b505050565b600082821c905092915050565b6000620003e560001984600802620003c5565b1980831691505092915050565b6000620004008383620003d2565b9150826002028217905092915050565b6200041b8262000196565b67ffffffffffffffff811115620004375762000436620001a1565b5b620004438254620001ff565b6200045082828562000375565b600060209050601f83116001811462000488576000841562000473578287015190505b6200047f8582620003f2565b865550620004ef565b601f198416620004988662000234565b60005b82811015620004c2578489015182556001820191506020850194506020810190506200049b565b86831015620004e25784890151620004de601f891682620003d2565b8355505b6001600288020188555050505b505050505050565b61572080620005076000396000f3fe608060405234801561001057600080fd5b50600436106101e55760003560e01c80635cafa5391161010f5780639b85b1f1116100a2578063c87b56dd11610071578063c87b56dd146105e3578063e563f77814610613578063e985e9c51461062f578063f2fde38b1461065f576101e5565b80639b85b1f114610547578063a22cb46514610577578063b602066e14610593578063b88d4fde146105c7576101e5565b806370a08231116100de57806370a08231146104d1578063715018a6146105015780638da5cb5b1461050b57806395d89b4114610529576101e5565b80635cafa539146104235780635dd4dff41461045357806360a0ecda146104835780636352211e146104a1576101e5565b806323b872dd1161018757806340731c241161015657806340731c241461037757806342842e0e146103a75780634f6ccce7146103c357806354ebb999146103f3576101e5565b806323b872dd146102f35780632d6d852f1461030f5780632f745c591461032b578063392338f51461035b576101e5565b806308386eba116101c357806308386eba14610268578063095ea7b3146102865780630b1e7f83146102a257806318160ddd146102d5576101e5565b806301ffc9a7146101ea57806306fdde031461021a578063081812fc14610238575b600080fd5b61020460048036038101906101ff919061354c565b61067b565b6040516102119190613594565b60405180910390f35b6102226106f5565b60405161022f919061363f565b60405180910390f35b610252600480360381019061024d9190613697565b610787565b60405161025f9190613705565b60405180910390f35b6102706107cd565b60405161027d919061372f565b60405180910390f35b6102a0600480360381019061029b9190613776565b6107d3565b005b6102bc60048036038101906102b79190613697565b6108ea565b6040516102cc94939291906137b6565b60405180910390f35b6102dd610a2a565b6040516102ea919061372f565b60405180910390f35b61030d60048036038101906103089190613809565b610a37565b005b61032960048036038101906103249190613880565b610a97565b005b61034560048036038101906103409190613776565b610b44565b604051610352919061372f565b60405180910390f35b61037560048036038101906103709190613941565b610be9565b005b610391600480360381019061038c9190613697565b610e0c565b60405161039e9190613a85565b60405180910390f35b6103c160048036038101906103bc9190613809565b610f71565b005b6103dd60048036038101906103d89190613697565b610f91565b6040516103ea919061372f565b60405180910390f35b61040d60048036038101906104089190613697565b611002565b60405161041a9190613bd3565b60405180910390f35b61043d60048036038101906104389190613bf5565b611208565b60405161044a9190613bd3565b60405180910390f35b61046d60048036038101906104689190613c42565b611464565b60405161047a9190613d1e565b60405180910390f35b61048b6114fb565b604051610498919061372f565b60405180910390f35b6104bb60048036038101906104b69190613697565b611501565b6040516104c89190613705565b60405180910390f35b6104eb60048036038101906104e69190613c42565b611587565b6040516104f8919061372f565b60405180910390f35b61050961163e565b005b610513611652565b6040516105209190613705565b60405180910390f35b61053161167b565b60405161053e919061363f565b60405180910390f35b610561600480360381019061055c9190613697565b61170d565b60405161056e9190613dda565b60405180910390f35b610591600480360381019061058c9190613e28565b6119d8565b005b6105ad60048036038101906105a89190613697565b6119ee565b6040516105be959493929190613e68565b60405180910390f35b6105e160048036038101906105dc9190614007565b611c64565b005b6105fd60048036038101906105f89190613697565b611cc6565b60405161060a919061363f565b60405180910390f35b61062d6004803603810190610628919061408a565b611d2e565b005b610649600480360381019061064491906140d3565b611f7f565b6040516106569190613594565b60405180910390f35b61067960048036038101906106749190613c42565b612013565b005b60007f780e9d63000000000000000000000000000000000000000000000000000000007bffffffffffffffffffffffffffffffffffffffffffffffffffffffff1916827bffffffffffffffffffffffffffffffffffffffffffffffffffffffff191614806106ee57506106ed82612096565b5b9050919050565b60606001805461070490614142565b80601f016020809104026020016040519081016040528092919081815260200182805461073090614142565b801561077d5780601f106107525761010080835404028352916020019161077d565b820191906000526020600020905b81548152906001019060200180831161076057829003601f168201915b5050505050905090565b600061079282612178565b6005600083815260200190815260200160002060009054906101000a900473ffffffffffffffffffffffffffffffffffffffff169050919050565b600b5481565b60006107de82611501565b90508073ffffffffffffffffffffffffffffffffffffffff168373ffffffffffffffffffffffffffffffffffffffff160361084e576040517f08c379a0000000000000000000000000000000000000000000000000000000008152600401610845906141e5565b60405180910390fd5b8073ffffffffffffffffffffffffffffffffffffffff1661086d6121c3565b73ffffffffffffffffffffffffffffffffffffffff16148061089c575061089b816108966121c3565b611f7f565b5b6108db576040517f08c379a00000000000000000000000000000000000000000000000000000000081526004016108d290614277565b60405180910390fd5b6108e583836121cb565b505050565b601060205280600052604060002060009150905080600001549080600101805461091390614142565b80601f016020809104026020016040519081016040528092919081815260200182805461093f90614142565b801561098c5780601f106109615761010080835404028352916020019161098c565b820191906000526020600020905b81548152906001019060200180831161096f57829003601f168201915b5050505050908060020180546109a190614142565b80601f01602080910402602001604051908101604052809291908181526020018280546109cd90614142565b8015610a1a5780601f106109ef57610100808354040283529160200191610a1a565b820191906000526020600020905b8154815290600101906020018083116109fd57829003601f168201915b5050505050908060030154905084565b6000600980549050905090565b610a48610a426121c3565b82612284565b610a87576040517f08c379a0000000000000000000000000000000000000000000000000000000008152600401610a7e90614309565b60405180910390fd5b610a92838383612319565b505050565b610a9f612612565b600b54821115610ae4576040517f08c379a0000000000000000000000000000000000000000000000000000000008152600401610adb90614375565b60405180910390fd5b80600e60008481526020019081526020016000208181610b049190614813565b9050507f2af2668216c13797f987f500352b5dcccb7f93d074b60a9ea347afb160cfed9e8282604051610b38929190614992565b60405180910390a15050565b6000610b4f83611587565b8210610b90576040517f08c379a0000000000000000000000000000000000000000000000000000000008152600401610b8790614a34565b60405180910390fd5b600760008473ffffffffffffffffffffffffffffffffffffffff1673ffffffffffffffffffffffffffffffffffffffff168152602001908152602001600020600083815260200190815260200160002054905092915050565b600f8484604051610bfb929190614a84565b908152602001604051809103902060009054906101000a900460ff1615610c57576040517f08c379a0000000000000000000000000000000000000000000000000000000008152600401610c4e90614ae9565b60405180910390fd5b600c6000815480929190610c6a90614b38565b91905055506040518060800160405280600c54815260200185858080601f016020809104026020016040519081016040528093929190818152602001838380828437600081840152601f19601f82011690508083019250505050505050815260200183838080601f016020809104026020016040519081016040528093929190818152602001838380828437600081840152601f19601f8201169050808301925050505050505081526020014281525060106000600c548152602001908152602001600020600082015181600001556020820151816001019081610d4e9190614b80565b506040820151816002019081610d649190614b80565b506060820151816003015590505060118484604051610d84929190614a84565b9081526020016040518091039020600c5490806001815401808255809150506001900390600052602060002001600090919091909150557f104af12493094a08a9af15004754171fd42e502f3cffec40976bb4e6ecd1ae8a60106000600c548152602001908152602001600020604051610dfe9190614d87565b60405180910390a150505050565b610e14613473565b6010600083815260200190815260200160002060405180608001604052908160008201548152602001600182018054610e4c90614142565b80601f0160208091040260200160405190810160405280929190818152602001828054610e7890614142565b8015610ec55780601f10610e9a57610100808354040283529160200191610ec5565b820191906000526020600020905b815481529060010190602001808311610ea857829003601f168201915b50505050508152602001600282018054610ede90614142565b80601f0160208091040260200160405190810160405280929190818152602001828054610f0a90614142565b8015610f575780601f10610f2c57610100808354040283529160200191610f57565b820191906000526020600020905b815481529060010190602001808311610f3a57829003601f168201915b505050505081526020016003820154815250509050919050565b610f8c83838360405180602001604052806000815250611c64565b505050565b6000610f9b610a2a565b8210610fdc576040517f08c379a0000000000000000000000000000000000000000000000000000000008152600401610fd390614e1b565b60405180910390fd5b60098281548110610ff057610fef614e3b565b5b90600052602060002001549050919050565b60606000600a67ffffffffffffffff81111561102157611020613edc565b5b60405190808252806020026020018201604052801561105a57816020015b611047613473565b81526020019060019003908161103f5790505b5090506000600190505b600a81116111fe5760106000828661107c9190614e6a565b8152602001908152602001600020604051806080016040529081600082015481526020016001820180546110af90614142565b80601f01602080910402602001604051908101604052809291908181526020018280546110db90614142565b80156111285780601f106110fd57610100808354040283529160200191611128565b820191906000526020600020905b81548152906001019060200180831161110b57829003601f168201915b5050505050815260200160028201805461114190614142565b80601f016020809104026020016040519081016040528092919081815260200182805461116d90614142565b80156111ba5780601f1061118f576101008083540402835291602001916111ba565b820191906000526020600020905b81548152906001019060200180831161119d57829003601f168201915b505050505081526020016003820154815250508282815181106111e0576111df614e3b565b5b602002602001018190525080806111f690614b38565b915050611064565b5080915050919050565b606060006011848460405161121e929190614a84565b908152602001604051809103902080549050905060008167ffffffffffffffff81111561124e5761124d613edc565b5b60405190808252806020026020018201604052801561128757816020015b611274613473565b81526020019060019003908161126c5790505b50905060005b828110156114585760106000601188886040516112ab929190614a84565b908152602001604051809103902083815481106112cb576112ca614e3b565b5b906000526020600020015481526020019081526020016000206040518060800160405290816000820154815260200160018201805461130990614142565b80601f016020809104026020016040519081016040528092919081815260200182805461133590614142565b80156113825780601f1061135757610100808354040283529160200191611382565b820191906000526020600020905b81548152906001019060200180831161136557829003601f168201915b5050505050815260200160028201805461139b90614142565b80601f01602080910402602001604051908101604052809291908181526020018280546113c790614142565b80156114145780601f106113e957610100808354040283529160200191611414565b820191906000526020600020905b8154815290600101906020018083116113f757829003601f168201915b5050505050815260200160038201548152505082828151811061143a57611439614e3b565b5b6020026020010181905250808061145090614b38565b91505061128d565b50809250505092915050565b6060600d60008373ffffffffffffffffffffffffffffffffffffffff1673ffffffffffffffffffffffffffffffffffffffff1681526020019081526020016000208054806020026020016040519081016040528092919081815260200182805480156114ef57602002820191906000526020600020905b8154815260200190600101908083116114db575b50505050509050919050565b600c5481565b60008061150d83612690565b9050600073ffffffffffffffffffffffffffffffffffffffff168173ffffffffffffffffffffffffffffffffffffffff160361157e576040517f08c379a000000000000000000000000000000000000000000000000000000000815260040161157590614eea565b60405180910390fd5b80915050919050565b60008073ffffffffffffffffffffffffffffffffffffffff168273ffffffffffffffffffffffffffffffffffffffff16036115f7576040517f08c379a00000000000000000000000000000000000000000000000000000000081526004016115ee90614f7c565b60405180910390fd5b600460008373ffffffffffffffffffffffffffffffffffffffff1673ffffffffffffffffffffffffffffffffffffffff168152602001908152602001600020549050919050565b611646612612565b61165060006126cd565b565b60008060009054906101000a900473ffffffffffffffffffffffffffffffffffffffff16905090565b60606002805461168a90614142565b80601f01602080910402602001604051908101604052809291908181526020018280546116b690614142565b80156117035780601f106116d857610100808354040283529160200191611703565b820191906000526020600020905b8154815290600101906020018083116116e657829003601f168201915b5050505050905090565b61171561349b565b600e60008381526020019081526020016000206040518060a00160405290816000820160009054906101000a900473ffffffffffffffffffffffffffffffffffffffff1673ffffffffffffffffffffffffffffffffffffffff1673ffffffffffffffffffffffffffffffffffffffff16815260200160018201805461179990614142565b80601f01602080910402602001604051908101604052809291908181526020018280546117c590614142565b80156118125780601f106117e757610100808354040283529160200191611812565b820191906000526020600020905b8154815290600101906020018083116117f557829003601f168201915b5050505050815260200160028201805461182b90614142565b80601f016020809104026020016040519081016040528092919081815260200182805461185790614142565b80156118a45780601f10611879576101008083540402835291602001916118a4565b820191906000526020600020905b81548152906001019060200180831161188757829003601f168201915b505050505081526020016003820180546118bd90614142565b80601f01602080910402602001604051908101604052809291908181526020018280546118e990614142565b80156119365780601f1061190b57610100808354040283529160200191611936565b820191906000526020600020905b81548152906001019060200180831161191957829003601f168201915b5050505050815260200160048201805461194f90614142565b80601f016020809104026020016040519081016040528092919081815260200182805461197b90614142565b80156119c85780601f1061199d576101008083540402835291602001916119c8565b820191906000526020600020905b8154815290600101906020018083116119ab57829003601f168201915b5050505050815250509050919050565b6119ea6119e36121c3565b8383612791565b5050565b600e6020528060005260406000206000915090508060000160009054906101000a900473ffffffffffffffffffffffffffffffffffffffff1690806001018054611a3790614142565b80601f0160208091040260200160405190810160405280929190818152602001828054611a6390614142565b8015611ab05780601f10611a8557610100808354040283529160200191611ab0565b820191906000526020600020905b815481529060010190602001808311611a9357829003601f168201915b505050505090806002018054611ac590614142565b80601f0160208091040260200160405190810160405280929190818152602001828054611af190614142565b8015611b3e5780601f10611b1357610100808354040283529160200191611b3e565b820191906000526020600020905b815481529060010190602001808311611b2157829003601f168201915b505050505090806003018054611b5390614142565b80601f0160208091040260200160405190810160405280929190818152602001828054611b7f90614142565b8015611bcc5780601f10611ba157610100808354040283529160200191611bcc565b820191906000526020600020905b815481529060010190602001808311611baf57829003601f168201915b505050505090806004018054611be190614142565b80601f0160208091040260200160405190810160405280929190818152602001828054611c0d90614142565b8015611c5a5780601f10611c2f57610100808354040283529160200191611c5a565b820191906000526020600020905b815481529060010190602001808311611c3d57829003601f168201915b5050505050905085565b611c75611c6f6121c3565b83612284565b611cb4576040517f08c379a0000000000000000000000000000000000000000000000000000000008152600401611cab90614309565b60405180910390fd5b611cc0848484846128fd565b50505050565b6060611cd182612178565b6000611cdb612959565b90506000815111611cfb5760405180602001604052806000815250611d26565b80611d0584612970565b604051602001611d16929190614fcd565b6040516020818303038152906040525b915050919050565b600f818060200190611d40919061447a565b604051611d4e929190614a84565b908152602001604051809103902060009054906101000a900460ff16611da9576040517f08c379a0000000000000000000000000000000000000000000000000000000008152600401611da09061503d565b60405180910390fd5b3373ffffffffffffffffffffffffffffffffffffffff16816000016020810190611dd39190613c42565b73ffffffffffffffffffffffffffffffffffffffff1614611e29576040517f08c379a0000000000000000000000000000000000000000000000000000000008152600401611e20906150a9565b60405180910390fd5b600b6000815480929190611e3c90614b38565b919050555080600e6000600b5481526020019081526020016000208181611e639190614813565b9050506001600f828060200190611e7a919061447a565b604051611e88929190614a84565b908152602001604051809103902060006101000a81548160ff021916908315150217905550611ecb816000016020810190611ec39190613c42565b600b54612a3e565b600d6000826000016020810190611ee29190613c42565b73ffffffffffffffffffffffffffffffffffffffff1673ffffffffffffffffffffffffffffffffffffffff168152602001908152602001600020600b5490806001815401808255809150506001900390600052602060002001600090919091909150557f68d89ba37b6b8d0b7cb139771c573485dd925fbb3007cfb62cb832bc2a24850a81604051611f7491906150c9565b60405180910390a150565b6000600660008473ffffffffffffffffffffffffffffffffffffffff1673ffffffffffffffffffffffffffffffffffffffff16815260200190815260200160002060008373ffffffffffffffffffffffffffffffffffffffff1673ffffffffffffffffffffffffffffffffffffffff16815260200190815260200160002060009054906101000a900460ff16905092915050565b61201b612612565b600073ffffffffffffffffffffffffffffffffffffffff168173ffffffffffffffffffffffffffffffffffffffff160361208a576040517f08c379a00000000000000000000000000000000000000000000000000000000081526004016120819061515d565b60405180910390fd5b612093816126cd565b50565b60007f80ac58cd000000000000000000000000000000000000000000000000000000007bffffffffffffffffffffffffffffffffffffffffffffffffffffffff1916827bffffffffffffffffffffffffffffffffffffffffffffffffffffffff1916148061216157507f5b5e139f000000000000000000000000000000000000000000000000000000007bffffffffffffffffffffffffffffffffffffffffffffffffffffffff1916827bffffffffffffffffffffffffffffffffffffffffffffffffffffffff1916145b80612171575061217082612c5b565b5b9050919050565b61218181612cc5565b6121c0576040517f08c379a00000000000000000000000000000000000000000000000000000000081526004016121b790614eea565b60405180910390fd5b50565b600033905090565b816005600083815260200190815260200160002060006101000a81548173ffffffffffffffffffffffffffffffffffffffff021916908373ffffffffffffffffffffffffffffffffffffffff160217905550808273ffffffffffffffffffffffffffffffffffffffff1661223e83611501565b73ffffffffffffffffffffffffffffffffffffffff167f8c5be1e5ebec7d5bd14f71427d1e84f3dd0314c0f7b2291e5b200ac8c7c3b92560405160405180910390a45050565b60008061229083611501565b90508073ffffffffffffffffffffffffffffffffffffffff168473ffffffffffffffffffffffffffffffffffffffff1614806122d257506122d18185611f7f565b5b8061231057508373ffffffffffffffffffffffffffffffffffffffff166122f884610787565b73ffffffffffffffffffffffffffffffffffffffff16145b91505092915050565b8273ffffffffffffffffffffffffffffffffffffffff1661233982611501565b73ffffffffffffffffffffffffffffffffffffffff161461238f576040517f08c379a0000000000000000000000000000000000000000000000000000000008152600401612386906151ef565b60405180910390fd5b600073ffffffffffffffffffffffffffffffffffffffff168273ffffffffffffffffffffffffffffffffffffffff16036123fe576040517f08c379a00000000000000000000000000000000000000000000000000000000081526004016123f590615281565b60405180910390fd5b61240b8383836001612d06565b8273ffffffffffffffffffffffffffffffffffffffff1661242b82611501565b73ffffffffffffffffffffffffffffffffffffffff1614612481576040517f08c379a0000000000000000000000000000000000000000000000000000000008152600401612478906151ef565b60405180910390fd5b6005600082815260200190815260200160002060006101000a81549073ffffffffffffffffffffffffffffffffffffffff02191690556001600460008573ffffffffffffffffffffffffffffffffffffffff1673ffffffffffffffffffffffffffffffffffffffff168152602001908152602001600020600082825403925050819055506001600460008473ffffffffffffffffffffffffffffffffffffffff1673ffffffffffffffffffffffffffffffffffffffff16815260200190815260200160002060008282540192505081905550816003600083815260200190815260200160002060006101000a81548173ffffffffffffffffffffffffffffffffffffffff021916908373ffffffffffffffffffffffffffffffffffffffff160217905550808273ffffffffffffffffffffffffffffffffffffffff168473ffffffffffffffffffffffffffffffffffffffff167fddf252ad1be2c89b69c2b068fc378daa952ba7f163c4a11628f55a4df523b3ef60405160405180910390a461260d8383836001612e64565b505050565b61261a6121c3565b73ffffffffffffffffffffffffffffffffffffffff16612638611652565b73ffffffffffffffffffffffffffffffffffffffff161461268e576040517f08c379a0000000000000000000000000000000000000000000000000000000008152600401612685906152ed565b60405180910390fd5b565b60006003600083815260200190815260200160002060009054906101000a900473ffffffffffffffffffffffffffffffffffffffff169050919050565b60008060009054906101000a900473ffffffffffffffffffffffffffffffffffffffff169050816000806101000a81548173ffffffffffffffffffffffffffffffffffffffff021916908373ffffffffffffffffffffffffffffffffffffffff1602179055508173ffffffffffffffffffffffffffffffffffffffff168173ffffffffffffffffffffffffffffffffffffffff167f8be0079c531659141344cd1fd0a4f28419497f9722a3daafe3b4186f6b6457e060405160405180910390a35050565b8173ffffffffffffffffffffffffffffffffffffffff168373ffffffffffffffffffffffffffffffffffffffff16036127ff576040517f08c379a00000000000000000000000000000000000000000000000000000000081526004016127f690615359565b60405180910390fd5b80600660008573ffffffffffffffffffffffffffffffffffffffff1673ffffffffffffffffffffffffffffffffffffffff16815260200190815260200160002060008473ffffffffffffffffffffffffffffffffffffffff1673ffffffffffffffffffffffffffffffffffffffff16815260200190815260200160002060006101000a81548160ff0219169083151502179055508173ffffffffffffffffffffffffffffffffffffffff168373ffffffffffffffffffffffffffffffffffffffff167f17307eab39ab6107e8899845ad3d59bd9653f200f220920489ca2b5937696c31836040516128f09190613594565b60405180910390a3505050565b612908848484612319565b61291484848484612e6a565b612953576040517f08c379a000000000000000000000000000000000000000000000000000000000815260040161294a906153eb565b60405180910390fd5b50505050565b606060405180602001604052806000815250905090565b60606000600161297f84612ff1565b01905060008167ffffffffffffffff81111561299e5761299d613edc565b5b6040519080825280601f01601f1916602001820160405280156129d05781602001600182028036833780820191505090505b509050600082602001820190505b600115612a33578080600190039150507f3031323334353637383961626364656600000000000000000000000000000000600a86061a8153600a8581612a2757612a2661540b565b5b049450600085036129de575b819350505050919050565b600073ffffffffffffffffffffffffffffffffffffffff168273ffffffffffffffffffffffffffffffffffffffff1603612aad576040517f08c379a0000000000000000000000000000000000000000000000000000000008152600401612aa490615486565b60405180910390fd5b612ab681612cc5565b15612af6576040517f08c379a0000000000000000000000000000000000000000000000000000000008152600401612aed906154f2565b60405180910390fd5b612b04600083836001612d06565b612b0d81612cc5565b15612b4d576040517f08c379a0000000000000000000000000000000000000000000000000000000008152600401612b44906154f2565b60405180910390fd5b6001600460008473ffffffffffffffffffffffffffffffffffffffff1673ffffffffffffffffffffffffffffffffffffffff16815260200190815260200160002060008282540192505081905550816003600083815260200190815260200160002060006101000a81548173ffffffffffffffffffffffffffffffffffffffff021916908373ffffffffffffffffffffffffffffffffffffffff160217905550808273ffffffffffffffffffffffffffffffffffffffff16600073ffffffffffffffffffffffffffffffffffffffff167fddf252ad1be2c89b69c2b068fc378daa952ba7f163c4a11628f55a4df523b3ef60405160405180910390a4612c57600083836001612e64565b5050565b60007f01ffc9a7000000000000000000000000000000000000000000000000000000007bffffffffffffffffffffffffffffffffffffffffffffffffffffffff1916827bffffffffffffffffffffffffffffffffffffffffffffffffffffffff1916149050919050565b60008073ffffffffffffffffffffffffffffffffffffffff16612ce783612690565b73ffffffffffffffffffffffffffffffffffffffff1614159050919050565b612d1284848484613144565b6001811115612d56576040517f08c379a0000000000000000000000000000000000000000000000000000000008152600401612d4d90615584565b60405180910390fd5b6000829050600073ffffffffffffffffffffffffffffffffffffffff168573ffffffffffffffffffffffffffffffffffffffff1603612d9d57612d988161314a565b612ddc565b8373ffffffffffffffffffffffffffffffffffffffff168573ffffffffffffffffffffffffffffffffffffffff1614612ddb57612dda8582613193565b5b5b600073ffffffffffffffffffffffffffffffffffffffff168473ffffffffffffffffffffffffffffffffffffffff1603612e1e57612e1981613300565b612e5d565b8473ffffffffffffffffffffffffffffffffffffffff168473ffffffffffffffffffffffffffffffffffffffff1614612e5c57612e5b84826133d1565b5b5b5050505050565b50505050565b6000612e8b8473ffffffffffffffffffffffffffffffffffffffff16613450565b15612fe4578373ffffffffffffffffffffffffffffffffffffffff1663150b7a02612eb46121c3565b8786866040518563ffffffff1660e01b8152600401612ed694939291906155f9565b6020604051808303816000875af1925050508015612f1257506040513d601f19601f82011682018060405250810190612f0f919061565a565b60015b612f94573d8060008114612f42576040519150601f19603f3d011682016040523d82523d6000602084013e612f47565b606091505b506000815103612f8c576040517f08c379a0000000000000000000000000000000000000000000000000000000008152600401612f83906153eb565b60405180910390fd5b805181602001fd5b63150b7a0260e01b7bffffffffffffffffffffffffffffffffffffffffffffffffffffffff1916817bffffffffffffffffffffffffffffffffffffffffffffffffffffffff191614915050612fe9565b600190505b949350505050565b600080600090507a184f03e93ff9f4daa797ed6e38ed64bf6a1f010000000000000000831061304f577a184f03e93ff9f4daa797ed6e38ed64bf6a1f01000000000000000083816130455761304461540b565b5b0492506040810190505b6d04ee2d6d415b85acef8100000000831061308c576d04ee2d6d415b85acef810000000083816130825761308161540b565b5b0492506020810190505b662386f26fc1000083106130bb57662386f26fc1000083816130b1576130b061540b565b5b0492506010810190505b6305f5e10083106130e4576305f5e10083816130da576130d961540b565b5b0492506008810190505b61271083106131095761271083816130ff576130fe61540b565b5b0492506004810190505b6064831061312c57606483816131225761312161540b565b5b0492506002810190505b600a831061313b576001810190505b80915050919050565b50505050565b600980549050600a600083815260200190815260200160002081905550600981908060018154018082558091505060019003906000526020600020016000909190919091505550565b600060016131a084611587565b6131aa9190615687565b905060006008600084815260200190815260200160002054905081811461328f576000600760008673ffffffffffffffffffffffffffffffffffffffff1673ffffffffffffffffffffffffffffffffffffffff168152602001908152602001600020600084815260200190815260200160002054905080600760008773ffffffffffffffffffffffffffffffffffffffff1673ffffffffffffffffffffffffffffffffffffffff168152602001908152602001600020600084815260200190815260200160002081905550816008600083815260200190815260200160002081905550505b6008600084815260200190815260200160002060009055600760008573ffffffffffffffffffffffffffffffffffffffff1673ffffffffffffffffffffffffffffffffffffffff16815260200190815260200160002060008381526020019081526020016000206000905550505050565b600060016009805490506133149190615687565b90506000600a600084815260200190815260200160002054905060006009838154811061334457613343614e3b565b5b90600052602060002001549050806009838154811061336657613365614e3b565b5b906000526020600020018190555081600a600083815260200190815260200160002081905550600a60008581526020019081526020016000206000905560098054806133b5576133b46156bb565b5b6001900381819060005260206000200160009055905550505050565b60006133dc83611587565b905081600760008573ffffffffffffffffffffffffffffffffffffffff1673ffffffffffffffffffffffffffffffffffffffff168152602001908152602001600020600083815260200190815260200160002081905550806008600084815260200190815260200160002081905550505050565b6000808273ffffffffffffffffffffffffffffffffffffffff163b119050919050565b6040518060800160405280600081526020016060815260200160608152602001600081525090565b6040518060a00160405280600073ffffffffffffffffffffffffffffffffffffffff168152602001606081526020016060815260200160608152602001606081525090565b6000604051905090565b600080fd5b600080fd5b60007fffffffff0000000000000000000000000000000000000000000000000000000082169050919050565b613529816134f4565b811461353457600080fd5b50565b60008135905061354681613520565b92915050565b600060208284031215613562576135616134ea565b5b600061357084828501613537565b91505092915050565b60008115159050919050565b61358e81613579565b82525050565b60006020820190506135a96000830184613585565b92915050565b600081519050919050565b600082825260208201905092915050565b60005b838110156135e95780820151818401526020810190506135ce565b60008484015250505050565b6000601f19601f8301169050919050565b6000613611826135af565b61361b81856135ba565b935061362b8185602086016135cb565b613634816135f5565b840191505092915050565b600060208201905081810360008301526136598184613606565b905092915050565b6000819050919050565b61367481613661565b811461367f57600080fd5b50565b6000813590506136918161366b565b92915050565b6000602082840312156136ad576136ac6134ea565b5b60006136bb84828501613682565b91505092915050565b600073ffffffffffffffffffffffffffffffffffffffff82169050919050565b60006136ef826136c4565b9050919050565b6136ff816136e4565b82525050565b600060208201905061371a60008301846136f6565b92915050565b61372981613661565b82525050565b60006020820190506137446000830184613720565b92915050565b613753816136e4565b811461375e57600080fd5b50565b6000813590506137708161374a565b92915050565b6000806040838503121561378d5761378c6134ea565b5b600061379b85828601613761565b92505060206137ac85828601613682565b9150509250929050565b60006080820190506137cb6000830187613720565b81810360208301526137dd8186613606565b905081810360408301526137f18185613606565b90506138006060830184613720565b95945050505050565b600080600060608486031215613822576138216134ea565b5b600061383086828701613761565b935050602061384186828701613761565b925050604061385286828701613682565b9150509250925092565b600080fd5b600060a082840312156138775761387661385c565b5b81905092915050565b60008060408385031215613897576138966134ea565b5b60006138a585828601613682565b925050602083013567ffffffffffffffff8111156138c6576138c56134ef565b5b6138d285828601613861565b9150509250929050565b600080fd5b600080fd5b600080fd5b60008083601f840112613901576139006138dc565b5b8235905067ffffffffffffffff81111561391e5761391d6138e1565b5b60208301915083600182028301111561393a576139396138e6565b5b9250929050565b6000806000806040858703121561395b5761395a6134ea565b5b600085013567ffffffffffffffff811115613979576139786134ef565b5b613985878288016138eb565b9450945050602085013567ffffffffffffffff8111156139a8576139a76134ef565b5b6139b4878288016138eb565b925092505092959194509250565b6139cb81613661565b82525050565b600082825260208201905092915050565b60006139ed826135af565b6139f781856139d1565b9350613a078185602086016135cb565b613a10816135f5565b840191505092915050565b6000608083016000830151613a3360008601826139c2565b5060208301518482036020860152613a4b82826139e2565b91505060408301518482036040860152613a6582826139e2565b9150506060830151613a7a60608601826139c2565b508091505092915050565b60006020820190508181036000830152613a9f8184613a1b565b905092915050565b600081519050919050565b600082825260208201905092915050565b6000819050602082019050919050565b6000608083016000830151613aeb60008601826139c2565b5060208301518482036020860152613b0382826139e2565b91505060408301518482036040860152613b1d82826139e2565b9150506060830151613b3260608601826139c2565b508091505092915050565b6000613b498383613ad3565b905092915050565b6000602082019050919050565b6000613b6982613aa7565b613b738185613ab2565b935083602082028501613b8585613ac3565b8060005b85811015613bc15784840389528151613ba28582613b3d565b9450613bad83613b51565b925060208a01995050600181019050613b89565b50829750879550505050505092915050565b60006020820190508181036000830152613bed8184613b5e565b905092915050565b60008060208385031215613c0c57613c0b6134ea565b5b600083013567ffffffffffffffff811115613c2a57613c296134ef565b5b613c36858286016138eb565b92509250509250929050565b600060208284031215613c5857613c576134ea565b5b6000613c6684828501613761565b91505092915050565b600081519050919050565b600082825260208201905092915050565b6000819050602082019050919050565b6000613ca783836139c2565b60208301905092915050565b6000602082019050919050565b6000613ccb82613c6f565b613cd58185613c7a565b9350613ce083613c8b565b8060005b83811015613d11578151613cf88882613c9b565b9750613d0383613cb3565b925050600181019050613ce4565b5085935050505092915050565b60006020820190508181036000830152613d388184613cc0565b905092915050565b613d49816136e4565b82525050565b600060a083016000830151613d676000860182613d40565b5060208301518482036020860152613d7f82826139e2565b91505060408301518482036040860152613d9982826139e2565b91505060608301518482036060860152613db382826139e2565b91505060808301518482036080860152613dcd82826139e2565b9150508091505092915050565b60006020820190508181036000830152613df48184613d4f565b905092915050565b613e0581613579565b8114613e1057600080fd5b50565b600081359050613e2281613dfc565b92915050565b60008060408385031215613e3f57613e3e6134ea565b5b6000613e4d85828601613761565b9250506020613e5e85828601613e13565b9150509250929050565b600060a082019050613e7d60008301886136f6565b8181036020830152613e8f8187613606565b90508181036040830152613ea38186613606565b90508181036060830152613eb78185613606565b90508181036080830152613ecb8184613606565b90509695505050505050565b600080fd5b7f4e487b7100000000000000000000000000000000000000000000000000000000600052604160045260246000fd5b613f14826135f5565b810181811067ffffffffffffffff82111715613f3357613f32613edc565b5b80604052505050565b6000613f466134e0565b9050613f528282613f0b565b919050565b600067ffffffffffffffff821115613f7257613f71613edc565b5b613f7b826135f5565b9050602081019050919050565b82818337600083830152505050565b6000613faa613fa584613f57565b613f3c565b905082815260208101848484011115613fc657613fc5613ed7565b5b613fd1848285613f88565b509392505050565b600082601f830112613fee57613fed6138dc565b5b8135613ffe848260208601613f97565b91505092915050565b60008060008060808587031215614021576140206134ea565b5b600061402f87828801613761565b945050602061404087828801613761565b935050604061405187828801613682565b925050606085013567ffffffffffffffff811115614072576140716134ef565b5b61407e87828801613fd9565b91505092959194509250565b6000602082840312156140a05761409f6134ea565b5b600082013567ffffffffffffffff8111156140be576140bd6134ef565b5b6140ca84828501613861565b91505092915050565b600080604083850312156140ea576140e96134ea565b5b60006140f885828601613761565b925050602061410985828601613761565b9150509250929050565b7f4e487b7100000000000000000000000000000000000000000000000000000000600052602260045260246000fd5b6000600282049050600182168061415a57607f821691505b60208210810361416d5761416c614113565b5b50919050565b7f4552433732313a20617070726f76616c20746f2063757272656e74206f776e6560008201527f7200000000000000000000000000000000000000000000000000000000000000602082015250565b60006141cf6021836135ba565b91506141da82614173565b604082019050919050565b600060208201905081810360008301526141fe816141c2565b9050919050565b7f4552433732313a20617070726f76652063616c6c6572206973206e6f7420746f60008201527f6b656e206f776e6572206f7220617070726f76656420666f7220616c6c000000602082015250565b6000614261603d836135ba565b915061426c82614205565b604082019050919050565b6000602082019050818103600083015261429081614254565b9050919050565b7f4552433732313a2063616c6c6572206973206e6f7420746f6b656e206f776e6560008201527f72206f7220617070726f76656400000000000000000000000000000000000000602082015250565b60006142f3602d836135ba565b91506142fe82614297565b604082019050919050565b60006020820190508181036000830152614322816142e6565b9050919050565b7f496e76616c69642070726f66696c652049440000000000000000000000000000600082015250565b600061435f6012836135ba565b915061436a82614329565b602082019050919050565b6000602082019050818103600083015261438e81614352565b9050919050565b600081356143a28161374a565b80915050919050565b60008160001b9050919050565b600073ffffffffffffffffffffffffffffffffffffffff6143d8846143ab565b9350801983169250808416831791505092915050565b6000819050919050565b600061441361440e614409846136c4565b6143ee565b6136c4565b9050919050565b6000614425826143f8565b9050919050565b60006144378261441a565b9050919050565b6000819050919050565b6144518261442c565b61446461445d8261443e565b83546143b8565b8255505050565b600080fd5b600080fd5b600080fd5b600080833560016020038436030381126144975761449661446b565b5b80840192508235915067ffffffffffffffff8211156144b9576144b8614470565b5b6020830192506001820236038313156144d5576144d4614475565b5b509250929050565b600082905092915050565b60008190508160005260206000209050919050565b60006020601f8301049050919050565b600082821b905092915050565b60006008830261454a7fffffffffffffffffffffffffffffffffffffffffffffffffffffffffffffffff8261450d565b614554868361450d565b95508019841693508086168417925050509392505050565b600061458761458261457d84613661565b6143ee565b613661565b9050919050565b6000819050919050565b6145a18361456c565b6145b56145ad8261458e565b84845461451a565b825550505050565b600090565b6145ca6145bd565b6145d5818484614598565b505050565b5b818110156145f9576145ee6000826145c2565b6001810190506145db565b5050565b601f82111561463e5761460f816144e8565b614618846144fd565b81016020851015614627578190505b61463b614633856144fd565b8301826145da565b50505b505050565b600082821c905092915050565b600061466160001984600802614643565b1980831691505092915050565b600061467a8383614650565b9150826002028217905092915050565b61469483836144dd565b67ffffffffffffffff8111156146ad576146ac613edc565b5b6146b78254614142565b6146c28282856145fd565b6000601f8311600181146146f157600084156146df578287013590505b6146e9858261466e565b865550614751565b601f1984166146ff866144e8565b60005b8281101561472757848901358255600182019150602085019450602081019050614702565b868310156147445784890135614740601f891682614650565b8355505b6001600288020188555050505b50505050505050565b61476583838361468a565b505050565b60008101600083018061477c81614395565b90506147888184614448565b505050600181016020830161479d818561447a565b6147a881838661475a565b5050505060028101604083016147be818561447a565b6147c981838661475a565b5050505060038101606083016147df818561447a565b6147ea81838661475a565b505050506004810160808301614800818561447a565b61480b81838661475a565b505050505050565b61481d828261476a565b5050565b60006148306020840184613761565b905092915050565b600080fd5b600080fd5b600080fd5b6000808335600160200384360303811261486457614863614842565b5b83810192508235915060208301925067ffffffffffffffff82111561488c5761488b614838565b5b6001820236038313156148a2576148a161483d565b5b509250929050565b60006148b683856139d1565b93506148c3838584613f88565b6148cc836135f5565b840190509392505050565b600060a083016148ea6000840184614821565b6148f76000860182613d40565b506149056020840184614847565b85830360208701526149188382846148aa565b925050506149296040840184614847565b858303604087015261493c8382846148aa565b9250505061494d6060840184614847565b85830360608701526149608382846148aa565b925050506149716080840184614847565b85830360808701526149848382846148aa565b925050508091505092915050565b60006040820190506149a76000830185613720565b81810360208301526149b981846148d7565b90509392505050565b7f455243373231456e756d657261626c653a206f776e657220696e646578206f7560008201527f74206f6620626f756e6473000000000000000000000000000000000000000000602082015250565b6000614a1e602b836135ba565b9150614a29826149c2565b604082019050919050565b60006020820190508181036000830152614a4d81614a11565b9050919050565b600081905092915050565b6000614a6b8385614a54565b9350614a78838584613f88565b82840190509392505050565b6000614a91828486614a5f565b91508190509392505050565b7f48616e646c65206e6f7420666f756e6400000000000000000000000000000000600082015250565b6000614ad36010836135ba565b9150614ade82614a9d565b602082019050919050565b60006020820190508181036000830152614b0281614ac6565b9050919050565b7f4e487b7100000000000000000000000000000000000000000000000000000000600052601160045260246000fd5b6000614b4382613661565b91507fffffffffffffffffffffffffffffffffffffffffffffffffffffffffffffffff8203614b7557614b74614b09565b5b600182019050919050565b614b89826135af565b67ffffffffffffffff811115614ba257614ba1613edc565b5b614bac8254614142565b614bb78282856145fd565b600060209050601f831160018114614bea5760008415614bd8578287015190505b614be2858261466e565b865550614c4a565b601f198416614bf8866144e8565b60005b82811015614c2057848901518255600182019150602085019450602081019050614bfb565b86831015614c3d5784890151614c39601f891682614650565b8355505b6001600288020188555050505b505050505050565b60008160001c9050919050565b6000819050919050565b6000614c7c614c7783614c52565b614c5f565b9050919050565b60008154614c9081614142565b614c9a81866139d1565b94506001821660008114614cb55760018114614ccb57614cfe565b60ff198316865281151560200286019350614cfe565b614cd4856144e8565b60005b83811015614cf657815481890152600182019150602081019050614cd7565b808801955050505b50505092915050565b6000608083016000808401549050614d1e81614c69565b614d2b60008701826139c2565b50600184018583036020870152614d428382614c83565b925050600284018583036040870152614d5b8382614c83565b92505060038401549050614d6e81614c69565b614d7b60608701826139c2565b50819250505092915050565b60006020820190508181036000830152614da18184614d07565b905092915050565b7f455243373231456e756d657261626c653a20676c6f62616c20696e646578206f60008201527f7574206f6620626f756e64730000000000000000000000000000000000000000602082015250565b6000614e05602c836135ba565b9150614e1082614da9565b604082019050919050565b60006020820190508181036000830152614e3481614df8565b9050919050565b7f4e487b7100000000000000000000000000000000000000000000000000000000600052603260045260246000fd5b6000614e7582613661565b9150614e8083613661565b9250828201905080821115614e9857614e97614b09565b5b92915050565b7f4552433732313a20696e76616c696420746f6b656e2049440000000000000000600082015250565b6000614ed46018836135ba565b9150614edf82614e9e565b602082019050919050565b60006020820190508181036000830152614f0381614ec7565b9050919050565b7f4552433732313a2061646472657373207a65726f206973206e6f74206120766160008201527f6c6964206f776e65720000000000000000000000000000000000000000000000602082015250565b6000614f666029836135ba565b9150614f7182614f0a565b604082019050919050565b60006020820190508181036000830152614f9581614f59565b9050919050565b6000614fa7826135af565b614fb18185614a54565b9350614fc18185602086016135cb565b80840191505092915050565b6000614fd98285614f9c565b9150614fe58284614f9c565b91508190509392505050565b7f48616e646c6520616c7265616479206578697374730000000000000000000000600082015250565b60006150276015836135ba565b915061503282614ff1565b602082019050919050565b600060208201905081810360008301526150568161501a565b9050919050565b7f4f776e657220646966666572656e742066726f6d206d73672e73656e64657200600082015250565b6000615093601f836135ba565b915061509e8261505d565b602082019050919050565b600060208201905081810360008301526150c281615086565b9050919050565b600060208201905081810360008301526150e381846148d7565b905092915050565b7f4f776e61626c653a206e6577206f776e657220697320746865207a65726f206160008201527f6464726573730000000000000000000000000000000000000000000000000000602082015250565b60006151476026836135ba565b9150615152826150eb565b604082019050919050565b600060208201905081810360008301526151768161513a565b9050919050565b7f4552433732313a207472616e736665722066726f6d20696e636f72726563742060008201527f6f776e6572000000000000000000000000000000000000000000000000000000602082015250565b60006151d96025836135ba565b91506151e48261517d565b604082019050919050565b60006020820190508181036000830152615208816151cc565b9050919050565b7f4552433732313a207472616e7366657220746f20746865207a65726f2061646460008201527f7265737300000000000000000000000000000000000000000000000000000000602082015250565b600061526b6024836135ba565b91506152768261520f565b604082019050919050565b6000602082019050818103600083015261529a8161525e565b9050919050565b7f4f776e61626c653a2063616c6c6572206973206e6f7420746865206f776e6572600082015250565b60006152d76020836135ba565b91506152e2826152a1565b602082019050919050565b60006020820190508181036000830152615306816152ca565b9050919050565b7f4552433732313a20617070726f766520746f2063616c6c657200000000000000600082015250565b60006153436019836135ba565b915061534e8261530d565b602082019050919050565b6000602082019050818103600083015261537281615336565b9050919050565b7f4552433732313a207472616e7366657220746f206e6f6e20455243373231526560008201527f63656976657220696d706c656d656e7465720000000000000000000000000000602082015250565b60006153d56032836135ba565b91506153e082615379565b604082019050919050565b60006020820190508181036000830152615404816153c8565b9050919050565b7f4e487b7100000000000000000000000000000000000000000000000000000000600052601260045260246000fd5b7f4552433732313a206d696e7420746f20746865207a65726f2061646472657373600082015250565b60006154706020836135ba565b915061547b8261543a565b602082019050919050565b6000602082019050818103600083015261549f81615463565b9050919050565b7f4552433732313a20746f6b656e20616c7265616479206d696e74656400000000600082015250565b60006154dc601c836135ba565b91506154e7826154a6565b602082019050919050565b6000602082019050818103600083015261550b816154cf565b9050919050565b7f455243373231456e756d657261626c653a20636f6e736563757469766520747260008201527f616e7366657273206e6f7420737570706f727465640000000000000000000000602082015250565b600061556e6035836135ba565b915061557982615512565b604082019050919050565b6000602082019050818103600083015261559d81615561565b9050919050565b600081519050919050565b600082825260208201905092915050565b60006155cb826155a4565b6155d581856155af565b93506155e58185602086016135cb565b6155ee816135f5565b840191505092915050565b600060808201905061560e60008301876136f6565b61561b60208301866136f6565b6156286040830185613720565b818103606083015261563a81846155c0565b905095945050505050565b60008151905061565481613520565b92915050565b6000602082840312156156705761566f6134ea565b5b600061567e84828501615645565b91505092915050565b600061569282613661565b915061569d83613661565b92508282039050818111156156b5576156b4614b09565b5b92915050565b7f4e487b7100000000000000000000000000000000000000000000000000000000600052603160045260246000fdfea26469706673582212205c85163c8d1a1c21077f8c837bd8df69d76a99b299ae2d061358c6fce40dede564736f6c63430008130033",
  "linkReferences": {},
  "deployedLinkReferences": {}
}