{
  "_format": "hh-sol-artifact-1",
  "contractName": "SocialWeb3",
  "sourceName": "contracts/SocialWeb3.sol",
  "abi": [
    {
      "inputs": [
        {
          "internalType": "string",
          "name": "baseURI",
          "type": "string"
        }
      ],
      "stateMutability": "nonpayable",
      "type": "constructor"
    },
    {
      "anonymous": false,
      "inputs": [
        {
          "indexed": true,
          "internalType": "address",
          "name": "owner",
          "type": "address"
        },
        {
          "indexed": true,
          "internalType": "address",
          "name": "approved",
          "type": "address"
        },
        {
          "indexed": true,
          "internalType": "uint256",
          "name": "tokenId",
          "type": "uint256"
        }
      ],
      "name": "Approval",
      "type": "event"
    },
    {
      "anonymous": false,
      "inputs": [
        {
          "indexed": true,
          "internalType": "address",
          "name": "owner",
          "type": "address"
        },
        {
          "indexed": true,
          "internalType": "address",
          "name": "operator",
          "type": "address"
        },
        {
          "indexed": false,
          "internalType": "bool",
          "name": "approved",
          "type": "bool"
        }
      ],
      "name": "ApprovalForAll",
      "type": "event"
    },
    {
      "anonymous": false,
      "inputs": [
        {
          "components": [
            {
              "internalType": "uint256",
              "name": "postId",
              "type": "uint256"
            },
            {
              "internalType": "string",
              "name": "handle",
              "type": "string"
            },
            {
              "internalType": "string",
              "name": "content",
              "type": "string"
            },
            {
              "internalType": "uint256",
              "name": "timestamp",
              "type": "uint256"
            }
          ],
          "indexed": false,
          "internalType": "struct SocialWeb3.Post",
          "name": "post",
          "type": "tuple"
        }
      ],
      "name": "CreatePost",
      "type": "event"
    },
    {
      "anonymous": false,
      "inputs": [
        {
          "components": [
            {
              "internalType": "address",
              "name": "owner",
              "type": "address"
            },
            {
              "internalType": "string",
              "name": "handle",
              "type": "string"
            },
            {
              "internalType": "string",
              "name": "name",
              "type": "string"
            },
            {
              "internalType": "string",
              "name": "imageURI",
              "type": "string"
            },
            {
              "internalType": "string",
              "name": "bio",
              "type": "string"
            }
          ],
          "indexed": false,
          "internalType": "struct Profile.ProfileNFTData",
          "name": "profileNFTData",
          "type": "tuple"
        }
      ],
      "name": "CreateProfileNFT",
      "type": "event"
    },
    {
      "anonymous": false,
      "inputs": [
        {
          "indexed": true,
          "internalType": "address",
          "name": "previousOwner",
          "type": "address"
        },
        {
          "indexed": true,
          "internalType": "address",
          "name": "newOwner",
          "type": "address"
        }
      ],
      "name": "OwnershipTransferred",
      "type": "event"
    },
    {
      "anonymous": false,
      "inputs": [
        {
          "indexed": true,
          "internalType": "address",
          "name": "from",
          "type": "address"
        },
        {
          "indexed": true,
          "internalType": "address",
          "name": "to",
          "type": "address"
        },
        {
          "indexed": true,
          "internalType": "uint256",
          "name": "tokenId",
          "type": "uint256"
        }
      ],
      "name": "Transfer",
      "type": "event"
    },
    {
      "anonymous": false,
      "inputs": [
        {
          "indexed": false,
          "internalType": "uint256",
          "name": "profileId",
          "type": "uint256"
        },
        {
          "components": [
            {
              "internalType": "address",
              "name": "owner",
              "type": "address"
            },
            {
              "internalType": "string",
              "name": "handle",
              "type": "string"
            },
            {
              "internalType": "string",
              "name": "name",
              "type": "string"
            },
            {
              "internalType": "string",
              "name": "imageURI",
              "type": "string"
            },
            {
              "internalType": "string",
              "name": "bio",
              "type": "string"
            }
          ],
          "indexed": false,
          "internalType": "struct Profile.ProfileNFTData",
          "name": "profileData",
          "type": "tuple"
        }
      ],
      "name": "UpdateProfile",
      "type": "event"
    },
    {
      "inputs": [],
      "name": "_paused",
      "outputs": [
        {
          "internalType": "bool",
          "name": "",
          "type": "bool"
        }
      ],
      "stateMutability": "view",
      "type": "function"
    },
    {
      "inputs": [],
      "name": "_price",
      "outputs": [
        {
          "internalType": "uint256",
          "name": "",
          "type": "uint256"
        }
      ],
      "stateMutability": "view",
      "type": "function"
    },
    {
      "inputs": [
        {
          "internalType": "address",
          "name": "to",
          "type": "address"
        },
        {
          "internalType": "uint256",
          "name": "tokenId",
          "type": "uint256"
        }
      ],
      "name": "approve",
      "outputs": [],
      "stateMutability": "nonpayable",
      "type": "function"
    },
    {
      "inputs": [
        {
          "internalType": "address",
          "name": "owner",
          "type": "address"
        }
      ],
      "name": "balanceOf",
      "outputs": [
        {
          "internalType": "uint256",
          "name": "",
          "type": "uint256"
        }
      ],
      "stateMutability": "view",
      "type": "function"
    },
    {
      "inputs": [
        {
          "internalType": "string",
          "name": "_handle",
          "type": "string"
        },
        {
          "internalType": "string",
          "name": "_content",
          "type": "string"
        }
      ],
      "name": "createPost",
      "outputs": [],
      "stateMutability": "nonpayable",
      "type": "function"
    },
    {
      "inputs": [
        {
          "components": [
            {
              "internalType": "address",
              "name": "owner",
              "type": "address"
            },
            {
              "internalType": "string",
              "name": "handle",
              "type": "string"
            },
            {
              "internalType": "string",
              "name": "name",
              "type": "string"
            },
            {
              "internalType": "string",
              "name": "imageURI",
              "type": "string"
            },
            {
              "internalType": "string",
              "name": "bio",
              "type": "string"
            }
          ],
          "internalType": "struct Profile.ProfileNFTData",
          "name": "_profileNFTData",
          "type": "tuple"
        }
      ],
      "name": "createProfileNFT",
      "outputs": [],
      "stateMutability": "payable",
      "type": "function"
    },
    {
      "inputs": [],
      "name": "getAllProfileNFTData",
      "outputs": [
        {
          "components": [
            {
              "internalType": "address",
              "name": "owner",
              "type": "address"
            },
            {
              "internalType": "string",
              "name": "handle",
              "type": "string"
            },
            {
              "internalType": "string",
              "name": "name",
              "type": "string"
            },
            {
              "internalType": "string",
              "name": "imageURI",
              "type": "string"
            },
            {
              "internalType": "string",
              "name": "bio",
              "type": "string"
            }
          ],
          "internalType": "struct Profile.ProfileNFTData[]",
          "name": "",
          "type": "tuple[]"
        }
      ],
      "stateMutability": "view",
      "type": "function"
    },
    {
      "inputs": [
        {
          "internalType": "uint256",
          "name": "tokenId",
          "type": "uint256"
        }
      ],
      "name": "getApproved",
      "outputs": [
        {
          "internalType": "address",
          "name": "",
          "type": "address"
        }
      ],
      "stateMutability": "view",
      "type": "function"
    },
    {
      "inputs": [
        {
          "internalType": "uint256",
          "name": "_postId",
          "type": "uint256"
        }
      ],
      "name": "getPost",
      "outputs": [
        {
          "components": [
            {
              "internalType": "uint256",
              "name": "postId",
              "type": "uint256"
            },
            {
              "internalType": "string",
              "name": "handle",
              "type": "string"
            },
            {
              "internalType": "string",
              "name": "content",
              "type": "string"
            },
            {
              "internalType": "uint256",
              "name": "timestamp",
              "type": "uint256"
            }
          ],
          "internalType": "struct SocialWeb3.Post",
          "name": "",
          "type": "tuple"
        }
      ],
      "stateMutability": "view",
      "type": "function"
    },
    {
      "inputs": [
        {
          "internalType": "uint256",
          "name": "_number",
          "type": "uint256"
        }
      ],
      "name": "getPostWithNumber",
      "outputs": [
        {
          "components": [
            {
              "internalType": "uint256",
              "name": "postId",
              "type": "uint256"
            },
            {
              "internalType": "string",
              "name": "handle",
              "type": "string"
            },
            {
              "internalType": "string",
              "name": "content",
              "type": "string"
            },
            {
              "internalType": "uint256",
              "name": "timestamp",
              "type": "uint256"
            }
          ],
          "internalType": "struct SocialWeb3.Post[]",
          "name": "",
          "type": "tuple[]"
        }
      ],
      "stateMutability": "view",
      "type": "function"
    },
    {
      "inputs": [
        {
          "internalType": "uint256",
          "name": "_profileId",
          "type": "uint256"
        }
      ],
      "name": "getProfileNFTData",
      "outputs": [
        {
          "components": [
            {
              "internalType": "address",
              "name": "owner",
              "type": "address"
            },
            {
              "internalType": "string",
              "name": "handle",
              "type": "string"
            },
            {
              "internalType": "string",
              "name": "name",
              "type": "string"
            },
            {
              "internalType": "string",
              "name": "imageURI",
              "type": "string"
            },
            {
              "internalType": "string",
              "name": "bio",
              "type": "string"
            }
          ],
          "internalType": "struct Profile.ProfileNFTData",
          "name": "",
          "type": "tuple"
        }
      ],
      "stateMutability": "view",
      "type": "function"
    },
    {
      "inputs": [
        {
          "internalType": "string",
          "name": "_handle",
          "type": "string"
        }
      ],
      "name": "getProfilePosts",
      "outputs": [
        {
          "components": [
            {
              "internalType": "uint256",
              "name": "postId",
              "type": "uint256"
            },
            {
              "internalType": "string",
              "name": "handle",
              "type": "string"
            },
            {
              "internalType": "string",
              "name": "content",
              "type": "string"
            },
            {
              "internalType": "uint256",
              "name": "timestamp",
              "type": "uint256"
            }
          ],
          "internalType": "struct SocialWeb3.Post[]",
          "name": "",
          "type": "tuple[]"
        }
      ],
      "stateMutability": "view",
      "type": "function"
    },
    {
      "inputs": [
        {
          "internalType": "address",
          "name": "_owner",
          "type": "address"
        }
      ],
      "name": "getUserHandles",
      "outputs": [
        {
          "internalType": "string[]",
          "name": "",
          "type": "string[]"
        }
      ],
      "stateMutability": "view",
      "type": "function"
    },
    {
      "inputs": [
        {
          "internalType": "address",
          "name": "_user",
          "type": "address"
        }
      ],
      "name": "getUserProfiles",
      "outputs": [
        {
          "internalType": "uint256[]",
          "name": "",
          "type": "uint256[]"
        }
      ],
      "stateMutability": "view",
      "type": "function"
    },
    {
      "inputs": [
        {
          "internalType": "address",
          "name": "owner",
          "type": "address"
        },
        {
          "internalType": "address",
          "name": "operator",
          "type": "address"
        }
      ],
      "name": "isApprovedForAll",
      "outputs": [
        {
          "internalType": "bool",
          "name": "",
          "type": "bool"
        }
      ],
      "stateMutability": "view",
      "type": "function"
    },
    {
      "inputs": [],
      "name": "name",
      "outputs": [
        {
          "internalType": "string",
          "name": "",
          "type": "string"
        }
      ],
      "stateMutability": "view",
      "type": "function"
    },
    {
      "inputs": [],
      "name": "owner",
      "outputs": [
        {
          "internalType": "address",
          "name": "",
          "type": "address"
        }
      ],
      "stateMutability": "view",
      "type": "function"
    },
    {
      "inputs": [
        {
          "internalType": "uint256",
          "name": "tokenId",
          "type": "uint256"
        }
      ],
      "name": "ownerOf",
      "outputs": [
        {
          "internalType": "address",
          "name": "",
          "type": "address"
        }
      ],
      "stateMutability": "view",
      "type": "function"
    },
    {
      "inputs": [],
      "name": "postId",
      "outputs": [
        {
          "internalType": "uint256",
          "name": "",
          "type": "uint256"
        }
      ],
      "stateMutability": "view",
      "type": "function"
    },
    {
      "inputs": [],
      "name": "profileId",
      "outputs": [
        {
          "internalType": "uint256",
          "name": "",
          "type": "uint256"
        }
      ],
      "stateMutability": "view",
      "type": "function"
    },
    {
      "inputs": [],
      "name": "renounceOwnership",
      "outputs": [],
      "stateMutability": "nonpayable",
      "type": "function"
    },
    {
      "inputs": [
        {
          "internalType": "address",
          "name": "from",
          "type": "address"
        },
        {
          "internalType": "address",
          "name": "to",
          "type": "address"
        },
        {
          "internalType": "uint256",
          "name": "tokenId",
          "type": "uint256"
        }
      ],
      "name": "safeTransferFrom",
      "outputs": [],
      "stateMutability": "nonpayable",
      "type": "function"
    },
    {
      "inputs": [
        {
          "internalType": "address",
          "name": "from",
          "type": "address"
        },
        {
          "internalType": "address",
          "name": "to",
          "type": "address"
        },
        {
          "internalType": "uint256",
          "name": "tokenId",
          "type": "uint256"
        },
        {
          "internalType": "bytes",
          "name": "data",
          "type": "bytes"
        }
      ],
      "name": "safeTransferFrom",
      "outputs": [],
      "stateMutability": "nonpayable",
      "type": "function"
    },
    {
      "inputs": [
        {
          "internalType": "address",
          "name": "operator",
          "type": "address"
        },
        {
          "internalType": "bool",
          "name": "approved",
          "type": "bool"
        }
      ],
      "name": "setApprovalForAll",
      "outputs": [],
      "stateMutability": "nonpayable",
      "type": "function"
    },
    {
      "inputs": [
        {
          "internalType": "bool",
          "name": "val",
          "type": "bool"
        }
      ],
      "name": "setPaused",
      "outputs": [],
      "stateMutability": "nonpayable",
      "type": "function"
    },
    {
      "inputs": [
        {
          "internalType": "bytes4",
          "name": "interfaceId",
          "type": "bytes4"
        }
      ],
      "name": "supportsInterface",
      "outputs": [
        {
          "internalType": "bool",
          "name": "",
          "type": "bool"
        }
      ],
      "stateMutability": "view",
      "type": "function"
    },
    {
      "inputs": [],
      "name": "symbol",
      "outputs": [
        {
          "internalType": "string",
          "name": "",
          "type": "string"
        }
      ],
      "stateMutability": "view",
      "type": "function"
    },
    {
      "inputs": [
        {
          "internalType": "uint256",
          "name": "index",
          "type": "uint256"
        }
      ],
      "name": "tokenByIndex",
      "outputs": [
        {
          "internalType": "uint256",
          "name": "",
          "type": "uint256"
        }
      ],
      "stateMutability": "view",
      "type": "function"
    },
    {
      "inputs": [
        {
          "internalType": "address",
          "name": "owner",
          "type": "address"
        },
        {
          "internalType": "uint256",
          "name": "index",
          "type": "uint256"
        }
      ],
      "name": "tokenOfOwnerByIndex",
      "outputs": [
        {
          "internalType": "uint256",
          "name": "",
          "type": "uint256"
        }
      ],
      "stateMutability": "view",
      "type": "function"
    },
    {
      "inputs": [
        {
          "internalType": "uint256",
          "name": "tokenId",
          "type": "uint256"
        }
      ],
      "name": "tokenURI",
      "outputs": [
        {
          "internalType": "string",
          "name": "",
          "type": "string"
        }
      ],
      "stateMutability": "view",
      "type": "function"
    },
    {
      "inputs": [],
      "name": "totalSupply",
      "outputs": [
        {
          "internalType": "uint256",
          "name": "",
          "type": "uint256"
        }
      ],
      "stateMutability": "view",
      "type": "function"
    },
    {
      "inputs": [
        {
          "internalType": "address",
          "name": "from",
          "type": "address"
        },
        {
          "internalType": "address",
          "name": "to",
          "type": "address"
        },
        {
          "internalType": "uint256",
          "name": "tokenId",
          "type": "uint256"
        }
      ],
      "name": "transferFrom",
      "outputs": [],
      "stateMutability": "nonpayable",
      "type": "function"
    },
    {
      "inputs": [
        {
          "internalType": "address",
          "name": "newOwner",
          "type": "address"
        }
      ],
      "name": "transferOwnership",
      "outputs": [],
      "stateMutability": "nonpayable",
      "type": "function"
    },
    {
      "inputs": [
        {
          "internalType": "uint256",
          "name": "_profileId",
          "type": "uint256"
        },
        {
          "components": [
            {
              "internalType": "address",
              "name": "owner",
              "type": "address"
            },
            {
              "internalType": "string",
              "name": "handle",
              "type": "string"
            },
            {
              "internalType": "string",
              "name": "name",
              "type": "string"
            },
            {
              "internalType": "string",
              "name": "imageURI",
              "type": "string"
            },
            {
              "internalType": "string",
              "name": "bio",
              "type": "string"
            }
          ],
          "internalType": "struct Profile.ProfileNFTData",
          "name": "_newProfileData",
          "type": "tuple"
        }
      ],
      "name": "updateProfile",
      "outputs": [],
      "stateMutability": "nonpayable",
      "type": "function"
    },
    {
      "inputs": [],
      "name": "withdraw",
      "outputs": [],
      "stateMutability": "nonpayable",
      "type": "function"
    }
  ],
  "bytecode": "0x6080604052662386f26fc10000600c553480156200001c57600080fd5b50604051620067153803806200671583398181016040528101906200004291906200036e565b806040518060400160405280600a81526020017f536f6369616c57656233000000000000000000000000000000000000000000008152506040518060400160405280600381526020017f5357330000000000000000000000000000000000000000000000000000000000815250620000cf620000c36200010f60201b60201c565b6200011760201b60201c565b8160019081620000e091906200060a565b508060029081620000f291906200060a565b50505080600b90816200010691906200060a565b505050620006f1565b600033905090565b60008060009054906101000a900473ffffffffffffffffffffffffffffffffffffffff169050816000806101000a81548173ffffffffffffffffffffffffffffffffffffffff021916908373ffffffffffffffffffffffffffffffffffffffff1602179055508173ffffffffffffffffffffffffffffffffffffffff168173ffffffffffffffffffffffffffffffffffffffff167f8be0079c531659141344cd1fd0a4f28419497f9722a3daafe3b4186f6b6457e060405160405180910390a35050565b6000604051905090565b600080fd5b600080fd5b600080fd5b600080fd5b6000601f19601f8301169050919050565b7f4e487b7100000000000000000000000000000000000000000000000000000000600052604160045260246000fd5b6200024482620001f9565b810181811067ffffffffffffffff821117156200026657620002656200020a565b5b80604052505050565b60006200027b620001db565b905062000289828262000239565b919050565b600067ffffffffffffffff821115620002ac57620002ab6200020a565b5b620002b782620001f9565b9050602081019050919050565b60005b83811015620002e4578082015181840152602081019050620002c7565b60008484015250505050565b60006200030762000301846200028e565b6200026f565b905082815260208101848484011115620003265762000325620001f4565b5b62000333848285620002c4565b509392505050565b600082601f830112620003535762000352620001ef565b5b815162000365848260208601620002f0565b91505092915050565b600060208284031215620003875762000386620001e5565b5b600082015167ffffffffffffffff811115620003a857620003a7620001ea565b5b620003b6848285016200033b565b91505092915050565b600081519050919050565b7f4e487b7100000000000000000000000000000000000000000000000000000000600052602260045260246000fd5b600060028204905060018216806200041257607f821691505b602082108103620004285762000427620003ca565b5b50919050565b60008190508160005260206000209050919050565b60006020601f8301049050919050565b600082821b905092915050565b600060088302620004927fffffffffffffffffffffffffffffffffffffffffffffffffffffffffffffffff8262000453565b6200049e868362000453565b95508019841693508086168417925050509392505050565b6000819050919050565b6000819050919050565b6000620004eb620004e5620004df84620004b6565b620004c0565b620004b6565b9050919050565b6000819050919050565b6200050783620004ca565b6200051f6200051682620004f2565b84845462000460565b825550505050565b600090565b6200053662000527565b62000543818484620004fc565b505050565b5b818110156200056b576200055f6000826200052c565b60018101905062000549565b5050565b601f821115620005ba5762000584816200042e565b6200058f8462000443565b810160208510156200059f578190505b620005b7620005ae8562000443565b83018262000548565b50505b505050565b600082821c905092915050565b6000620005df60001984600802620005bf565b1980831691505092915050565b6000620005fa8383620005cc565b9150826002028217905092915050565b6200061582620003bf565b67ffffffffffffffff8111156200063157620006306200020a565b5b6200063d8254620003f9565b6200064a8282856200056f565b600060209050601f8311600181146200068257600084156200066d578287015190505b620006798582620005ec565b865550620006e9565b601f19841662000692866200042e565b60005b82811015620006bc5784890151825560018201915060208501945060208101905062000695565b86831015620006dc5784890151620006d8601f891682620005cc565b8355505b6001600288020188555050505b505050505050565b61601480620007016000396000f3fe6080604052600436106102045760003560e01c806354ebb9991161011857806395d89b41116100a0578063b88d4fde1161006f578063b88d4fde146107b5578063c87b56dd146107de578063e563f7781461081b578063e985e9c514610837578063f2fde38b1461087457610204565b806395d89b41146106f95780639b85b1f114610724578063a22cb46514610761578063ac8b628e1461078a57610204565b80636352211e116100e75780636352211e1461060057806370a082311461063d578063715018a61461067a57806380985a87146106915780638da5cb5b146106ce57610204565b806354ebb9991461051e5780635cafa5391461055b5780635dd4dff41461059857806360a0ecda146105d557610204565b8063235b6ea11161019b578063392338f51161016a578063392338f51461043b5780633ccfd60b1461046457806340731c241461047b57806342842e0e146104b85780634f6ccce7146104e157610204565b8063235b6ea11461038157806323b872dd146103ac5780632d6d852f146103d55780632f745c59146103fe57610204565b8063095ea7b3116101d7578063095ea7b3146102d957806316c38b3c1461030257806316c61ccc1461032b57806318160ddd1461035657610204565b806301ffc9a71461020957806306fdde0314610246578063081812fc1461027157806308386eba146102ae575b600080fd5b34801561021557600080fd5b50610230600480360381019061022b9190613ae7565b61089d565b60405161023d9190613b2f565b60405180910390f35b34801561025257600080fd5b5061025b610917565b6040516102689190613bda565b60405180910390f35b34801561027d57600080fd5b5061029860048036038101906102939190613c32565b6109a9565b6040516102a59190613ca0565b60405180910390f35b3480156102ba57600080fd5b506102c36109ef565b6040516102d09190613cca565b60405180910390f35b3480156102e557600080fd5b5061030060048036038101906102fb9190613d11565b6109f5565b005b34801561030e57600080fd5b5061032960048036038101906103249190613d7d565b610b0c565b005b34801561033757600080fd5b50610340610b31565b60405161034d9190613b2f565b60405180910390f35b34801561036257600080fd5b5061036b610b44565b6040516103789190613cca565b60405180910390f35b34801561038d57600080fd5b50610396610b51565b6040516103a39190613cca565b60405180910390f35b3480156103b857600080fd5b506103d360048036038101906103ce9190613daa565b610b57565b005b3480156103e157600080fd5b506103fc60048036038101906103f79190613e21565b610bb7565b005b34801561040a57600080fd5b5061042560048036038101906104209190613d11565b610c1f565b6040516104329190613cca565b60405180910390f35b34801561044757600080fd5b50610462600480360381019061045d9190613ee2565b610cc4565b005b34801561047057600080fd5b50610479610eea565b005b34801561048757600080fd5b506104a2600480360381019061049d9190613c32565b610fb4565b6040516104af9190614026565b60405180910390f35b3480156104c457600080fd5b506104df60048036038101906104da9190613daa565b611119565b005b3480156104ed57600080fd5b5061050860048036038101906105039190613c32565b611139565b6040516105159190613cca565b60405180910390f35b34801561052a57600080fd5b5061054560048036038101906105409190613c32565b6111aa565b6040516105529190614174565b60405180910390f35b34801561056757600080fd5b50610582600480360381019061057d9190614196565b6113bc565b60405161058f9190614174565b60405180910390f35b3480156105a457600080fd5b506105bf60048036038101906105ba91906141e3565b611618565b6040516105cc91906142bf565b60405180910390f35b3480156105e157600080fd5b506105ea6116af565b6040516105f79190613cca565b60405180910390f35b34801561060c57600080fd5b5061062760048036038101906106229190613c32565b6116b5565b6040516106349190613ca0565b60405180910390f35b34801561064957600080fd5b50610664600480360381019061065f91906141e3565b61173b565b6040516106719190613cca565b60405180910390f35b34801561068657600080fd5b5061068f6117f2565b005b34801561069d57600080fd5b506106b860048036038101906106b391906141e3565b611806565b6040516106c591906143a3565b60405180910390f35b3480156106da57600080fd5b506106e361191e565b6040516106f09190613ca0565b60405180910390f35b34801561070557600080fd5b5061070e611947565b60405161071b9190613bda565b60405180910390f35b34801561073057600080fd5b5061074b60048036038101906107469190613c32565b6119d9565b604051610758919061445f565b60405180910390f35b34801561076d57600080fd5b5061078860048036038101906107839190614481565b611ca4565b005b34801561079657600080fd5b5061079f611cba565b6040516107ac919061460e565b60405180910390f35b3480156107c157600080fd5b506107dc60048036038101906107d79190614760565b61201b565b005b3480156107ea57600080fd5b5061080560048036038101906108009190613c32565b61207d565b6040516108129190613bda565b60405180910390f35b610835600480360381019061083091906147e3565b612124565b005b34801561084357600080fd5b5061085e6004803603810190610859919061482c565b612426565b60405161086b9190613b2f565b60405180910390f35b34801561088057600080fd5b5061089b600480360381019061089691906141e3565b6124ba565b005b60007f780e9d63000000000000000000000000000000000000000000000000000000007bffffffffffffffffffffffffffffffffffffffffffffffffffffffff1916827bffffffffffffffffffffffffffffffffffffffffffffffffffffffff19161480610910575061090f8261253d565b5b9050919050565b6060600180546109269061489b565b80601f01602080910402602001604051908101604052809291908181526020018280546109529061489b565b801561099f5780601f106109745761010080835404028352916020019161099f565b820191906000526020600020905b81548152906001019060200180831161098257829003601f168201915b5050505050905090565b60006109b48261261f565b6005600083815260200190815260200160002060009054906101000a900473ffffffffffffffffffffffffffffffffffffffff169050919050565b600d5481565b6000610a00826116b5565b90508073ffffffffffffffffffffffffffffffffffffffff168373ffffffffffffffffffffffffffffffffffffffff1603610a70576040517f08c379a0000000000000000000000000000000000000000000000000000000008152600401610a679061493e565b60405180910390fd5b8073ffffffffffffffffffffffffffffffffffffffff16610a8f61266a565b73ffffffffffffffffffffffffffffffffffffffff161480610abe5750610abd81610ab861266a565b612426565b5b610afd576040517f08c379a0000000000000000000000000000000000000000000000000000000008152600401610af4906149d0565b60405180910390fd5b610b078383612672565b505050565b610b1461272b565b80601360006101000a81548160ff02191690831515021790555050565b601360009054906101000a900460ff1681565b6000600980549050905090565b600c5481565b610b68610b6261266a565b826127a9565b610ba7576040517f08c379a0000000000000000000000000000000000000000000000000000000008152600401610b9e90614a62565b60405180910390fd5b610bb283838361283e565b505050565b610bbf61272b565b80601060008481526020019081526020016000208181610bdf9190614f00565b9050507f2af2668216c13797f987f500352b5dcccb7f93d074b60a9ea347afb160cfed9e8282604051610c1392919061507f565b60405180910390a15050565b6000610c2a8361173b565b8210610c6b576040517f08c379a0000000000000000000000000000000000000000000000000000000008152600401610c6290615121565b60405180910390fd5b600760008473ffffffffffffffffffffffffffffffffffffffff1673ffffffffffffffffffffffffffffffffffffffff168152602001908152602001600020600083815260200190815260200160002054905092915050565b838360118282604051610cd8929190615171565b908152602001604051809103902060009054906101000a900460ff16610d33576040517f08c379a0000000000000000000000000000000000000000000000000000000008152600401610d2a906151d6565b60405180910390fd5b60126000815480929190610d4690615225565b91905055506040518060800160405280601254815260200187878080601f016020809104026020016040519081016040528093929190818152602001838380828437600081840152601f19601f82011690508083019250505050505050815260200185858080601f016020809104026020016040519081016040528093929190818152602001838380828437600081840152601f19601f82011690508083019250505050505050815260200142815250601460006012548152602001908152602001600020600082015181600001556020820151816001019081610e2a919061526d565b506040820151816002019081610e40919061526d565b506060820151816003015590505060158686604051610e60929190615171565b908152602001604051809103902060125490806001815401808255809150506001900390600052602060002001600090919091909150557f104af12493094a08a9af15004754171fd42e502f3cffec40976bb4e6ecd1ae8a601460006012548152602001908152602001600020604051610eda9190615474565b60405180910390a1505050505050565b610ef261272b565b6000610efc61191e565b9050600047905060008273ffffffffffffffffffffffffffffffffffffffff1682604051610f29906154c7565b60006040518083038185875af1925050503d8060008114610f66576040519150601f19603f3d011682016040523d82523d6000602084013e610f6b565b606091505b5050905080610faf576040517f08c379a0000000000000000000000000000000000000000000000000000000008152600401610fa690615528565b60405180910390fd5b505050565b610fbc613a0e565b6014600083815260200190815260200160002060405180608001604052908160008201548152602001600182018054610ff49061489b565b80601f01602080910402602001604051908101604052809291908181526020018280546110209061489b565b801561106d5780601f106110425761010080835404028352916020019161106d565b820191906000526020600020905b81548152906001019060200180831161105057829003601f168201915b505050505081526020016002820180546110869061489b565b80601f01602080910402602001604051908101604052809291908181526020018280546110b29061489b565b80156110ff5780601f106110d4576101008083540402835291602001916110ff565b820191906000526020600020905b8154815290600101906020018083116110e257829003601f168201915b505050505081526020016003820154815250509050919050565b6111348383836040518060200160405280600081525061201b565b505050565b6000611143610b44565b8210611184576040517f08c379a000000000000000000000000000000000000000000000000000000000815260040161117b906155ba565b60405180910390fd5b60098281548110611198576111976155da565b5b90600052602060002001549050919050565b60606000600a67ffffffffffffffff8111156111c9576111c8614635565b5b60405190808252806020026020018201604052801561120257816020015b6111ef613a0e565b8152602001906001900390816111e75790505b5090506000600190505b600a81116113b2576014600082866112249190615609565b8152602001908152602001600020604051806080016040529081600082015481526020016001820180546112579061489b565b80601f01602080910402602001604051908101604052809291908181526020018280546112839061489b565b80156112d05780601f106112a5576101008083540402835291602001916112d0565b820191906000526020600020905b8154815290600101906020018083116112b357829003601f168201915b505050505081526020016002820180546112e99061489b565b80601f01602080910402602001604051908101604052809291908181526020018280546113159061489b565b80156113625780601f1061133757610100808354040283529160200191611362565b820191906000526020600020905b81548152906001019060200180831161134557829003601f168201915b5050505050815260200160038201548152505082600183611383919061563d565b81518110611394576113936155da565b5b602002602001018190525080806113aa90615225565b91505061120c565b5080915050919050565b60606000601584846040516113d2929190615171565b908152602001604051809103902080549050905060008167ffffffffffffffff81111561140257611401614635565b5b60405190808252806020026020018201604052801561143b57816020015b611428613a0e565b8152602001906001900390816114205790505b50905060005b8281101561160c57601460006015888860405161145f929190615171565b9081526020016040518091039020838154811061147f5761147e6155da565b5b90600052602060002001548152602001908152602001600020604051806080016040529081600082015481526020016001820180546114bd9061489b565b80601f01602080910402602001604051908101604052809291908181526020018280546114e99061489b565b80156115365780601f1061150b57610100808354040283529160200191611536565b820191906000526020600020905b81548152906001019060200180831161151957829003601f168201915b5050505050815260200160028201805461154f9061489b565b80601f016020809104026020016040519081016040528092919081815260200182805461157b9061489b565b80156115c85780601f1061159d576101008083540402835291602001916115c8565b820191906000526020600020905b8154815290600101906020018083116115ab57829003601f168201915b505050505081526020016003820154815250508282815181106115ee576115ed6155da565b5b6020026020010181905250808061160490615225565b915050611441565b50809250505092915050565b6060600e60008373ffffffffffffffffffffffffffffffffffffffff1673ffffffffffffffffffffffffffffffffffffffff1681526020019081526020016000208054806020026020016040519081016040528092919081815260200182805480156116a357602002820191906000526020600020905b81548152602001906001019080831161168f575b50505050509050919050565b60125481565b6000806116c183612b37565b9050600073ffffffffffffffffffffffffffffffffffffffff168173ffffffffffffffffffffffffffffffffffffffff1603611732576040517f08c379a0000000000000000000000000000000000000000000000000000000008152600401611729906156bd565b60405180910390fd5b80915050919050565b60008073ffffffffffffffffffffffffffffffffffffffff168273ffffffffffffffffffffffffffffffffffffffff16036117ab576040517f08c379a00000000000000000000000000000000000000000000000000000000081526004016117a29061574f565b60405180910390fd5b600460008373ffffffffffffffffffffffffffffffffffffffff1673ffffffffffffffffffffffffffffffffffffffff168152602001908152602001600020549050919050565b6117fa61272b565b6118046000612b74565b565b6060600f60008373ffffffffffffffffffffffffffffffffffffffff1673ffffffffffffffffffffffffffffffffffffffff168152602001908152602001600020805480602002602001604051908101604052809291908181526020016000905b828210156119135783829060005260206000200180546118869061489b565b80601f01602080910402602001604051908101604052809291908181526020018280546118b29061489b565b80156118ff5780601f106118d4576101008083540402835291602001916118ff565b820191906000526020600020905b8154815290600101906020018083116118e257829003601f168201915b505050505081526020019060010190611867565b505050509050919050565b60008060009054906101000a900473ffffffffffffffffffffffffffffffffffffffff16905090565b6060600280546119569061489b565b80601f01602080910402602001604051908101604052809291908181526020018280546119829061489b565b80156119cf5780601f106119a4576101008083540402835291602001916119cf565b820191906000526020600020905b8154815290600101906020018083116119b257829003601f168201915b5050505050905090565b6119e1613a36565b601060008381526020019081526020016000206040518060a00160405290816000820160009054906101000a900473ffffffffffffffffffffffffffffffffffffffff1673ffffffffffffffffffffffffffffffffffffffff1673ffffffffffffffffffffffffffffffffffffffff168152602001600182018054611a659061489b565b80601f0160208091040260200160405190810160405280929190818152602001828054611a919061489b565b8015611ade5780601f10611ab357610100808354040283529160200191611ade565b820191906000526020600020905b815481529060010190602001808311611ac157829003601f168201915b50505050508152602001600282018054611af79061489b565b80601f0160208091040260200160405190810160405280929190818152602001828054611b239061489b565b8015611b705780601f10611b4557610100808354040283529160200191611b70565b820191906000526020600020905b815481529060010190602001808311611b5357829003601f168201915b50505050508152602001600382018054611b899061489b565b80601f0160208091040260200160405190810160405280929190818152602001828054611bb59061489b565b8015611c025780601f10611bd757610100808354040283529160200191611c02565b820191906000526020600020905b815481529060010190602001808311611be557829003601f168201915b50505050508152602001600482018054611c1b9061489b565b80601f0160208091040260200160405190810160405280929190818152602001828054611c479061489b565b8015611c945780601f10611c6957610100808354040283529160200191611c94565b820191906000526020600020905b815481529060010190602001808311611c7757829003601f168201915b5050505050815250509050919050565b611cb6611caf61266a565b8383612c38565b5050565b60606000600d5467ffffffffffffffff811115611cda57611cd9614635565b5b604051908082528060200260200182016040528015611d1357816020015b611d00613a36565b815260200190600190039081611cf85790505b5090506000600190505b600d54811161201357601060008281526020019081526020016000206040518060a00160405290816000820160009054906101000a900473ffffffffffffffffffffffffffffffffffffffff1673ffffffffffffffffffffffffffffffffffffffff1673ffffffffffffffffffffffffffffffffffffffff168152602001600182018054611daa9061489b565b80601f0160208091040260200160405190810160405280929190818152602001828054611dd69061489b565b8015611e235780601f10611df857610100808354040283529160200191611e23565b820191906000526020600020905b815481529060010190602001808311611e0657829003601f168201915b50505050508152602001600282018054611e3c9061489b565b80601f0160208091040260200160405190810160405280929190818152602001828054611e689061489b565b8015611eb55780601f10611e8a57610100808354040283529160200191611eb5565b820191906000526020600020905b815481529060010190602001808311611e9857829003601f168201915b50505050508152602001600382018054611ece9061489b565b80601f0160208091040260200160405190810160405280929190818152602001828054611efa9061489b565b8015611f475780601f10611f1c57610100808354040283529160200191611f47565b820191906000526020600020905b815481529060010190602001808311611f2a57829003601f168201915b50505050508152602001600482018054611f609061489b565b80601f0160208091040260200160405190810160405280929190818152602001828054611f8c9061489b565b8015611fd95780601f10611fae57610100808354040283529160200191611fd9565b820191906000526020600020905b815481529060010190602001808311611fbc57829003601f168201915b505050505081525050828281518110611ff557611ff46155da565b5b6020026020010181905250808061200b90615225565b915050611d1d565b508091505090565b61202c61202661266a565b836127a9565b61206b576040517f08c379a000000000000000000000000000000000000000000000000000000000815260040161206290614a62565b60405180910390fd5b61207784848484612da4565b50505050565b606061208882612e00565b6120c7576040517f08c379a00000000000000000000000000000000000000000000000000000000081526004016120be906157e1565b60405180910390fd5b60006120d1612e41565b905060008151116120f1576040518060200160405280600081525061211c565b806120fb84612ed3565b60405160200161210c92919061587e565b6040516020818303038152906040525b915050919050565b8080602001906121349190614b67565b60118282604051612146929190615171565b908152602001604051809103902060009054906101000a900460ff16156121a2576040517f08c379a0000000000000000000000000000000000000000000000000000000008152600401612199906158f9565b60405180910390fd5b8260000160208101906121b591906141e3565b3373ffffffffffffffffffffffffffffffffffffffff168173ffffffffffffffffffffffffffffffffffffffff1614612223576040517f08c379a000000000000000000000000000000000000000000000000000000000815260040161221a90615965565b60405180910390fd5b600c54341015612268576040517f08c379a000000000000000000000000000000000000000000000000000000000815260040161225f906159d1565b60405180910390fd5b600d600081548092919061227b90615225565b91905055508360106000600d54815260200190815260200160002081816122a29190614f00565b905050600f60003373ffffffffffffffffffffffffffffffffffffffff1673ffffffffffffffffffffffffffffffffffffffff1681526020019081526020016000208480602001906122f49190614b67565b9091806001815401808255809150506001900390600052602060002001600090919290919290919290919250918261232d929190614d77565b50600160118580602001906123429190614b67565b604051612350929190615171565b908152602001604051809103902060006101000a81548160ff02191690831515021790555061238133600d54612fa1565b600e60003373ffffffffffffffffffffffffffffffffffffffff1673ffffffffffffffffffffffffffffffffffffffff168152602001908152602001600020600d5490806001815401808255809150506001900390600052602060002001600090919091909150557f68d89ba37b6b8d0b7cb139771c573485dd925fbb3007cfb62cb832bc2a24850a8460405161241891906159f1565b60405180910390a150505050565b6000600660008473ffffffffffffffffffffffffffffffffffffffff1673ffffffffffffffffffffffffffffffffffffffff16815260200190815260200160002060008373ffffffffffffffffffffffffffffffffffffffff1673ffffffffffffffffffffffffffffffffffffffff16815260200190815260200160002060009054906101000a900460ff16905092915050565b6124c261272b565b600073ffffffffffffffffffffffffffffffffffffffff168173ffffffffffffffffffffffffffffffffffffffff1603612531576040517f08c379a000000000000000000000000000000000000000000000000000000000815260040161252890615a85565b60405180910390fd5b61253a81612b74565b50565b60007f80ac58cd000000000000000000000000000000000000000000000000000000007bffffffffffffffffffffffffffffffffffffffffffffffffffffffff1916827bffffffffffffffffffffffffffffffffffffffffffffffffffffffff1916148061260857507f5b5e139f000000000000000000000000000000000000000000000000000000007bffffffffffffffffffffffffffffffffffffffffffffffffffffffff1916827bffffffffffffffffffffffffffffffffffffffffffffffffffffffff1916145b80612618575061261782612fbf565b5b9050919050565b61262881612e00565b612667576040517f08c379a000000000000000000000000000000000000000000000000000000000815260040161265e906156bd565b60405180910390fd5b50565b600033905090565b816005600083815260200190815260200160002060006101000a81548173ffffffffffffffffffffffffffffffffffffffff021916908373ffffffffffffffffffffffffffffffffffffffff160217905550808273ffffffffffffffffffffffffffffffffffffffff166126e5836116b5565b73ffffffffffffffffffffffffffffffffffffffff167f8c5be1e5ebec7d5bd14f71427d1e84f3dd0314c0f7b2291e5b200ac8c7c3b92560405160405180910390a45050565b61273361266a565b73ffffffffffffffffffffffffffffffffffffffff1661275161191e565b73ffffffffffffffffffffffffffffffffffffffff16146127a7576040517f08c379a000000000000000000000000000000000000000000000000000000000815260040161279e90615af1565b60405180910390fd5b565b6000806127b5836116b5565b90508073ffffffffffffffffffffffffffffffffffffffff168473ffffffffffffffffffffffffffffffffffffffff1614806127f757506127f68185612426565b5b8061283557508373ffffffffffffffffffffffffffffffffffffffff1661281d846109a9565b73ffffffffffffffffffffffffffffffffffffffff16145b91505092915050565b8273ffffffffffffffffffffffffffffffffffffffff1661285e826116b5565b73ffffffffffffffffffffffffffffffffffffffff16146128b4576040517f08c379a00000000000000000000000000000000000000000000000000000000081526004016128ab90615b83565b60405180910390fd5b600073ffffffffffffffffffffffffffffffffffffffff168273ffffffffffffffffffffffffffffffffffffffff1603612923576040517f08c379a000000000000000000000000000000000000000000000000000000000815260040161291a90615c15565b60405180910390fd5b6129308383836001613029565b8273ffffffffffffffffffffffffffffffffffffffff16612950826116b5565b73ffffffffffffffffffffffffffffffffffffffff16146129a6576040517f08c379a000000000000000000000000000000000000000000000000000000000815260040161299d90615b83565b60405180910390fd5b6005600082815260200190815260200160002060006101000a81549073ffffffffffffffffffffffffffffffffffffffff02191690556001600460008573ffffffffffffffffffffffffffffffffffffffff1673ffffffffffffffffffffffffffffffffffffffff168152602001908152602001600020600082825403925050819055506001600460008473ffffffffffffffffffffffffffffffffffffffff1673ffffffffffffffffffffffffffffffffffffffff16815260200190815260200160002060008282540192505081905550816003600083815260200190815260200160002060006101000a81548173ffffffffffffffffffffffffffffffffffffffff021916908373ffffffffffffffffffffffffffffffffffffffff160217905550808273ffffffffffffffffffffffffffffffffffffffff168473ffffffffffffffffffffffffffffffffffffffff167fddf252ad1be2c89b69c2b068fc378daa952ba7f163c4a11628f55a4df523b3ef60405160405180910390a4612b328383836001613187565b505050565b60006003600083815260200190815260200160002060009054906101000a900473ffffffffffffffffffffffffffffffffffffffff169050919050565b60008060009054906101000a900473ffffffffffffffffffffffffffffffffffffffff169050816000806101000a81548173ffffffffffffffffffffffffffffffffffffffff021916908373ffffffffffffffffffffffffffffffffffffffff1602179055508173ffffffffffffffffffffffffffffffffffffffff168173ffffffffffffffffffffffffffffffffffffffff167f8be0079c531659141344cd1fd0a4f28419497f9722a3daafe3b4186f6b6457e060405160405180910390a35050565b8173ffffffffffffffffffffffffffffffffffffffff168373ffffffffffffffffffffffffffffffffffffffff1603612ca6576040517f08c379a0000000000000000000000000000000000000000000000000000000008152600401612c9d90615c81565b60405180910390fd5b80600660008573ffffffffffffffffffffffffffffffffffffffff1673ffffffffffffffffffffffffffffffffffffffff16815260200190815260200160002060008473ffffffffffffffffffffffffffffffffffffffff1673ffffffffffffffffffffffffffffffffffffffff16815260200190815260200160002060006101000a81548160ff0219169083151502179055508173ffffffffffffffffffffffffffffffffffffffff168373ffffffffffffffffffffffffffffffffffffffff167f17307eab39ab6107e8899845ad3d59bd9653f200f220920489ca2b5937696c3183604051612d979190613b2f565b60405180910390a3505050565b612daf84848461283e565b612dbb8484848461318d565b612dfa576040517f08c379a0000000000000000000000000000000000000000000000000000000008152600401612df190615d13565b60405180910390fd5b50505050565b60008073ffffffffffffffffffffffffffffffffffffffff16612e2283612b37565b73ffffffffffffffffffffffffffffffffffffffff1614159050919050565b6060600b8054612e509061489b565b80601f0160208091040260200160405190810160405280929190818152602001828054612e7c9061489b565b8015612ec95780601f10612e9e57610100808354040283529160200191612ec9565b820191906000526020600020905b815481529060010190602001808311612eac57829003601f168201915b5050505050905090565b606060006001612ee284613314565b01905060008167ffffffffffffffff811115612f0157612f00614635565b5b6040519080825280601f01601f191660200182016040528015612f335781602001600182028036833780820191505090505b509050600082602001820190505b600115612f96578080600190039150507f3031323334353637383961626364656600000000000000000000000000000000600a86061a8153600a8581612f8a57612f89615d33565b5b04945060008503612f41575b819350505050919050565b612fbb828260405180602001604052806000815250613467565b5050565b60007f01ffc9a7000000000000000000000000000000000000000000000000000000007bffffffffffffffffffffffffffffffffffffffffffffffffffffffff1916827bffffffffffffffffffffffffffffffffffffffffffffffffffffffff1916149050919050565b613035848484846134c2565b6001811115613079576040517f08c379a000000000000000000000000000000000000000000000000000000000815260040161307090615dd4565b60405180910390fd5b6000829050600073ffffffffffffffffffffffffffffffffffffffff168573ffffffffffffffffffffffffffffffffffffffff16036130c0576130bb816134c8565b6130ff565b8373ffffffffffffffffffffffffffffffffffffffff168573ffffffffffffffffffffffffffffffffffffffff16146130fe576130fd8582613511565b5b5b600073ffffffffffffffffffffffffffffffffffffffff168473ffffffffffffffffffffffffffffffffffffffff16036131415761313c8161367e565b613180565b8473ffffffffffffffffffffffffffffffffffffffff168473ffffffffffffffffffffffffffffffffffffffff161461317f5761317e848261374f565b5b5b5050505050565b50505050565b60006131ae8473ffffffffffffffffffffffffffffffffffffffff166137ce565b15613307578373ffffffffffffffffffffffffffffffffffffffff1663150b7a026131d761266a565b8786866040518563ffffffff1660e01b81526004016131f99493929190615e49565b6020604051808303816000875af192505050801561323557506040513d601f19601f820116820180604052508101906132329190615eaa565b60015b6132b7573d8060008114613265576040519150601f19603f3d011682016040523d82523d6000602084013e61326a565b606091505b5060008151036132af576040517f08c379a00000000000000000000000000000000000000000000000000000000081526004016132a690615d13565b60405180910390fd5b805181602001fd5b63150b7a0260e01b7bffffffffffffffffffffffffffffffffffffffffffffffffffffffff1916817bffffffffffffffffffffffffffffffffffffffffffffffffffffffff19161491505061330c565b600190505b949350505050565b600080600090507a184f03e93ff9f4daa797ed6e38ed64bf6a1f0100000000000000008310613372577a184f03e93ff9f4daa797ed6e38ed64bf6a1f010000000000000000838161336857613367615d33565b5b0492506040810190505b6d04ee2d6d415b85acef810000000083106133af576d04ee2d6d415b85acef810000000083816133a5576133a4615d33565b5b0492506020810190505b662386f26fc1000083106133de57662386f26fc1000083816133d4576133d3615d33565b5b0492506010810190505b6305f5e1008310613407576305f5e10083816133fd576133fc615d33565b5b0492506008810190505b612710831061342c57612710838161342257613421615d33565b5b0492506004810190505b6064831061344f576064838161344557613444615d33565b5b0492506002810190505b600a831061345e576001810190505b80915050919050565b61347183836137f1565b61347e600084848461318d565b6134bd576040517f08c379a00000000000000000000000000000000000000000000000000000000081526004016134b490615d13565b60405180910390fd5b505050565b50505050565b600980549050600a600083815260200190815260200160002081905550600981908060018154018082558091505060019003906000526020600020016000909190919091505550565b6000600161351e8461173b565b613528919061563d565b905060006008600084815260200190815260200160002054905081811461360d576000600760008673ffffffffffffffffffffffffffffffffffffffff1673ffffffffffffffffffffffffffffffffffffffff168152602001908152602001600020600084815260200190815260200160002054905080600760008773ffffffffffffffffffffffffffffffffffffffff1673ffffffffffffffffffffffffffffffffffffffff168152602001908152602001600020600084815260200190815260200160002081905550816008600083815260200190815260200160002081905550505b6008600084815260200190815260200160002060009055600760008573ffffffffffffffffffffffffffffffffffffffff1673ffffffffffffffffffffffffffffffffffffffff16815260200190815260200160002060008381526020019081526020016000206000905550505050565b60006001600980549050613692919061563d565b90506000600a60008481526020019081526020016000205490506000600983815481106136c2576136c16155da565b5b9060005260206000200154905080600983815481106136e4576136e36155da565b5b906000526020600020018190555081600a600083815260200190815260200160002081905550600a600085815260200190815260200160002060009055600980548061373357613732615ed7565b5b6001900381819060005260206000200160009055905550505050565b600061375a8361173b565b905081600760008573ffffffffffffffffffffffffffffffffffffffff1673ffffffffffffffffffffffffffffffffffffffff168152602001908152602001600020600083815260200190815260200160002081905550806008600084815260200190815260200160002081905550505050565b6000808273ffffffffffffffffffffffffffffffffffffffff163b119050919050565b600073ffffffffffffffffffffffffffffffffffffffff168273ffffffffffffffffffffffffffffffffffffffff1603613860576040517f08c379a000000000000000000000000000000000000000000000000000000000815260040161385790615f52565b60405180910390fd5b61386981612e00565b156138a9576040517f08c379a00000000000000000000000000000000000000000000000000000000081526004016138a090615fbe565b60405180910390fd5b6138b7600083836001613029565b6138c081612e00565b15613900576040517f08c379a00000000000000000000000000000000000000000000000000000000081526004016138f790615fbe565b60405180910390fd5b6001600460008473ffffffffffffffffffffffffffffffffffffffff1673ffffffffffffffffffffffffffffffffffffffff16815260200190815260200160002060008282540192505081905550816003600083815260200190815260200160002060006101000a81548173ffffffffffffffffffffffffffffffffffffffff021916908373ffffffffffffffffffffffffffffffffffffffff160217905550808273ffffffffffffffffffffffffffffffffffffffff16600073ffffffffffffffffffffffffffffffffffffffff167fddf252ad1be2c89b69c2b068fc378daa952ba7f163c4a11628f55a4df523b3ef60405160405180910390a4613a0a600083836001613187565b5050565b6040518060800160405280600081526020016060815260200160608152602001600081525090565b6040518060a00160405280600073ffffffffffffffffffffffffffffffffffffffff168152602001606081526020016060815260200160608152602001606081525090565b6000604051905090565b600080fd5b600080fd5b60007fffffffff0000000000000000000000000000000000000000000000000000000082169050919050565b613ac481613a8f565b8114613acf57600080fd5b50565b600081359050613ae181613abb565b92915050565b600060208284031215613afd57613afc613a85565b5b6000613b0b84828501613ad2565b91505092915050565b60008115159050919050565b613b2981613b14565b82525050565b6000602082019050613b446000830184613b20565b92915050565b600081519050919050565b600082825260208201905092915050565b60005b83811015613b84578082015181840152602081019050613b69565b60008484015250505050565b6000601f19601f8301169050919050565b6000613bac82613b4a565b613bb68185613b55565b9350613bc6818560208601613b66565b613bcf81613b90565b840191505092915050565b60006020820190508181036000830152613bf48184613ba1565b905092915050565b6000819050919050565b613c0f81613bfc565b8114613c1a57600080fd5b50565b600081359050613c2c81613c06565b92915050565b600060208284031215613c4857613c47613a85565b5b6000613c5684828501613c1d565b91505092915050565b600073ffffffffffffffffffffffffffffffffffffffff82169050919050565b6000613c8a82613c5f565b9050919050565b613c9a81613c7f565b82525050565b6000602082019050613cb56000830184613c91565b92915050565b613cc481613bfc565b82525050565b6000602082019050613cdf6000830184613cbb565b92915050565b613cee81613c7f565b8114613cf957600080fd5b50565b600081359050613d0b81613ce5565b92915050565b60008060408385031215613d2857613d27613a85565b5b6000613d3685828601613cfc565b9250506020613d4785828601613c1d565b9150509250929050565b613d5a81613b14565b8114613d6557600080fd5b50565b600081359050613d7781613d51565b92915050565b600060208284031215613d9357613d92613a85565b5b6000613da184828501613d68565b91505092915050565b600080600060608486031215613dc357613dc2613a85565b5b6000613dd186828701613cfc565b9350506020613de286828701613cfc565b9250506040613df386828701613c1d565b9150509250925092565b600080fd5b600060a08284031215613e1857613e17613dfd565b5b81905092915050565b60008060408385031215613e3857613e37613a85565b5b6000613e4685828601613c1d565b925050602083013567ffffffffffffffff811115613e6757613e66613a8a565b5b613e7385828601613e02565b9150509250929050565b600080fd5b600080fd5b600080fd5b60008083601f840112613ea257613ea1613e7d565b5b8235905067ffffffffffffffff811115613ebf57613ebe613e82565b5b602083019150836001820283011115613edb57613eda613e87565b5b9250929050565b60008060008060408587031215613efc57613efb613a85565b5b600085013567ffffffffffffffff811115613f1a57613f19613a8a565b5b613f2687828801613e8c565b9450945050602085013567ffffffffffffffff811115613f4957613f48613a8a565b5b613f5587828801613e8c565b925092505092959194509250565b613f6c81613bfc565b82525050565b600082825260208201905092915050565b6000613f8e82613b4a565b613f988185613f72565b9350613fa8818560208601613b66565b613fb181613b90565b840191505092915050565b6000608083016000830151613fd46000860182613f63565b5060208301518482036020860152613fec8282613f83565b915050604083015184820360408601526140068282613f83565b915050606083015161401b6060860182613f63565b508091505092915050565b600060208201905081810360008301526140408184613fbc565b905092915050565b600081519050919050565b600082825260208201905092915050565b6000819050602082019050919050565b600060808301600083015161408c6000860182613f63565b50602083015184820360208601526140a48282613f83565b915050604083015184820360408601526140be8282613f83565b91505060608301516140d36060860182613f63565b508091505092915050565b60006140ea8383614074565b905092915050565b6000602082019050919050565b600061410a82614048565b6141148185614053565b93508360208202850161412685614064565b8060005b85811015614162578484038952815161414385826140de565b945061414e836140f2565b925060208a0199505060018101905061412a565b50829750879550505050505092915050565b6000602082019050818103600083015261418e81846140ff565b905092915050565b600080602083850312156141ad576141ac613a85565b5b600083013567ffffffffffffffff8111156141cb576141ca613a8a565b5b6141d785828601613e8c565b92509250509250929050565b6000602082840312156141f9576141f8613a85565b5b600061420784828501613cfc565b91505092915050565b600081519050919050565b600082825260208201905092915050565b6000819050602082019050919050565b60006142488383613f63565b60208301905092915050565b6000602082019050919050565b600061426c82614210565b614276818561421b565b93506142818361422c565b8060005b838110156142b2578151614299888261423c565b97506142a483614254565b925050600181019050614285565b5085935050505092915050565b600060208201905081810360008301526142d98184614261565b905092915050565b600081519050919050565b600082825260208201905092915050565b6000819050602082019050919050565b60006143198383613f83565b905092915050565b6000602082019050919050565b6000614339826142e1565b61434381856142ec565b935083602082028501614355856142fd565b8060005b858110156143915784840389528151614372858261430d565b945061437d83614321565b925060208a01995050600181019050614359565b50829750879550505050505092915050565b600060208201905081810360008301526143bd818461432e565b905092915050565b6143ce81613c7f565b82525050565b600060a0830160008301516143ec60008601826143c5565b50602083015184820360208601526144048282613f83565b9150506040830151848203604086015261441e8282613f83565b915050606083015184820360608601526144388282613f83565b915050608083015184820360808601526144528282613f83565b9150508091505092915050565b6000602082019050818103600083015261447981846143d4565b905092915050565b6000806040838503121561449857614497613a85565b5b60006144a685828601613cfc565b92505060206144b785828601613d68565b9150509250929050565b600081519050919050565b600082825260208201905092915050565b6000819050602082019050919050565b600060a08301600083015161450560008601826143c5565b506020830151848203602086015261451d8282613f83565b915050604083015184820360408601526145378282613f83565b915050606083015184820360608601526145518282613f83565b9150506080830151848203608086015261456b8282613f83565b9150508091505092915050565b600061458483836144ed565b905092915050565b6000602082019050919050565b60006145a4826144c1565b6145ae81856144cc565b9350836020820285016145c0856144dd565b8060005b858110156145fc57848403895281516145dd8582614578565b94506145e88361458c565b925060208a019950506001810190506145c4565b50829750879550505050505092915050565b600060208201905081810360008301526146288184614599565b905092915050565b600080fd5b7f4e487b7100000000000000000000000000000000000000000000000000000000600052604160045260246000fd5b61466d82613b90565b810181811067ffffffffffffffff8211171561468c5761468b614635565b5b80604052505050565b600061469f613a7b565b90506146ab8282614664565b919050565b600067ffffffffffffffff8211156146cb576146ca614635565b5b6146d482613b90565b9050602081019050919050565b82818337600083830152505050565b60006147036146fe846146b0565b614695565b90508281526020810184848401111561471f5761471e614630565b5b61472a8482856146e1565b509392505050565b600082601f83011261474757614746613e7d565b5b81356147578482602086016146f0565b91505092915050565b6000806000806080858703121561477a57614779613a85565b5b600061478887828801613cfc565b945050602061479987828801613cfc565b93505060406147aa87828801613c1d565b925050606085013567ffffffffffffffff8111156147cb576147ca613a8a565b5b6147d787828801614732565b91505092959194509250565b6000602082840312156147f9576147f8613a85565b5b600082013567ffffffffffffffff81111561481757614816613a8a565b5b61482384828501613e02565b91505092915050565b6000806040838503121561484357614842613a85565b5b600061485185828601613cfc565b925050602061486285828601613cfc565b9150509250929050565b7f4e487b7100000000000000000000000000000000000000000000000000000000600052602260045260246000fd5b600060028204905060018216806148b357607f821691505b6020821081036148c6576148c561486c565b5b50919050565b7f4552433732313a20617070726f76616c20746f2063757272656e74206f776e6560008201527f7200000000000000000000000000000000000000000000000000000000000000602082015250565b6000614928602183613b55565b9150614933826148cc565b604082019050919050565b600060208201905081810360008301526149578161491b565b9050919050565b7f4552433732313a20617070726f76652063616c6c6572206973206e6f7420746f60008201527f6b656e206f776e6572206f7220617070726f76656420666f7220616c6c000000602082015250565b60006149ba603d83613b55565b91506149c58261495e565b604082019050919050565b600060208201905081810360008301526149e9816149ad565b9050919050565b7f4552433732313a2063616c6c6572206973206e6f7420746f6b656e206f776e6560008201527f72206f7220617070726f76656400000000000000000000000000000000000000602082015250565b6000614a4c602d83613b55565b9150614a57826149f0565b604082019050919050565b60006020820190508181036000830152614a7b81614a3f565b9050919050565b60008135614a8f81613ce5565b80915050919050565b60008160001b9050919050565b600073ffffffffffffffffffffffffffffffffffffffff614ac584614a98565b9350801983169250808416831791505092915050565b6000819050919050565b6000614b00614afb614af684613c5f565b614adb565b613c5f565b9050919050565b6000614b1282614ae5565b9050919050565b6000614b2482614b07565b9050919050565b6000819050919050565b614b3e82614b19565b614b51614b4a82614b2b565b8354614aa5565b8255505050565b600080fd5b600080fd5b600080fd5b60008083356001602003843603038112614b8457614b83614b58565b5b80840192508235915067ffffffffffffffff821115614ba657614ba5614b5d565b5b602083019250600182023603831315614bc257614bc1614b62565b5b509250929050565b600082905092915050565b60008190508160005260206000209050919050565b60006020601f8301049050919050565b600082821b905092915050565b600060088302614c377fffffffffffffffffffffffffffffffffffffffffffffffffffffffffffffffff82614bfa565b614c418683614bfa565b95508019841693508086168417925050509392505050565b6000614c74614c6f614c6a84613bfc565b614adb565b613bfc565b9050919050565b6000819050919050565b614c8e83614c59565b614ca2614c9a82614c7b565b848454614c07565b825550505050565b600090565b614cb7614caa565b614cc2818484614c85565b505050565b5b81811015614ce657614cdb600082614caf565b600181019050614cc8565b5050565b601f821115614d2b57614cfc81614bd5565b614d0584614bea565b81016020851015614d14578190505b614d28614d2085614bea565b830182614cc7565b50505b505050565b600082821c905092915050565b6000614d4e60001984600802614d30565b1980831691505092915050565b6000614d678383614d3d565b9150826002028217905092915050565b614d818383614bca565b67ffffffffffffffff811115614d9a57614d99614635565b5b614da4825461489b565b614daf828285614cea565b6000601f831160018114614dde5760008415614dcc578287013590505b614dd68582614d5b565b865550614e3e565b601f198416614dec86614bd5565b60005b82811015614e1457848901358255600182019150602085019450602081019050614def565b86831015614e315784890135614e2d601f891682614d3d565b8355505b6001600288020188555050505b50505050505050565b614e52838383614d77565b505050565b600081016000830180614e6981614a82565b9050614e758184614b35565b5050506001810160208301614e8a8185614b67565b614e95818386614e47565b505050506002810160408301614eab8185614b67565b614eb6818386614e47565b505050506003810160608301614ecc8185614b67565b614ed7818386614e47565b505050506004810160808301614eed8185614b67565b614ef8818386614e47565b505050505050565b614f0a8282614e57565b5050565b6000614f1d6020840184613cfc565b905092915050565b600080fd5b600080fd5b600080fd5b60008083356001602003843603038112614f5157614f50614f2f565b5b83810192508235915060208301925067ffffffffffffffff821115614f7957614f78614f25565b5b600182023603831315614f8f57614f8e614f2a565b5b509250929050565b6000614fa38385613f72565b9350614fb08385846146e1565b614fb983613b90565b840190509392505050565b600060a08301614fd76000840184614f0e565b614fe460008601826143c5565b50614ff26020840184614f34565b8583036020870152615005838284614f97565b925050506150166040840184614f34565b8583036040870152615029838284614f97565b9250505061503a6060840184614f34565b858303606087015261504d838284614f97565b9250505061505e6080840184614f34565b8583036080870152615071838284614f97565b925050508091505092915050565b60006040820190506150946000830185613cbb565b81810360208301526150a68184614fc4565b90509392505050565b7f455243373231456e756d657261626c653a206f776e657220696e646578206f7560008201527f74206f6620626f756e6473000000000000000000000000000000000000000000602082015250565b600061510b602b83613b55565b9150615116826150af565b604082019050919050565b6000602082019050818103600083015261513a816150fe565b9050919050565b600081905092915050565b60006151588385615141565b93506151658385846146e1565b82840190509392505050565b600061517e82848661514c565b91508190509392505050565b7f48616e646c65206e6f7420666f756e6400000000000000000000000000000000600082015250565b60006151c0601083613b55565b91506151cb8261518a565b602082019050919050565b600060208201905081810360008301526151ef816151b3565b9050919050565b7f4e487b7100000000000000000000000000000000000000000000000000000000600052601160045260246000fd5b600061523082613bfc565b91507fffffffffffffffffffffffffffffffffffffffffffffffffffffffffffffffff8203615262576152616151f6565b5b600182019050919050565b61527682613b4a565b67ffffffffffffffff81111561528f5761528e614635565b5b615299825461489b565b6152a4828285614cea565b600060209050601f8311600181146152d757600084156152c5578287015190505b6152cf8582614d5b565b865550615337565b601f1984166152e586614bd5565b60005b8281101561530d578489015182556001820191506020850194506020810190506152e8565b8683101561532a5784890151615326601f891682614d3d565b8355505b6001600288020188555050505b505050505050565b60008160001c9050919050565b6000819050919050565b60006153696153648361533f565b61534c565b9050919050565b6000815461537d8161489b565b6153878186613f72565b945060018216600081146153a257600181146153b8576153eb565b60ff1983168652811515602002860193506153eb565b6153c185614bd5565b60005b838110156153e3578154818901526001820191506020810190506153c4565b808801955050505b50505092915050565b600060808301600080840154905061540b81615356565b6154186000870182613f63565b5060018401858303602087015261542f8382615370565b9250506002840185830360408701526154488382615370565b9250506003840154905061545b81615356565b6154686060870182613f63565b50819250505092915050565b6000602082019050818103600083015261548e81846153f4565b905092915050565b600081905092915050565b50565b60006154b1600083615496565b91506154bc826154a1565b600082019050919050565b60006154d2826154a4565b9150819050919050565b7f4661696c656420746f2073656e64204574686572000000000000000000000000600082015250565b6000615512601483613b55565b915061551d826154dc565b602082019050919050565b6000602082019050818103600083015261554181615505565b9050919050565b7f455243373231456e756d657261626c653a20676c6f62616c20696e646578206f60008201527f7574206f6620626f756e64730000000000000000000000000000000000000000602082015250565b60006155a4602c83613b55565b91506155af82615548565b604082019050919050565b600060208201905081810360008301526155d381615597565b9050919050565b7f4e487b7100000000000000000000000000000000000000000000000000000000600052603260045260246000fd5b600061561482613bfc565b915061561f83613bfc565b9250828201905080821115615637576156366151f6565b5b92915050565b600061564882613bfc565b915061565383613bfc565b925082820390508181111561566b5761566a6151f6565b5b92915050565b7f4552433732313a20696e76616c696420746f6b656e2049440000000000000000600082015250565b60006156a7601883613b55565b91506156b282615671565b602082019050919050565b600060208201905081810360008301526156d68161569a565b9050919050565b7f4552433732313a2061646472657373207a65726f206973206e6f74206120766160008201527f6c6964206f776e65720000000000000000000000000000000000000000000000602082015250565b6000615739602983613b55565b9150615744826156dd565b604082019050919050565b600060208201905081810360008301526157688161572c565b9050919050565b7f4552433732314d657461646174613a2055524920717565727920666f72206e6f60008201527f6e6578697374656e7420746f6b656e0000000000000000000000000000000000602082015250565b60006157cb602f83613b55565b91506157d68261576f565b604082019050919050565b600060208201905081810360008301526157fa816157be565b9050919050565b600061580c82613b4a565b6158168185615141565b9350615826818560208601613b66565b80840191505092915050565b7f2e6a736f6e000000000000000000000000000000000000000000000000000000600082015250565b6000615868600583615141565b915061587382615832565b600582019050919050565b600061588a8285615801565b91506158968284615801565b91506158a18261585b565b91508190509392505050565b7f48616e646c6520616c7265616479206578697374730000000000000000000000600082015250565b60006158e3601583613b55565b91506158ee826158ad565b602082019050919050565b60006020820190508181036000830152615912816158d6565b9050919050565b7f4f776e657220646966666572656e742066726f6d206d73672e73656e64657200600082015250565b600061594f601f83613b55565b915061595a82615919565b602082019050919050565b6000602082019050818103600083015261597e81615942565b9050919050565b7f45746865722073656e74206973206e6f7420636f727265637400000000000000600082015250565b60006159bb601983613b55565b91506159c682615985565b602082019050919050565b600060208201905081810360008301526159ea816159ae565b9050919050565b60006020820190508181036000830152615a0b8184614fc4565b905092915050565b7f4f776e61626c653a206e6577206f776e657220697320746865207a65726f206160008201527f6464726573730000000000000000000000000000000000000000000000000000602082015250565b6000615a6f602683613b55565b9150615a7a82615a13565b604082019050919050565b60006020820190508181036000830152615a9e81615a62565b9050919050565b7f4f776e61626c653a2063616c6c6572206973206e6f7420746865206f776e6572600082015250565b6000615adb602083613b55565b9150615ae682615aa5565b602082019050919050565b60006020820190508181036000830152615b0a81615ace565b9050919050565b7f4552433732313a207472616e736665722066726f6d20696e636f72726563742060008201527f6f776e6572000000000000000000000000000000000000000000000000000000602082015250565b6000615b6d602583613b55565b9150615b7882615b11565b604082019050919050565b60006020820190508181036000830152615b9c81615b60565b9050919050565b7f4552433732313a207472616e7366657220746f20746865207a65726f2061646460008201527f7265737300000000000000000000000000000000000000000000000000000000602082015250565b6000615bff602483613b55565b9150615c0a82615ba3565b604082019050919050565b60006020820190508181036000830152615c2e81615bf2565b9050919050565b7f4552433732313a20617070726f766520746f2063616c6c657200000000000000600082015250565b6000615c6b601983613b55565b9150615c7682615c35565b602082019050919050565b60006020820190508181036000830152615c9a81615c5e565b9050919050565b7f4552433732313a207472616e7366657220746f206e6f6e20455243373231526560008201527f63656976657220696d706c656d656e7465720000000000000000000000000000602082015250565b6000615cfd603283613b55565b9150615d0882615ca1565b604082019050919050565b60006020820190508181036000830152615d2c81615cf0565b9050919050565b7f4e487b7100000000000000000000000000000000000000000000000000000000600052601260045260246000fd5b7f455243373231456e756d657261626c653a20636f6e736563757469766520747260008201527f616e7366657273206e6f7420737570706f727465640000000000000000000000602082015250565b6000615dbe603583613b55565b9150615dc982615d62565b604082019050919050565b60006020820190508181036000830152615ded81615db1565b9050919050565b600081519050919050565b600082825260208201905092915050565b6000615e1b82615df4565b615e258185615dff565b9350615e35818560208601613b66565b615e3e81613b90565b840191505092915050565b6000608082019050615e5e6000830187613c91565b615e6b6020830186613c91565b615e786040830185613cbb565b8181036060830152615e8a8184615e10565b905095945050505050565b600081519050615ea481613abb565b92915050565b600060208284031215615ec057615ebf613a85565b5b6000615ece84828501615e95565b91505092915050565b7f4e487b7100000000000000000000000000000000000000000000000000000000600052603160045260246000fd5b7f4552433732313a206d696e7420746f20746865207a65726f2061646472657373600082015250565b6000615f3c602083613b55565b9150615f4782615f06565b602082019050919050565b60006020820190508181036000830152615f6b81615f2f565b9050919050565b7f4552433732313a20746f6b656e20616c7265616479206d696e74656400000000600082015250565b6000615fa8601c83613b55565b9150615fb382615f72565b602082019050919050565b60006020820190508181036000830152615fd781615f9b565b905091905056fea2646970667358221220ced32f2ca2967b2ab6581df188a70c19cfbef1677c98b5b5957d0fe822798cec64736f6c63430008130033",
  "linkReferences": {},
  "deployedLinkReferences": {}
}