{
  "_format": "hh-sol-artifact-1",
  "contractName": "SourceMinter",
  "sourceName": "contracts/SourceMinter.sol",
  "abi": [
    {
      "inputs": [
        {
          "internalType": "address",
          "name": "router",
          "type": "address"
        },
        {
          "internalType": "address",
          "name": "link",
          "type": "address"
        }
      ],
      "stateMutability": "nonpayable",
      "type": "constructor"
    },
    {
      "inputs": [
        {
          "internalType": "address",
          "name": "owner",
          "type": "address"
        },
        {
          "internalType": "address",
          "name": "target",
          "type": "address"
        },
        {
          "internalType": "uint256",
          "name": "value",
          "type": "uint256"
        }
      ],
      "name": "FailedToWithdrawEth",
      "type": "error"
    },
    {
      "anonymous": false,
      "inputs": [
        {
          "indexed": false,
          "internalType": "bytes32",
          "name": "messageId",
          "type": "bytes32"
        }
      ],
      "name": "MessageSent",
      "type": "event"
    },
    {
      "anonymous": false,
      "inputs": [
        {
          "indexed": true,
          "internalType": "address",
          "name": "from",
          "type": "address"
        },
        {
          "indexed": true,
          "internalType": "address",
          "name": "to",
          "type": "address"
        }
      ],
      "name": "OwnershipTransferRequested",
      "type": "event"
    },
    {
      "anonymous": false,
      "inputs": [
        {
          "indexed": true,
          "internalType": "address",
          "name": "from",
          "type": "address"
        },
        {
          "indexed": true,
          "internalType": "address",
          "name": "to",
          "type": "address"
        }
      ],
      "name": "OwnershipTransferred",
      "type": "event"
    },
    {
      "inputs": [],
      "name": "acceptOwnership",
      "outputs": [],
      "stateMutability": "nonpayable",
      "type": "function"
    },
    {
      "inputs": [
        {
          "internalType": "uint64",
          "name": "destinationChainSelector",
          "type": "uint64"
        },
        {
          "internalType": "address",
          "name": "receiver",
          "type": "address"
        },
        {
          "internalType": "enum SourceMinter.PayFeesIn",
          "name": "payFeesIn",
          "type": "uint8"
        }
      ],
      "name": "createProfileNFT",
      "outputs": [],
      "stateMutability": "nonpayable",
      "type": "function"
    },
    {
      "inputs": [],
      "name": "owner",
      "outputs": [
        {
          "internalType": "address",
          "name": "",
          "type": "address"
        }
      ],
      "stateMutability": "view",
      "type": "function"
    },
    {
      "inputs": [
        {
          "internalType": "address",
          "name": "to",
          "type": "address"
        }
      ],
      "name": "transferOwnership",
      "outputs": [],
      "stateMutability": "nonpayable",
      "type": "function"
    },
    {
      "inputs": [
        {
          "internalType": "address",
          "name": "beneficiary",
          "type": "address"
        }
      ],
      "name": "withdraw",
      "outputs": [],
      "stateMutability": "nonpayable",
      "type": "function"
    },
    {
      "inputs": [
        {
          "internalType": "address",
          "name": "beneficiary",
          "type": "address"
        },
        {
          "internalType": "address",
          "name": "token",
          "type": "address"
        }
      ],
      "name": "withdrawToken",
      "outputs": [],
      "stateMutability": "nonpayable",
      "type": "function"
    },
    {
      "stateMutability": "payable",
      "type": "receive"
    }
  ],
  "bytecode": "0x60c06040523480156200001157600080fd5b50604051620018e7380380620018e78339818101604052810190620000379190620003e7565b338060008073ffffffffffffffffffffffffffffffffffffffff168273ffffffffffffffffffffffffffffffffffffffff1603620000ac576040517f08c379a0000000000000000000000000000000000000000000000000000000008152600401620000a3906200048f565b60405180910390fd5b816000806101000a81548173ffffffffffffffffffffffffffffffffffffffff021916908373ffffffffffffffffffffffffffffffffffffffff160217905550600073ffffffffffffffffffffffffffffffffffffffff168173ffffffffffffffffffffffffffffffffffffffff1614620001335762000132816200024e60201b60201c565b5b5050508173ffffffffffffffffffffffffffffffffffffffff1660808173ffffffffffffffffffffffffffffffffffffffff16815250508073ffffffffffffffffffffffffffffffffffffffff1660a08173ffffffffffffffffffffffffffffffffffffffff168152505060a05173ffffffffffffffffffffffffffffffffffffffff1663095ea7b36080517fffffffffffffffffffffffffffffffffffffffffffffffffffffffffffffffff6040518363ffffffff1660e01b8152600401620001ff929190620004dd565b6020604051808303816000875af11580156200021f573d6000803e3d6000fd5b505050506040513d601f19601f8201168201806040525081019062000245919062000547565b505050620005eb565b3373ffffffffffffffffffffffffffffffffffffffff168173ffffffffffffffffffffffffffffffffffffffff1603620002bf576040517f08c379a0000000000000000000000000000000000000000000000000000000008152600401620002b690620005c9565b60405180910390fd5b80600160006101000a81548173ffffffffffffffffffffffffffffffffffffffff021916908373ffffffffffffffffffffffffffffffffffffffff1602179055508073ffffffffffffffffffffffffffffffffffffffff1660008054906101000a900473ffffffffffffffffffffffffffffffffffffffff1673ffffffffffffffffffffffffffffffffffffffff167fed8889f560326eb138920d842192f0eb3dd22b4f139c87a2c57538e05bae127860405160405180910390a350565b600080fd5b600073ffffffffffffffffffffffffffffffffffffffff82169050919050565b6000620003af8262000382565b9050919050565b620003c181620003a2565b8114620003cd57600080fd5b50565b600081519050620003e181620003b6565b92915050565b600080604083850312156200040157620004006200037d565b5b60006200041185828601620003d0565b92505060206200042485828601620003d0565b9150509250929050565b600082825260208201905092915050565b7f43616e6e6f7420736574206f776e657220746f207a65726f0000000000000000600082015250565b6000620004776018836200042e565b915062000484826200043f565b602082019050919050565b60006020820190508181036000830152620004aa8162000468565b9050919050565b620004bc81620003a2565b82525050565b6000819050919050565b620004d781620004c2565b82525050565b6000604082019050620004f46000830185620004b1565b620005036020830184620004cc565b9392505050565b60008115159050919050565b62000521816200050a565b81146200052d57600080fd5b50565b600081519050620005418162000516565b92915050565b60006020828403121562000560576200055f6200037d565b5b6000620005708482850162000530565b91505092915050565b7f43616e6e6f74207472616e7366657220746f2073656c66000000000000000000600082015250565b6000620005b16017836200042e565b9150620005be8262000579565b602082019050919050565b60006020820190508181036000830152620005e481620005a2565b9050919050565b60805160a0516112c86200061f600039600061029e0152600081816102f2015281816103bd015261046201526112c86000f3fe6080604052600436106100595760003560e01c806312c6fc31146100655780633aeac4e11461008e57806351cff8d9146100b757806379ba5097146100e05780638da5cb5b146100f7578063f2fde38b1461012257610060565b3661006057005b600080fd5b34801561007157600080fd5b5061008c60048036038101906100879190610b95565b61014b565b005b34801561009a57600080fd5b506100b560048036038101906100b09190610be8565b610541565b005b3480156100c357600080fd5b506100de60048036038101906100d99190610c28565b61064b565b005b3480156100ec57600080fd5b506100f561070f565b005b34801561010357600080fd5b5061010c6108a4565b6040516101199190610c64565b60405180910390f35b34801561012e57600080fd5b5061014960048036038101906101449190610c28565b6108cd565b005b60006040518060a00160405280846040516020016101699190610c64565b60405160208183030381529060405281526020013360405160240161018e9190610c64565b6040516020818303038152906040527f3b9fcc30000000000000000000000000000000000000000000000000000000007bffffffffffffffffffffffffffffffffffffffffffffffffffffffff19166020820180517bffffffffffffffffffffffffffffffffffffffffffffffffffffffff83818316178352505050508152602001600067ffffffffffffffff81111561022b5761022a610c7f565b5b60405190808252806020026020018201604052801561026457816020015b610251610a9d565b8152602001906001900390816102495790505b50815260200160018081111561027d5761027c610cae565b5b8460018111156102905761028f610cae565b5b1461029c5760006102be565b7f00000000000000000000000000000000000000000000000000000000000000005b73ffffffffffffffffffffffffffffffffffffffff16815260200160405180602001604052806000815250815250905060007f000000000000000000000000000000000000000000000000000000000000000073ffffffffffffffffffffffffffffffffffffffff166320487ded86846040518363ffffffff1660e01b815260040161034b929190610f0d565b602060405180830381865afa158015610368573d6000803e3d6000fd5b505050506040513d601f19601f8201168201806040525081019061038c9190610f69565b905060006001808111156103a3576103a2610cae565b5b8460018111156103b6576103b5610cae565b5b03610460577f000000000000000000000000000000000000000000000000000000000000000073ffffffffffffffffffffffffffffffffffffffff166396f4e9f987856040518363ffffffff1660e01b8152600401610416929190610f0d565b6020604051808303816000875af1158015610435573d6000803e3d6000fd5b505050506040513d601f19601f820116820180604052508101906104599190610fcc565b9050610502565b7f000000000000000000000000000000000000000000000000000000000000000073ffffffffffffffffffffffffffffffffffffffff166396f4e9f98388866040518463ffffffff1660e01b81526004016104bc929190610f0d565b60206040518083038185885af11580156104da573d6000803e3d6000fd5b50505050506040513d601f19601f820116820180604052508101906104ff9190610fcc565b90505b7f54791b38f3859327992a1ca0590ad3c0f08feba98d1a4f56ab0dca74d203392a816040516105319190611008565b60405180910390a1505050505050565b6105496108e1565b60008173ffffffffffffffffffffffffffffffffffffffff166370a08231306040518263ffffffff1660e01b81526004016105849190610c64565b602060405180830381865afa1580156105a1573d6000803e3d6000fd5b505050506040513d601f19601f820116820180604052508101906105c59190610f69565b90508173ffffffffffffffffffffffffffffffffffffffff1663a9059cbb84836040518363ffffffff1660e01b8152600401610602929190611032565b6020604051808303816000875af1158015610621573d6000803e3d6000fd5b505050506040513d601f19601f820116820180604052508101906106459190611093565b50505050565b6106536108e1565b600047905060008273ffffffffffffffffffffffffffffffffffffffff168260405161067e906110f1565b60006040518083038185875af1925050503d80600081146106bb576040519150601f19603f3d011682016040523d82523d6000602084013e6106c0565b606091505b505090508061070a573383836040517f9d11f56300000000000000000000000000000000000000000000000000000000815260040161070193929190611106565b60405180910390fd5b505050565b600160009054906101000a900473ffffffffffffffffffffffffffffffffffffffff1673ffffffffffffffffffffffffffffffffffffffff163373ffffffffffffffffffffffffffffffffffffffff161461079f576040517f08c379a00000000000000000000000000000000000000000000000000000000081526004016107969061119a565b60405180910390fd5b60008060009054906101000a900473ffffffffffffffffffffffffffffffffffffffff169050336000806101000a81548173ffffffffffffffffffffffffffffffffffffffff021916908373ffffffffffffffffffffffffffffffffffffffff1602179055506000600160006101000a81548173ffffffffffffffffffffffffffffffffffffffff021916908373ffffffffffffffffffffffffffffffffffffffff1602179055503373ffffffffffffffffffffffffffffffffffffffff168173ffffffffffffffffffffffffffffffffffffffff167f8be0079c531659141344cd1fd0a4f28419497f9722a3daafe3b4186f6b6457e060405160405180910390a350565b60008060009054906101000a900473ffffffffffffffffffffffffffffffffffffffff16905090565b6108d56108e1565b6108de81610971565b50565b60008054906101000a900473ffffffffffffffffffffffffffffffffffffffff1673ffffffffffffffffffffffffffffffffffffffff163373ffffffffffffffffffffffffffffffffffffffff161461096f576040517f08c379a000000000000000000000000000000000000000000000000000000000815260040161096690611206565b60405180910390fd5b565b3373ffffffffffffffffffffffffffffffffffffffff168173ffffffffffffffffffffffffffffffffffffffff16036109df576040517f08c379a00000000000000000000000000000000000000000000000000000000081526004016109d690611272565b60405180910390fd5b80600160006101000a81548173ffffffffffffffffffffffffffffffffffffffff021916908373ffffffffffffffffffffffffffffffffffffffff1602179055508073ffffffffffffffffffffffffffffffffffffffff1660008054906101000a900473ffffffffffffffffffffffffffffffffffffffff1673ffffffffffffffffffffffffffffffffffffffff167fed8889f560326eb138920d842192f0eb3dd22b4f139c87a2c57538e05bae127860405160405180910390a350565b6040518060400160405280600073ffffffffffffffffffffffffffffffffffffffff168152602001600081525090565b600080fd5b600067ffffffffffffffff82169050919050565b610aef81610ad2565b8114610afa57600080fd5b50565b600081359050610b0c81610ae6565b92915050565b600073ffffffffffffffffffffffffffffffffffffffff82169050919050565b6000610b3d82610b12565b9050919050565b610b4d81610b32565b8114610b5857600080fd5b50565b600081359050610b6a81610b44565b92915050565b60028110610b7d57600080fd5b50565b600081359050610b8f81610b70565b92915050565b600080600060608486031215610bae57610bad610acd565b5b6000610bbc86828701610afd565b9350506020610bcd86828701610b5b565b9250506040610bde86828701610b80565b9150509250925092565b60008060408385031215610bff57610bfe610acd565b5b6000610c0d85828601610b5b565b9250506020610c1e85828601610b5b565b9150509250929050565b600060208284031215610c3e57610c3d610acd565b5b6000610c4c84828501610b5b565b91505092915050565b610c5e81610b32565b82525050565b6000602082019050610c796000830184610c55565b92915050565b7f4e487b7100000000000000000000000000000000000000000000000000000000600052604160045260246000fd5b7f4e487b7100000000000000000000000000000000000000000000000000000000600052602160045260246000fd5b610ce681610ad2565b82525050565b600081519050919050565b600082825260208201905092915050565b60005b83811015610d26578082015181840152602081019050610d0b565b60008484015250505050565b6000601f19601f8301169050919050565b6000610d4e82610cec565b610d588185610cf7565b9350610d68818560208601610d08565b610d7181610d32565b840191505092915050565b600081519050919050565b600082825260208201905092915050565b6000819050602082019050919050565b610db181610b32565b82525050565b6000819050919050565b610dca81610db7565b82525050565b604082016000820151610de66000850182610da8565b506020820151610df96020850182610dc1565b50505050565b6000610e0b8383610dd0565b60408301905092915050565b6000602082019050919050565b6000610e2f82610d7c565b610e398185610d87565b9350610e4483610d98565b8060005b83811015610e75578151610e5c8882610dff565b9750610e6783610e17565b925050600181019050610e48565b5085935050505092915050565b600060a0830160008301518482036000860152610e9f8282610d43565b91505060208301518482036020860152610eb98282610d43565b91505060408301518482036040860152610ed38282610e24565b9150506060830151610ee86060860182610da8565b5060808301518482036080860152610f008282610d43565b9150508091505092915050565b6000604082019050610f226000830185610cdd565b8181036020830152610f348184610e82565b90509392505050565b610f4681610db7565b8114610f5157600080fd5b50565b600081519050610f6381610f3d565b92915050565b600060208284031215610f7f57610f7e610acd565b5b6000610f8d84828501610f54565b91505092915050565b6000819050919050565b610fa981610f96565b8114610fb457600080fd5b50565b600081519050610fc681610fa0565b92915050565b600060208284031215610fe257610fe1610acd565b5b6000610ff084828501610fb7565b91505092915050565b61100281610f96565b82525050565b600060208201905061101d6000830184610ff9565b92915050565b61102c81610db7565b82525050565b60006040820190506110476000830185610c55565b6110546020830184611023565b9392505050565b60008115159050919050565b6110708161105b565b811461107b57600080fd5b50565b60008151905061108d81611067565b92915050565b6000602082840312156110a9576110a8610acd565b5b60006110b78482850161107e565b91505092915050565b600081905092915050565b50565b60006110db6000836110c0565b91506110e6826110cb565b600082019050919050565b60006110fc826110ce565b9150819050919050565b600060608201905061111b6000830186610c55565b6111286020830185610c55565b6111356040830184611023565b949350505050565b600082825260208201905092915050565b7f4d7573742062652070726f706f736564206f776e657200000000000000000000600082015250565b600061118460168361113d565b915061118f8261114e565b602082019050919050565b600060208201905081810360008301526111b381611177565b9050919050565b7f4f6e6c792063616c6c61626c65206279206f776e657200000000000000000000600082015250565b60006111f060168361113d565b91506111fb826111ba565b602082019050919050565b6000602082019050818103600083015261121f816111e3565b9050919050565b7f43616e6e6f74207472616e7366657220746f2073656c66000000000000000000600082015250565b600061125c60178361113d565b915061126782611226565b602082019050919050565b6000602082019050818103600083015261128b8161124f565b905091905056fea264697066735822122064e65f1b1c200ea9d7023b350deba7652ad4f2525f89489d361dd10427a27b2964736f6c63430008130033",
  "linkReferences": {},
  "deployedLinkReferences": {}
}